
factorial.riscv:     file format elf32-littleriscv


Disassembly of section .text:

00000100 <user_trap_entry>:
     100:	2000006f          	j	300 <trap_entry>
     104:	00000013          	nop
     108:	00000013          	nop
     10c:	00000013          	nop
     110:	00000013          	nop
     114:	00000013          	nop
     118:	00000013          	nop
     11c:	00000013          	nop
     120:	00000013          	nop
     124:	00000013          	nop
     128:	00000013          	nop
     12c:	00000013          	nop
     130:	00000013          	nop
     134:	00000013          	nop
     138:	00000013          	nop
     13c:	00000013          	nop

00000140 <supervisor_trap_entry>:
     140:	0000006f          	j	140 <supervisor_trap_entry>
     144:	00000013          	nop
     148:	00000013          	nop
     14c:	00000013          	nop
     150:	00000013          	nop
     154:	00000013          	nop
     158:	00000013          	nop
     15c:	00000013          	nop
     160:	00000013          	nop
     164:	00000013          	nop
     168:	00000013          	nop
     16c:	00000013          	nop
     170:	00000013          	nop
     174:	00000013          	nop
     178:	00000013          	nop
     17c:	00000013          	nop

00000180 <hypervisor_trap_entry>:
     180:	0000006f          	j	180 <hypervisor_trap_entry>
     184:	00000013          	nop
     188:	00000013          	nop
     18c:	00000013          	nop
     190:	00000013          	nop
     194:	00000013          	nop
     198:	00000013          	nop
     19c:	00000013          	nop
     1a0:	00000013          	nop
     1a4:	00000013          	nop
     1a8:	00000013          	nop
     1ac:	00000013          	nop
     1b0:	00000013          	nop
     1b4:	00000013          	nop
     1b8:	00000013          	nop
     1bc:	00000013          	nop

000001c0 <machine_trap_entry>:
     1c0:	1400006f          	j	300 <trap_entry>
     1c4:	00000013          	nop
     1c8:	00000013          	nop
     1cc:	00000013          	nop
     1d0:	00000013          	nop
     1d4:	00000013          	nop
     1d8:	00000013          	nop
     1dc:	00000013          	nop
     1e0:	00000013          	nop
     1e4:	00000013          	nop
     1e8:	00000013          	nop
     1ec:	00000013          	nop
     1f0:	00000013          	nop
     1f4:	00000013          	nop
     1f8:	00000013          	nop
     1fc:	00000013          	nop

00000200 <_start>:
     200:	00000093          	li	ra,0
     204:	00000113          	li	sp,0
     208:	00000193          	li	gp,0
     20c:	00000213          	li	tp,0
     210:	00000293          	li	t0,0
     214:	00000313          	li	t1,0
     218:	00000393          	li	t2,0
     21c:	00000413          	li	s0,0
     220:	00000493          	li	s1,0
     224:	00000513          	li	a0,0
     228:	00000593          	li	a1,0
     22c:	00000613          	li	a2,0
     230:	00000693          	li	a3,0
     234:	00000713          	li	a4,0
     238:	00000793          	li	a5,0
     23c:	00000813          	li	a6,0
     240:	00000893          	li	a7,0
     244:	00000913          	li	s2,0
     248:	00000993          	li	s3,0
     24c:	00000a13          	li	s4,0
     250:	00000a93          	li	s5,0
     254:	00000b13          	li	s6,0
     258:	00000b93          	li	s7,0
     25c:	00000c13          	li	s8,0
     260:	00000c93          	li	s9,0
     264:	00000d13          	li	s10,0
     268:	00000d93          	li	s11,0
     26c:	00000e13          	li	t3,0
     270:	00000e93          	li	t4,0
     274:	00000f13          	li	t5,0
     278:	00000f93          	li	t6,0
     27c:	03000293          	li	t0,48
     280:	3002b073          	csrc	mstatus,t0
     284:	00800293          	li	t0,8
     288:	3002a073          	csrs	mstatus,t0
     28c:	000032b7          	lui	t0,0x3
     290:	3002a073          	csrs	mstatus,t0
     294:	0000c2b7          	lui	t0,0xc
     298:	3002a073          	csrs	mstatus,t0
     29c:	300022f3          	csrr	t0,mstatus
     2a0:	0000c337          	lui	t1,0xc
     2a4:	0062f333          	and	t1,t0,t1
     2a8:	00002397          	auipc	t2,0x2
     2ac:	5863a423          	sw	t1,1416(t2) # 2830 <have_vec>
     2b0:	00003337          	lui	t1,0x3
     2b4:	0062f333          	and	t1,t0,t1
     2b8:	00030263          	beqz	t1,2bc <_start+0xbc>
     2bc:	00003197          	auipc	gp,0x3
     2c0:	d7418193          	addi	gp,gp,-652 # 3030 <_gp>
     2c4:	00002217          	auipc	tp,0x2
     2c8:	67b20213          	addi	tp,tp,1659 # 293f <_end+0x3f>
     2cc:	fc027213          	andi	tp,tp,-64
     2d0:	f1002573          	csrr	a0,mhartid
     2d4:	00100593          	li	a1,1
     2d8:	00b57063          	bleu	a1,a0,2d8 <_start+0xd8>
     2dc:	01151613          	slli	a2,a0,0x11
     2e0:	00c20233          	add	tp,tp,a2
     2e4:	00150113          	addi	sp,a0,1
     2e8:	01111113          	slli	sp,sp,0x11
     2ec:	00410133          	add	sp,sp,tp
     2f0:	00001297          	auipc	t0,0x1
     2f4:	b3c28293          	addi	t0,t0,-1220 # e2c <_init>
     2f8:	34129073          	csrw	mepc,t0
     2fc:	10000073          	eret

00000300 <trap_entry>:
     300:	ef010113          	addi	sp,sp,-272
     304:	00112223          	sw	ra,4(sp)
     308:	00212423          	sw	sp,8(sp)
     30c:	00312623          	sw	gp,12(sp)
     310:	00412823          	sw	tp,16(sp)
     314:	00512a23          	sw	t0,20(sp)
     318:	00612c23          	sw	t1,24(sp)
     31c:	00712e23          	sw	t2,28(sp)
     320:	02812023          	sw	s0,32(sp)
     324:	02912223          	sw	s1,36(sp)
     328:	02a12423          	sw	a0,40(sp)
     32c:	02b12623          	sw	a1,44(sp)
     330:	02c12823          	sw	a2,48(sp)
     334:	02d12a23          	sw	a3,52(sp)
     338:	02e12c23          	sw	a4,56(sp)
     33c:	02f12e23          	sw	a5,60(sp)
     340:	05012023          	sw	a6,64(sp)
     344:	05112223          	sw	a7,68(sp)
     348:	05212423          	sw	s2,72(sp)
     34c:	05312623          	sw	s3,76(sp)
     350:	05412823          	sw	s4,80(sp)
     354:	05512a23          	sw	s5,84(sp)
     358:	05612c23          	sw	s6,88(sp)
     35c:	05712e23          	sw	s7,92(sp)
     360:	07812023          	sw	s8,96(sp)
     364:	07912223          	sw	s9,100(sp)
     368:	07a12423          	sw	s10,104(sp)
     36c:	07b12623          	sw	s11,108(sp)
     370:	07c12823          	sw	t3,112(sp)
     374:	07d12a23          	sw	t4,116(sp)
     378:	07e12c23          	sw	t5,120(sp)
     37c:	07f12e23          	sw	t6,124(sp)
     380:	34202573          	csrr	a0,mcause
     384:	341025f3          	csrr	a1,mepc
     388:	00010613          	mv	a2,sp
     38c:	5b4000ef          	jal	940 <handle_trap>
     390:	34151073          	csrw	mepc,a0
     394:	00412083          	lw	ra,4(sp)
     398:	00812103          	lw	sp,8(sp)
     39c:	00c12183          	lw	gp,12(sp)
     3a0:	01012203          	lw	tp,16(sp)
     3a4:	01412283          	lw	t0,20(sp)
     3a8:	01812303          	lw	t1,24(sp)
     3ac:	01c12383          	lw	t2,28(sp)
     3b0:	02012403          	lw	s0,32(sp)
     3b4:	02412483          	lw	s1,36(sp)
     3b8:	02812503          	lw	a0,40(sp)
     3bc:	02c12583          	lw	a1,44(sp)
     3c0:	03012603          	lw	a2,48(sp)
     3c4:	03412683          	lw	a3,52(sp)
     3c8:	03812703          	lw	a4,56(sp)
     3cc:	03c12783          	lw	a5,60(sp)
     3d0:	04012803          	lw	a6,64(sp)
     3d4:	04412883          	lw	a7,68(sp)
     3d8:	04812903          	lw	s2,72(sp)
     3dc:	04c12983          	lw	s3,76(sp)
     3e0:	05012a03          	lw	s4,80(sp)
     3e4:	05412a83          	lw	s5,84(sp)
     3e8:	05812b03          	lw	s6,88(sp)
     3ec:	05c12b83          	lw	s7,92(sp)
     3f0:	06012c03          	lw	s8,96(sp)
     3f4:	06412c83          	lw	s9,100(sp)
     3f8:	06812d03          	lw	s10,104(sp)
     3fc:	06c12d83          	lw	s11,108(sp)
     400:	07012e03          	lw	t3,112(sp)
     404:	07412e83          	lw	t4,116(sp)
     408:	07812f03          	lw	t5,120(sp)
     40c:	07c12f83          	lw	t6,124(sp)
     410:	11010113          	addi	sp,sp,272
     414:	10000073          	eret

00000418 <putchar>:
     418:	04022803          	lw	a6,64(tp) # 40 <buflen.2846>
     41c:	00020793          	mv	a5,tp
     420:	010787b3          	add	a5,a5,a6
     424:	00180613          	addi	a2,a6,1
     428:	00a78023          	sb	a0,0(a5)
     42c:	04c22023          	sw	a2,64(tp) # 40 <buflen.2846>
     430:	00a00793          	li	a5,10
     434:	00f50a63          	beq	a0,a5,448 <putchar+0x30>
     438:	04000793          	li	a5,64
     43c:	00f60663          	beq	a2,a5,448 <putchar+0x30>
     440:	00000513          	li	a0,0
     444:	00008067          	ret
     448:	04000893          	li	a7,64
     44c:	00100513          	li	a0,1
     450:	00020593          	mv	a1,tp
     454:	00000073          	ecall
     458:	04022023          	sw	zero,64(tp) # 40 <buflen.2846>
     45c:	00000513          	li	a0,0
     460:	00008067          	ret

00000464 <sprintf_putch.2960>:
     464:	0005a783          	lw	a5,0(a1)
     468:	00a78023          	sb	a0,0(a5)
     46c:	0005a783          	lw	a5,0(a1)
     470:	00178793          	addi	a5,a5,1
     474:	00f5a023          	sw	a5,0(a1)
     478:	00008067          	ret

0000047c <vprintfmt>:
     47c:	eb010113          	addi	sp,sp,-336
     480:	13812423          	sw	s8,296(sp)
     484:	00002c37          	lui	s8,0x2
     488:	060c0793          	addi	a5,s8,96 # 2060 <main+0x1a4>
     48c:	13a12023          	sw	s10,288(sp)
     490:	40000d37          	lui	s10,0x40000
     494:	00f12423          	sw	a5,8(sp)
     498:	fffd0793          	addi	a5,s10,-1 # 3fffffff <_gp+0x3fffcfcf>
     49c:	14912223          	sw	s1,324(sp)
     4a0:	15212023          	sw	s2,320(sp)
     4a4:	13312e23          	sw	s3,316(sp)
     4a8:	13512a23          	sw	s5,308(sp)
     4ac:	14112623          	sw	ra,332(sp)
     4b0:	14812423          	sw	s0,328(sp)
     4b4:	13412c23          	sw	s4,312(sp)
     4b8:	13612823          	sw	s6,304(sp)
     4bc:	13712623          	sw	s7,300(sp)
     4c0:	13912223          	sw	s9,292(sp)
     4c4:	11b12e23          	sw	s11,284(sp)
     4c8:	00050993          	mv	s3,a0
     4cc:	00058913          	mv	s2,a1
     4d0:	00060493          	mv	s1,a2
     4d4:	00d12223          	sw	a3,4(sp)
     4d8:	02500a93          	li	s5,37
     4dc:	00f12623          	sw	a5,12(sp)
     4e0:	0140006f          	j	4f4 <vprintfmt+0x78>
     4e4:	06050263          	beqz	a0,548 <vprintfmt+0xcc>
     4e8:	00148493          	addi	s1,s1,1
     4ec:	00090593          	mv	a1,s2
     4f0:	000980e7          	jalr	s3
     4f4:	0004c503          	lbu	a0,0(s1)
     4f8:	ff5516e3          	bne	a0,s5,4e4 <vprintfmt+0x68>
     4fc:	0014c503          	lbu	a0,1(s1)
     500:	00148a13          	addi	s4,s1,1
     504:	fff00413          	li	s0,-1
     508:	02000793          	li	a5,32
     50c:	000a0713          	mv	a4,s4
     510:	00f12023          	sw	a5,0(sp)
     514:	00040b13          	mv	s6,s0
     518:	00000613          	li	a2,0
     51c:	00900593          	li	a1,9
     520:	fdd50793          	addi	a5,a0,-35
     524:	0ff7f793          	andi	a5,a5,255
     528:	05500693          	li	a3,85
     52c:	00170493          	addi	s1,a4,1
     530:	38f6e263          	bltu	a3,a5,8b4 <vprintfmt+0x438>
     534:	00812683          	lw	a3,8(sp)
     538:	00279793          	slli	a5,a5,0x2
     53c:	00d787b3          	add	a5,a5,a3
     540:	0007a783          	lw	a5,0(a5)
     544:	00078067          	jr	a5
     548:	14c12083          	lw	ra,332(sp)
     54c:	14812403          	lw	s0,328(sp)
     550:	14412483          	lw	s1,324(sp)
     554:	14012903          	lw	s2,320(sp)
     558:	13c12983          	lw	s3,316(sp)
     55c:	13812a03          	lw	s4,312(sp)
     560:	13412a83          	lw	s5,308(sp)
     564:	13012b03          	lw	s6,304(sp)
     568:	12c12b83          	lw	s7,300(sp)
     56c:	12812c03          	lw	s8,296(sp)
     570:	12412c83          	lw	s9,292(sp)
     574:	12012d03          	lw	s10,288(sp)
     578:	11c12d83          	lw	s11,284(sp)
     57c:	15010113          	addi	sp,sp,336
     580:	00008067          	ret
     584:	000b5463          	bgez	s6,58c <vprintfmt+0x110>
     588:	00000b13          	li	s6,0
     58c:	00174503          	lbu	a0,1(a4)
     590:	00048713          	mv	a4,s1
     594:	f8dff06f          	j	520 <vprintfmt+0xa4>
     598:	00800413          	li	s0,8
     59c:	00000a13          	li	s4,0
     5a0:	00100793          	li	a5,1
     5a4:	28c7d663          	ble	a2,a5,830 <vprintfmt+0x3b4>
     5a8:	00412783          	lw	a5,4(sp)
     5ac:	00778793          	addi	a5,a5,7
     5b0:	ff87f793          	andi	a5,a5,-8
     5b4:	0007ac83          	lw	s9,0(a5)
     5b8:	0047ab83          	lw	s7,4(a5)
     5bc:	00878713          	addi	a4,a5,8
     5c0:	00e12223          	sw	a4,4(sp)
     5c4:	00040613          	mv	a2,s0
     5c8:	00000693          	li	a3,0
     5cc:	000c8513          	mv	a0,s9
     5d0:	000b8593          	mv	a1,s7
     5d4:	250010ef          	jal	1824 <__umoddi3>
     5d8:	00a12823          	sw	a0,16(sp)
     5dc:	337a0c63          	beq	s4,s7,914 <vprintfmt+0x498>
     5e0:	01410d93          	addi	s11,sp,20
     5e4:	00100d13          	li	s10,1
     5e8:	00040613          	mv	a2,s0
     5ec:	00000693          	li	a3,0
     5f0:	000c8513          	mv	a0,s9
     5f4:	000b8593          	mv	a1,s7
     5f8:	409000ef          	jal	1200 <__udivdi3>
     5fc:	00040613          	mv	a2,s0
     600:	00000693          	li	a3,0
     604:	00050c93          	mv	s9,a0
     608:	00058b93          	mv	s7,a1
     60c:	218010ef          	jal	1824 <__umoddi3>
     610:	00ada023          	sw	a0,0(s11)
     614:	001d0c13          	addi	s8,s10,1
     618:	004d8d93          	addi	s11,s11,4
     61c:	017a0663          	beq	s4,s7,628 <vprintfmt+0x1ac>
     620:	000c0d13          	mv	s10,s8
     624:	fc5ff06f          	j	5e8 <vprintfmt+0x16c>
     628:	fe8cfce3          	bleu	s0,s9,620 <vprintfmt+0x1a4>
     62c:	fffb0413          	addi	s0,s6,-1
     630:	000d0a13          	mv	s4,s10
     634:	036c5263          	ble	s6,s8,658 <vprintfmt+0x1dc>
     638:	00012503          	lw	a0,0(sp)
     63c:	00090593          	mv	a1,s2
     640:	fff40413          	addi	s0,s0,-1
     644:	000980e7          	jalr	s3
     648:	00140793          	addi	a5,s0,1
     64c:	fefc46e3          	blt	s8,a5,638 <vprintfmt+0x1bc>
     650:	000a0d13          	mv	s10,s4
     654:	eb8050e3          	blez	s8,4f4 <vprintfmt+0x78>
     658:	002d1793          	slli	a5,s10,0x2
     65c:	11010713          	addi	a4,sp,272
     660:	00f707b3          	add	a5,a4,a5
     664:	f007a503          	lw	a0,-256(a5)
     668:	00c12783          	lw	a5,12(sp)
     66c:	000d0413          	mv	s0,s10
     670:	00fd0a33          	add	s4,s10,a5
     674:	002a1a13          	slli	s4,s4,0x2
     678:	01010793          	addi	a5,sp,16
     67c:	01478a33          	add	s4,a5,s4
     680:	0100006f          	j	690 <vprintfmt+0x214>
     684:	000a2503          	lw	a0,0(s4)
     688:	fff40413          	addi	s0,s0,-1
     68c:	ffca0a13          	addi	s4,s4,-4
     690:	00a53793          	sltiu	a5,a0,10
     694:	40f007b3          	neg	a5,a5
     698:	fd97f793          	andi	a5,a5,-39
     69c:	05778793          	addi	a5,a5,87
     6a0:	00090593          	mv	a1,s2
     6a4:	00a78533          	add	a0,a5,a0
     6a8:	000980e7          	jalr	s3
     6ac:	fc804ce3          	bgtz	s0,684 <vprintfmt+0x208>
     6b0:	e45ff06f          	j	4f4 <vprintfmt+0x78>
     6b4:	00412783          	lw	a5,4(sp)
     6b8:	00174503          	lbu	a0,1(a4)
     6bc:	00048713          	mv	a4,s1
     6c0:	0007a403          	lw	s0,0(a5)
     6c4:	00478793          	addi	a5,a5,4
     6c8:	00f12223          	sw	a5,4(sp)
     6cc:	e40b5ae3          	bgez	s6,520 <vprintfmt+0xa4>
     6d0:	00040b13          	mv	s6,s0
     6d4:	fff00413          	li	s0,-1
     6d8:	e49ff06f          	j	520 <vprintfmt+0xa4>
     6dc:	03000793          	li	a5,48
     6e0:	00174503          	lbu	a0,1(a4)
     6e4:	00f12023          	sw	a5,0(sp)
     6e8:	00048713          	mv	a4,s1
     6ec:	e35ff06f          	j	520 <vprintfmt+0xa4>
     6f0:	02d00793          	li	a5,45
     6f4:	00174503          	lbu	a0,1(a4)
     6f8:	00f12023          	sw	a5,0(sp)
     6fc:	00048713          	mv	a4,s1
     700:	e21ff06f          	j	520 <vprintfmt+0xa4>
     704:	00174683          	lbu	a3,1(a4)
     708:	fd050413          	addi	s0,a0,-48
     70c:	00048713          	mv	a4,s1
     710:	fd068793          	addi	a5,a3,-48
     714:	1ef5ea63          	bltu	a1,a5,908 <vprintfmt+0x48c>
     718:	00141793          	slli	a5,s0,0x1
     71c:	00341413          	slli	s0,s0,0x3
     720:	00878433          	add	s0,a5,s0
     724:	00170713          	addi	a4,a4,1
     728:	00d40433          	add	s0,s0,a3
     72c:	00074683          	lbu	a3,0(a4)
     730:	fd040413          	addi	s0,s0,-48
     734:	fd068793          	addi	a5,a3,-48
     738:	fef5f0e3          	bleu	a5,a1,718 <vprintfmt+0x29c>
     73c:	00068513          	mv	a0,a3
     740:	f8dff06f          	j	6cc <vprintfmt+0x250>
     744:	00412783          	lw	a5,4(sp)
     748:	00090593          	mv	a1,s2
     74c:	0007a503          	lw	a0,0(a5)
     750:	00478c93          	addi	s9,a5,4
     754:	000980e7          	jalr	s3
     758:	01912223          	sw	s9,4(sp)
     75c:	d99ff06f          	j	4f4 <vprintfmt+0x78>
     760:	00412783          	lw	a5,4(sp)
     764:	0007ac03          	lw	s8,0(a5)
     768:	00478c93          	addi	s9,a5,4
     76c:	160c0c63          	beqz	s8,8e4 <vprintfmt+0x468>
     770:	03605c63          	blez	s6,7a8 <vprintfmt+0x32c>
     774:	00012783          	lw	a5,0(sp)
     778:	02d00713          	li	a4,45
     77c:	14e78c63          	beq	a5,a4,8d4 <vprintfmt+0x458>
     780:	00040593          	mv	a1,s0
     784:	000c0513          	mv	a0,s8
     788:	235000ef          	jal	11bc <strnlen>
     78c:	40ab0b33          	sub	s6,s6,a0
     790:	01605c63          	blez	s6,7a8 <vprintfmt+0x32c>
     794:	00012503          	lw	a0,0(sp)
     798:	fffb0b13          	addi	s6,s6,-1
     79c:	00090593          	mv	a1,s2
     7a0:	000980e7          	jalr	s3
     7a4:	fe0b18e3          	bnez	s6,794 <vprintfmt+0x318>
     7a8:	000c4503          	lbu	a0,0(s8)
     7ac:	04050263          	beqz	a0,7f0 <vprintfmt+0x374>
     7b0:	fff00a13          	li	s4,-1
     7b4:	00044663          	bltz	s0,7c0 <vprintfmt+0x344>
     7b8:	fff40413          	addi	s0,s0,-1
     7bc:	01440e63          	beq	s0,s4,7d8 <vprintfmt+0x35c>
     7c0:	00090593          	mv	a1,s2
     7c4:	001c0c13          	addi	s8,s8,1
     7c8:	000980e7          	jalr	s3
     7cc:	000c4503          	lbu	a0,0(s8)
     7d0:	fffb0b13          	addi	s6,s6,-1
     7d4:	fe0510e3          	bnez	a0,7b4 <vprintfmt+0x338>
     7d8:	01605c63          	blez	s6,7f0 <vprintfmt+0x374>
     7dc:	fffb0b13          	addi	s6,s6,-1
     7e0:	00090593          	mv	a1,s2
     7e4:	02000513          	li	a0,32
     7e8:	000980e7          	jalr	s3
     7ec:	fe0b18e3          	bnez	s6,7dc <vprintfmt+0x360>
     7f0:	01912223          	sw	s9,4(sp)
     7f4:	d01ff06f          	j	4f4 <vprintfmt+0x78>
     7f8:	00a00413          	li	s0,10
     7fc:	00000a13          	li	s4,0
     800:	da1ff06f          	j	5a0 <vprintfmt+0x124>
     804:	01000413          	li	s0,16
     808:	00000a13          	li	s4,0
     80c:	d95ff06f          	j	5a0 <vprintfmt+0x124>
     810:	03000513          	li	a0,48
     814:	00090593          	mv	a1,s2
     818:	000980e7          	jalr	s3
     81c:	00090593          	mv	a1,s2
     820:	07800513          	li	a0,120
     824:	000980e7          	jalr	s3
     828:	01000413          	li	s0,16
     82c:	00000a13          	li	s4,0
     830:	00412783          	lw	a5,4(sp)
     834:	00000b93          	li	s7,0
     838:	0007ac83          	lw	s9,0(a5)
     83c:	00478793          	addi	a5,a5,4
     840:	00f12223          	sw	a5,4(sp)
     844:	d81ff06f          	j	5c4 <vprintfmt+0x148>
     848:	00100793          	li	a5,1
     84c:	0ac7d263          	ble	a2,a5,8f0 <vprintfmt+0x474>
     850:	00412783          	lw	a5,4(sp)
     854:	00778793          	addi	a5,a5,7
     858:	ff87f793          	andi	a5,a5,-8
     85c:	00878713          	addi	a4,a5,8
     860:	0007a803          	lw	a6,0(a5)
     864:	0047a783          	lw	a5,4(a5)
     868:	00e12223          	sw	a4,4(sp)
     86c:	00078b93          	mv	s7,a5
     870:	00080c93          	mv	s9,a6
     874:	0407da63          	bgez	a5,8c8 <vprintfmt+0x44c>
     878:	00090593          	mv	a1,s2
     87c:	02d00513          	li	a0,45
     880:	000980e7          	jalr	s3
     884:	41900833          	neg	a6,s9
     888:	01003733          	snez	a4,a6
     88c:	417007b3          	neg	a5,s7
     890:	00080c93          	mv	s9,a6
     894:	40e78bb3          	sub	s7,a5,a4
     898:	00a00413          	li	s0,10
     89c:	00000a13          	li	s4,0
     8a0:	d25ff06f          	j	5c4 <vprintfmt+0x148>
     8a4:	00174503          	lbu	a0,1(a4)
     8a8:	00160613          	addi	a2,a2,1
     8ac:	00048713          	mv	a4,s1
     8b0:	c71ff06f          	j	520 <vprintfmt+0xa4>
     8b4:	00090593          	mv	a1,s2
     8b8:	02500513          	li	a0,37
     8bc:	000980e7          	jalr	s3
     8c0:	000a0493          	mv	s1,s4
     8c4:	c31ff06f          	j	4f4 <vprintfmt+0x78>
     8c8:	00a00413          	li	s0,10
     8cc:	00000a13          	li	s4,0
     8d0:	cf5ff06f          	j	5c4 <vprintfmt+0x148>
     8d4:	000c4503          	lbu	a0,0(s8)
     8d8:	f00502e3          	beqz	a0,7dc <vprintfmt+0x360>
     8dc:	fff00a13          	li	s4,-1
     8e0:	ed5ff06f          	j	7b4 <vprintfmt+0x338>
     8e4:	000027b7          	lui	a5,0x2
     8e8:	fa478c13          	addi	s8,a5,-92 # 1fa4 <main+0xe8>
     8ec:	e85ff06f          	j	770 <vprintfmt+0x2f4>
     8f0:	00412783          	lw	a5,4(sp)
     8f4:	0007a803          	lw	a6,0(a5)
     8f8:	00478793          	addi	a5,a5,4
     8fc:	00f12223          	sw	a5,4(sp)
     900:	41f85793          	srai	a5,a6,0x1f
     904:	f69ff06f          	j	86c <vprintfmt+0x3f0>
     908:	00068513          	mv	a0,a3
     90c:	00048713          	mv	a4,s1
     910:	dbdff06f          	j	6cc <vprintfmt+0x250>
     914:	cc8cf6e3          	bleu	s0,s9,5e0 <vprintfmt+0x164>
     918:	00100c13          	li	s8,1
     91c:	fffb0413          	addi	s0,s6,-1
     920:	00000a13          	li	s4,0
     924:	00000d13          	li	s10,0
     928:	d16c48e3          	blt	s8,s6,638 <vprintfmt+0x1bc>
     92c:	d3dff06f          	j	668 <vprintfmt+0x1ec>

00000930 <tohost_exit>:
     930:	00151513          	slli	a0,a0,0x1
     934:	00156793          	ori	a5,a0,1
     938:	78079073          	csrw	mtohost,a5
     93c:	0000006f          	j	93c <tohost_exit+0xc>

00000940 <handle_trap>:
     940:	ff010113          	addi	sp,sp,-16
     944:	00812423          	sw	s0,8(sp)
     948:	00112623          	sw	ra,12(sp)
     94c:	00200693          	li	a3,2
     950:	01010413          	addi	s0,sp,16
     954:	0080076f          	jal	a4,95c <handle_trap+0x1c>
     958:	0c002573          	csrr	a0,stats
     95c:	f8010113          	addi	sp,sp,-128
     960:	0ad50863          	beq	a0,a3,a10 <handle_trap+0xd0>
     964:	00800713          	li	a4,8
     968:	00e50a63          	beq	a0,a4,97c <handle_trap+0x3c>
     96c:	000017b7          	lui	a5,0x1
     970:	a7378793          	addi	a5,a5,-1421 # a73 <handle_trap+0x133>
     974:	78079073          	csrw	mtohost,a5
     978:	0000006f          	j	978 <handle_trap+0x38>
     97c:	04462703          	lw	a4,68(a2)
     980:	05d00693          	li	a3,93
     984:	30d70063          	beq	a4,a3,c84 <handle_trap+0x344>
     988:	4d200693          	li	a3,1234
     98c:	08d70e63          	beq	a4,a3,a28 <handle_trap+0xe8>
     990:	03f10793          	addi	a5,sp,63
     994:	fc07f793          	andi	a5,a5,-64
     998:	02862303          	lw	t1,40(a2)
     99c:	00e7a023          	sw	a4,0(a5)
     9a0:	41f75893          	srai	a7,a4,0x1f
     9a4:	0117a223          	sw	a7,4(a5)
     9a8:	02c62503          	lw	a0,44(a2)
     9ac:	0067a423          	sw	t1,8(a5)
     9b0:	41f35f93          	srai	t6,t1,0x1f
     9b4:	01f7a623          	sw	t6,12(a5)
     9b8:	03062683          	lw	a3,48(a2)
     9bc:	00a7a823          	sw	a0,16(a5)
     9c0:	41f55e93          	srai	t4,a0,0x1f
     9c4:	01d7aa23          	sw	t4,20(a5)
     9c8:	00d7ac23          	sw	a3,24(a5)
     9cc:	41f6d893          	srai	a7,a3,0x1f
     9d0:	0117ae23          	sw	a7,28(a5)
     9d4:	0330000f          	fence	rw,rw
     9d8:	78079073          	csrw	mtohost,a5
     9dc:	00000713          	li	a4,0
     9e0:	781716f3          	csrrw	a3,mfromhost,a4
     9e4:	fe068ee3          	beqz	a3,9e0 <handle_trap+0xa0>
     9e8:	0007a703          	lw	a4,0(a5)
     9ec:	0047a783          	lw	a5,4(a5)
     9f0:	00070793          	mv	a5,a4
     9f4:	ff040113          	addi	sp,s0,-16
     9f8:	00c12083          	lw	ra,12(sp)
     9fc:	00458513          	addi	a0,a1,4
     a00:	00812403          	lw	s0,8(sp)
     a04:	02f62423          	sw	a5,40(a2)
     a08:	01010113          	addi	sp,sp,16
     a0c:	00008067          	ret
     a10:	00072703          	lw	a4,0(a4)
     a14:	0005a783          	lw	a5,0(a1)
     a18:	00f777b3          	and	a5,a4,a5
     a1c:	f4f718e3          	bne	a4,a5,96c <handle_trap+0x2c>
     a20:	00000793          	li	a5,0
     a24:	fd1ff06f          	j	9f4 <handle_trap+0xb4>
     a28:	02862703          	lw	a4,40(a2)
     a2c:	00070463          	beqz	a4,a34 <handle_trap+0xf4>
     a30:	0c00e573          	csrrs	a0,stats,1
     a34:	c0002573          	rdcycle	a0
     a38:	80418793          	addi	a5,gp,-2044 # 2834 <counters>
     a3c:	00071c63          	bnez	a4,a54 <handle_trap+0x114>
     a40:	0007a683          	lw	a3,0(a5)
     a44:	40d50533          	sub	a0,a0,a3
     a48:	000026b7          	lui	a3,0x2
     a4c:	fac68693          	addi	a3,a3,-84 # 1fac <main+0xf0>
     a50:	04d7a423          	sw	a3,72(a5)
     a54:	00a7a023          	sw	a0,0(a5)
     a58:	c0202573          	rdinstret	a0
     a5c:	00071c63          	bnez	a4,a74 <handle_trap+0x134>
     a60:	0047a683          	lw	a3,4(a5)
     a64:	40d50533          	sub	a0,a0,a3
     a68:	000026b7          	lui	a3,0x2
     a6c:	fb468693          	addi	a3,a3,-76 # 1fb4 <main+0xf8>
     a70:	04d7a623          	sw	a3,76(a5)
     a74:	00a7a223          	sw	a0,4(a5)
     a78:	cc002573          	csrr	a0,uarch0
     a7c:	00071c63          	bnez	a4,a94 <handle_trap+0x154>
     a80:	0087a683          	lw	a3,8(a5)
     a84:	40d50533          	sub	a0,a0,a3
     a88:	000026b7          	lui	a3,0x2
     a8c:	fbc68693          	addi	a3,a3,-68 # 1fbc <main+0x100>
     a90:	04d7a823          	sw	a3,80(a5)
     a94:	00a7a423          	sw	a0,8(a5)
     a98:	cc102573          	csrr	a0,uarch1
     a9c:	00071c63          	bnez	a4,ab4 <handle_trap+0x174>
     aa0:	00c7a683          	lw	a3,12(a5)
     aa4:	40d50533          	sub	a0,a0,a3
     aa8:	000026b7          	lui	a3,0x2
     aac:	fc468693          	addi	a3,a3,-60 # 1fc4 <main+0x108>
     ab0:	04d7aa23          	sw	a3,84(a5)
     ab4:	00a7a623          	sw	a0,12(a5)
     ab8:	cc202573          	csrr	a0,uarch2
     abc:	00071c63          	bnez	a4,ad4 <handle_trap+0x194>
     ac0:	0107a683          	lw	a3,16(a5)
     ac4:	40d50533          	sub	a0,a0,a3
     ac8:	000026b7          	lui	a3,0x2
     acc:	fcc68693          	addi	a3,a3,-52 # 1fcc <main+0x110>
     ad0:	04d7ac23          	sw	a3,88(a5)
     ad4:	00a7a823          	sw	a0,16(a5)
     ad8:	cc302573          	csrr	a0,uarch3
     adc:	00071c63          	bnez	a4,af4 <handle_trap+0x1b4>
     ae0:	0147a683          	lw	a3,20(a5)
     ae4:	40d50533          	sub	a0,a0,a3
     ae8:	000026b7          	lui	a3,0x2
     aec:	fd468693          	addi	a3,a3,-44 # 1fd4 <main+0x118>
     af0:	04d7ae23          	sw	a3,92(a5)
     af4:	00a7aa23          	sw	a0,20(a5)
     af8:	cc402573          	csrr	a0,uarch4
     afc:	00071c63          	bnez	a4,b14 <handle_trap+0x1d4>
     b00:	0187a683          	lw	a3,24(a5)
     b04:	40d50533          	sub	a0,a0,a3
     b08:	000026b7          	lui	a3,0x2
     b0c:	fdc68693          	addi	a3,a3,-36 # 1fdc <main+0x120>
     b10:	06d7a023          	sw	a3,96(a5)
     b14:	00a7ac23          	sw	a0,24(a5)
     b18:	cc502573          	csrr	a0,uarch5
     b1c:	00071c63          	bnez	a4,b34 <handle_trap+0x1f4>
     b20:	01c7a683          	lw	a3,28(a5)
     b24:	40d50533          	sub	a0,a0,a3
     b28:	000026b7          	lui	a3,0x2
     b2c:	fe468693          	addi	a3,a3,-28 # 1fe4 <main+0x128>
     b30:	06d7a223          	sw	a3,100(a5)
     b34:	00a7ae23          	sw	a0,28(a5)
     b38:	cc602573          	csrr	a0,uarch6
     b3c:	00071c63          	bnez	a4,b54 <handle_trap+0x214>
     b40:	0207a683          	lw	a3,32(a5)
     b44:	40d50533          	sub	a0,a0,a3
     b48:	000026b7          	lui	a3,0x2
     b4c:	fec68693          	addi	a3,a3,-20 # 1fec <main+0x130>
     b50:	06d7a423          	sw	a3,104(a5)
     b54:	02a7a023          	sw	a0,32(a5)
     b58:	cc702573          	csrr	a0,uarch7
     b5c:	00071c63          	bnez	a4,b74 <handle_trap+0x234>
     b60:	0247a683          	lw	a3,36(a5)
     b64:	40d50533          	sub	a0,a0,a3
     b68:	000026b7          	lui	a3,0x2
     b6c:	ff468693          	addi	a3,a3,-12 # 1ff4 <main+0x138>
     b70:	06d7a623          	sw	a3,108(a5)
     b74:	02a7a223          	sw	a0,36(a5)
     b78:	cc802573          	csrr	a0,uarch8
     b7c:	00071c63          	bnez	a4,b94 <handle_trap+0x254>
     b80:	0287a683          	lw	a3,40(a5)
     b84:	40d50533          	sub	a0,a0,a3
     b88:	000026b7          	lui	a3,0x2
     b8c:	ffc68693          	addi	a3,a3,-4 # 1ffc <main+0x140>
     b90:	06d7a823          	sw	a3,112(a5)
     b94:	02a7a423          	sw	a0,40(a5)
     b98:	cc902573          	csrr	a0,uarch9
     b9c:	00071c63          	bnez	a4,bb4 <handle_trap+0x274>
     ba0:	02c7a683          	lw	a3,44(a5)
     ba4:	40d50533          	sub	a0,a0,a3
     ba8:	000026b7          	lui	a3,0x2
     bac:	00468693          	addi	a3,a3,4 # 2004 <main+0x148>
     bb0:	06d7aa23          	sw	a3,116(a5)
     bb4:	02a7a623          	sw	a0,44(a5)
     bb8:	cca02573          	csrr	a0,uarch10
     bbc:	00071c63          	bnez	a4,bd4 <handle_trap+0x294>
     bc0:	0307a683          	lw	a3,48(a5)
     bc4:	40d50533          	sub	a0,a0,a3
     bc8:	000026b7          	lui	a3,0x2
     bcc:	00c68693          	addi	a3,a3,12 # 200c <main+0x150>
     bd0:	06d7ac23          	sw	a3,120(a5)
     bd4:	02a7a823          	sw	a0,48(a5)
     bd8:	ccb02573          	csrr	a0,uarch11
     bdc:	00071c63          	bnez	a4,bf4 <handle_trap+0x2b4>
     be0:	0347a683          	lw	a3,52(a5)
     be4:	40d50533          	sub	a0,a0,a3
     be8:	000026b7          	lui	a3,0x2
     bec:	01468693          	addi	a3,a3,20 # 2014 <main+0x158>
     bf0:	06d7ae23          	sw	a3,124(a5)
     bf4:	02a7aa23          	sw	a0,52(a5)
     bf8:	ccc02573          	csrr	a0,uarch12
     bfc:	00071c63          	bnez	a4,c14 <handle_trap+0x2d4>
     c00:	0387a683          	lw	a3,56(a5)
     c04:	40d50533          	sub	a0,a0,a3
     c08:	000026b7          	lui	a3,0x2
     c0c:	01c68693          	addi	a3,a3,28 # 201c <main+0x160>
     c10:	08d7a023          	sw	a3,128(a5)
     c14:	02a7ac23          	sw	a0,56(a5)
     c18:	ccd02573          	csrr	a0,uarch13
     c1c:	00071c63          	bnez	a4,c34 <handle_trap+0x2f4>
     c20:	03c7a683          	lw	a3,60(a5)
     c24:	40d50533          	sub	a0,a0,a3
     c28:	000026b7          	lui	a3,0x2
     c2c:	02468693          	addi	a3,a3,36 # 2024 <main+0x168>
     c30:	08d7a223          	sw	a3,132(a5)
     c34:	02a7ae23          	sw	a0,60(a5)
     c38:	cce02573          	csrr	a0,uarch14
     c3c:	00071c63          	bnez	a4,c54 <handle_trap+0x314>
     c40:	0407a683          	lw	a3,64(a5)
     c44:	40d50533          	sub	a0,a0,a3
     c48:	000026b7          	lui	a3,0x2
     c4c:	02c68693          	addi	a3,a3,44 # 202c <main+0x170>
     c50:	08d7a423          	sw	a3,136(a5)
     c54:	04a7a023          	sw	a0,64(a5)
     c58:	ccf02573          	csrr	a0,uarch15
     c5c:	02071863          	bnez	a4,c8c <handle_trap+0x34c>
     c60:	0447a703          	lw	a4,68(a5)
     c64:	40e50533          	sub	a0,a0,a4
     c68:	00002737          	lui	a4,0x2
     c6c:	03470713          	addi	a4,a4,52 # 2034 <main+0x178>
     c70:	08e7a623          	sw	a4,140(a5)
     c74:	04a7a223          	sw	a0,68(a5)
     c78:	0c00f573          	csrrc	a0,stats,1
     c7c:	00000793          	li	a5,0
     c80:	d75ff06f          	j	9f4 <handle_trap+0xb4>
     c84:	02862503          	lw	a0,40(a2)
     c88:	ca9ff0ef          	jal	930 <tohost_exit>
     c8c:	04a7a223          	sw	a0,68(a5)
     c90:	d91ff06f          	j	a20 <handle_trap+0xe0>

00000c94 <exit>:
     c94:	05d00893          	li	a7,93
     c98:	00000593          	li	a1,0
     c9c:	00000613          	li	a2,0
     ca0:	00000073          	ecall
     ca4:	0000006f          	j	ca4 <exit+0x10>

00000ca8 <setStats>:
     ca8:	4d200893          	li	a7,1234
     cac:	00000593          	li	a1,0
     cb0:	00000613          	li	a2,0
     cb4:	00000073          	ecall
     cb8:	00008067          	ret

00000cbc <printstr>:
     cbc:	ff010113          	addi	sp,sp,-16
     cc0:	00812423          	sw	s0,8(sp)
     cc4:	00112623          	sw	ra,12(sp)
     cc8:	00050413          	mv	s0,a0
     ccc:	460000ef          	jal	112c <strlen>
     cd0:	00050613          	mv	a2,a0
     cd4:	04000893          	li	a7,64
     cd8:	00100513          	li	a0,1
     cdc:	00040593          	mv	a1,s0
     ce0:	00000073          	ecall
     ce4:	00c12083          	lw	ra,12(sp)
     ce8:	00812403          	lw	s0,8(sp)
     cec:	01010113          	addi	sp,sp,16
     cf0:	00008067          	ret

00000cf4 <thread_entry>:
     cf4:	00050463          	beqz	a0,cfc <thread_entry+0x8>
     cf8:	0000006f          	j	cf8 <thread_entry+0x4>
     cfc:	00008067          	ret

00000d00 <printhex>:
     d00:	fd010113          	addi	sp,sp,-48
     d04:	02112623          	sw	ra,44(sp)
     d08:	01b10693          	addi	a3,sp,27
     d0c:	00b10893          	addi	a7,sp,11
     d10:	00900813          	li	a6,9
     d14:	00f57613          	andi	a2,a0,15
     d18:	00c83733          	sltu	a4,a6,a2
     d1c:	40e00733          	neg	a4,a4
     d20:	02777793          	andi	a5,a4,39
     d24:	03078793          	addi	a5,a5,48
     d28:	00c787b3          	add	a5,a5,a2
     d2c:	01c59713          	slli	a4,a1,0x1c
     d30:	00f68023          	sb	a5,0(a3)
     d34:	00455513          	srli	a0,a0,0x4
     d38:	fff68693          	addi	a3,a3,-1
     d3c:	00a76533          	or	a0,a4,a0
     d40:	0045d593          	srli	a1,a1,0x4
     d44:	fd1698e3          	bne	a3,a7,d14 <printhex+0x14>
     d48:	00c10513          	addi	a0,sp,12
     d4c:	00010e23          	sb	zero,28(sp)
     d50:	3dc000ef          	jal	112c <strlen>
     d54:	00050613          	mv	a2,a0
     d58:	04000893          	li	a7,64
     d5c:	00100513          	li	a0,1
     d60:	00c10593          	addi	a1,sp,12
     d64:	00000073          	ecall
     d68:	02c12083          	lw	ra,44(sp)
     d6c:	03010113          	addi	sp,sp,48
     d70:	00008067          	ret

00000d74 <printf>:
     d74:	fc010113          	addi	sp,sp,-64
     d78:	02410313          	addi	t1,sp,36
     d7c:	02c12423          	sw	a2,40(sp)
     d80:	00050613          	mv	a2,a0
     d84:	02b12223          	sw	a1,36(sp)
     d88:	02d12623          	sw	a3,44(sp)
     d8c:	41800513          	li	a0,1048
     d90:	00030693          	mv	a3,t1
     d94:	00000593          	li	a1,0
     d98:	00112e23          	sw	ra,28(sp)
     d9c:	02e12823          	sw	a4,48(sp)
     da0:	02f12a23          	sw	a5,52(sp)
     da4:	03012c23          	sw	a6,56(sp)
     da8:	03112e23          	sw	a7,60(sp)
     dac:	00612623          	sw	t1,12(sp)
     db0:	eccff0ef          	jal	47c <vprintfmt>
     db4:	01c12083          	lw	ra,28(sp)
     db8:	00000513          	li	a0,0
     dbc:	04010113          	addi	sp,sp,64
     dc0:	00008067          	ret

00000dc4 <sprintf>:
     dc4:	fb010113          	addi	sp,sp,-80
     dc8:	03810313          	addi	t1,sp,56
     dcc:	02812423          	sw	s0,40(sp)
     dd0:	00a12623          	sw	a0,12(sp)
     dd4:	00050413          	mv	s0,a0
     dd8:	02c12c23          	sw	a2,56(sp)
     ddc:	02d12e23          	sw	a3,60(sp)
     de0:	00058613          	mv	a2,a1
     de4:	46400513          	li	a0,1124
     de8:	00c10593          	addi	a1,sp,12
     dec:	00030693          	mv	a3,t1
     df0:	02112623          	sw	ra,44(sp)
     df4:	04f12223          	sw	a5,68(sp)
     df8:	04e12023          	sw	a4,64(sp)
     dfc:	05012423          	sw	a6,72(sp)
     e00:	05112623          	sw	a7,76(sp)
     e04:	00612e23          	sw	t1,28(sp)
     e08:	e74ff0ef          	jal	47c <vprintfmt>
     e0c:	00c12783          	lw	a5,12(sp)
     e10:	00078023          	sb	zero,0(a5)
     e14:	00c12503          	lw	a0,12(sp)
     e18:	02c12083          	lw	ra,44(sp)
     e1c:	40850533          	sub	a0,a0,s0
     e20:	02812403          	lw	s0,40(sp)
     e24:	05010113          	addi	sp,sp,80
     e28:	00008067          	ret

00000e2c <_init>:
     e2c:	fd010113          	addi	sp,sp,-48
     e30:	02912223          	sw	s1,36(sp)
     e34:	03212023          	sw	s2,32(sp)
     e38:	00020913          	mv	s2,tp
     e3c:	00020493          	mv	s1,tp
     e40:	409904b3          	sub	s1,s2,s1
     e44:	01412c23          	sw	s4,24(sp)
     e48:	00058a13          	mv	s4,a1
     e4c:	02112623          	sw	ra,44(sp)
     e50:	02812423          	sw	s0,40(sp)
     e54:	01312e23          	sw	s3,28(sp)
     e58:	03010413          	addi	s0,sp,48
     e5c:	01512a23          	sw	s5,20(sp)
     e60:	01612823          	sw	s6,16(sp)
     e64:	01712623          	sw	s7,12(sp)
     e68:	00050993          	mv	s3,a0
     e6c:	d8010113          	addi	sp,sp,-640
     e70:	00020513          	mv	a0,tp
     e74:	00048613          	mv	a2,s1
     e78:	8d018593          	addi	a1,gp,-1840 # 2900 <_end>
     e7c:	00020b13          	mv	s6,tp
     e80:	0b0000ef          	jal	f30 <memcpy>
     e84:	04420613          	addi	a2,tp,68 # 44 <_tbss_end>
     e88:	41260633          	sub	a2,a2,s2
     e8c:	009b0533          	add	a0,s6,s1
     e90:	00000593          	li	a1,0
     e94:	1bc000ef          	jal	1050 <memset>
     e98:	000a0593          	mv	a1,s4
     e9c:	00098513          	mv	a0,s3
     ea0:	e55ff0ef          	jal	cf4 <thread_entry>
     ea4:	03f10a93          	addi	s5,sp,63
     ea8:	00000593          	li	a1,0
     eac:	00000513          	li	a0,0
     eb0:	80418493          	addi	s1,gp,-2044 # 2834 <counters>
     eb4:	fc0afa93          	andi	s5,s5,-64
     eb8:	004010ef          	jal	1ebc <main>
     ebc:	04848913          	addi	s2,s1,72
     ec0:	00050b93          	mv	s7,a0
     ec4:	00090993          	mv	s3,s2
     ec8:	000a8a13          	mv	s4,s5
     ecc:	00002b37          	lui	s6,0x2
     ed0:	0100006f          	j	ee0 <_init+0xb4>
     ed4:	00448493          	addi	s1,s1,4
     ed8:	00490913          	addi	s2,s2,4
     edc:	03348663          	beq	s1,s3,f08 <_init+0xdc>
     ee0:	0004a683          	lw	a3,0(s1)
     ee4:	fe0688e3          	beqz	a3,ed4 <_init+0xa8>
     ee8:	00092603          	lw	a2,0(s2)
     eec:	000a0513          	mv	a0,s4
     ef0:	054b0593          	addi	a1,s6,84 # 2054 <main+0x198>
     ef4:	ed1ff0ef          	jal	dc4 <sprintf>
     ef8:	00448493          	addi	s1,s1,4
     efc:	00aa0a33          	add	s4,s4,a0
     f00:	00490913          	addi	s2,s2,4
     f04:	fd349ee3          	bne	s1,s3,ee0 <_init+0xb4>
     f08:	034a8063          	beq	s5,s4,f28 <_init+0xfc>
     f0c:	000a8513          	mv	a0,s5
     f10:	21c000ef          	jal	112c <strlen>
     f14:	00050613          	mv	a2,a0
     f18:	04000893          	li	a7,64
     f1c:	00100513          	li	a0,1
     f20:	000a8593          	mv	a1,s5
     f24:	00000073          	ecall
     f28:	000b8513          	mv	a0,s7
     f2c:	d69ff0ef          	jal	c94 <exit>

00000f30 <memcpy>:
     f30:	00a5c7b3          	xor	a5,a1,a0
     f34:	0037f793          	andi	a5,a5,3
     f38:	00c508b3          	add	a7,a0,a2
     f3c:	0e079263          	bnez	a5,1020 <memcpy+0xf0>
     f40:	00300793          	li	a5,3
     f44:	0ec7fe63          	bleu	a2,a5,1040 <memcpy+0x110>
     f48:	00357793          	andi	a5,a0,3
     f4c:	04079a63          	bnez	a5,fa0 <memcpy+0x70>
     f50:	ffc8f813          	andi	a6,a7,-4
     f54:	fe080793          	addi	a5,a6,-32
     f58:	00050713          	mv	a4,a0
     f5c:	06f56663          	bltu	a0,a5,fc8 <memcpy+0x98>
     f60:	00058693          	mv	a3,a1
     f64:	00070793          	mv	a5,a4
     f68:	03077863          	bleu	a6,a4,f98 <memcpy+0x68>
     f6c:	0006a603          	lw	a2,0(a3)
     f70:	00478793          	addi	a5,a5,4
     f74:	00468693          	addi	a3,a3,4
     f78:	fec7ae23          	sw	a2,-4(a5)
     f7c:	ff07e8e3          	bltu	a5,a6,f6c <memcpy+0x3c>
     f80:	fff74793          	not	a5,a4
     f84:	01078833          	add	a6,a5,a6
     f88:	ffc87813          	andi	a6,a6,-4
     f8c:	00480813          	addi	a6,a6,4
     f90:	01070733          	add	a4,a4,a6
     f94:	010585b3          	add	a1,a1,a6
     f98:	09176863          	bltu	a4,a7,1028 <memcpy+0xf8>
     f9c:	00008067          	ret
     fa0:	00050713          	mv	a4,a0
     fa4:	0005c683          	lbu	a3,0(a1)
     fa8:	00170713          	addi	a4,a4,1
     fac:	00377793          	andi	a5,a4,3
     fb0:	fed70fa3          	sb	a3,-1(a4)
     fb4:	00158593          	addi	a1,a1,1
     fb8:	fe0796e3          	bnez	a5,fa4 <memcpy+0x74>
     fbc:	ffc8f813          	andi	a6,a7,-4
     fc0:	fe080793          	addi	a5,a6,-32
     fc4:	f8f77ee3          	bleu	a5,a4,f60 <memcpy+0x30>
     fc8:	0005a383          	lw	t2,0(a1)
     fcc:	0045a283          	lw	t0,4(a1)
     fd0:	0085af83          	lw	t6,8(a1)
     fd4:	00c5af03          	lw	t5,12(a1)
     fd8:	0105ae83          	lw	t4,16(a1)
     fdc:	0145ae03          	lw	t3,20(a1)
     fe0:	0185a303          	lw	t1,24(a1)
     fe4:	01c5a603          	lw	a2,28(a1)
     fe8:	02458593          	addi	a1,a1,36
     fec:	02470713          	addi	a4,a4,36
     ff0:	ffc5a683          	lw	a3,-4(a1)
     ff4:	fc772e23          	sw	t2,-36(a4)
     ff8:	fe572023          	sw	t0,-32(a4)
     ffc:	fff72223          	sw	t6,-28(a4)
    1000:	ffe72423          	sw	t5,-24(a4)
    1004:	ffd72623          	sw	t4,-20(a4)
    1008:	ffc72823          	sw	t3,-16(a4)
    100c:	fe672a23          	sw	t1,-12(a4)
    1010:	fec72c23          	sw	a2,-8(a4)
    1014:	fed72e23          	sw	a3,-4(a4)
    1018:	faf768e3          	bltu	a4,a5,fc8 <memcpy+0x98>
    101c:	f45ff06f          	j	f60 <memcpy+0x30>
    1020:	00050713          	mv	a4,a0
    1024:	03157463          	bleu	a7,a0,104c <memcpy+0x11c>
    1028:	0005c783          	lbu	a5,0(a1)
    102c:	00170713          	addi	a4,a4,1
    1030:	00158593          	addi	a1,a1,1
    1034:	fef70fa3          	sb	a5,-1(a4)
    1038:	ff1768e3          	bltu	a4,a7,1028 <memcpy+0xf8>
    103c:	00008067          	ret
    1040:	00050713          	mv	a4,a0
    1044:	ff1562e3          	bltu	a0,a7,1028 <memcpy+0xf8>
    1048:	f55ff06f          	j	f9c <memcpy+0x6c>
    104c:	00008067          	ret

00001050 <memset>:
    1050:	00f00813          	li	a6,15
    1054:	00050713          	mv	a4,a0
    1058:	02c87e63          	bleu	a2,a6,1094 <memset+0x44>
    105c:	00f77793          	andi	a5,a4,15
    1060:	0a079063          	bnez	a5,1100 <memset+0xb0>
    1064:	08059263          	bnez	a1,10e8 <memset+0x98>
    1068:	ff067693          	andi	a3,a2,-16
    106c:	00f67613          	andi	a2,a2,15
    1070:	00e686b3          	add	a3,a3,a4
    1074:	00b72023          	sw	a1,0(a4)
    1078:	00b72223          	sw	a1,4(a4)
    107c:	00b72423          	sw	a1,8(a4)
    1080:	00b72623          	sw	a1,12(a4)
    1084:	01070713          	addi	a4,a4,16
    1088:	fed766e3          	bltu	a4,a3,1074 <memset+0x24>
    108c:	00061463          	bnez	a2,1094 <memset+0x44>
    1090:	00008067          	ret
    1094:	40c806b3          	sub	a3,a6,a2
    1098:	00269693          	slli	a3,a3,0x2
    109c:	00000297          	auipc	t0,0x0
    10a0:	005686b3          	add	a3,a3,t0
    10a4:	00c68067          	jr	a3,12
    10a8:	00b70723          	sb	a1,14(a4)
    10ac:	00b706a3          	sb	a1,13(a4)
    10b0:	00b70623          	sb	a1,12(a4)
    10b4:	00b705a3          	sb	a1,11(a4)
    10b8:	00b70523          	sb	a1,10(a4)
    10bc:	00b704a3          	sb	a1,9(a4)
    10c0:	00b70423          	sb	a1,8(a4)
    10c4:	00b703a3          	sb	a1,7(a4)
    10c8:	00b70323          	sb	a1,6(a4)
    10cc:	00b702a3          	sb	a1,5(a4)
    10d0:	00b70223          	sb	a1,4(a4)
    10d4:	00b701a3          	sb	a1,3(a4)
    10d8:	00b70123          	sb	a1,2(a4)
    10dc:	00b700a3          	sb	a1,1(a4)
    10e0:	00b70023          	sb	a1,0(a4)
    10e4:	00008067          	ret
    10e8:	0ff5f593          	andi	a1,a1,255
    10ec:	00859693          	slli	a3,a1,0x8
    10f0:	00d5e5b3          	or	a1,a1,a3
    10f4:	01059693          	slli	a3,a1,0x10
    10f8:	00d5e5b3          	or	a1,a1,a3
    10fc:	f6dff06f          	j	1068 <memset+0x18>
    1100:	00279693          	slli	a3,a5,0x2
    1104:	00000297          	auipc	t0,0x0
    1108:	005686b3          	add	a3,a3,t0
    110c:	00008293          	mv	t0,ra
    1110:	fa0680e7          	jalr	a3,-96
    1114:	00028093          	mv	ra,t0
    1118:	ff078793          	addi	a5,a5,-16
    111c:	40f70733          	sub	a4,a4,a5
    1120:	00f60633          	add	a2,a2,a5
    1124:	f6c878e3          	bleu	a2,a6,1094 <memset+0x44>
    1128:	f3dff06f          	j	1064 <memset+0x14>

0000112c <strlen>:
    112c:	00357793          	andi	a5,a0,3
    1130:	00050593          	mv	a1,a0
    1134:	04079a63          	bnez	a5,1188 <strlen+0x5c>
    1138:	7f7f86b7          	lui	a3,0x7f7f8
    113c:	f7f68693          	addi	a3,a3,-129 # 7f7f7f7f <_gp+0x7f7f4f4f>
    1140:	fff00613          	li	a2,-1
    1144:	00450513          	addi	a0,a0,4
    1148:	ffc52783          	lw	a5,-4(a0)
    114c:	00d7f733          	and	a4,a5,a3
    1150:	00d70733          	add	a4,a4,a3
    1154:	00d7e7b3          	or	a5,a5,a3
    1158:	00f767b3          	or	a5,a4,a5
    115c:	fec784e3          	beq	a5,a2,1144 <strlen+0x18>
    1160:	ffc54703          	lbu	a4,-4(a0)
    1164:	40b507b3          	sub	a5,a0,a1
    1168:	ffd54683          	lbu	a3,-3(a0)
    116c:	ffe54603          	lbu	a2,-2(a0)
    1170:	02070e63          	beqz	a4,11ac <strlen+0x80>
    1174:	02068863          	beqz	a3,11a4 <strlen+0x78>
    1178:	fff78513          	addi	a0,a5,-1
    117c:	02060c63          	beqz	a2,11b4 <strlen+0x88>
    1180:	00008067          	ret
    1184:	fa070ae3          	beqz	a4,1138 <strlen+0xc>
    1188:	00054783          	lbu	a5,0(a0)
    118c:	00150513          	addi	a0,a0,1
    1190:	00357713          	andi	a4,a0,3
    1194:	fe0798e3          	bnez	a5,1184 <strlen+0x58>
    1198:	40b50533          	sub	a0,a0,a1
    119c:	fff50513          	addi	a0,a0,-1
    11a0:	00008067          	ret
    11a4:	ffd78513          	addi	a0,a5,-3
    11a8:	00008067          	ret
    11ac:	ffc78513          	addi	a0,a5,-4
    11b0:	00008067          	ret
    11b4:	ffe78513          	addi	a0,a5,-2
    11b8:	00008067          	ret

000011bc <strnlen>:
    11bc:	02058e63          	beqz	a1,11f8 <strnlen+0x3c>
    11c0:	00054783          	lbu	a5,0(a0)
    11c4:	02078a63          	beqz	a5,11f8 <strnlen+0x3c>
    11c8:	00150793          	addi	a5,a0,1
    11cc:	00b505b3          	add	a1,a0,a1
    11d0:	0100006f          	j	11e0 <strnlen+0x24>
    11d4:	fff74683          	lbu	a3,-1(a4)
    11d8:	00068c63          	beqz	a3,11f0 <strnlen+0x34>
    11dc:	00070793          	mv	a5,a4
    11e0:	00178713          	addi	a4,a5,1
    11e4:	fef598e3          	bne	a1,a5,11d4 <strnlen+0x18>
    11e8:	40a58533          	sub	a0,a1,a0
    11ec:	00008067          	ret
    11f0:	40a78533          	sub	a0,a5,a0
    11f4:	00008067          	ret
    11f8:	00000513          	li	a0,0
    11fc:	00008067          	ret

00001200 <__udivdi3>:
    1200:	fd010113          	addi	sp,sp,-48
    1204:	02912223          	sw	s1,36(sp)
    1208:	01312e23          	sw	s3,28(sp)
    120c:	01412c23          	sw	s4,24(sp)
    1210:	02112623          	sw	ra,44(sp)
    1214:	02812423          	sw	s0,40(sp)
    1218:	03212023          	sw	s2,32(sp)
    121c:	01512a23          	sw	s5,20(sp)
    1220:	01612823          	sw	s6,16(sp)
    1224:	01712623          	sw	s7,12(sp)
    1228:	01812423          	sw	s8,8(sp)
    122c:	01912223          	sw	s9,4(sp)
    1230:	01a12023          	sw	s10,0(sp)
    1234:	00050a13          	mv	s4,a0
    1238:	00058493          	mv	s1,a1
    123c:	00058993          	mv	s3,a1
    1240:	12069063          	bnez	a3,1360 <__udivdi3+0x160>
    1244:	00060413          	mv	s0,a2
    1248:	00050913          	mv	s2,a0
    124c:	16c5fa63          	bleu	a2,a1,13c0 <__udivdi3+0x1c0>
    1250:	000107b7          	lui	a5,0x10
    1254:	2ef67463          	bleu	a5,a2,153c <__udivdi3+0x33c>
    1258:	0ff00793          	li	a5,255
    125c:	00c7b7b3          	sltu	a5,a5,a2
    1260:	00379793          	slli	a5,a5,0x3
    1264:	00002737          	lui	a4,0x2
    1268:	00f656b3          	srl	a3,a2,a5
    126c:	1b870713          	addi	a4,a4,440 # 21b8 <__clz_tab>
    1270:	00e68733          	add	a4,a3,a4
    1274:	00074703          	lbu	a4,0(a4)
    1278:	00f707b3          	add	a5,a4,a5
    127c:	02000713          	li	a4,32
    1280:	40f70733          	sub	a4,a4,a5
    1284:	00070c63          	beqz	a4,129c <__udivdi3+0x9c>
    1288:	00e494b3          	sll	s1,s1,a4
    128c:	00fa57b3          	srl	a5,s4,a5
    1290:	00e61433          	sll	s0,a2,a4
    1294:	0097e9b3          	or	s3,a5,s1
    1298:	00ea1933          	sll	s2,s4,a4
    129c:	01045b13          	srli	s6,s0,0x10
    12a0:	000b0593          	mv	a1,s6
    12a4:	00098513          	mv	a0,s3
    12a8:	3b1000ef          	jal	1e58 <__umodsi3>
    12ac:	00050a13          	mv	s4,a0
    12b0:	000b0593          	mv	a1,s6
    12b4:	00098513          	mv	a0,s3
    12b8:	01041b93          	slli	s7,s0,0x10
    12bc:	355000ef          	jal	1e10 <__udivsi3>
    12c0:	010bdb93          	srli	s7,s7,0x10
    12c4:	00050593          	mv	a1,a0
    12c8:	00050a93          	mv	s5,a0
    12cc:	000b8513          	mv	a0,s7
    12d0:	315000ef          	jal	1de4 <__mulsi3>
    12d4:	010a1a13          	slli	s4,s4,0x10
    12d8:	01095793          	srli	a5,s2,0x10
    12dc:	0147e7b3          	or	a5,a5,s4
    12e0:	00a7fc63          	bleu	a0,a5,12f8 <__udivdi3+0xf8>
    12e4:	008787b3          	add	a5,a5,s0
    12e8:	fffa8713          	addi	a4,s5,-1
    12ec:	0087e463          	bltu	a5,s0,12f4 <__udivdi3+0xf4>
    12f0:	52a7e463          	bltu	a5,a0,1818 <__udivdi3+0x618>
    12f4:	00070a93          	mv	s5,a4
    12f8:	40a784b3          	sub	s1,a5,a0
    12fc:	000b0593          	mv	a1,s6
    1300:	00048513          	mv	a0,s1
    1304:	355000ef          	jal	1e58 <__umodsi3>
    1308:	00050993          	mv	s3,a0
    130c:	000b0593          	mv	a1,s6
    1310:	00048513          	mv	a0,s1
    1314:	2fd000ef          	jal	1e10 <__udivsi3>
    1318:	01091913          	slli	s2,s2,0x10
    131c:	00050593          	mv	a1,a0
    1320:	00050493          	mv	s1,a0
    1324:	01099993          	slli	s3,s3,0x10
    1328:	000b8513          	mv	a0,s7
    132c:	01095913          	srli	s2,s2,0x10
    1330:	2b5000ef          	jal	1de4 <__mulsi3>
    1334:	01396933          	or	s2,s2,s3
    1338:	00a97c63          	bleu	a0,s2,1350 <__udivdi3+0x150>
    133c:	01240933          	add	s2,s0,s2
    1340:	fff48793          	addi	a5,s1,-1
    1344:	46896263          	bltu	s2,s0,17a8 <__udivdi3+0x5a8>
    1348:	ffe48493          	addi	s1,s1,-2
    134c:	44a97e63          	bleu	a0,s2,17a8 <__udivdi3+0x5a8>
    1350:	010a9513          	slli	a0,s5,0x10
    1354:	00956533          	or	a0,a0,s1
    1358:	00000a93          	li	s5,0
    135c:	1840006f          	j	14e0 <__udivdi3+0x2e0>
    1360:	00068793          	mv	a5,a3
    1364:	16d5ea63          	bltu	a1,a3,14d8 <__udivdi3+0x2d8>
    1368:	00010737          	lui	a4,0x10
    136c:	1ae6e863          	bltu	a3,a4,151c <__udivdi3+0x31c>
    1370:	01000737          	lui	a4,0x1000
    1374:	00e6b733          	sltu	a4,a3,a4
    1378:	00174713          	xori	a4,a4,1
    137c:	40e00733          	neg	a4,a4
    1380:	00877713          	andi	a4,a4,8
    1384:	01070713          	addi	a4,a4,16 # 1000010 <_gp+0xffcfe0>
    1388:	000025b7          	lui	a1,0x2
    138c:	00e6d533          	srl	a0,a3,a4
    1390:	1b858593          	addi	a1,a1,440 # 21b8 <__clz_tab>
    1394:	00b505b3          	add	a1,a0,a1
    1398:	0005c583          	lbu	a1,0(a1)
    139c:	02000a93          	li	s5,32
    13a0:	00e58733          	add	a4,a1,a4
    13a4:	40ea8ab3          	sub	s5,s5,a4
    13a8:	1a0a9863          	bnez	s5,1558 <__udivdi3+0x358>
    13ac:	00100513          	li	a0,1
    13b0:	1337e863          	bltu	a5,s3,14e0 <__udivdi3+0x2e0>
    13b4:	00ca3533          	sltu	a0,s4,a2
    13b8:	00154513          	xori	a0,a0,1
    13bc:	1240006f          	j	14e0 <__udivdi3+0x2e0>
    13c0:	00061a63          	bnez	a2,13d4 <__udivdi3+0x1d4>
    13c4:	00000593          	li	a1,0
    13c8:	00100513          	li	a0,1
    13cc:	245000ef          	jal	1e10 <__udivsi3>
    13d0:	00050413          	mv	s0,a0
    13d4:	000107b7          	lui	a5,0x10
    13d8:	14f46a63          	bltu	s0,a5,152c <__udivdi3+0x32c>
    13dc:	010007b7          	lui	a5,0x1000
    13e0:	00f437b3          	sltu	a5,s0,a5
    13e4:	0017c793          	xori	a5,a5,1
    13e8:	40f007b3          	neg	a5,a5
    13ec:	0087f793          	andi	a5,a5,8
    13f0:	01078793          	addi	a5,a5,16 # 1000010 <_gp+0xffcfe0>
    13f4:	00002737          	lui	a4,0x2
    13f8:	00f456b3          	srl	a3,s0,a5
    13fc:	1b870713          	addi	a4,a4,440 # 21b8 <__clz_tab>
    1400:	00e68733          	add	a4,a3,a4
    1404:	00074703          	lbu	a4,0(a4)
    1408:	00f707b3          	add	a5,a4,a5
    140c:	02000713          	li	a4,32
    1410:	40f70733          	sub	a4,a4,a5
    1414:	2a071263          	bnez	a4,16b8 <__udivdi3+0x4b8>
    1418:	01041b13          	slli	s6,s0,0x10
    141c:	408484b3          	sub	s1,s1,s0
    1420:	01045b93          	srli	s7,s0,0x10
    1424:	010b5b13          	srli	s6,s6,0x10
    1428:	00100a93          	li	s5,1
    142c:	000b8593          	mv	a1,s7
    1430:	00048513          	mv	a0,s1
    1434:	225000ef          	jal	1e58 <__umodsi3>
    1438:	00050993          	mv	s3,a0
    143c:	000b8593          	mv	a1,s7
    1440:	00048513          	mv	a0,s1
    1444:	1cd000ef          	jal	1e10 <__udivsi3>
    1448:	000b0593          	mv	a1,s6
    144c:	00050a13          	mv	s4,a0
    1450:	195000ef          	jal	1de4 <__mulsi3>
    1454:	01099993          	slli	s3,s3,0x10
    1458:	01095793          	srli	a5,s2,0x10
    145c:	0137e7b3          	or	a5,a5,s3
    1460:	00a7fc63          	bleu	a0,a5,1478 <__udivdi3+0x278>
    1464:	008787b3          	add	a5,a5,s0
    1468:	fffa0713          	addi	a4,s4,-1
    146c:	0087e463          	bltu	a5,s0,1474 <__udivdi3+0x274>
    1470:	38a7ee63          	bltu	a5,a0,180c <__udivdi3+0x60c>
    1474:	00070a13          	mv	s4,a4
    1478:	40a784b3          	sub	s1,a5,a0
    147c:	000b8593          	mv	a1,s7
    1480:	00048513          	mv	a0,s1
    1484:	1d5000ef          	jal	1e58 <__umodsi3>
    1488:	00050993          	mv	s3,a0
    148c:	000b8593          	mv	a1,s7
    1490:	00048513          	mv	a0,s1
    1494:	17d000ef          	jal	1e10 <__udivsi3>
    1498:	01091913          	slli	s2,s2,0x10
    149c:	000b0593          	mv	a1,s6
    14a0:	01099993          	slli	s3,s3,0x10
    14a4:	01095913          	srli	s2,s2,0x10
    14a8:	00050493          	mv	s1,a0
    14ac:	01396933          	or	s2,s2,s3
    14b0:	135000ef          	jal	1de4 <__mulsi3>
    14b4:	00a97c63          	bleu	a0,s2,14cc <__udivdi3+0x2cc>
    14b8:	01240933          	add	s2,s0,s2
    14bc:	fff48793          	addi	a5,s1,-1
    14c0:	2e896063          	bltu	s2,s0,17a0 <__udivdi3+0x5a0>
    14c4:	ffe48493          	addi	s1,s1,-2
    14c8:	2ca97c63          	bleu	a0,s2,17a0 <__udivdi3+0x5a0>
    14cc:	010a1513          	slli	a0,s4,0x10
    14d0:	00956533          	or	a0,a0,s1
    14d4:	00c0006f          	j	14e0 <__udivdi3+0x2e0>
    14d8:	00000a93          	li	s5,0
    14dc:	00000513          	li	a0,0
    14e0:	000a8593          	mv	a1,s5
    14e4:	02c12083          	lw	ra,44(sp)
    14e8:	02812403          	lw	s0,40(sp)
    14ec:	02412483          	lw	s1,36(sp)
    14f0:	02012903          	lw	s2,32(sp)
    14f4:	01c12983          	lw	s3,28(sp)
    14f8:	01812a03          	lw	s4,24(sp)
    14fc:	01412a83          	lw	s5,20(sp)
    1500:	01012b03          	lw	s6,16(sp)
    1504:	00c12b83          	lw	s7,12(sp)
    1508:	00812c03          	lw	s8,8(sp)
    150c:	00412c83          	lw	s9,4(sp)
    1510:	00012d03          	lw	s10,0(sp)
    1514:	03010113          	addi	sp,sp,48
    1518:	00008067          	ret
    151c:	0ff00713          	li	a4,255
    1520:	00d73733          	sltu	a4,a4,a3
    1524:	00371713          	slli	a4,a4,0x3
    1528:	e61ff06f          	j	1388 <__udivdi3+0x188>
    152c:	0ff00793          	li	a5,255
    1530:	0087b7b3          	sltu	a5,a5,s0
    1534:	00379793          	slli	a5,a5,0x3
    1538:	ebdff06f          	j	13f4 <__udivdi3+0x1f4>
    153c:	010007b7          	lui	a5,0x1000
    1540:	00f637b3          	sltu	a5,a2,a5
    1544:	0017c793          	xori	a5,a5,1
    1548:	40f007b3          	neg	a5,a5
    154c:	0087f793          	andi	a5,a5,8
    1550:	01078793          	addi	a5,a5,16 # 1000010 <_gp+0xffcfe0>
    1554:	d11ff06f          	j	1264 <__udivdi3+0x64>
    1558:	00e65cb3          	srl	s9,a2,a4
    155c:	015696b3          	sll	a3,a3,s5
    1560:	0196ecb3          	or	s9,a3,s9
    1564:	00e4d433          	srl	s0,s1,a4
    1568:	010cd993          	srli	s3,s9,0x10
    156c:	00ea5733          	srl	a4,s4,a4
    1570:	00098593          	mv	a1,s3
    1574:	015494b3          	sll	s1,s1,s5
    1578:	00040513          	mv	a0,s0
    157c:	009764b3          	or	s1,a4,s1
    1580:	01561b33          	sll	s6,a2,s5
    1584:	0d5000ef          	jal	1e58 <__umodsi3>
    1588:	00050913          	mv	s2,a0
    158c:	00098593          	mv	a1,s3
    1590:	010c9c13          	slli	s8,s9,0x10
    1594:	00040513          	mv	a0,s0
    1598:	079000ef          	jal	1e10 <__udivsi3>
    159c:	010c5c13          	srli	s8,s8,0x10
    15a0:	00050593          	mv	a1,a0
    15a4:	00050b93          	mv	s7,a0
    15a8:	000c0513          	mv	a0,s8
    15ac:	039000ef          	jal	1de4 <__mulsi3>
    15b0:	01091913          	slli	s2,s2,0x10
    15b4:	0104d793          	srli	a5,s1,0x10
    15b8:	0127e7b3          	or	a5,a5,s2
    15bc:	00a7fa63          	bleu	a0,a5,15d0 <__udivdi3+0x3d0>
    15c0:	019787b3          	add	a5,a5,s9
    15c4:	fffb8713          	addi	a4,s7,-1
    15c8:	2397f263          	bleu	s9,a5,17ec <__udivdi3+0x5ec>
    15cc:	00070b93          	mv	s7,a4
    15d0:	40a78433          	sub	s0,a5,a0
    15d4:	00098593          	mv	a1,s3
    15d8:	00040513          	mv	a0,s0
    15dc:	07d000ef          	jal	1e58 <__umodsi3>
    15e0:	00050913          	mv	s2,a0
    15e4:	00098593          	mv	a1,s3
    15e8:	00040513          	mv	a0,s0
    15ec:	025000ef          	jal	1e10 <__udivsi3>
    15f0:	01049493          	slli	s1,s1,0x10
    15f4:	00050593          	mv	a1,a0
    15f8:	00050413          	mv	s0,a0
    15fc:	01091913          	slli	s2,s2,0x10
    1600:	000c0513          	mv	a0,s8
    1604:	0104d493          	srli	s1,s1,0x10
    1608:	7dc000ef          	jal	1de4 <__mulsi3>
    160c:	0124e4b3          	or	s1,s1,s2
    1610:	00050793          	mv	a5,a0
    1614:	00a4fa63          	bleu	a0,s1,1628 <__udivdi3+0x428>
    1618:	019484b3          	add	s1,s1,s9
    161c:	fff40713          	addi	a4,s0,-1
    1620:	1b94fe63          	bleu	s9,s1,17dc <__udivdi3+0x5dc>
    1624:	00070413          	mv	s0,a4
    1628:	010b9b93          	slli	s7,s7,0x10
    162c:	00010cb7          	lui	s9,0x10
    1630:	008bebb3          	or	s7,s7,s0
    1634:	fffc8413          	addi	s0,s9,-1 # ffff <_gp+0xcfcf>
    1638:	008bf9b3          	and	s3,s7,s0
    163c:	008b7433          	and	s0,s6,s0
    1640:	00040593          	mv	a1,s0
    1644:	00098513          	mv	a0,s3
    1648:	40f484b3          	sub	s1,s1,a5
    164c:	010bdc13          	srli	s8,s7,0x10
    1650:	794000ef          	jal	1de4 <__mulsi3>
    1654:	00040593          	mv	a1,s0
    1658:	00050d13          	mv	s10,a0
    165c:	000c0513          	mv	a0,s8
    1660:	784000ef          	jal	1de4 <__mulsi3>
    1664:	010b5b13          	srli	s6,s6,0x10
    1668:	00050913          	mv	s2,a0
    166c:	000b0593          	mv	a1,s6
    1670:	000c0513          	mv	a0,s8
    1674:	770000ef          	jal	1de4 <__mulsi3>
    1678:	00050413          	mv	s0,a0
    167c:	000b0593          	mv	a1,s6
    1680:	00098513          	mv	a0,s3
    1684:	760000ef          	jal	1de4 <__mulsi3>
    1688:	01250533          	add	a0,a0,s2
    168c:	010d5793          	srli	a5,s10,0x10
    1690:	00a787b3          	add	a5,a5,a0
    1694:	0127f463          	bleu	s2,a5,169c <__udivdi3+0x49c>
    1698:	01940433          	add	s0,s0,s9
    169c:	0107d513          	srli	a0,a5,0x10
    16a0:	00850533          	add	a0,a0,s0
    16a4:	12a4e663          	bltu	s1,a0,17d0 <__udivdi3+0x5d0>
    16a8:	10a48463          	beq	s1,a0,17b0 <__udivdi3+0x5b0>
    16ac:	000b8513          	mv	a0,s7
    16b0:	00000a93          	li	s5,0
    16b4:	e2dff06f          	j	14e0 <__udivdi3+0x2e0>
    16b8:	00e41433          	sll	s0,s0,a4
    16bc:	00f4dab3          	srl	s5,s1,a5
    16c0:	01045993          	srli	s3,s0,0x10
    16c4:	00fa57b3          	srl	a5,s4,a5
    16c8:	00e494b3          	sll	s1,s1,a4
    16cc:	00098593          	mv	a1,s3
    16d0:	000a8513          	mv	a0,s5
    16d4:	0097ebb3          	or	s7,a5,s1
    16d8:	00ea1933          	sll	s2,s4,a4
    16dc:	77c000ef          	jal	1e58 <__umodsi3>
    16e0:	00050a13          	mv	s4,a0
    16e4:	00098593          	mv	a1,s3
    16e8:	01041b13          	slli	s6,s0,0x10
    16ec:	000a8513          	mv	a0,s5
    16f0:	720000ef          	jal	1e10 <__udivsi3>
    16f4:	010b5b13          	srli	s6,s6,0x10
    16f8:	00050593          	mv	a1,a0
    16fc:	00050c13          	mv	s8,a0
    1700:	000b0513          	mv	a0,s6
    1704:	6e0000ef          	jal	1de4 <__mulsi3>
    1708:	010a1a13          	slli	s4,s4,0x10
    170c:	010bd793          	srli	a5,s7,0x10
    1710:	0147e7b3          	or	a5,a5,s4
    1714:	00a7fe63          	bleu	a0,a5,1730 <__udivdi3+0x530>
    1718:	008787b3          	add	a5,a5,s0
    171c:	fffc0713          	addi	a4,s8,-1
    1720:	0e87e263          	bltu	a5,s0,1804 <__udivdi3+0x604>
    1724:	0ea7f063          	bleu	a0,a5,1804 <__udivdi3+0x604>
    1728:	ffec0c13          	addi	s8,s8,-2
    172c:	008787b3          	add	a5,a5,s0
    1730:	40a78ab3          	sub	s5,a5,a0
    1734:	00098593          	mv	a1,s3
    1738:	000a8513          	mv	a0,s5
    173c:	71c000ef          	jal	1e58 <__umodsi3>
    1740:	00050a13          	mv	s4,a0
    1744:	00098593          	mv	a1,s3
    1748:	000a8513          	mv	a0,s5
    174c:	6c4000ef          	jal	1e10 <__udivsi3>
    1750:	00050593          	mv	a1,a0
    1754:	00050a93          	mv	s5,a0
    1758:	000b0513          	mv	a0,s6
    175c:	688000ef          	jal	1de4 <__mulsi3>
    1760:	010b9793          	slli	a5,s7,0x10
    1764:	010a1a13          	slli	s4,s4,0x10
    1768:	0107d793          	srli	a5,a5,0x10
    176c:	0147e7b3          	or	a5,a5,s4
    1770:	00a7fe63          	bleu	a0,a5,178c <__udivdi3+0x58c>
    1774:	008787b3          	add	a5,a5,s0
    1778:	fffa8713          	addi	a4,s5,-1
    177c:	0887e063          	bltu	a5,s0,17fc <__udivdi3+0x5fc>
    1780:	06a7fe63          	bleu	a0,a5,17fc <__udivdi3+0x5fc>
    1784:	ffea8a93          	addi	s5,s5,-2
    1788:	008787b3          	add	a5,a5,s0
    178c:	010c1c13          	slli	s8,s8,0x10
    1790:	40a784b3          	sub	s1,a5,a0
    1794:	015c6ab3          	or	s5,s8,s5
    1798:	00098b93          	mv	s7,s3
    179c:	c91ff06f          	j	142c <__udivdi3+0x22c>
    17a0:	00078493          	mv	s1,a5
    17a4:	d29ff06f          	j	14cc <__udivdi3+0x2cc>
    17a8:	00078493          	mv	s1,a5
    17ac:	ba5ff06f          	j	1350 <__udivdi3+0x150>
    17b0:	000106b7          	lui	a3,0x10
    17b4:	fff68693          	addi	a3,a3,-1 # ffff <_gp+0xcfcf>
    17b8:	00d7f7b3          	and	a5,a5,a3
    17bc:	01079713          	slli	a4,a5,0x10
    17c0:	00dd77b3          	and	a5,s10,a3
    17c4:	015a1a33          	sll	s4,s4,s5
    17c8:	00f707b3          	add	a5,a4,a5
    17cc:	eefa70e3          	bleu	a5,s4,16ac <__udivdi3+0x4ac>
    17d0:	fffb8513          	addi	a0,s7,-1
    17d4:	00000a93          	li	s5,0
    17d8:	d09ff06f          	j	14e0 <__udivdi3+0x2e0>
    17dc:	e4a4f4e3          	bleu	a0,s1,1624 <__udivdi3+0x424>
    17e0:	ffe40413          	addi	s0,s0,-2
    17e4:	019484b3          	add	s1,s1,s9
    17e8:	e41ff06f          	j	1628 <__udivdi3+0x428>
    17ec:	dea7f0e3          	bleu	a0,a5,15cc <__udivdi3+0x3cc>
    17f0:	ffeb8b93          	addi	s7,s7,-2
    17f4:	019787b3          	add	a5,a5,s9
    17f8:	dd9ff06f          	j	15d0 <__udivdi3+0x3d0>
    17fc:	00070a93          	mv	s5,a4
    1800:	f8dff06f          	j	178c <__udivdi3+0x58c>
    1804:	00070c13          	mv	s8,a4
    1808:	f29ff06f          	j	1730 <__udivdi3+0x530>
    180c:	ffea0a13          	addi	s4,s4,-2
    1810:	008787b3          	add	a5,a5,s0
    1814:	c65ff06f          	j	1478 <__udivdi3+0x278>
    1818:	ffea8a93          	addi	s5,s5,-2
    181c:	008787b3          	add	a5,a5,s0
    1820:	ad9ff06f          	j	12f8 <__udivdi3+0xf8>

00001824 <__umoddi3>:
    1824:	fb010113          	addi	sp,sp,-80
    1828:	04812423          	sw	s0,72(sp)
    182c:	04912223          	sw	s1,68(sp)
    1830:	05212023          	sw	s2,64(sp)
    1834:	03312e23          	sw	s3,60(sp)
    1838:	03512a23          	sw	s5,52(sp)
    183c:	04112623          	sw	ra,76(sp)
    1840:	03412c23          	sw	s4,56(sp)
    1844:	03612823          	sw	s6,48(sp)
    1848:	03712623          	sw	s7,44(sp)
    184c:	03812423          	sw	s8,40(sp)
    1850:	03912223          	sw	s9,36(sp)
    1854:	03a12023          	sw	s10,32(sp)
    1858:	01b12e23          	sw	s11,28(sp)
    185c:	00058493          	mv	s1,a1
    1860:	00050413          	mv	s0,a0
    1864:	00060913          	mv	s2,a2
    1868:	00050993          	mv	s3,a0
    186c:	00058a93          	mv	s5,a1
    1870:	14069463          	bnez	a3,19b8 <__umoddi3+0x194>
    1874:	1ac5fa63          	bleu	a2,a1,1a28 <__umoddi3+0x204>
    1878:	000107b7          	lui	a5,0x10
    187c:	2af66063          	bltu	a2,a5,1b1c <__umoddi3+0x2f8>
    1880:	010007b7          	lui	a5,0x1000
    1884:	00f637b3          	sltu	a5,a2,a5
    1888:	0017c793          	xori	a5,a5,1
    188c:	40f007b3          	neg	a5,a5
    1890:	0087f793          	andi	a5,a5,8
    1894:	01078793          	addi	a5,a5,16 # 1000010 <_gp+0xffcfe0>
    1898:	00002737          	lui	a4,0x2
    189c:	00f656b3          	srl	a3,a2,a5
    18a0:	1b870713          	addi	a4,a4,440 # 21b8 <__clz_tab>
    18a4:	00e68733          	add	a4,a3,a4
    18a8:	00074583          	lbu	a1,0(a4)
    18ac:	02000513          	li	a0,32
    18b0:	00f587b3          	add	a5,a1,a5
    18b4:	40f50a33          	sub	s4,a0,a5
    18b8:	000a0c63          	beqz	s4,18d0 <__umoddi3+0xac>
    18bc:	014495b3          	sll	a1,s1,s4
    18c0:	00f457b3          	srl	a5,s0,a5
    18c4:	01461933          	sll	s2,a2,s4
    18c8:	00b7eab3          	or	s5,a5,a1
    18cc:	014419b3          	sll	s3,s0,s4
    18d0:	01095b13          	srli	s6,s2,0x10
    18d4:	000b0593          	mv	a1,s6
    18d8:	000a8513          	mv	a0,s5
    18dc:	57c000ef          	jal	1e58 <__umodsi3>
    18e0:	00050493          	mv	s1,a0
    18e4:	000b0593          	mv	a1,s6
    18e8:	000a8513          	mv	a0,s5
    18ec:	01091a93          	slli	s5,s2,0x10
    18f0:	520000ef          	jal	1e10 <__udivsi3>
    18f4:	010ada93          	srli	s5,s5,0x10
    18f8:	00050593          	mv	a1,a0
    18fc:	000a8513          	mv	a0,s5
    1900:	4e4000ef          	jal	1de4 <__mulsi3>
    1904:	01049493          	slli	s1,s1,0x10
    1908:	0109d793          	srli	a5,s3,0x10
    190c:	0097e7b3          	or	a5,a5,s1
    1910:	00a7f863          	bleu	a0,a5,1920 <__umoddi3+0xfc>
    1914:	012787b3          	add	a5,a5,s2
    1918:	0127e463          	bltu	a5,s2,1920 <__umoddi3+0xfc>
    191c:	4aa7e863          	bltu	a5,a0,1dcc <__umoddi3+0x5a8>
    1920:	40a78433          	sub	s0,a5,a0
    1924:	000b0593          	mv	a1,s6
    1928:	00040513          	mv	a0,s0
    192c:	52c000ef          	jal	1e58 <__umodsi3>
    1930:	000b0593          	mv	a1,s6
    1934:	00050493          	mv	s1,a0
    1938:	00040513          	mv	a0,s0
    193c:	4d4000ef          	jal	1e10 <__udivsi3>
    1940:	00050593          	mv	a1,a0
    1944:	000a8513          	mv	a0,s5
    1948:	49c000ef          	jal	1de4 <__mulsi3>
    194c:	01099793          	slli	a5,s3,0x10
    1950:	01049493          	slli	s1,s1,0x10
    1954:	0107d793          	srli	a5,a5,0x10
    1958:	0097e7b3          	or	a5,a5,s1
    195c:	00a7fa63          	bleu	a0,a5,1970 <__umoddi3+0x14c>
    1960:	012787b3          	add	a5,a5,s2
    1964:	0127e663          	bltu	a5,s2,1970 <__umoddi3+0x14c>
    1968:	00a7f463          	bleu	a0,a5,1970 <__umoddi3+0x14c>
    196c:	012787b3          	add	a5,a5,s2
    1970:	40a78533          	sub	a0,a5,a0
    1974:	01455533          	srl	a0,a0,s4
    1978:	00000593          	li	a1,0
    197c:	04c12083          	lw	ra,76(sp)
    1980:	04812403          	lw	s0,72(sp)
    1984:	04412483          	lw	s1,68(sp)
    1988:	04012903          	lw	s2,64(sp)
    198c:	03c12983          	lw	s3,60(sp)
    1990:	03812a03          	lw	s4,56(sp)
    1994:	03412a83          	lw	s5,52(sp)
    1998:	03012b03          	lw	s6,48(sp)
    199c:	02c12b83          	lw	s7,44(sp)
    19a0:	02812c03          	lw	s8,40(sp)
    19a4:	02412c83          	lw	s9,36(sp)
    19a8:	02012d03          	lw	s10,32(sp)
    19ac:	01c12d83          	lw	s11,28(sp)
    19b0:	05010113          	addi	sp,sp,80
    19b4:	00008067          	ret
    19b8:	fcd5e2e3          	bltu	a1,a3,197c <__umoddi3+0x158>
    19bc:	000107b7          	lui	a5,0x10
    19c0:	00068813          	mv	a6,a3
    19c4:	12f6ec63          	bltu	a3,a5,1afc <__umoddi3+0x2d8>
    19c8:	01000737          	lui	a4,0x1000
    19cc:	00e6b733          	sltu	a4,a3,a4
    19d0:	00174713          	xori	a4,a4,1
    19d4:	40e00733          	neg	a4,a4
    19d8:	00877713          	andi	a4,a4,8
    19dc:	01070713          	addi	a4,a4,16 # 1000010 <_gp+0xffcfe0>
    19e0:	000027b7          	lui	a5,0x2
    19e4:	00e6d5b3          	srl	a1,a3,a4
    19e8:	1b878793          	addi	a5,a5,440 # 21b8 <__clz_tab>
    19ec:	00f587b3          	add	a5,a1,a5
    19f0:	0007cb03          	lbu	s6,0(a5)
    19f4:	02000593          	li	a1,32
    19f8:	00eb0b33          	add	s6,s6,a4
    19fc:	41658a33          	sub	s4,a1,s6
    1a00:	120a1663          	bnez	s4,1b2c <__umoddi3+0x308>
    1a04:	01586663          	bltu	a6,s5,1a10 <__umoddi3+0x1ec>
    1a08:	00040513          	mv	a0,s0
    1a0c:	0129ea63          	bltu	s3,s2,1a20 <__umoddi3+0x1fc>
    1a10:	40c40533          	sub	a0,s0,a2
    1a14:	40d486b3          	sub	a3,s1,a3
    1a18:	00a43433          	sltu	s0,s0,a0
    1a1c:	40868ab3          	sub	s5,a3,s0
    1a20:	000a8593          	mv	a1,s5
    1a24:	f59ff06f          	j	197c <__umoddi3+0x158>
    1a28:	00061a63          	bnez	a2,1a3c <__umoddi3+0x218>
    1a2c:	00000593          	li	a1,0
    1a30:	00100513          	li	a0,1
    1a34:	3dc000ef          	jal	1e10 <__udivsi3>
    1a38:	00050913          	mv	s2,a0
    1a3c:	000107b7          	lui	a5,0x10
    1a40:	0cf96663          	bltu	s2,a5,1b0c <__umoddi3+0x2e8>
    1a44:	010007b7          	lui	a5,0x1000
    1a48:	00f937b3          	sltu	a5,s2,a5
    1a4c:	0017c793          	xori	a5,a5,1
    1a50:	40f007b3          	neg	a5,a5
    1a54:	0087f793          	andi	a5,a5,8
    1a58:	01078793          	addi	a5,a5,16 # 1000010 <_gp+0xffcfe0>
    1a5c:	00002737          	lui	a4,0x2
    1a60:	00f956b3          	srl	a3,s2,a5
    1a64:	1b870713          	addi	a4,a4,440 # 21b8 <__clz_tab>
    1a68:	00e68733          	add	a4,a3,a4
    1a6c:	00074703          	lbu	a4,0(a4)
    1a70:	02000513          	li	a0,32
    1a74:	00f707b3          	add	a5,a4,a5
    1a78:	40f50a33          	sub	s4,a0,a5
    1a7c:	240a1863          	bnez	s4,1ccc <__umoddi3+0x4a8>
    1a80:	01091b93          	slli	s7,s2,0x10
    1a84:	412484b3          	sub	s1,s1,s2
    1a88:	01095b13          	srli	s6,s2,0x10
    1a8c:	010bdb93          	srli	s7,s7,0x10
    1a90:	000b0593          	mv	a1,s6
    1a94:	00048513          	mv	a0,s1
    1a98:	3c0000ef          	jal	1e58 <__umodsi3>
    1a9c:	00050a93          	mv	s5,a0
    1aa0:	000b0593          	mv	a1,s6
    1aa4:	00048513          	mv	a0,s1
    1aa8:	368000ef          	jal	1e10 <__udivsi3>
    1aac:	000b8593          	mv	a1,s7
    1ab0:	334000ef          	jal	1de4 <__mulsi3>
    1ab4:	010a9a93          	slli	s5,s5,0x10
    1ab8:	0109d793          	srli	a5,s3,0x10
    1abc:	0157e7b3          	or	a5,a5,s5
    1ac0:	00a7fa63          	bleu	a0,a5,1ad4 <__umoddi3+0x2b0>
    1ac4:	012787b3          	add	a5,a5,s2
    1ac8:	0127e663          	bltu	a5,s2,1ad4 <__umoddi3+0x2b0>
    1acc:	00a7f463          	bleu	a0,a5,1ad4 <__umoddi3+0x2b0>
    1ad0:	012787b3          	add	a5,a5,s2
    1ad4:	40a78433          	sub	s0,a5,a0
    1ad8:	000b0593          	mv	a1,s6
    1adc:	00040513          	mv	a0,s0
    1ae0:	378000ef          	jal	1e58 <__umodsi3>
    1ae4:	000b0593          	mv	a1,s6
    1ae8:	00050493          	mv	s1,a0
    1aec:	00040513          	mv	a0,s0
    1af0:	320000ef          	jal	1e10 <__udivsi3>
    1af4:	000b8593          	mv	a1,s7
    1af8:	e51ff06f          	j	1948 <__umoddi3+0x124>
    1afc:	0ff00713          	li	a4,255
    1b00:	00d73733          	sltu	a4,a4,a3
    1b04:	00371713          	slli	a4,a4,0x3
    1b08:	ed9ff06f          	j	19e0 <__umoddi3+0x1bc>
    1b0c:	0ff00793          	li	a5,255
    1b10:	0127b7b3          	sltu	a5,a5,s2
    1b14:	00379793          	slli	a5,a5,0x3
    1b18:	f45ff06f          	j	1a5c <__umoddi3+0x238>
    1b1c:	0ff00793          	li	a5,255
    1b20:	00c7b7b3          	sltu	a5,a5,a2
    1b24:	00379793          	slli	a5,a5,0x3
    1b28:	d71ff06f          	j	1898 <__umoddi3+0x74>
    1b2c:	016659b3          	srl	s3,a2,s6
    1b30:	014696b3          	sll	a3,a3,s4
    1b34:	0136e9b3          	or	s3,a3,s3
    1b38:	0164dab3          	srl	s5,s1,s6
    1b3c:	0109db93          	srli	s7,s3,0x10
    1b40:	014496b3          	sll	a3,s1,s4
    1b44:	000b8593          	mv	a1,s7
    1b48:	016454b3          	srl	s1,s0,s6
    1b4c:	000a8513          	mv	a0,s5
    1b50:	00d4e4b3          	or	s1,s1,a3
    1b54:	01461933          	sll	s2,a2,s4
    1b58:	300000ef          	jal	1e58 <__umodsi3>
    1b5c:	00050c13          	mv	s8,a0
    1b60:	000b8593          	mv	a1,s7
    1b64:	01099c93          	slli	s9,s3,0x10
    1b68:	000a8513          	mv	a0,s5
    1b6c:	2a4000ef          	jal	1e10 <__udivsi3>
    1b70:	010cdc93          	srli	s9,s9,0x10
    1b74:	00050593          	mv	a1,a0
    1b78:	00050d13          	mv	s10,a0
    1b7c:	000c8513          	mv	a0,s9
    1b80:	264000ef          	jal	1de4 <__mulsi3>
    1b84:	010c1c13          	slli	s8,s8,0x10
    1b88:	0104d793          	srli	a5,s1,0x10
    1b8c:	0187e7b3          	or	a5,a5,s8
    1b90:	01441433          	sll	s0,s0,s4
    1b94:	00a7fa63          	bleu	a0,a5,1ba8 <__umoddi3+0x384>
    1b98:	013787b3          	add	a5,a5,s3
    1b9c:	fffd0713          	addi	a4,s10,-1
    1ba0:	2137fe63          	bleu	s3,a5,1dbc <__umoddi3+0x598>
    1ba4:	00070d13          	mv	s10,a4
    1ba8:	40a78ab3          	sub	s5,a5,a0
    1bac:	000b8593          	mv	a1,s7
    1bb0:	000a8513          	mv	a0,s5
    1bb4:	2a4000ef          	jal	1e58 <__umodsi3>
    1bb8:	00050c13          	mv	s8,a0
    1bbc:	000b8593          	mv	a1,s7
    1bc0:	000a8513          	mv	a0,s5
    1bc4:	24c000ef          	jal	1e10 <__udivsi3>
    1bc8:	00050593          	mv	a1,a0
    1bcc:	00050a93          	mv	s5,a0
    1bd0:	000c8513          	mv	a0,s9
    1bd4:	210000ef          	jal	1de4 <__mulsi3>
    1bd8:	01049693          	slli	a3,s1,0x10
    1bdc:	010c1c13          	slli	s8,s8,0x10
    1be0:	0106d693          	srli	a3,a3,0x10
    1be4:	0186e6b3          	or	a3,a3,s8
    1be8:	00050713          	mv	a4,a0
    1bec:	00a6fa63          	bleu	a0,a3,1c00 <__umoddi3+0x3dc>
    1bf0:	013686b3          	add	a3,a3,s3
    1bf4:	fffa8793          	addi	a5,s5,-1
    1bf8:	1b36fa63          	bleu	s3,a3,1dac <__umoddi3+0x588>
    1bfc:	00078a93          	mv	s5,a5
    1c00:	00010637          	lui	a2,0x10
    1c04:	010d1d13          	slli	s10,s10,0x10
    1c08:	fff60b93          	addi	s7,a2,-1 # ffff <_gp+0xcfcf>
    1c0c:	015d6ab3          	or	s5,s10,s5
    1c10:	017afdb3          	and	s11,s5,s7
    1c14:	01797bb3          	and	s7,s2,s7
    1c18:	000b8593          	mv	a1,s7
    1c1c:	000d8513          	mv	a0,s11
    1c20:	00c12623          	sw	a2,12(sp)
    1c24:	40e684b3          	sub	s1,a3,a4
    1c28:	010ada93          	srli	s5,s5,0x10
    1c2c:	1b8000ef          	jal	1de4 <__mulsi3>
    1c30:	00050c93          	mv	s9,a0
    1c34:	000b8593          	mv	a1,s7
    1c38:	000a8513          	mv	a0,s5
    1c3c:	1a8000ef          	jal	1de4 <__mulsi3>
    1c40:	01095c13          	srli	s8,s2,0x10
    1c44:	00050d13          	mv	s10,a0
    1c48:	000c0593          	mv	a1,s8
    1c4c:	000a8513          	mv	a0,s5
    1c50:	194000ef          	jal	1de4 <__mulsi3>
    1c54:	00050a93          	mv	s5,a0
    1c58:	000c0593          	mv	a1,s8
    1c5c:	000d8513          	mv	a0,s11
    1c60:	184000ef          	jal	1de4 <__mulsi3>
    1c64:	01a50533          	add	a0,a0,s10
    1c68:	010cd793          	srli	a5,s9,0x10
    1c6c:	00a78533          	add	a0,a5,a0
    1c70:	01a57663          	bleu	s10,a0,1c7c <__umoddi3+0x458>
    1c74:	00c12603          	lw	a2,12(sp)
    1c78:	00ca8ab3          	add	s5,s5,a2
    1c7c:	000107b7          	lui	a5,0x10
    1c80:	fff78813          	addi	a6,a5,-1 # ffff <_gp+0xcfcf>
    1c84:	01055593          	srli	a1,a0,0x10
    1c88:	01057533          	and	a0,a0,a6
    1c8c:	01051793          	slli	a5,a0,0x10
    1c90:	010cf633          	and	a2,s9,a6
    1c94:	015585b3          	add	a1,a1,s5
    1c98:	00c78633          	add	a2,a5,a2
    1c9c:	0eb4ec63          	bltu	s1,a1,1d94 <__umoddi3+0x570>
    1ca0:	12b48a63          	beq	s1,a1,1dd4 <__umoddi3+0x5b0>
    1ca4:	40b48733          	sub	a4,s1,a1
    1ca8:	00060793          	mv	a5,a2
    1cac:	40f407b3          	sub	a5,s0,a5
    1cb0:	00f435b3          	sltu	a1,s0,a5
    1cb4:	40b705b3          	sub	a1,a4,a1
    1cb8:	01659533          	sll	a0,a1,s6
    1cbc:	0147d7b3          	srl	a5,a5,s4
    1cc0:	00f56533          	or	a0,a0,a5
    1cc4:	0145d5b3          	srl	a1,a1,s4
    1cc8:	cb5ff06f          	j	197c <__umoddi3+0x158>
    1ccc:	01491933          	sll	s2,s2,s4
    1cd0:	00f4db33          	srl	s6,s1,a5
    1cd4:	01095a93          	srli	s5,s2,0x10
    1cd8:	00f457b3          	srl	a5,s0,a5
    1cdc:	000a8593          	mv	a1,s5
    1ce0:	014494b3          	sll	s1,s1,s4
    1ce4:	000b0513          	mv	a0,s6
    1ce8:	0097ec33          	or	s8,a5,s1
    1cec:	16c000ef          	jal	1e58 <__umodsi3>
    1cf0:	00050993          	mv	s3,a0
    1cf4:	000a8593          	mv	a1,s5
    1cf8:	01091b93          	slli	s7,s2,0x10
    1cfc:	000b0513          	mv	a0,s6
    1d00:	110000ef          	jal	1e10 <__udivsi3>
    1d04:	010bdb93          	srli	s7,s7,0x10
    1d08:	00050593          	mv	a1,a0
    1d0c:	000b8513          	mv	a0,s7
    1d10:	0d4000ef          	jal	1de4 <__mulsi3>
    1d14:	01099993          	slli	s3,s3,0x10
    1d18:	010c5793          	srli	a5,s8,0x10
    1d1c:	0137e7b3          	or	a5,a5,s3
    1d20:	014419b3          	sll	s3,s0,s4
    1d24:	00a7fa63          	bleu	a0,a5,1d38 <__umoddi3+0x514>
    1d28:	012787b3          	add	a5,a5,s2
    1d2c:	0127e663          	bltu	a5,s2,1d38 <__umoddi3+0x514>
    1d30:	00a7f463          	bleu	a0,a5,1d38 <__umoddi3+0x514>
    1d34:	012787b3          	add	a5,a5,s2
    1d38:	40a78b33          	sub	s6,a5,a0
    1d3c:	000a8593          	mv	a1,s5
    1d40:	000b0513          	mv	a0,s6
    1d44:	114000ef          	jal	1e58 <__umodsi3>
    1d48:	00050413          	mv	s0,a0
    1d4c:	000a8593          	mv	a1,s5
    1d50:	000b0513          	mv	a0,s6
    1d54:	0bc000ef          	jal	1e10 <__udivsi3>
    1d58:	00050593          	mv	a1,a0
    1d5c:	000b8513          	mv	a0,s7
    1d60:	084000ef          	jal	1de4 <__mulsi3>
    1d64:	010c1793          	slli	a5,s8,0x10
    1d68:	01041413          	slli	s0,s0,0x10
    1d6c:	0107d793          	srli	a5,a5,0x10
    1d70:	0087e7b3          	or	a5,a5,s0
    1d74:	00a7fa63          	bleu	a0,a5,1d88 <__umoddi3+0x564>
    1d78:	012787b3          	add	a5,a5,s2
    1d7c:	0127e663          	bltu	a5,s2,1d88 <__umoddi3+0x564>
    1d80:	00a7f463          	bleu	a0,a5,1d88 <__umoddi3+0x564>
    1d84:	012787b3          	add	a5,a5,s2
    1d88:	40a784b3          	sub	s1,a5,a0
    1d8c:	000a8b13          	mv	s6,s5
    1d90:	d01ff06f          	j	1a90 <__umoddi3+0x26c>
    1d94:	412607b3          	sub	a5,a2,s2
    1d98:	41358733          	sub	a4,a1,s3
    1d9c:	00f63633          	sltu	a2,a2,a5
    1da0:	40c70633          	sub	a2,a4,a2
    1da4:	40c48733          	sub	a4,s1,a2
    1da8:	f05ff06f          	j	1cac <__umoddi3+0x488>
    1dac:	e4a6f8e3          	bleu	a0,a3,1bfc <__umoddi3+0x3d8>
    1db0:	ffea8a93          	addi	s5,s5,-2
    1db4:	013686b3          	add	a3,a3,s3
    1db8:	e49ff06f          	j	1c00 <__umoddi3+0x3dc>
    1dbc:	dea7f4e3          	bleu	a0,a5,1ba4 <__umoddi3+0x380>
    1dc0:	ffed0d13          	addi	s10,s10,-2
    1dc4:	013787b3          	add	a5,a5,s3
    1dc8:	de1ff06f          	j	1ba8 <__umoddi3+0x384>
    1dcc:	012787b3          	add	a5,a5,s2
    1dd0:	b51ff06f          	j	1920 <__umoddi3+0xfc>
    1dd4:	fcc460e3          	bltu	s0,a2,1d94 <__umoddi3+0x570>
    1dd8:	00060793          	mv	a5,a2
    1ddc:	00000713          	li	a4,0
    1de0:	ecdff06f          	j	1cac <__umoddi3+0x488>

00001de4 <__mulsi3>:
    1de4:	00050613          	mv	a2,a0
    1de8:	00000513          	li	a0,0
    1dec:	0015f693          	andi	a3,a1,1
    1df0:	00068463          	beqz	a3,1df8 <__mulsi3+0x14>
    1df4:	00c50533          	add	a0,a0,a2
    1df8:	0015d593          	srli	a1,a1,0x1
    1dfc:	00161613          	slli	a2,a2,0x1
    1e00:	fe0596e3          	bnez	a1,1dec <__mulsi3+0x8>
    1e04:	00008067          	ret

00001e08 <__divsi3>:
    1e08:	06054063          	bltz	a0,1e68 <__umodsi3+0x10>
    1e0c:	0605c663          	bltz	a1,1e78 <__umodsi3+0x20>

00001e10 <__udivsi3>:
    1e10:	00058613          	mv	a2,a1
    1e14:	00050593          	mv	a1,a0
    1e18:	fff00513          	li	a0,-1
    1e1c:	02060c63          	beqz	a2,1e54 <__udivsi3+0x44>
    1e20:	00100693          	li	a3,1
    1e24:	00b67a63          	bleu	a1,a2,1e38 <__udivsi3+0x28>
    1e28:	00c05863          	blez	a2,1e38 <__udivsi3+0x28>
    1e2c:	00161613          	slli	a2,a2,0x1
    1e30:	00169693          	slli	a3,a3,0x1
    1e34:	feb66ae3          	bltu	a2,a1,1e28 <__udivsi3+0x18>
    1e38:	00000513          	li	a0,0
    1e3c:	00c5e663          	bltu	a1,a2,1e48 <__udivsi3+0x38>
    1e40:	40c585b3          	sub	a1,a1,a2
    1e44:	00d56533          	or	a0,a0,a3
    1e48:	0016d693          	srli	a3,a3,0x1
    1e4c:	00165613          	srli	a2,a2,0x1
    1e50:	fe0696e3          	bnez	a3,1e3c <__udivsi3+0x2c>
    1e54:	00008067          	ret

00001e58 <__umodsi3>:
    1e58:	00008293          	mv	t0,ra
    1e5c:	fb5ff0ef          	jal	1e10 <__udivsi3>
    1e60:	00058513          	mv	a0,a1
    1e64:	00028067          	jr	t0
    1e68:	40a00533          	neg	a0,a0
    1e6c:	0005d863          	bgez	a1,1e7c <__umodsi3+0x24>
    1e70:	40b005b3          	neg	a1,a1
    1e74:	f95ff06f          	j	1e08 <__divsi3>
    1e78:	40b005b3          	neg	a1,a1
    1e7c:	00008293          	mv	t0,ra
    1e80:	f89ff0ef          	jal	1e08 <__divsi3>
    1e84:	40a00533          	neg	a0,a0
    1e88:	00028067          	jr	t0

00001e8c <__modsi3>:
    1e8c:	00008293          	mv	t0,ra
    1e90:	0005ca63          	bltz	a1,1ea4 <__modsi3+0x18>
    1e94:	00054c63          	bltz	a0,1eac <__modsi3+0x20>
    1e98:	f79ff0ef          	jal	1e10 <__udivsi3>
    1e9c:	00058513          	mv	a0,a1
    1ea0:	00028067          	jr	t0
    1ea4:	40b005b3          	neg	a1,a1
    1ea8:	fe0558e3          	bgez	a0,1e98 <__modsi3+0xc>
    1eac:	40a00533          	neg	a0,a0
    1eb0:	f61ff0ef          	jal	1e10 <__udivsi3>
    1eb4:	40b00533          	neg	a0,a1
    1eb8:	00028067          	jr	t0

Disassembly of section .text.startup:

00001ebc <main>:
    1ebc:	ff010113          	addi	sp,sp,-16
    1ec0:	00100513          	li	a0,1
    1ec4:	00812423          	sw	s0,8(sp)
    1ec8:	00050413          	mv	s0,a0
    1ecc:	00912223          	sw	s1,4(sp)
    1ed0:	01212023          	sw	s2,0(sp)
    1ed4:	00112623          	sw	ra,12(sp)
    1ed8:	00040493          	mv	s1,s0
    1edc:	dcdfe0ef          	jal	ca8 <setStats>
    1ee0:	00b00913          	li	s2,11
    1ee4:	00040593          	mv	a1,s0
    1ee8:	00048513          	mv	a0,s1
    1eec:	ef9ff0ef          	jal	1de4 <__mulsi3>
    1ef0:	00140413          	addi	s0,s0,1
    1ef4:	00050493          	mv	s1,a0
    1ef8:	ff2416e3          	bne	s0,s2,1ee4 <main+0x28>
    1efc:	00000513          	li	a0,0
    1f00:	da9fe0ef          	jal	ca8 <setStats>
    1f04:	00002537          	lui	a0,0x2
    1f08:	00a00593          	li	a1,10
    1f0c:	00048613          	mv	a2,s1
    1f10:	f7050513          	addi	a0,a0,-144 # 1f70 <main+0xb4>
    1f14:	e61fe0ef          	jal	d74 <printf>
    1f18:	003767b7          	lui	a5,0x376
    1f1c:	f0078793          	addi	a5,a5,-256 # 375f00 <_gp+0x372ed0>
    1f20:	00048593          	mv	a1,s1
    1f24:	00f48c63          	beq	s1,a5,1f3c <main+0x80>
    1f28:	00002537          	lui	a0,0x2
    1f2c:	f9850513          	addi	a0,a0,-104 # 1f98 <main+0xdc>
    1f30:	e45fe0ef          	jal	d74 <printf>
    1f34:	00a00513          	li	a0,10
    1f38:	d5dfe0ef          	jal	c94 <exit>
    1f3c:	00002537          	lui	a0,0x2
    1f40:	f8c50513          	addi	a0,a0,-116 # 1f8c <main+0xd0>
    1f44:	e31fe0ef          	jal	d74 <printf>
    1f48:	00000513          	li	a0,0
    1f4c:	d49fe0ef          	jal	c94 <exit>
    1f50:	000025b7          	lui	a1,0x2
    1f54:	04000893          	li	a7,64
    1f58:	00100513          	li	a0,1
    1f5c:	03c58593          	addi	a1,a1,60 # 203c <main+0x180>
    1f60:	01700613          	li	a2,23
    1f64:	00000073          	ecall
    1f68:	fff00513          	li	a0,-1
    1f6c:	00008067          	ret

Disassembly of section .data:

00002380 <verify_data>:
    2380:	00001f3b          	0x1f3b
    2384:	c2fa                	sw	t5,68(sp)
    2386:	33c00003          	lb	zero,828(zero)
    238a:	000c                	addi	a1,sp,0
    238c:	00035147          	fmsub.s	ft2,ft6,ft0,ft0,unknown
    2390:	def8                	sw	a4,124(a3)
    2392:	0004                	addi	s1,sp,0
    2394:	000003d3          	fadd.s	ft7,ft0,ft0,rne
    2398:	ffaa                	fsw	fa0,252(sp)
    239a:	0000                	unimp
    239c:	0bb1                	addi	s7,s7,12
    239e:	6ad5000f          	0x6ad5000f
    23a2:	88960007          	0x88960007
    23a6:	0004                	addi	s1,sp,0
    23a8:	823e                	mv	tp,a5
    23aa:	b0840003          	lb	zero,-1272(s0)
    23ae:	0000                	unimp
    23b0:	5d54                	lw	a3,60(a0)
    23b2:	0000                	unimp
    23b4:	3400                	fld	fs0,40(s0)
    23b6:	0000                	unimp
    23b8:	00019b7b          	0x19b7b
    23bc:	5476                	lw	s0,124(sp)
    23be:	0002                	0x2
    23c0:	a798                	fsd	fa4,8(a5)
    23c2:	12b80007          	0x12b80007
    23c6:	0002                	0x2
    23c8:	cc65                	beqz	s0,24c0 <verify_data+0x140>
    23ca:	0000                	unimp
    23cc:	cf34                	sw	a3,88(a4)
    23ce:	0001                	nop
    23d0:	baa0                	fsd	fs0,112(a3)
    23d2:	0002                	0x2
    23d4:	4180                	lw	s0,0(a1)
    23d6:	0002                	0x2
    23d8:	082e                	slli	a6,a6,0xb
    23da:	0000                	unimp
    23dc:	b3ac                	fsd	fa1,96(a5)
    23de:	0008                	addi	a0,sp,0
    23e0:	000200c7          	fmsub.s	ft1,ft4,ft0,ft0,rne
    23e4:	00014f07          	0x14f07
    23e8:	4a4a                	lw	s4,144(sp)
    23ea:	000c                	addi	a1,sp,0
    23ec:	0006783b          	0x6783b
    23f0:	4cb0                	lw	a2,88(s1)
    23f2:	0005                	0x5
    23f4:	e45c                	fsw	fa5,12(s0)
    23f6:	0005                	0x5
    23f8:	cbb0                	sw	a2,80(a5)
    23fa:	0002                	0x2
    23fc:	719c                	flw	fa5,32(a1)
    23fe:	0001                	nop
    2400:	7240                	flw	fs0,36(a2)
    2402:	0008                	addi	a0,sp,0
    2404:	1938                	addi	a4,sp,184
    2406:	0000                	unimp
    2408:	a4aa                	fsd	fa0,72(sp)
    240a:	0001                	nop
    240c:	6e74                	flw	fa3,92(a2)
    240e:	0009                	0x9
    2410:	58d4                	lw	a3,52(s1)
    2412:	0001                	nop
    2414:	0bb8                	addi	a4,sp,472
    2416:	0000                	unimp
    2418:	16a8                	addi	a0,sp,872
    241a:	0001                	nop
    241c:	de94                	sw	a3,56(a3)
    241e:	0004                	addi	s1,sp,0
    2420:	1b6c                	addi	a1,sp,444
    2422:	c3500003          	lb	zero,-971(zero)
    2426:	0000                	unimp
    2428:	640e                	flw	fs0,192(sp)
    242a:	0002                	0x2
    242c:	bf80                	fsd	fs0,56(a5)
    242e:	0005                	0x5
    2430:	0d69                	addi	s10,s10,26
    2432:	0004                	addi	s1,sp,0
    2434:	69a1                	lui	s3,0x8
    2436:	9f340007          	0x9f340007
    243a:	0002                	0x2
    243c:	2780                	fld	fs0,8(a5)
    243e:	0005                	0x5
    2440:	2944                	fld	fs1,144(a0)
    2442:	0002                	0x2
    2444:	6e48                	flw	fa0,28(a2)
    2446:	0004                	addi	s1,sp,0
    2448:	7586                	flw	fa1,96(sp)
    244a:	a6fe0007          	0xa6fe0007
    244e:	0000                	unimp
    2450:	068c                	addi	a1,sp,832
    2452:	0009                	0x9
    2454:	95a0                	0x95a0
    2456:	0006                	0x6
    2458:	d198                	sw	a4,32(a1)
    245a:	0001                	nop
    245c:	abd8                	fsd	fa4,144(a5)
    245e:	0000                	unimp
    2460:	9ec0                	0x9ec0
    2462:	0001                	nop
    2464:	74f0                	flw	fa2,108(s1)
    2466:	0001                	nop
    2468:	693a                	flw	fs2,140(sp)
    246a:	000d                	0xd
    246c:	2038                	fld	fa4,64(s0)
    246e:	0002                	0x2
    2470:	5e60                	lw	s0,124(a2)
    2472:	0002                	0x2
    2474:	60aa                	flw	ft1,136(sp)
    2476:	0006                	0x6
    2478:	087f                	0x87f
    247a:	0001                	nop
    247c:	5005                	0x5005
    247e:	0001                	nop
    2480:	e7ad                	bnez	a5,24ea <verify_data+0x16a>
    2482:	0001                	nop
    2484:	b528                	fsd	fa0,104(a0)
    2486:	0000                	unimp
    2488:	96d0                	0x96d0
    248a:	0002                	0x2
    248c:	199f 0003 8153      	0x81530003199f
    2492:	0004                	addi	s1,sp,0
    2494:	202c                	fld	fa1,64(s0)
    2496:	0008                	addi	a0,sp,0
    2498:	3ee2                	fld	ft9,56(sp)
    249a:	95570003          	lb	zero,-1707(a4)
    249e:	0004                	addi	s1,sp,0
    24a0:	8c39                	xor	s0,s0,a4
    24a2:	0db00003          	lb	zero,219(zero)
    24a6:	0006                	0x6
    24a8:	c976                	sw	t4,144(sp)
    24aa:	0002                	0x2
    24ac:	d370                	sw	a2,100(a4)
    24ae:	000a                	0xa
    24b0:	178d                	addi	a5,a5,-29
    24b2:	0001                	nop
    24b4:	bad0                	fsd	fa2,176(a3)
    24b6:	0006                	0x6
    24b8:	7146                	flw	ft2,112(sp)
    24ba:	0000                	unimp
    24bc:	cc7c                	sw	a5,92(s0)
    24be:	0000                	unimp
    24c0:	6118                	flw	fa4,0(a0)
    24c2:	0002                	0x2
    24c4:	5dd8                	lw	a4,60(a1)
    24c6:	000e                	0xe
    24c8:	3776                	fld	fa4,376(sp)
    24ca:	0000                	unimp
    24cc:	4ee0                	lw	s0,92(a3)
    24ce:	10a90003          	lb	zero,266(s2)
    24d2:	0005                	0x5
    24d4:	99e8                	0x99e8
    24d6:	ce100007          	0xce100007
    24da:	0005                	0x5
    24dc:	bb3c                	fsd	fa5,112(a4)
    24de:	c31c0007          	0xc31c0007
    24e2:	0004                	addi	s1,sp,0
    24e4:	fb50                	fsw	fa2,52(a4)
    24e6:	0002                	0x2
    24e8:	e6b5                	bnez	a3,2554 <input_data2+0x44>
    24ea:	0001                	nop
    24ec:	a80e                	fsd	ft3,16(sp)
    24ee:	0001                	nop
    24f0:	c99f 0007 4ea8      	0x4ea80007c99f
    24f6:	0002                	0x2
    24f8:	71b8                	flw	fa4,96(a1)
    24fa:	26a9000b          	custom0	0,18,10,19
    24fe:	0001                	nop
    2500:	000b0883          	lb	a7,0(s6)
    2504:	3be0                	fld	fs0,240(a5)
    2506:	d5270003          	lb	zero,-686(a4)
    250a:	f7300003          	lb	zero,-141(zero)
    250e:	0001                	nop

00002510 <input_data2>:
    2510:	000000c3          	fmadd.s	ft1,ft0,ft0,ft0,rne
    2514:	021f 0000 03c0      	0x3c00000021f
    251a:	0000                	unimp
    251c:	0289                	addi	t0,t0,2
    251e:	0000                	unimp
    2520:	0236                	slli	tp,tp,0xd
    2522:	0000                	unimp
    2524:	000003d3          	fadd.s	ft7,ft0,ft0,rne
    2528:	015e                	slli	sp,sp,0x17
    252a:	0000                	unimp
    252c:	03e5                	addi	t2,t2,25
    252e:	0000                	unimp
    2530:	0289                	addi	t0,t0,2
    2532:	0000                	unimp
    2534:	032e                	slli	t1,t1,0xb
    2536:	0000                	unimp
    2538:	0291                	addi	t0,t0,4
    253a:	0000                	unimp
    253c:	0000004f          	fnmadd.s	ft0,ft0,ft0,ft0,rne
    2540:	00b5                	addi	ra,ra,13
    2542:	0000                	unimp
    2544:	00d0                	addi	a2,sp,68
    2546:	0000                	unimp
    2548:	0000006f          	j	2548 <input_data2+0x38>
    254c:	03e6                	slli	t2,t2,0x19
    254e:	0000                	unimp
    2550:	0000035b          	custom2	6,0,0,0
    2554:	0275                	addi	tp,tp,29
    2556:	0000                	unimp
    2558:	0041                	0x41
    255a:	0000                	unimp
    255c:	0000034f          	fnmadd.s	ft6,ft0,ft0,ft0,rne
    2560:	0120                	addi	s0,sp,136
    2562:	0000                	unimp
    2564:	02c0                	addi	s0,sp,324
    2566:	0000                	unimp
    2568:	015d                	addi	sp,sp,23
    256a:	0000                	unimp
    256c:	03e5                	addi	t2,t2,25
    256e:	0000                	unimp
    2570:	008d                	addi	ra,ra,3
    2572:	0000                	unimp
    2574:	00fd                	addi	ra,ra,31
    2576:	0000                	unimp
    2578:	0389                	addi	t2,t2,2
    257a:	0000                	unimp
    257c:	000002cb          	fnmsub.s	ft5,ft0,ft0,ft0,rne
    2580:	0376                	slli	t1,t1,0x1d
    2582:	0000                	unimp
    2584:	01ae                	slli	gp,gp,0xb
    2586:	0000                	unimp
    2588:	0108                	addi	a0,sp,128
    258a:	0000                	unimp
    258c:	019f 0000 0240      	0x2400000019f
    2592:	0000                	unimp
    2594:	021a                	slli	tp,tp,0x6
    2596:	0000                	unimp
    2598:	000003d3          	fadd.s	ft7,ft0,ft0,rne
    259c:	02bc                	addi	a5,sp,328
    259e:	0000                	unimp
    25a0:	02f9                	addi	t0,t0,30
    25a2:	0000                	unimp
    25a4:	0004                	addi	s1,sp,0
    25a6:	0000                	unimp
    25a8:	00f1                	addi	ra,ra,28
    25aa:	0000                	unimp
    25ac:	01ee                	slli	gp,gp,0x1b
    25ae:	0000                	unimp
    25b0:	01de                	slli	gp,gp,0x17
    25b2:	0000                	unimp
    25b4:	0064                	addi	s1,sp,12
    25b6:	0000                	unimp
    25b8:	000001f3          	0x1f3
    25bc:	0360                	addi	s0,sp,396
    25be:	0000                	unimp
    25c0:	00000193          	li	gp,0
    25c4:	02b5                	addi	t0,t0,13
    25c6:	0000                	unimp
    25c8:	00de                	slli	ra,ra,0x17
    25ca:	0000                	unimp
    25cc:	01a0                	addi	s0,sp,200
    25ce:	0000                	unimp
    25d0:	01bc                	addi	a5,sp,200
    25d2:	0000                	unimp
    25d4:	0128                	addi	a0,sp,136
    25d6:	0000                	unimp
    25d8:	02d1                	addi	t0,t0,20
    25da:	0000                	unimp
    25dc:	011d                	addi	sp,sp,7
    25de:	0000                	unimp
    25e0:	02a4                	addi	s1,sp,328
    25e2:	0000                	unimp
    25e4:	026c                	addi	a1,sp,268
    25e6:	0000                	unimp
    25e8:	013d                	addi	sp,sp,15
    25ea:	0000                	unimp
    25ec:	004e                	0x4e
    25ee:	0000                	unimp
    25f0:	00e0                	addi	s0,sp,76
    25f2:	0000                	unimp
    25f4:	015f 0000 03a9      	0x3a90000015f
    25fa:	0000                	unimp
    25fc:	021c                	addi	a5,sp,256
    25fe:	0000                	unimp
    2600:	0120                	addi	s0,sp,136
    2602:	0000                	unimp
    2604:	0286                	slli	t0,t0,0x1
    2606:	0000                	unimp
    2608:	00000077          	0x77
    260c:	00a9                	addi	ra,ra,10
    260e:	0000                	unimp
    2610:	00000267          	jalr	tp,zero
    2614:	0000020f          	0x20f
    2618:	025e                	slli	tp,tp,0x17
    261a:	0000                	unimp
    261c:	0121                	addi	sp,sp,8
    261e:	0000                	unimp
    2620:	0185                	addi	gp,gp,1
    2622:	0000                	unimp
    2624:	031c                	addi	a5,sp,384
    2626:	0000                	unimp
    2628:	015f 0000 0321      	0x3210000015f
    262e:	0000                	unimp
    2630:	000001c7          	fmsub.s	ft3,ft0,ft0,ft0,rne
    2634:	02d0                	addi	a2,sp,324
    2636:	0000                	unimp
    2638:	0116                	slli	sp,sp,0x5
    263a:	0000                	unimp
    263c:	02f6                	slli	t0,t0,0x1d
    263e:	0000                	unimp
    2640:	0000016f          	jal	sp,2640 <input_data2+0x130>
    2644:	02e9                	addi	t0,t0,26
    2646:	0000                	unimp
    2648:	0166                	slli	sp,sp,0x19
    264a:	0000                	unimp
    264c:	005c                	addi	a5,sp,4
    264e:	0000                	unimp
    2650:	0248                	addi	a0,sp,260
    2652:	0000                	unimp
    2654:	03dd                	addi	t2,t2,23
    2656:	0000                	unimp
    2658:	003e                	0x3e
    265a:	0000                	unimp
    265c:	0000010f          	0x10f
    2660:	03d9                	addi	t2,t2,22
    2662:	0000                	unimp
    2664:	0355                	addi	t1,t1,21
    2666:	0000                	unimp
    2668:	00000193          	li	gp,0
    266c:	0314                	addi	a3,sp,384
    266e:	0000                	unimp
    2670:	015a                	slli	sp,sp,0x16
    2672:	0000                	unimp
    2674:	00000213          	li	tp,0
    2678:	0205                	addi	tp,tp,1
    267a:	0000                	unimp
    267c:	00de                	slli	ra,ra,0x17
    267e:	0000                	unimp
    2680:	0000022f          	0x22f
    2684:	01cd                	addi	gp,gp,19
    2686:	0000                	unimp
    2688:	038c                	addi	a1,sp,448
    268a:	0000                	unimp
    268c:	00f1                	addi	ra,ra,28
    268e:	0000                	unimp
    2690:	00000307          	0x307
    2694:	0166                	slli	sp,sp,0x19
    2696:	0000                	unimp
    2698:	00ff                	0xff
    269a:	0000                	unimp
    269c:	014c                	addi	a1,sp,132
    269e:	0000                	unimp

000026a0 <input_data1>:
    26a0:	0029                	0x29
    26a2:	0000                	unimp
    26a4:	01c6                	slli	gp,gp,0x11
    26a6:	0000                	unimp
    26a8:	0341                	addi	t1,t1,16
    26aa:	0000                	unimp
    26ac:	0000014f          	fnmadd.s	ft2,ft0,ft0,ft0,rne
    26b0:	0234                	addi	a3,sp,264
    26b2:	0000                	unimp
    26b4:	0001                	nop
    26b6:	0000                	unimp
    26b8:	000000bb          	0xbb
    26bc:	03dd                	addi	t2,t2,23
    26be:	0000                	unimp
    26c0:	02ed                	addi	t0,t0,27
    26c2:	0000                	unimp
    26c4:	016d                	addi	sp,sp,27
    26c6:	0000                	unimp
    26c8:	015e                	slli	sp,sp,0x17
    26ca:	0000                	unimp
    26cc:	023c                	addi	a5,sp,264
    26ce:	0000                	unimp
    26d0:	0084                	addi	s1,sp,64
    26d2:	0000                	unimp
    26d4:	0040                	addi	s0,sp,4
    26d6:	0000                	unimp
    26d8:	03b5                	addi	t2,t2,13
    26da:	0000                	unimp
    26dc:	0099                	addi	ra,ra,6
    26de:	0000                	unimp
    26e0:	0248                	addi	a0,sp,260
    26e2:	0000                	unimp
    26e4:	00d8                	addi	a4,sp,68
    26e6:	0000                	unimp
    26e8:	0325                	addi	t1,t1,9
    26ea:	0000                	unimp
    26ec:	008c                	addi	a1,sp,64
    26ee:	0000                	unimp
    26f0:	026d                	addi	tp,tp,27
    26f2:	0000                	unimp
    26f4:	00d2                	slli	ra,ra,0x14
    26f6:	0000                	unimp
    26f8:	0006                	0x6
    26fa:	0000                	unimp
    26fc:	023c                	addi	a5,sp,264
    26fe:	0000                	unimp
    2700:	000003a3          	sb	zero,7(zero)
    2704:	00000153          	fadd.s	ft2,ft0,ft0,rne
    2708:	037a                	slli	t1,t1,0x1e
    270a:	0000                	unimp
    270c:	0251                	addi	tp,tp,20
    270e:	0000                	unimp
    2710:	0188                	addi	a0,sp,192
    2712:	0000                	unimp
    2714:	0382                	slli	t2,t2,0x0
    2716:	0000                	unimp
    2718:	02b6                	slli	t0,t0,0xd
    271a:	0000                	unimp
    271c:	00e4                	addi	s1,sp,76
    271e:	0000                	unimp
    2720:	03c1                	addi	t2,t2,16
    2722:	0000                	unimp
    2724:	000c                	addi	a1,sp,0
    2726:	0000                	unimp
    2728:	006e                	0x6e
    272a:	0000                	unimp
    272c:	00000373          	0x373
    2730:	0074                	addi	a3,sp,12
    2732:	0000                	unimp
    2734:	02ee                	slli	t0,t0,0x1b
    2736:	0000                	unimp
    2738:	0128                	addi	a0,sp,136
    273a:	0000                	unimp
    273c:	0286                	slli	t0,t0,0x1
    273e:	0000                	unimp
    2740:	01aa                	slli	gp,gp,0xa
    2742:	0000                	unimp
    2744:	01f4                	addi	a3,sp,204
    2746:	0000                	unimp
    2748:	013a                	slli	sp,sp,0xe
    274a:	0000                	unimp
    274c:	01b4                	addi	a3,sp,200
    274e:	0000                	unimp
    2750:	00000293          	li	t0,0
    2754:	02bd                	addi	t0,t0,15
    2756:	0000                	unimp
    2758:	0306                	slli	t1,t1,0x1
    275a:	0000                	unimp
    275c:	032c                	addi	a1,sp,392
    275e:	0000                	unimp
    2760:	0000013f 000003d5 	0x3d50000013f
    2768:	02a6                	slli	t0,t0,0x9
    276a:	0000                	unimp
    276c:	0096                	slli	ra,ra,0x5
    276e:	0000                	unimp
    2770:	0000036b          	0x36b
    2774:	02b8                	addi	a4,sp,328
    2776:	0000                	unimp
    2778:	0178                	addi	a4,sp,140
    277a:	0000                	unimp
    277c:	0234                	addi	a3,sp,264
    277e:	0000                	unimp
    2780:	01da                	slli	gp,gp,0x16
    2782:	0000                	unimp
    2784:	0110                	addi	a2,sp,128
    2786:	0000                	unimp
    2788:	03aa                	slli	t2,t2,0xa
    278a:	0000                	unimp
    278c:	0102                	slli	sp,sp,0x0
    278e:	0000                	unimp
    2790:	0000021b          	0x21b
    2794:	00000287          	0x287
    2798:	0239                	addi	tp,tp,14
    279a:	0000                	unimp
    279c:	01fd                	addi	gp,gp,31
    279e:	0000                	unimp
    27a0:	000000cb          	fnmsub.s	ft1,ft0,ft0,ft0,rne
    27a4:	0058                	addi	a4,sp,4
    27a6:	0000                	unimp
    27a8:	0118                	addi	a4,sp,128
    27aa:	0000                	unimp
    27ac:	000002bf 000002f7 	0x2f7000002bf
    27b4:	029d                	addi	t0,t0,7
    27b6:	0000                	unimp
    27b8:	025e                	slli	tp,tp,0x17
    27ba:	0000                	unimp
    27bc:	00000177          	0x177
    27c0:	01ff                	0x1ff
    27c2:	0000                	unimp
    27c4:	00000227          	0x227
    27c8:	0291                	addi	t0,t0,4
    27ca:	0000                	unimp
    27cc:	03a8                	addi	a0,sp,456
    27ce:	0000                	unimp
    27d0:	000000c3          	fmadd.s	ft1,ft0,ft0,ft0,rne
    27d4:	0250                	addi	a2,sp,260
    27d6:	0000                	unimp
    27d8:	0051                	0x51
    27da:	0000                	unimp
    27dc:	0239                	addi	tp,tp,14
    27de:	0000                	unimp
    27e0:	0000010b          	custom0	2,0,0,0
    27e4:	03b8                	addi	a4,sp,456
    27e6:	0000                	unimp
    27e8:	00e5                	addi	ra,ra,25
    27ea:	0000                	unimp
    27ec:	0320                	addi	s0,sp,392
    27ee:	0000                	unimp
    27f0:	0151                	addi	sp,sp,20
    27f2:	0000                	unimp
    27f4:	0248                	addi	a0,sp,260
    27f6:	0000                	unimp
    27f8:	03b0                	addi	a2,sp,456
    27fa:	0000                	unimp
    27fc:	00000283          	lb	t0,0(zero)
    2800:	0386                	slli	t2,t2,0x1
    2802:	0000                	unimp
    2804:	0170                	addi	a2,sp,140
    2806:	0000                	unimp
    2808:	00f1                	addi	ra,ra,28
    280a:	0000                	unimp
    280c:	01e9                	addi	gp,gp,26
    280e:	0000                	unimp
    2810:	0391                	addi	t2,t2,4
    2812:	0000                	unimp
    2814:	0148                	addi	a0,sp,132
    2816:	0000                	unimp
    2818:	033a                	slli	t1,t1,0xe
    281a:	0000                	unimp
    281c:	0139                	addi	sp,sp,14
    281e:	0000                	unimp
    2820:	03a5                	addi	t2,t2,9
    2822:	0000                	unimp
    2824:	0250                	addi	a2,sp,260
    2826:	0000                	unimp
    2828:	03d9                	addi	t2,t2,22
    282a:	0000                	unimp
    282c:	0184                	addi	s1,sp,192
    282e:	0000                	unimp
