
spmv.riscv:     file format elf32-littleriscv


Disassembly of section .text:

00000100 <user_trap_entry>:
     100:	2000006f          	j	300 <trap_entry>
     104:	00000013          	nop
     108:	00000013          	nop
     10c:	00000013          	nop
     110:	00000013          	nop
     114:	00000013          	nop
     118:	00000013          	nop
     11c:	00000013          	nop
     120:	00000013          	nop
     124:	00000013          	nop
     128:	00000013          	nop
     12c:	00000013          	nop
     130:	00000013          	nop
     134:	00000013          	nop
     138:	00000013          	nop
     13c:	00000013          	nop

00000140 <supervisor_trap_entry>:
     140:	0000006f          	j	140 <supervisor_trap_entry>
     144:	00000013          	nop
     148:	00000013          	nop
     14c:	00000013          	nop
     150:	00000013          	nop
     154:	00000013          	nop
     158:	00000013          	nop
     15c:	00000013          	nop
     160:	00000013          	nop
     164:	00000013          	nop
     168:	00000013          	nop
     16c:	00000013          	nop
     170:	00000013          	nop
     174:	00000013          	nop
     178:	00000013          	nop
     17c:	00000013          	nop

00000180 <hypervisor_trap_entry>:
     180:	0000006f          	j	180 <hypervisor_trap_entry>
     184:	00000013          	nop
     188:	00000013          	nop
     18c:	00000013          	nop
     190:	00000013          	nop
     194:	00000013          	nop
     198:	00000013          	nop
     19c:	00000013          	nop
     1a0:	00000013          	nop
     1a4:	00000013          	nop
     1a8:	00000013          	nop
     1ac:	00000013          	nop
     1b0:	00000013          	nop
     1b4:	00000013          	nop
     1b8:	00000013          	nop
     1bc:	00000013          	nop

000001c0 <machine_trap_entry>:
     1c0:	1400006f          	j	300 <trap_entry>
     1c4:	00000013          	nop
     1c8:	00000013          	nop
     1cc:	00000013          	nop
     1d0:	00000013          	nop
     1d4:	00000013          	nop
     1d8:	00000013          	nop
     1dc:	00000013          	nop
     1e0:	00000013          	nop
     1e4:	00000013          	nop
     1e8:	00000013          	nop
     1ec:	00000013          	nop
     1f0:	00000013          	nop
     1f4:	00000013          	nop
     1f8:	00000013          	nop
     1fc:	00000013          	nop

00000200 <_start>:
     200:	00000093          	li	ra,0
     204:	00000113          	li	sp,0
     208:	00000193          	li	gp,0
     20c:	00000213          	li	tp,0
     210:	00000293          	li	t0,0
     214:	00000313          	li	t1,0
     218:	00000393          	li	t2,0
     21c:	00000413          	li	s0,0
     220:	00000493          	li	s1,0
     224:	00000513          	li	a0,0
     228:	00000593          	li	a1,0
     22c:	00000613          	li	a2,0
     230:	00000693          	li	a3,0
     234:	00000713          	li	a4,0
     238:	00000793          	li	a5,0
     23c:	00000813          	li	a6,0
     240:	00000893          	li	a7,0
     244:	00000913          	li	s2,0
     248:	00000993          	li	s3,0
     24c:	00000a13          	li	s4,0
     250:	00000a93          	li	s5,0
     254:	00000b13          	li	s6,0
     258:	00000b93          	li	s7,0
     25c:	00000c13          	li	s8,0
     260:	00000c93          	li	s9,0
     264:	00000d13          	li	s10,0
     268:	00000d93          	li	s11,0
     26c:	00000e13          	li	t3,0
     270:	00000e93          	li	t4,0
     274:	00000f13          	li	t5,0
     278:	00000f93          	li	t6,0
     27c:	03000293          	li	t0,48
     280:	3002b073          	csrc	mstatus,t0
     284:	00800293          	li	t0,8
     288:	3002a073          	csrs	mstatus,t0
     28c:	000032b7          	lui	t0,0x3
     290:	3002a073          	csrs	mstatus,t0
     294:	0000c2b7          	lui	t0,0xc
     298:	3002a073          	csrs	mstatus,t0
     29c:	300022f3          	csrr	t0,mstatus
     2a0:	0000c337          	lui	t1,0xc
     2a4:	0062f333          	and	t1,t0,t1
     2a8:	00027397          	auipc	t2,0x27
     2ac:	ac63a423          	sw	t1,-1336(t2) # 26d70 <have_vec>
     2b0:	00003337          	lui	t1,0x3
     2b4:	0062f333          	and	t1,t0,t1
     2b8:	00030263          	beqz	t1,2bc <_start+0xbc>
     2bc:	00004197          	auipc	gp,0x4
     2c0:	71c18193          	addi	gp,gp,1820 # 49d8 <_gp>
     2c4:	00027217          	auipc	tp,0x27
     2c8:	bbb20213          	addi	tp,tp,-1093 # 26e7f <_end+0x3f>
     2cc:	fc027213          	andi	tp,tp,-64
     2d0:	f1002573          	csrr	a0,mhartid
     2d4:	00100593          	li	a1,1
     2d8:	00b57063          	bleu	a1,a0,2d8 <_start+0xd8>
     2dc:	01151613          	slli	a2,a0,0x11
     2e0:	00c20233          	add	tp,tp,a2
     2e4:	00150113          	addi	sp,a0,1
     2e8:	01111113          	slli	sp,sp,0x11
     2ec:	00410133          	add	sp,sp,tp
     2f0:	00001297          	auipc	t0,0x1
     2f4:	e4428293          	addi	t0,t0,-444 # 1134 <_init>
     2f8:	34129073          	csrw	mepc,t0
     2fc:	10000073          	eret

00000300 <trap_entry>:
     300:	ef010113          	addi	sp,sp,-272
     304:	00112223          	sw	ra,4(sp)
     308:	00212423          	sw	sp,8(sp)
     30c:	00312623          	sw	gp,12(sp)
     310:	00412823          	sw	tp,16(sp)
     314:	00512a23          	sw	t0,20(sp)
     318:	00612c23          	sw	t1,24(sp)
     31c:	00712e23          	sw	t2,28(sp)
     320:	02812023          	sw	s0,32(sp)
     324:	02912223          	sw	s1,36(sp)
     328:	02a12423          	sw	a0,40(sp)
     32c:	02b12623          	sw	a1,44(sp)
     330:	02c12823          	sw	a2,48(sp)
     334:	02d12a23          	sw	a3,52(sp)
     338:	02e12c23          	sw	a4,56(sp)
     33c:	02f12e23          	sw	a5,60(sp)
     340:	05012023          	sw	a6,64(sp)
     344:	05112223          	sw	a7,68(sp)
     348:	05212423          	sw	s2,72(sp)
     34c:	05312623          	sw	s3,76(sp)
     350:	05412823          	sw	s4,80(sp)
     354:	05512a23          	sw	s5,84(sp)
     358:	05612c23          	sw	s6,88(sp)
     35c:	05712e23          	sw	s7,92(sp)
     360:	07812023          	sw	s8,96(sp)
     364:	07912223          	sw	s9,100(sp)
     368:	07a12423          	sw	s10,104(sp)
     36c:	07b12623          	sw	s11,108(sp)
     370:	07c12823          	sw	t3,112(sp)
     374:	07d12a23          	sw	t4,116(sp)
     378:	07e12c23          	sw	t5,120(sp)
     37c:	07f12e23          	sw	t6,124(sp)
     380:	34202573          	csrr	a0,mcause
     384:	341025f3          	csrr	a1,mepc
     388:	00010613          	mv	a2,sp
     38c:	0b9000ef          	jal	c44 <handle_trap>
     390:	34151073          	csrw	mepc,a0
     394:	00412083          	lw	ra,4(sp)
     398:	00812103          	lw	sp,8(sp)
     39c:	00c12183          	lw	gp,12(sp)
     3a0:	01012203          	lw	tp,16(sp)
     3a4:	01412283          	lw	t0,20(sp)
     3a8:	01812303          	lw	t1,24(sp)
     3ac:	01c12383          	lw	t2,28(sp)
     3b0:	02012403          	lw	s0,32(sp)
     3b4:	02412483          	lw	s1,36(sp)
     3b8:	02812503          	lw	a0,40(sp)
     3bc:	02c12583          	lw	a1,44(sp)
     3c0:	03012603          	lw	a2,48(sp)
     3c4:	03412683          	lw	a3,52(sp)
     3c8:	03812703          	lw	a4,56(sp)
     3cc:	03c12783          	lw	a5,60(sp)
     3d0:	04012803          	lw	a6,64(sp)
     3d4:	04412883          	lw	a7,68(sp)
     3d8:	04812903          	lw	s2,72(sp)
     3dc:	04c12983          	lw	s3,76(sp)
     3e0:	05012a03          	lw	s4,80(sp)
     3e4:	05412a83          	lw	s5,84(sp)
     3e8:	05812b03          	lw	s6,88(sp)
     3ec:	05c12b83          	lw	s7,92(sp)
     3f0:	06012c03          	lw	s8,96(sp)
     3f4:	06412c83          	lw	s9,100(sp)
     3f8:	06812d03          	lw	s10,104(sp)
     3fc:	06c12d83          	lw	s11,108(sp)
     400:	07012e03          	lw	t3,112(sp)
     404:	07412e83          	lw	t4,116(sp)
     408:	07812f03          	lw	t5,120(sp)
     40c:	07c12f83          	lw	t6,124(sp)
     410:	11010113          	addi	sp,sp,272
     414:	10000073          	eret

00000418 <spmv>:
     418:	2ea05663          	blez	a0,704 <spmv+0x2ec>
     41c:	fa010113          	addi	sp,sp,-96
     420:	03712e23          	sw	s7,60(sp)
     424:	00251b93          	slli	s7,a0,0x2
     428:	00f12823          	sw	a5,16(sp)
     42c:	017707b3          	add	a5,a4,s7
     430:	05212823          	sw	s2,80(sp)
     434:	05312623          	sw	s3,76(sp)
     438:	04112e23          	sw	ra,92(sp)
     43c:	04812c23          	sw	s0,88(sp)
     440:	04912a23          	sw	s1,84(sp)
     444:	05412423          	sw	s4,72(sp)
     448:	05512223          	sw	s5,68(sp)
     44c:	05612023          	sw	s6,64(sp)
     450:	03812c23          	sw	s8,56(sp)
     454:	03912a23          	sw	s9,52(sp)
     458:	03a12823          	sw	s10,48(sp)
     45c:	03b12623          	sw	s11,44(sp)
     460:	00068913          	mv	s2,a3
     464:	00c12c23          	sw	a2,24(sp)
     468:	00b12a23          	sw	a1,20(sp)
     46c:	00070993          	mv	s3,a4
     470:	00f12e23          	sw	a5,28(sp)
     474:	0049a783          	lw	a5,4(s3)
     478:	00078713          	mv	a4,a5
     47c:	00f12623          	sw	a5,12(sp)
     480:	0009a783          	lw	a5,0(s3)
     484:	ffd70d13          	addi	s10,a4,-3
     488:	00f12423          	sw	a5,8(sp)
     48c:	27a7de63          	ble	s10,a5,708 <spmv+0x2f0>
     490:	01412703          	lw	a4,20(sp)
     494:	00379493          	slli	s1,a5,0x3
     498:	00000813          	li	a6,0
     49c:	009704b3          	add	s1,a4,s1
     4a0:	01812703          	lw	a4,24(sp)
     4a4:	00000893          	li	a7,0
     4a8:	00279413          	slli	s0,a5,0x2
     4ac:	00870433          	add	s0,a4,s0
     4b0:	00078d93          	mv	s11,a5
     4b4:	00080c13          	mv	s8,a6
     4b8:	00088c93          	mv	s9,a7
     4bc:	00080a13          	mv	s4,a6
     4c0:	00088a93          	mv	s5,a7
     4c4:	00080b13          	mv	s6,a6
     4c8:	00088b93          	mv	s7,a7
     4cc:	00042783          	lw	a5,0(s0)
     4d0:	0004a603          	lw	a2,0(s1)
     4d4:	0044a683          	lw	a3,4(s1)
     4d8:	00379793          	slli	a5,a5,0x3
     4dc:	00f907b3          	add	a5,s2,a5
     4e0:	0007a503          	lw	a0,0(a5)
     4e4:	0047a583          	lw	a1,4(a5)
     4e8:	01012023          	sw	a6,0(sp)
     4ec:	01112223          	sw	a7,4(sp)
     4f0:	364020ef          	jal	2854 <__muldf3>
     4f4:	00050613          	mv	a2,a0
     4f8:	00058693          	mv	a3,a1
     4fc:	000b0513          	mv	a0,s6
     500:	000b8593          	mv	a1,s7
     504:	2a4020ef          	jal	27a8 <__adddf3>
     508:	01040413          	addi	s0,s0,16
     50c:	ff442783          	lw	a5,-12(s0)
     510:	02048493          	addi	s1,s1,32
     514:	fe84a603          	lw	a2,-24(s1)
     518:	00379793          	slli	a5,a5,0x3
     51c:	00f907b3          	add	a5,s2,a5
     520:	fec4a683          	lw	a3,-20(s1)
     524:	00050b13          	mv	s6,a0
     528:	00058b93          	mv	s7,a1
     52c:	0007a503          	lw	a0,0(a5)
     530:	0047a583          	lw	a1,4(a5)
     534:	004d8d93          	addi	s11,s11,4
     538:	31c020ef          	jal	2854 <__muldf3>
     53c:	00050613          	mv	a2,a0
     540:	00058693          	mv	a3,a1
     544:	000a0513          	mv	a0,s4
     548:	000a8593          	mv	a1,s5
     54c:	25c020ef          	jal	27a8 <__adddf3>
     550:	ff842783          	lw	a5,-8(s0)
     554:	ff04a603          	lw	a2,-16(s1)
     558:	ff44a683          	lw	a3,-12(s1)
     55c:	00379793          	slli	a5,a5,0x3
     560:	00f907b3          	add	a5,s2,a5
     564:	00050a13          	mv	s4,a0
     568:	00058a93          	mv	s5,a1
     56c:	0007a503          	lw	a0,0(a5)
     570:	0047a583          	lw	a1,4(a5)
     574:	2e0020ef          	jal	2854 <__muldf3>
     578:	00050613          	mv	a2,a0
     57c:	00058693          	mv	a3,a1
     580:	000c0513          	mv	a0,s8
     584:	000c8593          	mv	a1,s9
     588:	220020ef          	jal	27a8 <__adddf3>
     58c:	ffc42783          	lw	a5,-4(s0)
     590:	ff84a603          	lw	a2,-8(s1)
     594:	ffc4a683          	lw	a3,-4(s1)
     598:	00379793          	slli	a5,a5,0x3
     59c:	00f907b3          	add	a5,s2,a5
     5a0:	00050c13          	mv	s8,a0
     5a4:	00058c93          	mv	s9,a1
     5a8:	0007a503          	lw	a0,0(a5)
     5ac:	0047a583          	lw	a1,4(a5)
     5b0:	2a4020ef          	jal	2854 <__muldf3>
     5b4:	00012803          	lw	a6,0(sp)
     5b8:	00412883          	lw	a7,4(sp)
     5bc:	00050613          	mv	a2,a0
     5c0:	00058693          	mv	a3,a1
     5c4:	00080513          	mv	a0,a6
     5c8:	00088593          	mv	a1,a7
     5cc:	1dc020ef          	jal	27a8 <__adddf3>
     5d0:	00050813          	mv	a6,a0
     5d4:	00058893          	mv	a7,a1
     5d8:	efadcae3          	blt	s11,s10,4cc <spmv+0xb4>
     5dc:	00c12783          	lw	a5,12(sp)
     5e0:	00812703          	lw	a4,8(sp)
     5e4:	00050613          	mv	a2,a0
     5e8:	ffc78793          	addi	a5,a5,-4
     5ec:	40e787b3          	sub	a5,a5,a4
     5f0:	ffc7f793          	andi	a5,a5,-4
     5f4:	00470713          	addi	a4,a4,4
     5f8:	00058693          	mv	a3,a1
     5fc:	00e787b3          	add	a5,a5,a4
     600:	000c0513          	mv	a0,s8
     604:	000c8593          	mv	a1,s9
     608:	00f12423          	sw	a5,8(sp)
     60c:	19c020ef          	jal	27a8 <__adddf3>
     610:	000a0613          	mv	a2,s4
     614:	000a8693          	mv	a3,s5
     618:	190020ef          	jal	27a8 <__adddf3>
     61c:	00050d13          	mv	s10,a0
     620:	00058d93          	mv	s11,a1
     624:	00812783          	lw	a5,8(sp)
     628:	00c12703          	lw	a4,12(sp)
     62c:	06e7d663          	ble	a4,a5,698 <spmv+0x280>
     630:	00379413          	slli	s0,a5,0x3
     634:	00279c13          	slli	s8,a5,0x2
     638:	00371c93          	slli	s9,a4,0x3
     63c:	01412783          	lw	a5,20(sp)
     640:	01812703          	lw	a4,24(sp)
     644:	00878433          	add	s0,a5,s0
     648:	01870c33          	add	s8,a4,s8
     64c:	01978cb3          	add	s9,a5,s9
     650:	000c2783          	lw	a5,0(s8)
     654:	00042603          	lw	a2,0(s0)
     658:	00442683          	lw	a3,4(s0)
     65c:	00379793          	slli	a5,a5,0x3
     660:	00f907b3          	add	a5,s2,a5
     664:	0007a503          	lw	a0,0(a5)
     668:	0047a583          	lw	a1,4(a5)
     66c:	00840413          	addi	s0,s0,8
     670:	004c0c13          	addi	s8,s8,4
     674:	1e0020ef          	jal	2854 <__muldf3>
     678:	00050613          	mv	a2,a0
     67c:	00058693          	mv	a3,a1
     680:	000b0513          	mv	a0,s6
     684:	000b8593          	mv	a1,s7
     688:	120020ef          	jal	27a8 <__adddf3>
     68c:	00050b13          	mv	s6,a0
     690:	00058b93          	mv	s7,a1
     694:	fa8c9ee3          	bne	s9,s0,650 <spmv+0x238>
     698:	000d0613          	mv	a2,s10
     69c:	000d8693          	mv	a3,s11
     6a0:	000b0513          	mv	a0,s6
     6a4:	000b8593          	mv	a1,s7
     6a8:	100020ef          	jal	27a8 <__adddf3>
     6ac:	01012783          	lw	a5,16(sp)
     6b0:	00498993          	addi	s3,s3,4
     6b4:	00a7a023          	sw	a0,0(a5)
     6b8:	00b7a223          	sw	a1,4(a5)
     6bc:	00878793          	addi	a5,a5,8
     6c0:	00f12823          	sw	a5,16(sp)
     6c4:	01c12783          	lw	a5,28(sp)
     6c8:	daf996e3          	bne	s3,a5,474 <spmv+0x5c>
     6cc:	05c12083          	lw	ra,92(sp)
     6d0:	05812403          	lw	s0,88(sp)
     6d4:	05412483          	lw	s1,84(sp)
     6d8:	05012903          	lw	s2,80(sp)
     6dc:	04c12983          	lw	s3,76(sp)
     6e0:	04812a03          	lw	s4,72(sp)
     6e4:	04412a83          	lw	s5,68(sp)
     6e8:	04012b03          	lw	s6,64(sp)
     6ec:	03c12b83          	lw	s7,60(sp)
     6f0:	03812c03          	lw	s8,56(sp)
     6f4:	03412c83          	lw	s9,52(sp)
     6f8:	03012d03          	lw	s10,48(sp)
     6fc:	02c12d83          	lw	s11,44(sp)
     700:	06010113          	addi	sp,sp,96
     704:	00008067          	ret
     708:	00000d13          	li	s10,0
     70c:	00000d93          	li	s11,0
     710:	000d0b13          	mv	s6,s10
     714:	000d8b93          	mv	s7,s11
     718:	f0dff06f          	j	624 <spmv+0x20c>

0000071c <putchar>:
     71c:	04022803          	lw	a6,64(tp) # 40 <buflen.2846>
     720:	00020793          	mv	a5,tp
     724:	010787b3          	add	a5,a5,a6
     728:	00180613          	addi	a2,a6,1
     72c:	00a78023          	sb	a0,0(a5)
     730:	04c22023          	sw	a2,64(tp) # 40 <buflen.2846>
     734:	00a00793          	li	a5,10
     738:	00f50a63          	beq	a0,a5,74c <putchar+0x30>
     73c:	04000793          	li	a5,64
     740:	00f60663          	beq	a2,a5,74c <putchar+0x30>
     744:	00000513          	li	a0,0
     748:	00008067          	ret
     74c:	04000893          	li	a7,64
     750:	00100513          	li	a0,1
     754:	00020593          	mv	a1,tp
     758:	00000073          	ecall
     75c:	04022023          	sw	zero,64(tp) # 40 <buflen.2846>
     760:	00000513          	li	a0,0
     764:	00008067          	ret

00000768 <sprintf_putch.2960>:
     768:	0005a783          	lw	a5,0(a1)
     76c:	00a78023          	sb	a0,0(a5)
     770:	0005a783          	lw	a5,0(a1)
     774:	00178793          	addi	a5,a5,1
     778:	00f5a023          	sw	a5,0(a1)
     77c:	00008067          	ret

00000780 <vprintfmt>:
     780:	eb010113          	addi	sp,sp,-336
     784:	13812423          	sw	s8,296(sp)
     788:	00026c37          	lui	s8,0x26
     78c:	508c0793          	addi	a5,s8,1288 # 26508 <verify_data+0x1f40>
     790:	13a12023          	sw	s10,288(sp)
     794:	40000d37          	lui	s10,0x40000
     798:	00f12423          	sw	a5,8(sp)
     79c:	fffd0793          	addi	a5,s10,-1 # 3fffffff <_end+0x3ffd91bf>
     7a0:	14912223          	sw	s1,324(sp)
     7a4:	15212023          	sw	s2,320(sp)
     7a8:	13312e23          	sw	s3,316(sp)
     7ac:	13512a23          	sw	s5,308(sp)
     7b0:	14112623          	sw	ra,332(sp)
     7b4:	14812423          	sw	s0,328(sp)
     7b8:	13412c23          	sw	s4,312(sp)
     7bc:	13612823          	sw	s6,304(sp)
     7c0:	13712623          	sw	s7,300(sp)
     7c4:	13912223          	sw	s9,292(sp)
     7c8:	11b12e23          	sw	s11,284(sp)
     7cc:	00050993          	mv	s3,a0
     7d0:	00058913          	mv	s2,a1
     7d4:	00060493          	mv	s1,a2
     7d8:	00d12223          	sw	a3,4(sp)
     7dc:	02500a93          	li	s5,37
     7e0:	00f12623          	sw	a5,12(sp)
     7e4:	0140006f          	j	7f8 <vprintfmt+0x78>
     7e8:	06050263          	beqz	a0,84c <vprintfmt+0xcc>
     7ec:	00148493          	addi	s1,s1,1
     7f0:	00090593          	mv	a1,s2
     7f4:	000980e7          	jalr	s3
     7f8:	0004c503          	lbu	a0,0(s1)
     7fc:	ff5516e3          	bne	a0,s5,7e8 <vprintfmt+0x68>
     800:	0014c503          	lbu	a0,1(s1)
     804:	00148a13          	addi	s4,s1,1
     808:	fff00413          	li	s0,-1
     80c:	02000793          	li	a5,32
     810:	000a0713          	mv	a4,s4
     814:	00f12023          	sw	a5,0(sp)
     818:	00040b13          	mv	s6,s0
     81c:	00000613          	li	a2,0
     820:	00900593          	li	a1,9
     824:	fdd50793          	addi	a5,a0,-35
     828:	0ff7f793          	andi	a5,a5,255
     82c:	05500693          	li	a3,85
     830:	00170493          	addi	s1,a4,1
     834:	38f6e263          	bltu	a3,a5,bb8 <vprintfmt+0x438>
     838:	00812683          	lw	a3,8(sp)
     83c:	00279793          	slli	a5,a5,0x2
     840:	00d787b3          	add	a5,a5,a3
     844:	0007a783          	lw	a5,0(a5)
     848:	00078067          	jr	a5
     84c:	14c12083          	lw	ra,332(sp)
     850:	14812403          	lw	s0,328(sp)
     854:	14412483          	lw	s1,324(sp)
     858:	14012903          	lw	s2,320(sp)
     85c:	13c12983          	lw	s3,316(sp)
     860:	13812a03          	lw	s4,312(sp)
     864:	13412a83          	lw	s5,308(sp)
     868:	13012b03          	lw	s6,304(sp)
     86c:	12c12b83          	lw	s7,300(sp)
     870:	12812c03          	lw	s8,296(sp)
     874:	12412c83          	lw	s9,292(sp)
     878:	12012d03          	lw	s10,288(sp)
     87c:	11c12d83          	lw	s11,284(sp)
     880:	15010113          	addi	sp,sp,336
     884:	00008067          	ret
     888:	000b5463          	bgez	s6,890 <vprintfmt+0x110>
     88c:	00000b13          	li	s6,0
     890:	00174503          	lbu	a0,1(a4)
     894:	00048713          	mv	a4,s1
     898:	f8dff06f          	j	824 <vprintfmt+0xa4>
     89c:	00800413          	li	s0,8
     8a0:	00000a13          	li	s4,0
     8a4:	00100793          	li	a5,1
     8a8:	28c7d663          	ble	a2,a5,b34 <vprintfmt+0x3b4>
     8ac:	00412783          	lw	a5,4(sp)
     8b0:	00778793          	addi	a5,a5,7
     8b4:	ff87f793          	andi	a5,a5,-8
     8b8:	0007ac83          	lw	s9,0(a5)
     8bc:	0047ab83          	lw	s7,4(a5)
     8c0:	00878713          	addi	a4,a5,8
     8c4:	00e12223          	sw	a4,4(sp)
     8c8:	00040613          	mv	a2,s0
     8cc:	00000693          	li	a3,0
     8d0:	000c8513          	mv	a0,s9
     8d4:	000b8593          	mv	a1,s7
     8d8:	25c010ef          	jal	1b34 <__umoddi3>
     8dc:	00a12823          	sw	a0,16(sp)
     8e0:	337a0c63          	beq	s4,s7,c18 <vprintfmt+0x498>
     8e4:	01410d93          	addi	s11,sp,20
     8e8:	00100d13          	li	s10,1
     8ec:	00040613          	mv	a2,s0
     8f0:	00000693          	li	a3,0
     8f4:	000c8513          	mv	a0,s9
     8f8:	000b8593          	mv	a1,s7
     8fc:	415000ef          	jal	1510 <__udivdi3>
     900:	00040613          	mv	a2,s0
     904:	00000693          	li	a3,0
     908:	00050c93          	mv	s9,a0
     90c:	00058b93          	mv	s7,a1
     910:	224010ef          	jal	1b34 <__umoddi3>
     914:	00ada023          	sw	a0,0(s11)
     918:	001d0c13          	addi	s8,s10,1
     91c:	004d8d93          	addi	s11,s11,4
     920:	017a0663          	beq	s4,s7,92c <vprintfmt+0x1ac>
     924:	000c0d13          	mv	s10,s8
     928:	fc5ff06f          	j	8ec <vprintfmt+0x16c>
     92c:	fe8cfce3          	bleu	s0,s9,924 <vprintfmt+0x1a4>
     930:	fffb0413          	addi	s0,s6,-1
     934:	000d0a13          	mv	s4,s10
     938:	036c5263          	ble	s6,s8,95c <vprintfmt+0x1dc>
     93c:	00012503          	lw	a0,0(sp)
     940:	00090593          	mv	a1,s2
     944:	fff40413          	addi	s0,s0,-1
     948:	000980e7          	jalr	s3
     94c:	00140793          	addi	a5,s0,1
     950:	fefc46e3          	blt	s8,a5,93c <vprintfmt+0x1bc>
     954:	000a0d13          	mv	s10,s4
     958:	eb8050e3          	blez	s8,7f8 <vprintfmt+0x78>
     95c:	002d1793          	slli	a5,s10,0x2
     960:	11010713          	addi	a4,sp,272
     964:	00f707b3          	add	a5,a4,a5
     968:	f007a503          	lw	a0,-256(a5)
     96c:	00c12783          	lw	a5,12(sp)
     970:	000d0413          	mv	s0,s10
     974:	00fd0a33          	add	s4,s10,a5
     978:	002a1a13          	slli	s4,s4,0x2
     97c:	01010793          	addi	a5,sp,16
     980:	01478a33          	add	s4,a5,s4
     984:	0100006f          	j	994 <vprintfmt+0x214>
     988:	000a2503          	lw	a0,0(s4)
     98c:	fff40413          	addi	s0,s0,-1
     990:	ffca0a13          	addi	s4,s4,-4
     994:	00a53793          	sltiu	a5,a0,10
     998:	40f007b3          	neg	a5,a5
     99c:	fd97f793          	andi	a5,a5,-39
     9a0:	05778793          	addi	a5,a5,87
     9a4:	00090593          	mv	a1,s2
     9a8:	00a78533          	add	a0,a5,a0
     9ac:	000980e7          	jalr	s3
     9b0:	fc804ce3          	bgtz	s0,988 <vprintfmt+0x208>
     9b4:	e45ff06f          	j	7f8 <vprintfmt+0x78>
     9b8:	00412783          	lw	a5,4(sp)
     9bc:	00174503          	lbu	a0,1(a4)
     9c0:	00048713          	mv	a4,s1
     9c4:	0007a403          	lw	s0,0(a5)
     9c8:	00478793          	addi	a5,a5,4
     9cc:	00f12223          	sw	a5,4(sp)
     9d0:	e40b5ae3          	bgez	s6,824 <vprintfmt+0xa4>
     9d4:	00040b13          	mv	s6,s0
     9d8:	fff00413          	li	s0,-1
     9dc:	e49ff06f          	j	824 <vprintfmt+0xa4>
     9e0:	03000793          	li	a5,48
     9e4:	00174503          	lbu	a0,1(a4)
     9e8:	00f12023          	sw	a5,0(sp)
     9ec:	00048713          	mv	a4,s1
     9f0:	e35ff06f          	j	824 <vprintfmt+0xa4>
     9f4:	02d00793          	li	a5,45
     9f8:	00174503          	lbu	a0,1(a4)
     9fc:	00f12023          	sw	a5,0(sp)
     a00:	00048713          	mv	a4,s1
     a04:	e21ff06f          	j	824 <vprintfmt+0xa4>
     a08:	00174683          	lbu	a3,1(a4)
     a0c:	fd050413          	addi	s0,a0,-48
     a10:	00048713          	mv	a4,s1
     a14:	fd068793          	addi	a5,a3,-48
     a18:	1ef5ea63          	bltu	a1,a5,c0c <vprintfmt+0x48c>
     a1c:	00141793          	slli	a5,s0,0x1
     a20:	00341413          	slli	s0,s0,0x3
     a24:	00878433          	add	s0,a5,s0
     a28:	00170713          	addi	a4,a4,1
     a2c:	00d40433          	add	s0,s0,a3
     a30:	00074683          	lbu	a3,0(a4)
     a34:	fd040413          	addi	s0,s0,-48
     a38:	fd068793          	addi	a5,a3,-48
     a3c:	fef5f0e3          	bleu	a5,a1,a1c <vprintfmt+0x29c>
     a40:	00068513          	mv	a0,a3
     a44:	f8dff06f          	j	9d0 <vprintfmt+0x250>
     a48:	00412783          	lw	a5,4(sp)
     a4c:	00090593          	mv	a1,s2
     a50:	0007a503          	lw	a0,0(a5)
     a54:	00478c93          	addi	s9,a5,4
     a58:	000980e7          	jalr	s3
     a5c:	01912223          	sw	s9,4(sp)
     a60:	d99ff06f          	j	7f8 <vprintfmt+0x78>
     a64:	00412783          	lw	a5,4(sp)
     a68:	0007ac03          	lw	s8,0(a5)
     a6c:	00478c93          	addi	s9,a5,4
     a70:	160c0c63          	beqz	s8,be8 <vprintfmt+0x468>
     a74:	03605c63          	blez	s6,aac <vprintfmt+0x32c>
     a78:	00012783          	lw	a5,0(sp)
     a7c:	02d00713          	li	a4,45
     a80:	14e78c63          	beq	a5,a4,bd8 <vprintfmt+0x458>
     a84:	00040593          	mv	a1,s0
     a88:	000c0513          	mv	a0,s8
     a8c:	241000ef          	jal	14cc <strnlen>
     a90:	40ab0b33          	sub	s6,s6,a0
     a94:	01605c63          	blez	s6,aac <vprintfmt+0x32c>
     a98:	00012503          	lw	a0,0(sp)
     a9c:	fffb0b13          	addi	s6,s6,-1
     aa0:	00090593          	mv	a1,s2
     aa4:	000980e7          	jalr	s3
     aa8:	fe0b18e3          	bnez	s6,a98 <vprintfmt+0x318>
     aac:	000c4503          	lbu	a0,0(s8)
     ab0:	04050263          	beqz	a0,af4 <vprintfmt+0x374>
     ab4:	fff00a13          	li	s4,-1
     ab8:	00044663          	bltz	s0,ac4 <vprintfmt+0x344>
     abc:	fff40413          	addi	s0,s0,-1
     ac0:	01440e63          	beq	s0,s4,adc <vprintfmt+0x35c>
     ac4:	00090593          	mv	a1,s2
     ac8:	001c0c13          	addi	s8,s8,1
     acc:	000980e7          	jalr	s3
     ad0:	000c4503          	lbu	a0,0(s8)
     ad4:	fffb0b13          	addi	s6,s6,-1
     ad8:	fe0510e3          	bnez	a0,ab8 <vprintfmt+0x338>
     adc:	01605c63          	blez	s6,af4 <vprintfmt+0x374>
     ae0:	fffb0b13          	addi	s6,s6,-1
     ae4:	00090593          	mv	a1,s2
     ae8:	02000513          	li	a0,32
     aec:	000980e7          	jalr	s3
     af0:	fe0b18e3          	bnez	s6,ae0 <vprintfmt+0x360>
     af4:	01912223          	sw	s9,4(sp)
     af8:	d01ff06f          	j	7f8 <vprintfmt+0x78>
     afc:	00a00413          	li	s0,10
     b00:	00000a13          	li	s4,0
     b04:	da1ff06f          	j	8a4 <vprintfmt+0x124>
     b08:	01000413          	li	s0,16
     b0c:	00000a13          	li	s4,0
     b10:	d95ff06f          	j	8a4 <vprintfmt+0x124>
     b14:	03000513          	li	a0,48
     b18:	00090593          	mv	a1,s2
     b1c:	000980e7          	jalr	s3
     b20:	00090593          	mv	a1,s2
     b24:	07800513          	li	a0,120
     b28:	000980e7          	jalr	s3
     b2c:	01000413          	li	s0,16
     b30:	00000a13          	li	s4,0
     b34:	00412783          	lw	a5,4(sp)
     b38:	00000b93          	li	s7,0
     b3c:	0007ac83          	lw	s9,0(a5)
     b40:	00478793          	addi	a5,a5,4
     b44:	00f12223          	sw	a5,4(sp)
     b48:	d81ff06f          	j	8c8 <vprintfmt+0x148>
     b4c:	00100793          	li	a5,1
     b50:	0ac7d263          	ble	a2,a5,bf4 <vprintfmt+0x474>
     b54:	00412783          	lw	a5,4(sp)
     b58:	00778793          	addi	a5,a5,7
     b5c:	ff87f793          	andi	a5,a5,-8
     b60:	00878713          	addi	a4,a5,8
     b64:	0007a803          	lw	a6,0(a5)
     b68:	0047a783          	lw	a5,4(a5)
     b6c:	00e12223          	sw	a4,4(sp)
     b70:	00078b93          	mv	s7,a5
     b74:	00080c93          	mv	s9,a6
     b78:	0407da63          	bgez	a5,bcc <vprintfmt+0x44c>
     b7c:	00090593          	mv	a1,s2
     b80:	02d00513          	li	a0,45
     b84:	000980e7          	jalr	s3
     b88:	41900833          	neg	a6,s9
     b8c:	01003733          	snez	a4,a6
     b90:	417007b3          	neg	a5,s7
     b94:	00080c93          	mv	s9,a6
     b98:	40e78bb3          	sub	s7,a5,a4
     b9c:	00a00413          	li	s0,10
     ba0:	00000a13          	li	s4,0
     ba4:	d25ff06f          	j	8c8 <vprintfmt+0x148>
     ba8:	00174503          	lbu	a0,1(a4)
     bac:	00160613          	addi	a2,a2,1
     bb0:	00048713          	mv	a4,s1
     bb4:	c71ff06f          	j	824 <vprintfmt+0xa4>
     bb8:	00090593          	mv	a1,s2
     bbc:	02500513          	li	a0,37
     bc0:	000980e7          	jalr	s3
     bc4:	000a0493          	mv	s1,s4
     bc8:	c31ff06f          	j	7f8 <vprintfmt+0x78>
     bcc:	00a00413          	li	s0,10
     bd0:	00000a13          	li	s4,0
     bd4:	cf5ff06f          	j	8c8 <vprintfmt+0x148>
     bd8:	000c4503          	lbu	a0,0(s8)
     bdc:	f00502e3          	beqz	a0,ae0 <vprintfmt+0x360>
     be0:	fff00a13          	li	s4,-1
     be4:	ed5ff06f          	j	ab8 <vprintfmt+0x338>
     be8:	000267b7          	lui	a5,0x26
     bec:	78878c13          	addi	s8,a5,1928 # 26788 <__thenan_sf+0x10>
     bf0:	e85ff06f          	j	a74 <vprintfmt+0x2f4>
     bf4:	00412783          	lw	a5,4(sp)
     bf8:	0007a803          	lw	a6,0(a5)
     bfc:	00478793          	addi	a5,a5,4
     c00:	00f12223          	sw	a5,4(sp)
     c04:	41f85793          	srai	a5,a6,0x1f
     c08:	f69ff06f          	j	b70 <vprintfmt+0x3f0>
     c0c:	00068513          	mv	a0,a3
     c10:	00048713          	mv	a4,s1
     c14:	dbdff06f          	j	9d0 <vprintfmt+0x250>
     c18:	cc8cf6e3          	bleu	s0,s9,8e4 <vprintfmt+0x164>
     c1c:	00100c13          	li	s8,1
     c20:	fffb0413          	addi	s0,s6,-1
     c24:	00000a13          	li	s4,0
     c28:	00000d13          	li	s10,0
     c2c:	d16c48e3          	blt	s8,s6,93c <vprintfmt+0x1bc>
     c30:	d3dff06f          	j	96c <vprintfmt+0x1ec>

00000c34 <tohost_exit>:
     c34:	00151513          	slli	a0,a0,0x1
     c38:	00156793          	ori	a5,a0,1
     c3c:	78079073          	csrw	mtohost,a5
     c40:	0000006f          	j	c40 <tohost_exit+0xc>

00000c44 <handle_trap>:
     c44:	ff010113          	addi	sp,sp,-16
     c48:	00812423          	sw	s0,8(sp)
     c4c:	00112623          	sw	ra,12(sp)
     c50:	00200693          	li	a3,2
     c54:	01010413          	addi	s0,sp,16
     c58:	0080076f          	jal	a4,c60 <handle_trap+0x1c>
     c5c:	0c002573          	csrr	a0,stats
     c60:	f8010113          	addi	sp,sp,-128
     c64:	0ad50863          	beq	a0,a3,d14 <handle_trap+0xd0>
     c68:	00800713          	li	a4,8
     c6c:	00e50a63          	beq	a0,a4,c80 <handle_trap+0x3c>
     c70:	000017b7          	lui	a5,0x1
     c74:	a7378793          	addi	a5,a5,-1421 # a73 <vprintfmt+0x2f3>
     c78:	78079073          	csrw	mtohost,a5
     c7c:	0000006f          	j	c7c <handle_trap+0x38>
     c80:	04462703          	lw	a4,68(a2)
     c84:	05d00693          	li	a3,93
     c88:	30d70263          	beq	a4,a3,f8c <handle_trap+0x348>
     c8c:	4d200693          	li	a3,1234
     c90:	08d70e63          	beq	a4,a3,d2c <handle_trap+0xe8>
     c94:	03f10793          	addi	a5,sp,63
     c98:	fc07f793          	andi	a5,a5,-64
     c9c:	02862303          	lw	t1,40(a2)
     ca0:	00e7a023          	sw	a4,0(a5)
     ca4:	41f75893          	srai	a7,a4,0x1f
     ca8:	0117a223          	sw	a7,4(a5)
     cac:	02c62503          	lw	a0,44(a2)
     cb0:	0067a423          	sw	t1,8(a5)
     cb4:	41f35f93          	srai	t6,t1,0x1f
     cb8:	01f7a623          	sw	t6,12(a5)
     cbc:	03062683          	lw	a3,48(a2)
     cc0:	00a7a823          	sw	a0,16(a5)
     cc4:	41f55e93          	srai	t4,a0,0x1f
     cc8:	01d7aa23          	sw	t4,20(a5)
     ccc:	00d7ac23          	sw	a3,24(a5)
     cd0:	41f6d893          	srai	a7,a3,0x1f
     cd4:	0117ae23          	sw	a7,28(a5)
     cd8:	0330000f          	fence	rw,rw
     cdc:	78079073          	csrw	mtohost,a5
     ce0:	00000713          	li	a4,0
     ce4:	781716f3          	csrrw	a3,mfromhost,a4
     ce8:	fe068ee3          	beqz	a3,ce4 <handle_trap+0xa0>
     cec:	0007a703          	lw	a4,0(a5)
     cf0:	0047a783          	lw	a5,4(a5)
     cf4:	00070793          	mv	a5,a4
     cf8:	ff040113          	addi	sp,s0,-16
     cfc:	00c12083          	lw	ra,12(sp)
     d00:	00458513          	addi	a0,a1,4
     d04:	00812403          	lw	s0,8(sp)
     d08:	02f62423          	sw	a5,40(a2)
     d0c:	01010113          	addi	sp,sp,16
     d10:	00008067          	ret
     d14:	00072703          	lw	a4,0(a4)
     d18:	0005a783          	lw	a5,0(a1)
     d1c:	00f777b3          	and	a5,a4,a5
     d20:	f4f718e3          	bne	a4,a5,c70 <handle_trap+0x2c>
     d24:	00000793          	li	a5,0
     d28:	fd1ff06f          	j	cf8 <handle_trap+0xb4>
     d2c:	02862703          	lw	a4,40(a2)
     d30:	00070463          	beqz	a4,d38 <handle_trap+0xf4>
     d34:	0c00e573          	csrrs	a0,stats,1
     d38:	c0002573          	rdcycle	a0
     d3c:	000277b7          	lui	a5,0x27
     d40:	d7478793          	addi	a5,a5,-652 # 26d74 <counters>
     d44:	00071c63          	bnez	a4,d5c <handle_trap+0x118>
     d48:	0007a683          	lw	a3,0(a5)
     d4c:	40d50533          	sub	a0,a0,a3
     d50:	000266b7          	lui	a3,0x26
     d54:	79068693          	addi	a3,a3,1936 # 26790 <__thenan_sf+0x18>
     d58:	04d7a423          	sw	a3,72(a5)
     d5c:	00a7a023          	sw	a0,0(a5)
     d60:	c0202573          	rdinstret	a0
     d64:	00071c63          	bnez	a4,d7c <handle_trap+0x138>
     d68:	0047a683          	lw	a3,4(a5)
     d6c:	40d50533          	sub	a0,a0,a3
     d70:	000266b7          	lui	a3,0x26
     d74:	79868693          	addi	a3,a3,1944 # 26798 <__thenan_sf+0x20>
     d78:	04d7a623          	sw	a3,76(a5)
     d7c:	00a7a223          	sw	a0,4(a5)
     d80:	cc002573          	csrr	a0,uarch0
     d84:	00071c63          	bnez	a4,d9c <handle_trap+0x158>
     d88:	0087a683          	lw	a3,8(a5)
     d8c:	40d50533          	sub	a0,a0,a3
     d90:	000266b7          	lui	a3,0x26
     d94:	7a068693          	addi	a3,a3,1952 # 267a0 <__thenan_sf+0x28>
     d98:	04d7a823          	sw	a3,80(a5)
     d9c:	00a7a423          	sw	a0,8(a5)
     da0:	cc102573          	csrr	a0,uarch1
     da4:	00071c63          	bnez	a4,dbc <handle_trap+0x178>
     da8:	00c7a683          	lw	a3,12(a5)
     dac:	40d50533          	sub	a0,a0,a3
     db0:	000266b7          	lui	a3,0x26
     db4:	7a868693          	addi	a3,a3,1960 # 267a8 <__thenan_sf+0x30>
     db8:	04d7aa23          	sw	a3,84(a5)
     dbc:	00a7a623          	sw	a0,12(a5)
     dc0:	cc202573          	csrr	a0,uarch2
     dc4:	00071c63          	bnez	a4,ddc <handle_trap+0x198>
     dc8:	0107a683          	lw	a3,16(a5)
     dcc:	40d50533          	sub	a0,a0,a3
     dd0:	000266b7          	lui	a3,0x26
     dd4:	7b068693          	addi	a3,a3,1968 # 267b0 <__thenan_sf+0x38>
     dd8:	04d7ac23          	sw	a3,88(a5)
     ddc:	00a7a823          	sw	a0,16(a5)
     de0:	cc302573          	csrr	a0,uarch3
     de4:	00071c63          	bnez	a4,dfc <handle_trap+0x1b8>
     de8:	0147a683          	lw	a3,20(a5)
     dec:	40d50533          	sub	a0,a0,a3
     df0:	000266b7          	lui	a3,0x26
     df4:	7b868693          	addi	a3,a3,1976 # 267b8 <__thenan_sf+0x40>
     df8:	04d7ae23          	sw	a3,92(a5)
     dfc:	00a7aa23          	sw	a0,20(a5)
     e00:	cc402573          	csrr	a0,uarch4
     e04:	00071c63          	bnez	a4,e1c <handle_trap+0x1d8>
     e08:	0187a683          	lw	a3,24(a5)
     e0c:	40d50533          	sub	a0,a0,a3
     e10:	000266b7          	lui	a3,0x26
     e14:	7c068693          	addi	a3,a3,1984 # 267c0 <__thenan_sf+0x48>
     e18:	06d7a023          	sw	a3,96(a5)
     e1c:	00a7ac23          	sw	a0,24(a5)
     e20:	cc502573          	csrr	a0,uarch5
     e24:	00071c63          	bnez	a4,e3c <handle_trap+0x1f8>
     e28:	01c7a683          	lw	a3,28(a5)
     e2c:	40d50533          	sub	a0,a0,a3
     e30:	000266b7          	lui	a3,0x26
     e34:	7c868693          	addi	a3,a3,1992 # 267c8 <__thenan_sf+0x50>
     e38:	06d7a223          	sw	a3,100(a5)
     e3c:	00a7ae23          	sw	a0,28(a5)
     e40:	cc602573          	csrr	a0,uarch6
     e44:	00071c63          	bnez	a4,e5c <handle_trap+0x218>
     e48:	0207a683          	lw	a3,32(a5)
     e4c:	40d50533          	sub	a0,a0,a3
     e50:	000266b7          	lui	a3,0x26
     e54:	7d068693          	addi	a3,a3,2000 # 267d0 <__thenan_sf+0x58>
     e58:	06d7a423          	sw	a3,104(a5)
     e5c:	02a7a023          	sw	a0,32(a5)
     e60:	cc702573          	csrr	a0,uarch7
     e64:	00071c63          	bnez	a4,e7c <handle_trap+0x238>
     e68:	0247a683          	lw	a3,36(a5)
     e6c:	40d50533          	sub	a0,a0,a3
     e70:	000266b7          	lui	a3,0x26
     e74:	7d868693          	addi	a3,a3,2008 # 267d8 <__thenan_sf+0x60>
     e78:	06d7a623          	sw	a3,108(a5)
     e7c:	02a7a223          	sw	a0,36(a5)
     e80:	cc802573          	csrr	a0,uarch8
     e84:	00071c63          	bnez	a4,e9c <handle_trap+0x258>
     e88:	0287a683          	lw	a3,40(a5)
     e8c:	40d50533          	sub	a0,a0,a3
     e90:	000266b7          	lui	a3,0x26
     e94:	7e068693          	addi	a3,a3,2016 # 267e0 <__thenan_sf+0x68>
     e98:	06d7a823          	sw	a3,112(a5)
     e9c:	02a7a423          	sw	a0,40(a5)
     ea0:	cc902573          	csrr	a0,uarch9
     ea4:	00071c63          	bnez	a4,ebc <handle_trap+0x278>
     ea8:	02c7a683          	lw	a3,44(a5)
     eac:	40d50533          	sub	a0,a0,a3
     eb0:	000266b7          	lui	a3,0x26
     eb4:	7e868693          	addi	a3,a3,2024 # 267e8 <__thenan_sf+0x70>
     eb8:	06d7aa23          	sw	a3,116(a5)
     ebc:	02a7a623          	sw	a0,44(a5)
     ec0:	cca02573          	csrr	a0,uarch10
     ec4:	00071c63          	bnez	a4,edc <handle_trap+0x298>
     ec8:	0307a683          	lw	a3,48(a5)
     ecc:	40d50533          	sub	a0,a0,a3
     ed0:	000266b7          	lui	a3,0x26
     ed4:	7f068693          	addi	a3,a3,2032 # 267f0 <__thenan_sf+0x78>
     ed8:	06d7ac23          	sw	a3,120(a5)
     edc:	02a7a823          	sw	a0,48(a5)
     ee0:	ccb02573          	csrr	a0,uarch11
     ee4:	00071c63          	bnez	a4,efc <handle_trap+0x2b8>
     ee8:	0347a683          	lw	a3,52(a5)
     eec:	40d50533          	sub	a0,a0,a3
     ef0:	000266b7          	lui	a3,0x26
     ef4:	7f868693          	addi	a3,a3,2040 # 267f8 <__thenan_sf+0x80>
     ef8:	06d7ae23          	sw	a3,124(a5)
     efc:	02a7aa23          	sw	a0,52(a5)
     f00:	ccc02573          	csrr	a0,uarch12
     f04:	00071c63          	bnez	a4,f1c <handle_trap+0x2d8>
     f08:	0387a683          	lw	a3,56(a5)
     f0c:	40d50533          	sub	a0,a0,a3
     f10:	000276b7          	lui	a3,0x27
     f14:	80068693          	addi	a3,a3,-2048 # 26800 <__thenan_sf+0x88>
     f18:	08d7a023          	sw	a3,128(a5)
     f1c:	02a7ac23          	sw	a0,56(a5)
     f20:	ccd02573          	csrr	a0,uarch13
     f24:	00071c63          	bnez	a4,f3c <handle_trap+0x2f8>
     f28:	03c7a683          	lw	a3,60(a5)
     f2c:	40d50533          	sub	a0,a0,a3
     f30:	000276b7          	lui	a3,0x27
     f34:	80868693          	addi	a3,a3,-2040 # 26808 <__thenan_sf+0x90>
     f38:	08d7a223          	sw	a3,132(a5)
     f3c:	02a7ae23          	sw	a0,60(a5)
     f40:	cce02573          	csrr	a0,uarch14
     f44:	00071c63          	bnez	a4,f5c <handle_trap+0x318>
     f48:	0407a683          	lw	a3,64(a5)
     f4c:	40d50533          	sub	a0,a0,a3
     f50:	000276b7          	lui	a3,0x27
     f54:	81068693          	addi	a3,a3,-2032 # 26810 <__thenan_sf+0x98>
     f58:	08d7a423          	sw	a3,136(a5)
     f5c:	04a7a023          	sw	a0,64(a5)
     f60:	ccf02573          	csrr	a0,uarch15
     f64:	02071863          	bnez	a4,f94 <handle_trap+0x350>
     f68:	0447a703          	lw	a4,68(a5)
     f6c:	40e50533          	sub	a0,a0,a4
     f70:	00027737          	lui	a4,0x27
     f74:	81870713          	addi	a4,a4,-2024 # 26818 <__thenan_sf+0xa0>
     f78:	08e7a623          	sw	a4,140(a5)
     f7c:	04a7a223          	sw	a0,68(a5)
     f80:	0c00f573          	csrrc	a0,stats,1
     f84:	00000793          	li	a5,0
     f88:	d71ff06f          	j	cf8 <handle_trap+0xb4>
     f8c:	02862503          	lw	a0,40(a2)
     f90:	ca5ff0ef          	jal	c34 <tohost_exit>
     f94:	04a7a223          	sw	a0,68(a5)
     f98:	d8dff06f          	j	d24 <handle_trap+0xe0>

00000f9c <exit>:
     f9c:	05d00893          	li	a7,93
     fa0:	00000593          	li	a1,0
     fa4:	00000613          	li	a2,0
     fa8:	00000073          	ecall
     fac:	0000006f          	j	fac <exit+0x10>

00000fb0 <setStats>:
     fb0:	4d200893          	li	a7,1234
     fb4:	00000593          	li	a1,0
     fb8:	00000613          	li	a2,0
     fbc:	00000073          	ecall
     fc0:	00008067          	ret

00000fc4 <printstr>:
     fc4:	ff010113          	addi	sp,sp,-16
     fc8:	00812423          	sw	s0,8(sp)
     fcc:	00112623          	sw	ra,12(sp)
     fd0:	00050413          	mv	s0,a0
     fd4:	468000ef          	jal	143c <strlen>
     fd8:	00050613          	mv	a2,a0
     fdc:	04000893          	li	a7,64
     fe0:	00100513          	li	a0,1
     fe4:	00040593          	mv	a1,s0
     fe8:	00000073          	ecall
     fec:	00c12083          	lw	ra,12(sp)
     ff0:	00812403          	lw	s0,8(sp)
     ff4:	01010113          	addi	sp,sp,16
     ff8:	00008067          	ret

00000ffc <thread_entry>:
     ffc:	00050463          	beqz	a0,1004 <thread_entry+0x8>
    1000:	0000006f          	j	1000 <thread_entry+0x4>
    1004:	00008067          	ret

00001008 <printhex>:
    1008:	fd010113          	addi	sp,sp,-48
    100c:	02112623          	sw	ra,44(sp)
    1010:	01b10693          	addi	a3,sp,27
    1014:	00b10893          	addi	a7,sp,11
    1018:	00900813          	li	a6,9
    101c:	00f57613          	andi	a2,a0,15
    1020:	00c83733          	sltu	a4,a6,a2
    1024:	40e00733          	neg	a4,a4
    1028:	02777793          	andi	a5,a4,39
    102c:	03078793          	addi	a5,a5,48
    1030:	00c787b3          	add	a5,a5,a2
    1034:	01c59713          	slli	a4,a1,0x1c
    1038:	00f68023          	sb	a5,0(a3)
    103c:	00455513          	srli	a0,a0,0x4
    1040:	fff68693          	addi	a3,a3,-1
    1044:	00a76533          	or	a0,a4,a0
    1048:	0045d593          	srli	a1,a1,0x4
    104c:	fd1698e3          	bne	a3,a7,101c <printhex+0x14>
    1050:	00c10513          	addi	a0,sp,12
    1054:	00010e23          	sb	zero,28(sp)
    1058:	3e4000ef          	jal	143c <strlen>
    105c:	00050613          	mv	a2,a0
    1060:	04000893          	li	a7,64
    1064:	00100513          	li	a0,1
    1068:	00c10593          	addi	a1,sp,12
    106c:	00000073          	ecall
    1070:	02c12083          	lw	ra,44(sp)
    1074:	03010113          	addi	sp,sp,48
    1078:	00008067          	ret

0000107c <printf>:
    107c:	fc010113          	addi	sp,sp,-64
    1080:	02410313          	addi	t1,sp,36
    1084:	02c12423          	sw	a2,40(sp)
    1088:	00050613          	mv	a2,a0
    108c:	02b12223          	sw	a1,36(sp)
    1090:	02d12623          	sw	a3,44(sp)
    1094:	71c00513          	li	a0,1820
    1098:	00030693          	mv	a3,t1
    109c:	00000593          	li	a1,0
    10a0:	00112e23          	sw	ra,28(sp)
    10a4:	02e12823          	sw	a4,48(sp)
    10a8:	02f12a23          	sw	a5,52(sp)
    10ac:	03012c23          	sw	a6,56(sp)
    10b0:	03112e23          	sw	a7,60(sp)
    10b4:	00612623          	sw	t1,12(sp)
    10b8:	ec8ff0ef          	jal	780 <vprintfmt>
    10bc:	01c12083          	lw	ra,28(sp)
    10c0:	00000513          	li	a0,0
    10c4:	04010113          	addi	sp,sp,64
    10c8:	00008067          	ret

000010cc <sprintf>:
    10cc:	fb010113          	addi	sp,sp,-80
    10d0:	03810313          	addi	t1,sp,56
    10d4:	02812423          	sw	s0,40(sp)
    10d8:	00a12623          	sw	a0,12(sp)
    10dc:	00050413          	mv	s0,a0
    10e0:	02c12c23          	sw	a2,56(sp)
    10e4:	02d12e23          	sw	a3,60(sp)
    10e8:	00058613          	mv	a2,a1
    10ec:	76800513          	li	a0,1896
    10f0:	00c10593          	addi	a1,sp,12
    10f4:	00030693          	mv	a3,t1
    10f8:	02112623          	sw	ra,44(sp)
    10fc:	04f12223          	sw	a5,68(sp)
    1100:	04e12023          	sw	a4,64(sp)
    1104:	05012423          	sw	a6,72(sp)
    1108:	05112623          	sw	a7,76(sp)
    110c:	00612e23          	sw	t1,28(sp)
    1110:	e70ff0ef          	jal	780 <vprintfmt>
    1114:	00c12783          	lw	a5,12(sp)
    1118:	00078023          	sb	zero,0(a5)
    111c:	00c12503          	lw	a0,12(sp)
    1120:	02c12083          	lw	ra,44(sp)
    1124:	40850533          	sub	a0,a0,s0
    1128:	02812403          	lw	s0,40(sp)
    112c:	05010113          	addi	sp,sp,80
    1130:	00008067          	ret

00001134 <_init>:
    1134:	fd010113          	addi	sp,sp,-48
    1138:	02912223          	sw	s1,36(sp)
    113c:	03212023          	sw	s2,32(sp)
    1140:	00020913          	mv	s2,tp
    1144:	00020493          	mv	s1,tp
    1148:	409904b3          	sub	s1,s2,s1
    114c:	01412c23          	sw	s4,24(sp)
    1150:	00058a13          	mv	s4,a1
    1154:	000275b7          	lui	a1,0x27
    1158:	02112623          	sw	ra,44(sp)
    115c:	02812423          	sw	s0,40(sp)
    1160:	01312e23          	sw	s3,28(sp)
    1164:	03010413          	addi	s0,sp,48
    1168:	01512a23          	sw	s5,20(sp)
    116c:	01612823          	sw	s6,16(sp)
    1170:	01712623          	sw	s7,12(sp)
    1174:	00050993          	mv	s3,a0
    1178:	d8010113          	addi	sp,sp,-640
    117c:	00020513          	mv	a0,tp
    1180:	00048613          	mv	a2,s1
    1184:	e4058593          	addi	a1,a1,-448 # 26e40 <_end>
    1188:	00020b13          	mv	s6,tp
    118c:	0b4000ef          	jal	1240 <memcpy>
    1190:	04420613          	addi	a2,tp,68 # 44 <_tbss_end>
    1194:	41260633          	sub	a2,a2,s2
    1198:	009b0533          	add	a0,s6,s1
    119c:	00000593          	li	a1,0
    11a0:	1c0000ef          	jal	1360 <memset>
    11a4:	000a0593          	mv	a1,s4
    11a8:	00098513          	mv	a0,s3
    11ac:	e51ff0ef          	jal	ffc <thread_entry>
    11b0:	000274b7          	lui	s1,0x27
    11b4:	03f10a93          	addi	s5,sp,63
    11b8:	00000593          	li	a1,0
    11bc:	00000513          	li	a0,0
    11c0:	d7448493          	addi	s1,s1,-652 # 26d74 <counters>
    11c4:	fc0afa93          	andi	s5,s5,-64
    11c8:	691020ef          	jal	4058 <main>
    11cc:	04848913          	addi	s2,s1,72
    11d0:	00050b93          	mv	s7,a0
    11d4:	00090993          	mv	s3,s2
    11d8:	000a8a13          	mv	s4,s5
    11dc:	00027b37          	lui	s6,0x27
    11e0:	0100006f          	j	11f0 <_init+0xbc>
    11e4:	00448493          	addi	s1,s1,4
    11e8:	00490913          	addi	s2,s2,4
    11ec:	03348663          	beq	s1,s3,1218 <_init+0xe4>
    11f0:	0004a683          	lw	a3,0(s1)
    11f4:	fe0688e3          	beqz	a3,11e4 <_init+0xb0>
    11f8:	00092603          	lw	a2,0(s2)
    11fc:	000a0513          	mv	a0,s4
    1200:	838b0593          	addi	a1,s6,-1992 # 26838 <__thenan_sf+0xc0>
    1204:	ec9ff0ef          	jal	10cc <sprintf>
    1208:	00448493          	addi	s1,s1,4
    120c:	00aa0a33          	add	s4,s4,a0
    1210:	00490913          	addi	s2,s2,4
    1214:	fd349ee3          	bne	s1,s3,11f0 <_init+0xbc>
    1218:	034a8063          	beq	s5,s4,1238 <_init+0x104>
    121c:	000a8513          	mv	a0,s5
    1220:	21c000ef          	jal	143c <strlen>
    1224:	00050613          	mv	a2,a0
    1228:	04000893          	li	a7,64
    122c:	00100513          	li	a0,1
    1230:	000a8593          	mv	a1,s5
    1234:	00000073          	ecall
    1238:	000b8513          	mv	a0,s7
    123c:	d61ff0ef          	jal	f9c <exit>

00001240 <memcpy>:
    1240:	00a5c7b3          	xor	a5,a1,a0
    1244:	0037f793          	andi	a5,a5,3
    1248:	00c508b3          	add	a7,a0,a2
    124c:	0e079263          	bnez	a5,1330 <memcpy+0xf0>
    1250:	00300793          	li	a5,3
    1254:	0ec7fe63          	bleu	a2,a5,1350 <memcpy+0x110>
    1258:	00357793          	andi	a5,a0,3
    125c:	04079a63          	bnez	a5,12b0 <memcpy+0x70>
    1260:	ffc8f813          	andi	a6,a7,-4
    1264:	fe080793          	addi	a5,a6,-32
    1268:	00050713          	mv	a4,a0
    126c:	06f56663          	bltu	a0,a5,12d8 <memcpy+0x98>
    1270:	00058693          	mv	a3,a1
    1274:	00070793          	mv	a5,a4
    1278:	03077863          	bleu	a6,a4,12a8 <memcpy+0x68>
    127c:	0006a603          	lw	a2,0(a3)
    1280:	00478793          	addi	a5,a5,4
    1284:	00468693          	addi	a3,a3,4
    1288:	fec7ae23          	sw	a2,-4(a5)
    128c:	ff07e8e3          	bltu	a5,a6,127c <memcpy+0x3c>
    1290:	fff74793          	not	a5,a4
    1294:	01078833          	add	a6,a5,a6
    1298:	ffc87813          	andi	a6,a6,-4
    129c:	00480813          	addi	a6,a6,4
    12a0:	01070733          	add	a4,a4,a6
    12a4:	010585b3          	add	a1,a1,a6
    12a8:	09176863          	bltu	a4,a7,1338 <memcpy+0xf8>
    12ac:	00008067          	ret
    12b0:	00050713          	mv	a4,a0
    12b4:	0005c683          	lbu	a3,0(a1)
    12b8:	00170713          	addi	a4,a4,1
    12bc:	00377793          	andi	a5,a4,3
    12c0:	fed70fa3          	sb	a3,-1(a4)
    12c4:	00158593          	addi	a1,a1,1
    12c8:	fe0796e3          	bnez	a5,12b4 <memcpy+0x74>
    12cc:	ffc8f813          	andi	a6,a7,-4
    12d0:	fe080793          	addi	a5,a6,-32
    12d4:	f8f77ee3          	bleu	a5,a4,1270 <memcpy+0x30>
    12d8:	0005a383          	lw	t2,0(a1)
    12dc:	0045a283          	lw	t0,4(a1)
    12e0:	0085af83          	lw	t6,8(a1)
    12e4:	00c5af03          	lw	t5,12(a1)
    12e8:	0105ae83          	lw	t4,16(a1)
    12ec:	0145ae03          	lw	t3,20(a1)
    12f0:	0185a303          	lw	t1,24(a1)
    12f4:	01c5a603          	lw	a2,28(a1)
    12f8:	02458593          	addi	a1,a1,36
    12fc:	02470713          	addi	a4,a4,36
    1300:	ffc5a683          	lw	a3,-4(a1)
    1304:	fc772e23          	sw	t2,-36(a4)
    1308:	fe572023          	sw	t0,-32(a4)
    130c:	fff72223          	sw	t6,-28(a4)
    1310:	ffe72423          	sw	t5,-24(a4)
    1314:	ffd72623          	sw	t4,-20(a4)
    1318:	ffc72823          	sw	t3,-16(a4)
    131c:	fe672a23          	sw	t1,-12(a4)
    1320:	fec72c23          	sw	a2,-8(a4)
    1324:	fed72e23          	sw	a3,-4(a4)
    1328:	faf768e3          	bltu	a4,a5,12d8 <memcpy+0x98>
    132c:	f45ff06f          	j	1270 <memcpy+0x30>
    1330:	00050713          	mv	a4,a0
    1334:	03157463          	bleu	a7,a0,135c <memcpy+0x11c>
    1338:	0005c783          	lbu	a5,0(a1)
    133c:	00170713          	addi	a4,a4,1
    1340:	00158593          	addi	a1,a1,1
    1344:	fef70fa3          	sb	a5,-1(a4)
    1348:	ff1768e3          	bltu	a4,a7,1338 <memcpy+0xf8>
    134c:	00008067          	ret
    1350:	00050713          	mv	a4,a0
    1354:	ff1562e3          	bltu	a0,a7,1338 <memcpy+0xf8>
    1358:	f55ff06f          	j	12ac <memcpy+0x6c>
    135c:	00008067          	ret

00001360 <memset>:
    1360:	00f00813          	li	a6,15
    1364:	00050713          	mv	a4,a0
    1368:	02c87e63          	bleu	a2,a6,13a4 <memset+0x44>
    136c:	00f77793          	andi	a5,a4,15
    1370:	0a079063          	bnez	a5,1410 <memset+0xb0>
    1374:	08059263          	bnez	a1,13f8 <memset+0x98>
    1378:	ff067693          	andi	a3,a2,-16
    137c:	00f67613          	andi	a2,a2,15
    1380:	00e686b3          	add	a3,a3,a4
    1384:	00b72023          	sw	a1,0(a4)
    1388:	00b72223          	sw	a1,4(a4)
    138c:	00b72423          	sw	a1,8(a4)
    1390:	00b72623          	sw	a1,12(a4)
    1394:	01070713          	addi	a4,a4,16
    1398:	fed766e3          	bltu	a4,a3,1384 <memset+0x24>
    139c:	00061463          	bnez	a2,13a4 <memset+0x44>
    13a0:	00008067          	ret
    13a4:	40c806b3          	sub	a3,a6,a2
    13a8:	00269693          	slli	a3,a3,0x2
    13ac:	00000297          	auipc	t0,0x0
    13b0:	005686b3          	add	a3,a3,t0
    13b4:	00c68067          	jr	a3,12
    13b8:	00b70723          	sb	a1,14(a4)
    13bc:	00b706a3          	sb	a1,13(a4)
    13c0:	00b70623          	sb	a1,12(a4)
    13c4:	00b705a3          	sb	a1,11(a4)
    13c8:	00b70523          	sb	a1,10(a4)
    13cc:	00b704a3          	sb	a1,9(a4)
    13d0:	00b70423          	sb	a1,8(a4)
    13d4:	00b703a3          	sb	a1,7(a4)
    13d8:	00b70323          	sb	a1,6(a4)
    13dc:	00b702a3          	sb	a1,5(a4)
    13e0:	00b70223          	sb	a1,4(a4)
    13e4:	00b701a3          	sb	a1,3(a4)
    13e8:	00b70123          	sb	a1,2(a4)
    13ec:	00b700a3          	sb	a1,1(a4)
    13f0:	00b70023          	sb	a1,0(a4)
    13f4:	00008067          	ret
    13f8:	0ff5f593          	andi	a1,a1,255
    13fc:	00859693          	slli	a3,a1,0x8
    1400:	00d5e5b3          	or	a1,a1,a3
    1404:	01059693          	slli	a3,a1,0x10
    1408:	00d5e5b3          	or	a1,a1,a3
    140c:	f6dff06f          	j	1378 <memset+0x18>
    1410:	00279693          	slli	a3,a5,0x2
    1414:	00000297          	auipc	t0,0x0
    1418:	005686b3          	add	a3,a3,t0
    141c:	00008293          	mv	t0,ra
    1420:	fa0680e7          	jalr	a3,-96
    1424:	00028093          	mv	ra,t0
    1428:	ff078793          	addi	a5,a5,-16
    142c:	40f70733          	sub	a4,a4,a5
    1430:	00f60633          	add	a2,a2,a5
    1434:	f6c878e3          	bleu	a2,a6,13a4 <memset+0x44>
    1438:	f3dff06f          	j	1374 <memset+0x14>

0000143c <strlen>:
    143c:	00357793          	andi	a5,a0,3
    1440:	00050593          	mv	a1,a0
    1444:	04079a63          	bnez	a5,1498 <strlen+0x5c>
    1448:	7f7f86b7          	lui	a3,0x7f7f8
    144c:	f7f68693          	addi	a3,a3,-129 # 7f7f7f7f <_end+0x7f7d113f>
    1450:	fff00613          	li	a2,-1
    1454:	00450513          	addi	a0,a0,4
    1458:	ffc52783          	lw	a5,-4(a0)
    145c:	00d7f733          	and	a4,a5,a3
    1460:	00d70733          	add	a4,a4,a3
    1464:	00d7e7b3          	or	a5,a5,a3
    1468:	00f767b3          	or	a5,a4,a5
    146c:	fec784e3          	beq	a5,a2,1454 <strlen+0x18>
    1470:	ffc54703          	lbu	a4,-4(a0)
    1474:	40b507b3          	sub	a5,a0,a1
    1478:	ffd54683          	lbu	a3,-3(a0)
    147c:	ffe54603          	lbu	a2,-2(a0)
    1480:	02070e63          	beqz	a4,14bc <strlen+0x80>
    1484:	02068863          	beqz	a3,14b4 <strlen+0x78>
    1488:	fff78513          	addi	a0,a5,-1
    148c:	02060c63          	beqz	a2,14c4 <strlen+0x88>
    1490:	00008067          	ret
    1494:	fa070ae3          	beqz	a4,1448 <strlen+0xc>
    1498:	00054783          	lbu	a5,0(a0)
    149c:	00150513          	addi	a0,a0,1
    14a0:	00357713          	andi	a4,a0,3
    14a4:	fe0798e3          	bnez	a5,1494 <strlen+0x58>
    14a8:	40b50533          	sub	a0,a0,a1
    14ac:	fff50513          	addi	a0,a0,-1
    14b0:	00008067          	ret
    14b4:	ffd78513          	addi	a0,a5,-3
    14b8:	00008067          	ret
    14bc:	ffc78513          	addi	a0,a5,-4
    14c0:	00008067          	ret
    14c4:	ffe78513          	addi	a0,a5,-2
    14c8:	00008067          	ret

000014cc <strnlen>:
    14cc:	02058e63          	beqz	a1,1508 <strnlen+0x3c>
    14d0:	00054783          	lbu	a5,0(a0)
    14d4:	02078a63          	beqz	a5,1508 <strnlen+0x3c>
    14d8:	00150793          	addi	a5,a0,1
    14dc:	00b505b3          	add	a1,a0,a1
    14e0:	0100006f          	j	14f0 <strnlen+0x24>
    14e4:	fff74683          	lbu	a3,-1(a4)
    14e8:	00068c63          	beqz	a3,1500 <strnlen+0x34>
    14ec:	00070793          	mv	a5,a4
    14f0:	00178713          	addi	a4,a5,1
    14f4:	fef598e3          	bne	a1,a5,14e4 <strnlen+0x18>
    14f8:	40a58533          	sub	a0,a1,a0
    14fc:	00008067          	ret
    1500:	40a78533          	sub	a0,a5,a0
    1504:	00008067          	ret
    1508:	00000513          	li	a0,0
    150c:	00008067          	ret

00001510 <__udivdi3>:
    1510:	fd010113          	addi	sp,sp,-48
    1514:	02912223          	sw	s1,36(sp)
    1518:	01312e23          	sw	s3,28(sp)
    151c:	01412c23          	sw	s4,24(sp)
    1520:	02112623          	sw	ra,44(sp)
    1524:	02812423          	sw	s0,40(sp)
    1528:	03212023          	sw	s2,32(sp)
    152c:	01512a23          	sw	s5,20(sp)
    1530:	01612823          	sw	s6,16(sp)
    1534:	01712623          	sw	s7,12(sp)
    1538:	01812423          	sw	s8,8(sp)
    153c:	01912223          	sw	s9,4(sp)
    1540:	01a12023          	sw	s10,0(sp)
    1544:	00050a13          	mv	s4,a0
    1548:	00058493          	mv	s1,a1
    154c:	00058993          	mv	s3,a1
    1550:	12069063          	bnez	a3,1670 <__udivdi3+0x160>
    1554:	00060413          	mv	s0,a2
    1558:	00050913          	mv	s2,a0
    155c:	16c5fa63          	bleu	a2,a1,16d0 <__udivdi3+0x1c0>
    1560:	000107b7          	lui	a5,0x10
    1564:	2ef67463          	bleu	a5,a2,184c <__udivdi3+0x33c>
    1568:	0ff00793          	li	a5,255
    156c:	00c7b7b3          	sltu	a5,a5,a2
    1570:	00379793          	slli	a5,a5,0x3
    1574:	00026737          	lui	a4,0x26
    1578:	00f656b3          	srl	a3,a2,a5
    157c:	67870713          	addi	a4,a4,1656 # 26678 <__clz_tab>
    1580:	00e68733          	add	a4,a3,a4
    1584:	00074703          	lbu	a4,0(a4)
    1588:	00f707b3          	add	a5,a4,a5
    158c:	02000713          	li	a4,32
    1590:	40f70733          	sub	a4,a4,a5
    1594:	00070c63          	beqz	a4,15ac <__udivdi3+0x9c>
    1598:	00e494b3          	sll	s1,s1,a4
    159c:	00fa57b3          	srl	a5,s4,a5
    15a0:	00e61433          	sll	s0,a2,a4
    15a4:	0097e9b3          	or	s3,a5,s1
    15a8:	00ea1933          	sll	s2,s4,a4
    15ac:	01045b13          	srli	s6,s0,0x10
    15b0:	000b0593          	mv	a1,s6
    15b4:	00098513          	mv	a0,s3
    15b8:	4a9010ef          	jal	3260 <__umodsi3>
    15bc:	00050a13          	mv	s4,a0
    15c0:	000b0593          	mv	a1,s6
    15c4:	00098513          	mv	a0,s3
    15c8:	01041b93          	slli	s7,s0,0x10
    15cc:	44d010ef          	jal	3218 <__udivsi3>
    15d0:	010bdb93          	srli	s7,s7,0x10
    15d4:	00050593          	mv	a1,a0
    15d8:	00050a93          	mv	s5,a0
    15dc:	000b8513          	mv	a0,s7
    15e0:	40d010ef          	jal	31ec <__mulsi3>
    15e4:	010a1a13          	slli	s4,s4,0x10
    15e8:	01095793          	srli	a5,s2,0x10
    15ec:	0147e7b3          	or	a5,a5,s4
    15f0:	00a7fc63          	bleu	a0,a5,1608 <__udivdi3+0xf8>
    15f4:	008787b3          	add	a5,a5,s0
    15f8:	fffa8713          	addi	a4,s5,-1
    15fc:	0087e463          	bltu	a5,s0,1604 <__udivdi3+0xf4>
    1600:	52a7e463          	bltu	a5,a0,1b28 <__udivdi3+0x618>
    1604:	00070a93          	mv	s5,a4
    1608:	40a784b3          	sub	s1,a5,a0
    160c:	000b0593          	mv	a1,s6
    1610:	00048513          	mv	a0,s1
    1614:	44d010ef          	jal	3260 <__umodsi3>
    1618:	00050993          	mv	s3,a0
    161c:	000b0593          	mv	a1,s6
    1620:	00048513          	mv	a0,s1
    1624:	3f5010ef          	jal	3218 <__udivsi3>
    1628:	01091913          	slli	s2,s2,0x10
    162c:	00050593          	mv	a1,a0
    1630:	00050493          	mv	s1,a0
    1634:	01099993          	slli	s3,s3,0x10
    1638:	000b8513          	mv	a0,s7
    163c:	01095913          	srli	s2,s2,0x10
    1640:	3ad010ef          	jal	31ec <__mulsi3>
    1644:	01396933          	or	s2,s2,s3
    1648:	00a97c63          	bleu	a0,s2,1660 <__udivdi3+0x150>
    164c:	01240933          	add	s2,s0,s2
    1650:	fff48793          	addi	a5,s1,-1
    1654:	46896263          	bltu	s2,s0,1ab8 <__udivdi3+0x5a8>
    1658:	ffe48493          	addi	s1,s1,-2
    165c:	44a97e63          	bleu	a0,s2,1ab8 <__udivdi3+0x5a8>
    1660:	010a9513          	slli	a0,s5,0x10
    1664:	00956533          	or	a0,a0,s1
    1668:	00000a93          	li	s5,0
    166c:	1840006f          	j	17f0 <__udivdi3+0x2e0>
    1670:	00068793          	mv	a5,a3
    1674:	16d5ea63          	bltu	a1,a3,17e8 <__udivdi3+0x2d8>
    1678:	00010737          	lui	a4,0x10
    167c:	1ae6e863          	bltu	a3,a4,182c <__udivdi3+0x31c>
    1680:	01000737          	lui	a4,0x1000
    1684:	00e6b733          	sltu	a4,a3,a4
    1688:	00174713          	xori	a4,a4,1
    168c:	40e00733          	neg	a4,a4
    1690:	00877713          	andi	a4,a4,8
    1694:	01070713          	addi	a4,a4,16 # 1000010 <_end+0xfd91d0>
    1698:	000265b7          	lui	a1,0x26
    169c:	00e6d533          	srl	a0,a3,a4
    16a0:	67858593          	addi	a1,a1,1656 # 26678 <__clz_tab>
    16a4:	00b505b3          	add	a1,a0,a1
    16a8:	0005c583          	lbu	a1,0(a1)
    16ac:	02000a93          	li	s5,32
    16b0:	00e58733          	add	a4,a1,a4
    16b4:	40ea8ab3          	sub	s5,s5,a4
    16b8:	1a0a9863          	bnez	s5,1868 <__udivdi3+0x358>
    16bc:	00100513          	li	a0,1
    16c0:	1337e863          	bltu	a5,s3,17f0 <__udivdi3+0x2e0>
    16c4:	00ca3533          	sltu	a0,s4,a2
    16c8:	00154513          	xori	a0,a0,1
    16cc:	1240006f          	j	17f0 <__udivdi3+0x2e0>
    16d0:	00061a63          	bnez	a2,16e4 <__udivdi3+0x1d4>
    16d4:	00000593          	li	a1,0
    16d8:	00100513          	li	a0,1
    16dc:	33d010ef          	jal	3218 <__udivsi3>
    16e0:	00050413          	mv	s0,a0
    16e4:	000107b7          	lui	a5,0x10
    16e8:	14f46a63          	bltu	s0,a5,183c <__udivdi3+0x32c>
    16ec:	010007b7          	lui	a5,0x1000
    16f0:	00f437b3          	sltu	a5,s0,a5
    16f4:	0017c793          	xori	a5,a5,1
    16f8:	40f007b3          	neg	a5,a5
    16fc:	0087f793          	andi	a5,a5,8
    1700:	01078793          	addi	a5,a5,16 # 1000010 <_end+0xfd91d0>
    1704:	00026737          	lui	a4,0x26
    1708:	00f456b3          	srl	a3,s0,a5
    170c:	67870713          	addi	a4,a4,1656 # 26678 <__clz_tab>
    1710:	00e68733          	add	a4,a3,a4
    1714:	00074703          	lbu	a4,0(a4)
    1718:	00f707b3          	add	a5,a4,a5
    171c:	02000713          	li	a4,32
    1720:	40f70733          	sub	a4,a4,a5
    1724:	2a071263          	bnez	a4,19c8 <__udivdi3+0x4b8>
    1728:	01041b13          	slli	s6,s0,0x10
    172c:	408484b3          	sub	s1,s1,s0
    1730:	01045b93          	srli	s7,s0,0x10
    1734:	010b5b13          	srli	s6,s6,0x10
    1738:	00100a93          	li	s5,1
    173c:	000b8593          	mv	a1,s7
    1740:	00048513          	mv	a0,s1
    1744:	31d010ef          	jal	3260 <__umodsi3>
    1748:	00050993          	mv	s3,a0
    174c:	000b8593          	mv	a1,s7
    1750:	00048513          	mv	a0,s1
    1754:	2c5010ef          	jal	3218 <__udivsi3>
    1758:	000b0593          	mv	a1,s6
    175c:	00050a13          	mv	s4,a0
    1760:	28d010ef          	jal	31ec <__mulsi3>
    1764:	01099993          	slli	s3,s3,0x10
    1768:	01095793          	srli	a5,s2,0x10
    176c:	0137e7b3          	or	a5,a5,s3
    1770:	00a7fc63          	bleu	a0,a5,1788 <__udivdi3+0x278>
    1774:	008787b3          	add	a5,a5,s0
    1778:	fffa0713          	addi	a4,s4,-1
    177c:	0087e463          	bltu	a5,s0,1784 <__udivdi3+0x274>
    1780:	38a7ee63          	bltu	a5,a0,1b1c <__udivdi3+0x60c>
    1784:	00070a13          	mv	s4,a4
    1788:	40a784b3          	sub	s1,a5,a0
    178c:	000b8593          	mv	a1,s7
    1790:	00048513          	mv	a0,s1
    1794:	2cd010ef          	jal	3260 <__umodsi3>
    1798:	00050993          	mv	s3,a0
    179c:	000b8593          	mv	a1,s7
    17a0:	00048513          	mv	a0,s1
    17a4:	275010ef          	jal	3218 <__udivsi3>
    17a8:	01091913          	slli	s2,s2,0x10
    17ac:	000b0593          	mv	a1,s6
    17b0:	01099993          	slli	s3,s3,0x10
    17b4:	01095913          	srli	s2,s2,0x10
    17b8:	00050493          	mv	s1,a0
    17bc:	01396933          	or	s2,s2,s3
    17c0:	22d010ef          	jal	31ec <__mulsi3>
    17c4:	00a97c63          	bleu	a0,s2,17dc <__udivdi3+0x2cc>
    17c8:	01240933          	add	s2,s0,s2
    17cc:	fff48793          	addi	a5,s1,-1
    17d0:	2e896063          	bltu	s2,s0,1ab0 <__udivdi3+0x5a0>
    17d4:	ffe48493          	addi	s1,s1,-2
    17d8:	2ca97c63          	bleu	a0,s2,1ab0 <__udivdi3+0x5a0>
    17dc:	010a1513          	slli	a0,s4,0x10
    17e0:	00956533          	or	a0,a0,s1
    17e4:	00c0006f          	j	17f0 <__udivdi3+0x2e0>
    17e8:	00000a93          	li	s5,0
    17ec:	00000513          	li	a0,0
    17f0:	000a8593          	mv	a1,s5
    17f4:	02c12083          	lw	ra,44(sp)
    17f8:	02812403          	lw	s0,40(sp)
    17fc:	02412483          	lw	s1,36(sp)
    1800:	02012903          	lw	s2,32(sp)
    1804:	01c12983          	lw	s3,28(sp)
    1808:	01812a03          	lw	s4,24(sp)
    180c:	01412a83          	lw	s5,20(sp)
    1810:	01012b03          	lw	s6,16(sp)
    1814:	00c12b83          	lw	s7,12(sp)
    1818:	00812c03          	lw	s8,8(sp)
    181c:	00412c83          	lw	s9,4(sp)
    1820:	00012d03          	lw	s10,0(sp)
    1824:	03010113          	addi	sp,sp,48
    1828:	00008067          	ret
    182c:	0ff00713          	li	a4,255
    1830:	00d73733          	sltu	a4,a4,a3
    1834:	00371713          	slli	a4,a4,0x3
    1838:	e61ff06f          	j	1698 <__udivdi3+0x188>
    183c:	0ff00793          	li	a5,255
    1840:	0087b7b3          	sltu	a5,a5,s0
    1844:	00379793          	slli	a5,a5,0x3
    1848:	ebdff06f          	j	1704 <__udivdi3+0x1f4>
    184c:	010007b7          	lui	a5,0x1000
    1850:	00f637b3          	sltu	a5,a2,a5
    1854:	0017c793          	xori	a5,a5,1
    1858:	40f007b3          	neg	a5,a5
    185c:	0087f793          	andi	a5,a5,8
    1860:	01078793          	addi	a5,a5,16 # 1000010 <_end+0xfd91d0>
    1864:	d11ff06f          	j	1574 <__udivdi3+0x64>
    1868:	00e65cb3          	srl	s9,a2,a4
    186c:	015696b3          	sll	a3,a3,s5
    1870:	0196ecb3          	or	s9,a3,s9
    1874:	00e4d433          	srl	s0,s1,a4
    1878:	010cd993          	srli	s3,s9,0x10
    187c:	00ea5733          	srl	a4,s4,a4
    1880:	00098593          	mv	a1,s3
    1884:	015494b3          	sll	s1,s1,s5
    1888:	00040513          	mv	a0,s0
    188c:	009764b3          	or	s1,a4,s1
    1890:	01561b33          	sll	s6,a2,s5
    1894:	1cd010ef          	jal	3260 <__umodsi3>
    1898:	00050913          	mv	s2,a0
    189c:	00098593          	mv	a1,s3
    18a0:	010c9c13          	slli	s8,s9,0x10
    18a4:	00040513          	mv	a0,s0
    18a8:	171010ef          	jal	3218 <__udivsi3>
    18ac:	010c5c13          	srli	s8,s8,0x10
    18b0:	00050593          	mv	a1,a0
    18b4:	00050b93          	mv	s7,a0
    18b8:	000c0513          	mv	a0,s8
    18bc:	131010ef          	jal	31ec <__mulsi3>
    18c0:	01091913          	slli	s2,s2,0x10
    18c4:	0104d793          	srli	a5,s1,0x10
    18c8:	0127e7b3          	or	a5,a5,s2
    18cc:	00a7fa63          	bleu	a0,a5,18e0 <__udivdi3+0x3d0>
    18d0:	019787b3          	add	a5,a5,s9
    18d4:	fffb8713          	addi	a4,s7,-1
    18d8:	2397f263          	bleu	s9,a5,1afc <__udivdi3+0x5ec>
    18dc:	00070b93          	mv	s7,a4
    18e0:	40a78433          	sub	s0,a5,a0
    18e4:	00098593          	mv	a1,s3
    18e8:	00040513          	mv	a0,s0
    18ec:	175010ef          	jal	3260 <__umodsi3>
    18f0:	00050913          	mv	s2,a0
    18f4:	00098593          	mv	a1,s3
    18f8:	00040513          	mv	a0,s0
    18fc:	11d010ef          	jal	3218 <__udivsi3>
    1900:	01049493          	slli	s1,s1,0x10
    1904:	00050593          	mv	a1,a0
    1908:	00050413          	mv	s0,a0
    190c:	01091913          	slli	s2,s2,0x10
    1910:	000c0513          	mv	a0,s8
    1914:	0104d493          	srli	s1,s1,0x10
    1918:	0d5010ef          	jal	31ec <__mulsi3>
    191c:	0124e4b3          	or	s1,s1,s2
    1920:	00050793          	mv	a5,a0
    1924:	00a4fa63          	bleu	a0,s1,1938 <__udivdi3+0x428>
    1928:	019484b3          	add	s1,s1,s9
    192c:	fff40713          	addi	a4,s0,-1
    1930:	1b94fe63          	bleu	s9,s1,1aec <__udivdi3+0x5dc>
    1934:	00070413          	mv	s0,a4
    1938:	010b9b93          	slli	s7,s7,0x10
    193c:	00010cb7          	lui	s9,0x10
    1940:	008bebb3          	or	s7,s7,s0
    1944:	fffc8413          	addi	s0,s9,-1 # ffff <idx+0x8f27>
    1948:	008bf9b3          	and	s3,s7,s0
    194c:	008b7433          	and	s0,s6,s0
    1950:	00040593          	mv	a1,s0
    1954:	00098513          	mv	a0,s3
    1958:	40f484b3          	sub	s1,s1,a5
    195c:	010bdc13          	srli	s8,s7,0x10
    1960:	08d010ef          	jal	31ec <__mulsi3>
    1964:	00040593          	mv	a1,s0
    1968:	00050d13          	mv	s10,a0
    196c:	000c0513          	mv	a0,s8
    1970:	07d010ef          	jal	31ec <__mulsi3>
    1974:	010b5b13          	srli	s6,s6,0x10
    1978:	00050913          	mv	s2,a0
    197c:	000b0593          	mv	a1,s6
    1980:	000c0513          	mv	a0,s8
    1984:	069010ef          	jal	31ec <__mulsi3>
    1988:	00050413          	mv	s0,a0
    198c:	000b0593          	mv	a1,s6
    1990:	00098513          	mv	a0,s3
    1994:	059010ef          	jal	31ec <__mulsi3>
    1998:	01250533          	add	a0,a0,s2
    199c:	010d5793          	srli	a5,s10,0x10
    19a0:	00a787b3          	add	a5,a5,a0
    19a4:	0127f463          	bleu	s2,a5,19ac <__udivdi3+0x49c>
    19a8:	01940433          	add	s0,s0,s9
    19ac:	0107d513          	srli	a0,a5,0x10
    19b0:	00850533          	add	a0,a0,s0
    19b4:	12a4e663          	bltu	s1,a0,1ae0 <__udivdi3+0x5d0>
    19b8:	10a48463          	beq	s1,a0,1ac0 <__udivdi3+0x5b0>
    19bc:	000b8513          	mv	a0,s7
    19c0:	00000a93          	li	s5,0
    19c4:	e2dff06f          	j	17f0 <__udivdi3+0x2e0>
    19c8:	00e41433          	sll	s0,s0,a4
    19cc:	00f4dab3          	srl	s5,s1,a5
    19d0:	01045993          	srli	s3,s0,0x10
    19d4:	00fa57b3          	srl	a5,s4,a5
    19d8:	00e494b3          	sll	s1,s1,a4
    19dc:	00098593          	mv	a1,s3
    19e0:	000a8513          	mv	a0,s5
    19e4:	0097ebb3          	or	s7,a5,s1
    19e8:	00ea1933          	sll	s2,s4,a4
    19ec:	075010ef          	jal	3260 <__umodsi3>
    19f0:	00050a13          	mv	s4,a0
    19f4:	00098593          	mv	a1,s3
    19f8:	01041b13          	slli	s6,s0,0x10
    19fc:	000a8513          	mv	a0,s5
    1a00:	019010ef          	jal	3218 <__udivsi3>
    1a04:	010b5b13          	srli	s6,s6,0x10
    1a08:	00050593          	mv	a1,a0
    1a0c:	00050c13          	mv	s8,a0
    1a10:	000b0513          	mv	a0,s6
    1a14:	7d8010ef          	jal	31ec <__mulsi3>
    1a18:	010a1a13          	slli	s4,s4,0x10
    1a1c:	010bd793          	srli	a5,s7,0x10
    1a20:	0147e7b3          	or	a5,a5,s4
    1a24:	00a7fe63          	bleu	a0,a5,1a40 <__udivdi3+0x530>
    1a28:	008787b3          	add	a5,a5,s0
    1a2c:	fffc0713          	addi	a4,s8,-1
    1a30:	0e87e263          	bltu	a5,s0,1b14 <__udivdi3+0x604>
    1a34:	0ea7f063          	bleu	a0,a5,1b14 <__udivdi3+0x604>
    1a38:	ffec0c13          	addi	s8,s8,-2
    1a3c:	008787b3          	add	a5,a5,s0
    1a40:	40a78ab3          	sub	s5,a5,a0
    1a44:	00098593          	mv	a1,s3
    1a48:	000a8513          	mv	a0,s5
    1a4c:	015010ef          	jal	3260 <__umodsi3>
    1a50:	00050a13          	mv	s4,a0
    1a54:	00098593          	mv	a1,s3
    1a58:	000a8513          	mv	a0,s5
    1a5c:	7bc010ef          	jal	3218 <__udivsi3>
    1a60:	00050593          	mv	a1,a0
    1a64:	00050a93          	mv	s5,a0
    1a68:	000b0513          	mv	a0,s6
    1a6c:	780010ef          	jal	31ec <__mulsi3>
    1a70:	010b9793          	slli	a5,s7,0x10
    1a74:	010a1a13          	slli	s4,s4,0x10
    1a78:	0107d793          	srli	a5,a5,0x10
    1a7c:	0147e7b3          	or	a5,a5,s4
    1a80:	00a7fe63          	bleu	a0,a5,1a9c <__udivdi3+0x58c>
    1a84:	008787b3          	add	a5,a5,s0
    1a88:	fffa8713          	addi	a4,s5,-1
    1a8c:	0887e063          	bltu	a5,s0,1b0c <__udivdi3+0x5fc>
    1a90:	06a7fe63          	bleu	a0,a5,1b0c <__udivdi3+0x5fc>
    1a94:	ffea8a93          	addi	s5,s5,-2
    1a98:	008787b3          	add	a5,a5,s0
    1a9c:	010c1c13          	slli	s8,s8,0x10
    1aa0:	40a784b3          	sub	s1,a5,a0
    1aa4:	015c6ab3          	or	s5,s8,s5
    1aa8:	00098b93          	mv	s7,s3
    1aac:	c91ff06f          	j	173c <__udivdi3+0x22c>
    1ab0:	00078493          	mv	s1,a5
    1ab4:	d29ff06f          	j	17dc <__udivdi3+0x2cc>
    1ab8:	00078493          	mv	s1,a5
    1abc:	ba5ff06f          	j	1660 <__udivdi3+0x150>
    1ac0:	000106b7          	lui	a3,0x10
    1ac4:	fff68693          	addi	a3,a3,-1 # ffff <idx+0x8f27>
    1ac8:	00d7f7b3          	and	a5,a5,a3
    1acc:	01079713          	slli	a4,a5,0x10
    1ad0:	00dd77b3          	and	a5,s10,a3
    1ad4:	015a1a33          	sll	s4,s4,s5
    1ad8:	00f707b3          	add	a5,a4,a5
    1adc:	eefa70e3          	bleu	a5,s4,19bc <__udivdi3+0x4ac>
    1ae0:	fffb8513          	addi	a0,s7,-1
    1ae4:	00000a93          	li	s5,0
    1ae8:	d09ff06f          	j	17f0 <__udivdi3+0x2e0>
    1aec:	e4a4f4e3          	bleu	a0,s1,1934 <__udivdi3+0x424>
    1af0:	ffe40413          	addi	s0,s0,-2
    1af4:	019484b3          	add	s1,s1,s9
    1af8:	e41ff06f          	j	1938 <__udivdi3+0x428>
    1afc:	dea7f0e3          	bleu	a0,a5,18dc <__udivdi3+0x3cc>
    1b00:	ffeb8b93          	addi	s7,s7,-2
    1b04:	019787b3          	add	a5,a5,s9
    1b08:	dd9ff06f          	j	18e0 <__udivdi3+0x3d0>
    1b0c:	00070a93          	mv	s5,a4
    1b10:	f8dff06f          	j	1a9c <__udivdi3+0x58c>
    1b14:	00070c13          	mv	s8,a4
    1b18:	f29ff06f          	j	1a40 <__udivdi3+0x530>
    1b1c:	ffea0a13          	addi	s4,s4,-2
    1b20:	008787b3          	add	a5,a5,s0
    1b24:	c65ff06f          	j	1788 <__udivdi3+0x278>
    1b28:	ffea8a93          	addi	s5,s5,-2
    1b2c:	008787b3          	add	a5,a5,s0
    1b30:	ad9ff06f          	j	1608 <__udivdi3+0xf8>

00001b34 <__umoddi3>:
    1b34:	fb010113          	addi	sp,sp,-80
    1b38:	04812423          	sw	s0,72(sp)
    1b3c:	04912223          	sw	s1,68(sp)
    1b40:	05212023          	sw	s2,64(sp)
    1b44:	03312e23          	sw	s3,60(sp)
    1b48:	03512a23          	sw	s5,52(sp)
    1b4c:	04112623          	sw	ra,76(sp)
    1b50:	03412c23          	sw	s4,56(sp)
    1b54:	03612823          	sw	s6,48(sp)
    1b58:	03712623          	sw	s7,44(sp)
    1b5c:	03812423          	sw	s8,40(sp)
    1b60:	03912223          	sw	s9,36(sp)
    1b64:	03a12023          	sw	s10,32(sp)
    1b68:	01b12e23          	sw	s11,28(sp)
    1b6c:	00058493          	mv	s1,a1
    1b70:	00050413          	mv	s0,a0
    1b74:	00060913          	mv	s2,a2
    1b78:	00050993          	mv	s3,a0
    1b7c:	00058a93          	mv	s5,a1
    1b80:	14069463          	bnez	a3,1cc8 <__umoddi3+0x194>
    1b84:	1ac5fa63          	bleu	a2,a1,1d38 <__umoddi3+0x204>
    1b88:	000107b7          	lui	a5,0x10
    1b8c:	2af66063          	bltu	a2,a5,1e2c <__umoddi3+0x2f8>
    1b90:	010007b7          	lui	a5,0x1000
    1b94:	00f637b3          	sltu	a5,a2,a5
    1b98:	0017c793          	xori	a5,a5,1
    1b9c:	40f007b3          	neg	a5,a5
    1ba0:	0087f793          	andi	a5,a5,8
    1ba4:	01078793          	addi	a5,a5,16 # 1000010 <_end+0xfd91d0>
    1ba8:	00026737          	lui	a4,0x26
    1bac:	00f656b3          	srl	a3,a2,a5
    1bb0:	67870713          	addi	a4,a4,1656 # 26678 <__clz_tab>
    1bb4:	00e68733          	add	a4,a3,a4
    1bb8:	00074583          	lbu	a1,0(a4)
    1bbc:	02000513          	li	a0,32
    1bc0:	00f587b3          	add	a5,a1,a5
    1bc4:	40f50a33          	sub	s4,a0,a5
    1bc8:	000a0c63          	beqz	s4,1be0 <__umoddi3+0xac>
    1bcc:	014495b3          	sll	a1,s1,s4
    1bd0:	00f457b3          	srl	a5,s0,a5
    1bd4:	01461933          	sll	s2,a2,s4
    1bd8:	00b7eab3          	or	s5,a5,a1
    1bdc:	014419b3          	sll	s3,s0,s4
    1be0:	01095b13          	srli	s6,s2,0x10
    1be4:	000b0593          	mv	a1,s6
    1be8:	000a8513          	mv	a0,s5
    1bec:	674010ef          	jal	3260 <__umodsi3>
    1bf0:	00050493          	mv	s1,a0
    1bf4:	000b0593          	mv	a1,s6
    1bf8:	000a8513          	mv	a0,s5
    1bfc:	01091a93          	slli	s5,s2,0x10
    1c00:	618010ef          	jal	3218 <__udivsi3>
    1c04:	010ada93          	srli	s5,s5,0x10
    1c08:	00050593          	mv	a1,a0
    1c0c:	000a8513          	mv	a0,s5
    1c10:	5dc010ef          	jal	31ec <__mulsi3>
    1c14:	01049493          	slli	s1,s1,0x10
    1c18:	0109d793          	srli	a5,s3,0x10
    1c1c:	0097e7b3          	or	a5,a5,s1
    1c20:	00a7f863          	bleu	a0,a5,1c30 <__umoddi3+0xfc>
    1c24:	012787b3          	add	a5,a5,s2
    1c28:	0127e463          	bltu	a5,s2,1c30 <__umoddi3+0xfc>
    1c2c:	4aa7e863          	bltu	a5,a0,20dc <__umoddi3+0x5a8>
    1c30:	40a78433          	sub	s0,a5,a0
    1c34:	000b0593          	mv	a1,s6
    1c38:	00040513          	mv	a0,s0
    1c3c:	624010ef          	jal	3260 <__umodsi3>
    1c40:	000b0593          	mv	a1,s6
    1c44:	00050493          	mv	s1,a0
    1c48:	00040513          	mv	a0,s0
    1c4c:	5cc010ef          	jal	3218 <__udivsi3>
    1c50:	00050593          	mv	a1,a0
    1c54:	000a8513          	mv	a0,s5
    1c58:	594010ef          	jal	31ec <__mulsi3>
    1c5c:	01099793          	slli	a5,s3,0x10
    1c60:	01049493          	slli	s1,s1,0x10
    1c64:	0107d793          	srli	a5,a5,0x10
    1c68:	0097e7b3          	or	a5,a5,s1
    1c6c:	00a7fa63          	bleu	a0,a5,1c80 <__umoddi3+0x14c>
    1c70:	012787b3          	add	a5,a5,s2
    1c74:	0127e663          	bltu	a5,s2,1c80 <__umoddi3+0x14c>
    1c78:	00a7f463          	bleu	a0,a5,1c80 <__umoddi3+0x14c>
    1c7c:	012787b3          	add	a5,a5,s2
    1c80:	40a78533          	sub	a0,a5,a0
    1c84:	01455533          	srl	a0,a0,s4
    1c88:	00000593          	li	a1,0
    1c8c:	04c12083          	lw	ra,76(sp)
    1c90:	04812403          	lw	s0,72(sp)
    1c94:	04412483          	lw	s1,68(sp)
    1c98:	04012903          	lw	s2,64(sp)
    1c9c:	03c12983          	lw	s3,60(sp)
    1ca0:	03812a03          	lw	s4,56(sp)
    1ca4:	03412a83          	lw	s5,52(sp)
    1ca8:	03012b03          	lw	s6,48(sp)
    1cac:	02c12b83          	lw	s7,44(sp)
    1cb0:	02812c03          	lw	s8,40(sp)
    1cb4:	02412c83          	lw	s9,36(sp)
    1cb8:	02012d03          	lw	s10,32(sp)
    1cbc:	01c12d83          	lw	s11,28(sp)
    1cc0:	05010113          	addi	sp,sp,80
    1cc4:	00008067          	ret
    1cc8:	fcd5e2e3          	bltu	a1,a3,1c8c <__umoddi3+0x158>
    1ccc:	000107b7          	lui	a5,0x10
    1cd0:	00068813          	mv	a6,a3
    1cd4:	12f6ec63          	bltu	a3,a5,1e0c <__umoddi3+0x2d8>
    1cd8:	01000737          	lui	a4,0x1000
    1cdc:	00e6b733          	sltu	a4,a3,a4
    1ce0:	00174713          	xori	a4,a4,1
    1ce4:	40e00733          	neg	a4,a4
    1ce8:	00877713          	andi	a4,a4,8
    1cec:	01070713          	addi	a4,a4,16 # 1000010 <_end+0xfd91d0>
    1cf0:	000267b7          	lui	a5,0x26
    1cf4:	00e6d5b3          	srl	a1,a3,a4
    1cf8:	67878793          	addi	a5,a5,1656 # 26678 <__clz_tab>
    1cfc:	00f587b3          	add	a5,a1,a5
    1d00:	0007cb03          	lbu	s6,0(a5)
    1d04:	02000593          	li	a1,32
    1d08:	00eb0b33          	add	s6,s6,a4
    1d0c:	41658a33          	sub	s4,a1,s6
    1d10:	120a1663          	bnez	s4,1e3c <__umoddi3+0x308>
    1d14:	01586663          	bltu	a6,s5,1d20 <__umoddi3+0x1ec>
    1d18:	00040513          	mv	a0,s0
    1d1c:	0129ea63          	bltu	s3,s2,1d30 <__umoddi3+0x1fc>
    1d20:	40c40533          	sub	a0,s0,a2
    1d24:	40d486b3          	sub	a3,s1,a3
    1d28:	00a43433          	sltu	s0,s0,a0
    1d2c:	40868ab3          	sub	s5,a3,s0
    1d30:	000a8593          	mv	a1,s5
    1d34:	f59ff06f          	j	1c8c <__umoddi3+0x158>
    1d38:	00061a63          	bnez	a2,1d4c <__umoddi3+0x218>
    1d3c:	00000593          	li	a1,0
    1d40:	00100513          	li	a0,1
    1d44:	4d4010ef          	jal	3218 <__udivsi3>
    1d48:	00050913          	mv	s2,a0
    1d4c:	000107b7          	lui	a5,0x10
    1d50:	0cf96663          	bltu	s2,a5,1e1c <__umoddi3+0x2e8>
    1d54:	010007b7          	lui	a5,0x1000
    1d58:	00f937b3          	sltu	a5,s2,a5
    1d5c:	0017c793          	xori	a5,a5,1
    1d60:	40f007b3          	neg	a5,a5
    1d64:	0087f793          	andi	a5,a5,8
    1d68:	01078793          	addi	a5,a5,16 # 1000010 <_end+0xfd91d0>
    1d6c:	00026737          	lui	a4,0x26
    1d70:	00f956b3          	srl	a3,s2,a5
    1d74:	67870713          	addi	a4,a4,1656 # 26678 <__clz_tab>
    1d78:	00e68733          	add	a4,a3,a4
    1d7c:	00074703          	lbu	a4,0(a4)
    1d80:	02000513          	li	a0,32
    1d84:	00f707b3          	add	a5,a4,a5
    1d88:	40f50a33          	sub	s4,a0,a5
    1d8c:	240a1863          	bnez	s4,1fdc <__umoddi3+0x4a8>
    1d90:	01091b93          	slli	s7,s2,0x10
    1d94:	412484b3          	sub	s1,s1,s2
    1d98:	01095b13          	srli	s6,s2,0x10
    1d9c:	010bdb93          	srli	s7,s7,0x10
    1da0:	000b0593          	mv	a1,s6
    1da4:	00048513          	mv	a0,s1
    1da8:	4b8010ef          	jal	3260 <__umodsi3>
    1dac:	00050a93          	mv	s5,a0
    1db0:	000b0593          	mv	a1,s6
    1db4:	00048513          	mv	a0,s1
    1db8:	460010ef          	jal	3218 <__udivsi3>
    1dbc:	000b8593          	mv	a1,s7
    1dc0:	42c010ef          	jal	31ec <__mulsi3>
    1dc4:	010a9a93          	slli	s5,s5,0x10
    1dc8:	0109d793          	srli	a5,s3,0x10
    1dcc:	0157e7b3          	or	a5,a5,s5
    1dd0:	00a7fa63          	bleu	a0,a5,1de4 <__umoddi3+0x2b0>
    1dd4:	012787b3          	add	a5,a5,s2
    1dd8:	0127e663          	bltu	a5,s2,1de4 <__umoddi3+0x2b0>
    1ddc:	00a7f463          	bleu	a0,a5,1de4 <__umoddi3+0x2b0>
    1de0:	012787b3          	add	a5,a5,s2
    1de4:	40a78433          	sub	s0,a5,a0
    1de8:	000b0593          	mv	a1,s6
    1dec:	00040513          	mv	a0,s0
    1df0:	470010ef          	jal	3260 <__umodsi3>
    1df4:	000b0593          	mv	a1,s6
    1df8:	00050493          	mv	s1,a0
    1dfc:	00040513          	mv	a0,s0
    1e00:	418010ef          	jal	3218 <__udivsi3>
    1e04:	000b8593          	mv	a1,s7
    1e08:	e51ff06f          	j	1c58 <__umoddi3+0x124>
    1e0c:	0ff00713          	li	a4,255
    1e10:	00d73733          	sltu	a4,a4,a3
    1e14:	00371713          	slli	a4,a4,0x3
    1e18:	ed9ff06f          	j	1cf0 <__umoddi3+0x1bc>
    1e1c:	0ff00793          	li	a5,255
    1e20:	0127b7b3          	sltu	a5,a5,s2
    1e24:	00379793          	slli	a5,a5,0x3
    1e28:	f45ff06f          	j	1d6c <__umoddi3+0x238>
    1e2c:	0ff00793          	li	a5,255
    1e30:	00c7b7b3          	sltu	a5,a5,a2
    1e34:	00379793          	slli	a5,a5,0x3
    1e38:	d71ff06f          	j	1ba8 <__umoddi3+0x74>
    1e3c:	016659b3          	srl	s3,a2,s6
    1e40:	014696b3          	sll	a3,a3,s4
    1e44:	0136e9b3          	or	s3,a3,s3
    1e48:	0164dab3          	srl	s5,s1,s6
    1e4c:	0109db93          	srli	s7,s3,0x10
    1e50:	014496b3          	sll	a3,s1,s4
    1e54:	000b8593          	mv	a1,s7
    1e58:	016454b3          	srl	s1,s0,s6
    1e5c:	000a8513          	mv	a0,s5
    1e60:	00d4e4b3          	or	s1,s1,a3
    1e64:	01461933          	sll	s2,a2,s4
    1e68:	3f8010ef          	jal	3260 <__umodsi3>
    1e6c:	00050c13          	mv	s8,a0
    1e70:	000b8593          	mv	a1,s7
    1e74:	01099c93          	slli	s9,s3,0x10
    1e78:	000a8513          	mv	a0,s5
    1e7c:	39c010ef          	jal	3218 <__udivsi3>
    1e80:	010cdc93          	srli	s9,s9,0x10
    1e84:	00050593          	mv	a1,a0
    1e88:	00050d13          	mv	s10,a0
    1e8c:	000c8513          	mv	a0,s9
    1e90:	35c010ef          	jal	31ec <__mulsi3>
    1e94:	010c1c13          	slli	s8,s8,0x10
    1e98:	0104d793          	srli	a5,s1,0x10
    1e9c:	0187e7b3          	or	a5,a5,s8
    1ea0:	01441433          	sll	s0,s0,s4
    1ea4:	00a7fa63          	bleu	a0,a5,1eb8 <__umoddi3+0x384>
    1ea8:	013787b3          	add	a5,a5,s3
    1eac:	fffd0713          	addi	a4,s10,-1
    1eb0:	2137fe63          	bleu	s3,a5,20cc <__umoddi3+0x598>
    1eb4:	00070d13          	mv	s10,a4
    1eb8:	40a78ab3          	sub	s5,a5,a0
    1ebc:	000b8593          	mv	a1,s7
    1ec0:	000a8513          	mv	a0,s5
    1ec4:	39c010ef          	jal	3260 <__umodsi3>
    1ec8:	00050c13          	mv	s8,a0
    1ecc:	000b8593          	mv	a1,s7
    1ed0:	000a8513          	mv	a0,s5
    1ed4:	344010ef          	jal	3218 <__udivsi3>
    1ed8:	00050593          	mv	a1,a0
    1edc:	00050a93          	mv	s5,a0
    1ee0:	000c8513          	mv	a0,s9
    1ee4:	308010ef          	jal	31ec <__mulsi3>
    1ee8:	01049693          	slli	a3,s1,0x10
    1eec:	010c1c13          	slli	s8,s8,0x10
    1ef0:	0106d693          	srli	a3,a3,0x10
    1ef4:	0186e6b3          	or	a3,a3,s8
    1ef8:	00050713          	mv	a4,a0
    1efc:	00a6fa63          	bleu	a0,a3,1f10 <__umoddi3+0x3dc>
    1f00:	013686b3          	add	a3,a3,s3
    1f04:	fffa8793          	addi	a5,s5,-1
    1f08:	1b36fa63          	bleu	s3,a3,20bc <__umoddi3+0x588>
    1f0c:	00078a93          	mv	s5,a5
    1f10:	00010637          	lui	a2,0x10
    1f14:	010d1d13          	slli	s10,s10,0x10
    1f18:	fff60b93          	addi	s7,a2,-1 # ffff <idx+0x8f27>
    1f1c:	015d6ab3          	or	s5,s10,s5
    1f20:	017afdb3          	and	s11,s5,s7
    1f24:	01797bb3          	and	s7,s2,s7
    1f28:	000b8593          	mv	a1,s7
    1f2c:	000d8513          	mv	a0,s11
    1f30:	00c12623          	sw	a2,12(sp)
    1f34:	40e684b3          	sub	s1,a3,a4
    1f38:	010ada93          	srli	s5,s5,0x10
    1f3c:	2b0010ef          	jal	31ec <__mulsi3>
    1f40:	00050c93          	mv	s9,a0
    1f44:	000b8593          	mv	a1,s7
    1f48:	000a8513          	mv	a0,s5
    1f4c:	2a0010ef          	jal	31ec <__mulsi3>
    1f50:	01095c13          	srli	s8,s2,0x10
    1f54:	00050d13          	mv	s10,a0
    1f58:	000c0593          	mv	a1,s8
    1f5c:	000a8513          	mv	a0,s5
    1f60:	28c010ef          	jal	31ec <__mulsi3>
    1f64:	00050a93          	mv	s5,a0
    1f68:	000c0593          	mv	a1,s8
    1f6c:	000d8513          	mv	a0,s11
    1f70:	27c010ef          	jal	31ec <__mulsi3>
    1f74:	01a50533          	add	a0,a0,s10
    1f78:	010cd793          	srli	a5,s9,0x10
    1f7c:	00a78533          	add	a0,a5,a0
    1f80:	01a57663          	bleu	s10,a0,1f8c <__umoddi3+0x458>
    1f84:	00c12603          	lw	a2,12(sp)
    1f88:	00ca8ab3          	add	s5,s5,a2
    1f8c:	000107b7          	lui	a5,0x10
    1f90:	fff78813          	addi	a6,a5,-1 # ffff <idx+0x8f27>
    1f94:	01055593          	srli	a1,a0,0x10
    1f98:	01057533          	and	a0,a0,a6
    1f9c:	01051793          	slli	a5,a0,0x10
    1fa0:	010cf633          	and	a2,s9,a6
    1fa4:	015585b3          	add	a1,a1,s5
    1fa8:	00c78633          	add	a2,a5,a2
    1fac:	0eb4ec63          	bltu	s1,a1,20a4 <__umoddi3+0x570>
    1fb0:	12b48a63          	beq	s1,a1,20e4 <__umoddi3+0x5b0>
    1fb4:	40b48733          	sub	a4,s1,a1
    1fb8:	00060793          	mv	a5,a2
    1fbc:	40f407b3          	sub	a5,s0,a5
    1fc0:	00f435b3          	sltu	a1,s0,a5
    1fc4:	40b705b3          	sub	a1,a4,a1
    1fc8:	01659533          	sll	a0,a1,s6
    1fcc:	0147d7b3          	srl	a5,a5,s4
    1fd0:	00f56533          	or	a0,a0,a5
    1fd4:	0145d5b3          	srl	a1,a1,s4
    1fd8:	cb5ff06f          	j	1c8c <__umoddi3+0x158>
    1fdc:	01491933          	sll	s2,s2,s4
    1fe0:	00f4db33          	srl	s6,s1,a5
    1fe4:	01095a93          	srli	s5,s2,0x10
    1fe8:	00f457b3          	srl	a5,s0,a5
    1fec:	000a8593          	mv	a1,s5
    1ff0:	014494b3          	sll	s1,s1,s4
    1ff4:	000b0513          	mv	a0,s6
    1ff8:	0097ec33          	or	s8,a5,s1
    1ffc:	264010ef          	jal	3260 <__umodsi3>
    2000:	00050993          	mv	s3,a0
    2004:	000a8593          	mv	a1,s5
    2008:	01091b93          	slli	s7,s2,0x10
    200c:	000b0513          	mv	a0,s6
    2010:	208010ef          	jal	3218 <__udivsi3>
    2014:	010bdb93          	srli	s7,s7,0x10
    2018:	00050593          	mv	a1,a0
    201c:	000b8513          	mv	a0,s7
    2020:	1cc010ef          	jal	31ec <__mulsi3>
    2024:	01099993          	slli	s3,s3,0x10
    2028:	010c5793          	srli	a5,s8,0x10
    202c:	0137e7b3          	or	a5,a5,s3
    2030:	014419b3          	sll	s3,s0,s4
    2034:	00a7fa63          	bleu	a0,a5,2048 <__umoddi3+0x514>
    2038:	012787b3          	add	a5,a5,s2
    203c:	0127e663          	bltu	a5,s2,2048 <__umoddi3+0x514>
    2040:	00a7f463          	bleu	a0,a5,2048 <__umoddi3+0x514>
    2044:	012787b3          	add	a5,a5,s2
    2048:	40a78b33          	sub	s6,a5,a0
    204c:	000a8593          	mv	a1,s5
    2050:	000b0513          	mv	a0,s6
    2054:	20c010ef          	jal	3260 <__umodsi3>
    2058:	00050413          	mv	s0,a0
    205c:	000a8593          	mv	a1,s5
    2060:	000b0513          	mv	a0,s6
    2064:	1b4010ef          	jal	3218 <__udivsi3>
    2068:	00050593          	mv	a1,a0
    206c:	000b8513          	mv	a0,s7
    2070:	17c010ef          	jal	31ec <__mulsi3>
    2074:	010c1793          	slli	a5,s8,0x10
    2078:	01041413          	slli	s0,s0,0x10
    207c:	0107d793          	srli	a5,a5,0x10
    2080:	0087e7b3          	or	a5,a5,s0
    2084:	00a7fa63          	bleu	a0,a5,2098 <__umoddi3+0x564>
    2088:	012787b3          	add	a5,a5,s2
    208c:	0127e663          	bltu	a5,s2,2098 <__umoddi3+0x564>
    2090:	00a7f463          	bleu	a0,a5,2098 <__umoddi3+0x564>
    2094:	012787b3          	add	a5,a5,s2
    2098:	40a784b3          	sub	s1,a5,a0
    209c:	000a8b13          	mv	s6,s5
    20a0:	d01ff06f          	j	1da0 <__umoddi3+0x26c>
    20a4:	412607b3          	sub	a5,a2,s2
    20a8:	41358733          	sub	a4,a1,s3
    20ac:	00f63633          	sltu	a2,a2,a5
    20b0:	40c70633          	sub	a2,a4,a2
    20b4:	40c48733          	sub	a4,s1,a2
    20b8:	f05ff06f          	j	1fbc <__umoddi3+0x488>
    20bc:	e4a6f8e3          	bleu	a0,a3,1f0c <__umoddi3+0x3d8>
    20c0:	ffea8a93          	addi	s5,s5,-2
    20c4:	013686b3          	add	a3,a3,s3
    20c8:	e49ff06f          	j	1f10 <__umoddi3+0x3dc>
    20cc:	dea7f4e3          	bleu	a0,a5,1eb4 <__umoddi3+0x380>
    20d0:	ffed0d13          	addi	s10,s10,-2
    20d4:	013787b3          	add	a5,a5,s3
    20d8:	de1ff06f          	j	1eb8 <__umoddi3+0x384>
    20dc:	012787b3          	add	a5,a5,s2
    20e0:	b51ff06f          	j	1c30 <__umoddi3+0xfc>
    20e4:	fcc460e3          	bltu	s0,a2,20a4 <__umoddi3+0x570>
    20e8:	00060793          	mv	a5,a2
    20ec:	00000713          	li	a4,0
    20f0:	ecdff06f          	j	1fbc <__umoddi3+0x488>

000020f4 <_fpadd_parts>:
    20f4:	00052783          	lw	a5,0(a0)
    20f8:	00100693          	li	a3,1
    20fc:	12f6f263          	bleu	a5,a3,2220 <_fpadd_parts+0x12c>
    2100:	0005a703          	lw	a4,0(a1)
    2104:	10e6fc63          	bleu	a4,a3,221c <_fpadd_parts+0x128>
    2108:	00400693          	li	a3,4
    210c:	24d78063          	beq	a5,a3,234c <_fpadd_parts+0x258>
    2110:	10d70663          	beq	a4,a3,221c <_fpadd_parts+0x128>
    2114:	00200693          	li	a3,2
    2118:	1cd70263          	beq	a4,a3,22dc <_fpadd_parts+0x1e8>
    211c:	10d78063          	beq	a5,a3,221c <_fpadd_parts+0x128>
    2120:	00852e03          	lw	t3,8(a0)
    2124:	0085a683          	lw	a3,8(a1)
    2128:	01052883          	lw	a7,16(a0)
    212c:	01452f03          	lw	t5,20(a0)
    2130:	40de0833          	sub	a6,t3,a3
    2134:	41f85793          	srai	a5,a6,0x1f
    2138:	0107c733          	xor	a4,a5,a6
    213c:	40f70733          	sub	a4,a4,a5
    2140:	03f00793          	li	a5,63
    2144:	0105a303          	lw	t1,16(a1)
    2148:	0145ae83          	lw	t4,20(a1)
    214c:	0ce7dc63          	ble	a4,a5,2224 <_fpadd_parts+0x130>
    2150:	1fc6c863          	blt	a3,t3,2340 <_fpadd_parts+0x24c>
    2154:	00068e13          	mv	t3,a3
    2158:	00000893          	li	a7,0
    215c:	00000f13          	li	t5,0
    2160:	00452503          	lw	a0,4(a0)
    2164:	0045a783          	lw	a5,4(a1)
    2168:	10f50863          	beq	a0,a5,2278 <_fpadd_parts+0x184>
    216c:	1c050063          	beqz	a0,232c <_fpadd_parts+0x238>
    2170:	411307b3          	sub	a5,t1,a7
    2174:	00f336b3          	sltu	a3,t1,a5
    2178:	41ee8733          	sub	a4,t4,t5
    217c:	40d706b3          	sub	a3,a4,a3
    2180:	1e06c463          	bltz	a3,2368 <_fpadd_parts+0x274>
    2184:	00062223          	sw	zero,4(a2)
    2188:	01c62423          	sw	t3,8(a2)
    218c:	00f62823          	sw	a5,16(a2)
    2190:	00d62a23          	sw	a3,20(a2)
    2194:	fff78513          	addi	a0,a5,-1
    2198:	fff68593          	addi	a1,a3,-1
    219c:	00f53733          	sltu	a4,a0,a5
    21a0:	00b70733          	add	a4,a4,a1
    21a4:	100005b7          	lui	a1,0x10000
    21a8:	0eb77863          	bleu	a1,a4,2298 <_fpadd_parts+0x1a4>
    21ac:	fff58593          	addi	a1,a1,-1 # fffffff <_end+0xffd91bf>
    21b0:	24b70e63          	beq	a4,a1,240c <_fpadd_parts+0x318>
    21b4:	00862503          	lw	a0,8(a2)
    21b8:	10000337          	lui	t1,0x10000
    21bc:	fff30e13          	addi	t3,t1,-1 # fffffff <_end+0xffd91bf>
    21c0:	fff50513          	addi	a0,a0,-1
    21c4:	ffe00e93          	li	t4,-2
    21c8:	0080006f          	j	21d0 <_fpadd_parts+0xdc>
    21cc:	15c70c63          	beq	a4,t3,2324 <_fpadd_parts+0x230>
    21d0:	01f7d713          	srli	a4,a5,0x1f
    21d4:	00169593          	slli	a1,a3,0x1
    21d8:	00179793          	slli	a5,a5,0x1
    21dc:	00b765b3          	or	a1,a4,a1
    21e0:	fff78813          	addi	a6,a5,-1
    21e4:	fff58893          	addi	a7,a1,-1
    21e8:	00f83733          	sltu	a4,a6,a5
    21ec:	01170733          	add	a4,a4,a7
    21f0:	00058693          	mv	a3,a1
    21f4:	00050893          	mv	a7,a0
    21f8:	fff50513          	addi	a0,a0,-1
    21fc:	fc6768e3          	bltu	a4,t1,21cc <_fpadd_parts+0xd8>
    2200:	00f62823          	sw	a5,16(a2)
    2204:	00300793          	li	a5,3
    2208:	00b62a23          	sw	a1,20(a2)
    220c:	01162423          	sw	a7,8(a2)
    2210:	00f62023          	sw	a5,0(a2)
    2214:	00060513          	mv	a0,a2
    2218:	00008067          	ret
    221c:	00058513          	mv	a0,a1
    2220:	00008067          	ret
    2224:	19005a63          	blez	a6,23b8 <_fpadd_parts+0x2c4>
    2228:	02077793          	andi	a5,a4,32
    222c:	16078263          	beqz	a5,2390 <_fpadd_parts+0x29c>
    2230:	00100693          	li	a3,1
    2234:	00eedfb3          	srl	t6,t4,a4
    2238:	00e696b3          	sll	a3,a3,a4
    223c:	00000293          	li	t0,0
    2240:	00000713          	li	a4,0
    2244:	fff70793          	addi	a5,a4,-1
    2248:	00e7b733          	sltu	a4,a5,a4
    224c:	fff68693          	addi	a3,a3,-1
    2250:	00d70733          	add	a4,a4,a3
    2254:	0067f7b3          	and	a5,a5,t1
    2258:	01d77733          	and	a4,a4,t4
    225c:	00e7e7b3          	or	a5,a5,a4
    2260:	00f037b3          	snez	a5,a5
    2264:	00ffe333          	or	t1,t6,a5
    2268:	00452503          	lw	a0,4(a0)
    226c:	0045a783          	lw	a5,4(a1)
    2270:	00028e93          	mv	t4,t0
    2274:	eef51ce3          	bne	a0,a5,216c <_fpadd_parts+0x78>
    2278:	006887b3          	add	a5,a7,t1
    227c:	0117b8b3          	sltu	a7,a5,a7
    2280:	01df0733          	add	a4,t5,t4
    2284:	00e886b3          	add	a3,a7,a4
    2288:	00a62223          	sw	a0,4(a2)
    228c:	01c62423          	sw	t3,8(a2)
    2290:	00f62823          	sw	a5,16(a2)
    2294:	00d62a23          	sw	a3,20(a2)
    2298:	00300713          	li	a4,3
    229c:	00e62023          	sw	a4,0(a2)
    22a0:	20000737          	lui	a4,0x20000
    22a4:	02e6e863          	bltu	a3,a4,22d4 <_fpadd_parts+0x1e0>
    22a8:	00862703          	lw	a4,8(a2)
    22ac:	01f69513          	slli	a0,a3,0x1f
    22b0:	0017d593          	srli	a1,a5,0x1
    22b4:	00b565b3          	or	a1,a0,a1
    22b8:	0017f793          	andi	a5,a5,1
    22bc:	0016d693          	srli	a3,a3,0x1
    22c0:	00f5e7b3          	or	a5,a1,a5
    22c4:	00170713          	addi	a4,a4,1 # 20000001 <_end+0x1ffd91c1>
    22c8:	00f62823          	sw	a5,16(a2)
    22cc:	00d62a23          	sw	a3,20(a2)
    22d0:	00e62423          	sw	a4,8(a2)
    22d4:	00060513          	mv	a0,a2
    22d8:	00008067          	ret
    22dc:	f4e792e3          	bne	a5,a4,2220 <_fpadd_parts+0x12c>
    22e0:	00f62023          	sw	a5,0(a2)
    22e4:	00452783          	lw	a5,4(a0)
    22e8:	00f62223          	sw	a5,4(a2)
    22ec:	00852703          	lw	a4,8(a0)
    22f0:	00452683          	lw	a3,4(a0)
    22f4:	0045a783          	lw	a5,4(a1)
    22f8:	00e62423          	sw	a4,8(a2)
    22fc:	00c52703          	lw	a4,12(a0)
    2300:	00f6f7b3          	and	a5,a3,a5
    2304:	00e62623          	sw	a4,12(a2)
    2308:	01052703          	lw	a4,16(a0)
    230c:	00e62823          	sw	a4,16(a2)
    2310:	01452703          	lw	a4,20(a0)
    2314:	00f62223          	sw	a5,4(a2)
    2318:	00060513          	mv	a0,a2
    231c:	00e62a23          	sw	a4,20(a2)
    2320:	00008067          	ret
    2324:	eb0ef6e3          	bleu	a6,t4,21d0 <_fpadd_parts+0xdc>
    2328:	ed9ff06f          	j	2200 <_fpadd_parts+0x10c>
    232c:	406887b3          	sub	a5,a7,t1
    2330:	00f8b6b3          	sltu	a3,a7,a5
    2334:	41df0733          	sub	a4,t5,t4
    2338:	40d706b3          	sub	a3,a4,a3
    233c:	e45ff06f          	j	2180 <_fpadd_parts+0x8c>
    2340:	00000313          	li	t1,0
    2344:	00000e93          	li	t4,0
    2348:	e19ff06f          	j	2160 <_fpadd_parts+0x6c>
    234c:	ecf71ae3          	bne	a4,a5,2220 <_fpadd_parts+0x12c>
    2350:	00452703          	lw	a4,4(a0)
    2354:	0045a783          	lw	a5,4(a1)
    2358:	ecf704e3          	beq	a4,a5,2220 <_fpadd_parts+0x12c>
    235c:	00026537          	lui	a0,0x26
    2360:	66050513          	addi	a0,a0,1632 # 26660 <__thenan_df>
    2364:	00008067          	ret
    2368:	40f007b3          	neg	a5,a5
    236c:	00f03733          	snez	a4,a5
    2370:	40d006b3          	neg	a3,a3
    2374:	40e686b3          	sub	a3,a3,a4
    2378:	00100713          	li	a4,1
    237c:	00e62223          	sw	a4,4(a2)
    2380:	01c62423          	sw	t3,8(a2)
    2384:	00f62823          	sw	a5,16(a2)
    2388:	00d62a23          	sw	a3,20(a2)
    238c:	e09ff06f          	j	2194 <_fpadd_parts+0xa0>
    2390:	fff74693          	not	a3,a4
    2394:	001e9793          	slli	a5,t4,0x1
    2398:	00d797b3          	sll	a5,a5,a3
    239c:	00e35fb3          	srl	t6,t1,a4
    23a0:	00100813          	li	a6,1
    23a4:	00eed2b3          	srl	t0,t4,a4
    23a8:	01f7efb3          	or	t6,a5,t6
    23ac:	00000693          	li	a3,0
    23b0:	00e81733          	sll	a4,a6,a4
    23b4:	e91ff06f          	j	2244 <_fpadd_parts+0x150>
    23b8:	da0804e3          	beqz	a6,2160 <_fpadd_parts+0x6c>
    23bc:	02077793          	andi	a5,a4,32
    23c0:	00ee0e33          	add	t3,t3,a4
    23c4:	06078263          	beqz	a5,2428 <_fpadd_parts+0x334>
    23c8:	00ef5833          	srl	a6,t5,a4
    23cc:	00000f93          	li	t6,0
    23d0:	04079463          	bnez	a5,2418 <_fpadd_parts+0x324>
    23d4:	00100793          	li	a5,1
    23d8:	00000693          	li	a3,0
    23dc:	00e79733          	sll	a4,a5,a4
    23e0:	fff70793          	addi	a5,a4,-1
    23e4:	00e7b733          	sltu	a4,a5,a4
    23e8:	fff68693          	addi	a3,a3,-1
    23ec:	00d70733          	add	a4,a4,a3
    23f0:	0117f7b3          	and	a5,a5,a7
    23f4:	01e77733          	and	a4,a4,t5
    23f8:	00e7e7b3          	or	a5,a5,a4
    23fc:	00f037b3          	snez	a5,a5
    2400:	00f868b3          	or	a7,a6,a5
    2404:	000f8f13          	mv	t5,t6
    2408:	d59ff06f          	j	2160 <_fpadd_parts+0x6c>
    240c:	ffe00713          	li	a4,-2
    2410:	daa772e3          	bleu	a0,a4,21b4 <_fpadd_parts+0xc0>
    2414:	e85ff06f          	j	2298 <_fpadd_parts+0x1a4>
    2418:	00100693          	li	a3,1
    241c:	00e696b3          	sll	a3,a3,a4
    2420:	00000713          	li	a4,0
    2424:	fbdff06f          	j	23e0 <_fpadd_parts+0x2ec>
    2428:	001f1793          	slli	a5,t5,0x1
    242c:	fff74693          	not	a3,a4
    2430:	00d797b3          	sll	a5,a5,a3
    2434:	00e8d833          	srl	a6,a7,a4
    2438:	0107e833          	or	a6,a5,a6
    243c:	00ef5fb3          	srl	t6,t5,a4
    2440:	f95ff06f          	j	23d4 <_fpadd_parts+0x2e0>

00002444 <__pack_d>:
    2444:	00052783          	lw	a5,0(a0)
    2448:	00100593          	li	a1,1
    244c:	01052603          	lw	a2,16(a0)
    2450:	01452703          	lw	a4,20(a0)
    2454:	00452883          	lw	a7,4(a0)
    2458:	0ef5fa63          	bleu	a5,a1,254c <__pack_d+0x108>
    245c:	00400313          	li	t1,4
    2460:	0c678e63          	beq	a5,t1,253c <__pack_d+0xf8>
    2464:	00200313          	li	t1,2
    2468:	06678263          	beq	a5,t1,24cc <__pack_d+0x88>
    246c:	00e667b3          	or	a5,a2,a4
    2470:	04078e63          	beqz	a5,24cc <__pack_d+0x88>
    2474:	00852783          	lw	a5,8(a0)
    2478:	c0200513          	li	a0,-1022
    247c:	12a7c063          	blt	a5,a0,259c <__pack_d+0x158>
    2480:	3ff00593          	li	a1,1023
    2484:	0af5cc63          	blt	a1,a5,253c <__pack_d+0xf8>
    2488:	0ff67593          	andi	a1,a2,255
    248c:	08000513          	li	a0,128
    2490:	0ea58863          	beq	a1,a0,2580 <__pack_d+0x13c>
    2494:	07f60593          	addi	a1,a2,127
    2498:	00c5b633          	sltu	a2,a1,a2
    249c:	00e60733          	add	a4,a2,a4
    24a0:	00058613          	mv	a2,a1
    24a4:	200005b7          	lui	a1,0x20000
    24a8:	06b77e63          	bleu	a1,a4,2524 <__pack_d+0xe0>
    24ac:	3ff78793          	addi	a5,a5,1023
    24b0:	01871593          	slli	a1,a4,0x18
    24b4:	00865613          	srli	a2,a2,0x8
    24b8:	00471713          	slli	a4,a4,0x4
    24bc:	00c5e633          	or	a2,a1,a2
    24c0:	00c75813          	srli	a6,a4,0xc
    24c4:	7ff7f793          	andi	a5,a5,2047
    24c8:	0100006f          	j	24d8 <__pack_d+0x94>
    24cc:	00000793          	li	a5,0
    24d0:	00000613          	li	a2,0
    24d4:	00000813          	li	a6,0
    24d8:	00100737          	lui	a4,0x100
    24dc:	00000593          	li	a1,0
    24e0:	fff006b7          	lui	a3,0xfff00
    24e4:	fff70713          	addi	a4,a4,-1 # fffff <_end+0xd91bf>
    24e8:	00e87733          	and	a4,a6,a4
    24ec:	00b6f6b3          	and	a3,a3,a1
    24f0:	00e6e6b3          	or	a3,a3,a4
    24f4:	01479713          	slli	a4,a5,0x14
    24f8:	801007b7          	lui	a5,0x80100
    24fc:	fff78793          	addi	a5,a5,-1 # 800fffff <_end+0x800d91bf>
    2500:	00f6f7b3          	and	a5,a3,a5
    2504:	00e7e7b3          	or	a5,a5,a4
    2508:	80000737          	lui	a4,0x80000
    250c:	fff74713          	not	a4,a4
    2510:	01f89693          	slli	a3,a7,0x1f
    2514:	00e7f7b3          	and	a5,a5,a4
    2518:	00060513          	mv	a0,a2
    251c:	00d7e5b3          	or	a1,a5,a3
    2520:	00008067          	ret
    2524:	01f71693          	slli	a3,a4,0x1f
    2528:	00165613          	srli	a2,a2,0x1
    252c:	00c6e633          	or	a2,a3,a2
    2530:	00175713          	srli	a4,a4,0x1
    2534:	40078793          	addi	a5,a5,1024
    2538:	f79ff06f          	j	24b0 <__pack_d+0x6c>
    253c:	7ff00793          	li	a5,2047
    2540:	00000613          	li	a2,0
    2544:	00000813          	li	a6,0
    2548:	f91ff06f          	j	24d8 <__pack_d+0x94>
    254c:	000806b7          	lui	a3,0x80
    2550:	00875813          	srli	a6,a4,0x8
    2554:	fff68793          	addi	a5,a3,-1 # 7ffff <_end+0x591bf>
    2558:	00f877b3          	and	a5,a6,a5
    255c:	00d7e833          	or	a6,a5,a3
    2560:	001007b7          	lui	a5,0x100
    2564:	fff78793          	addi	a5,a5,-1 # fffff <_end+0xd91bf>
    2568:	01871713          	slli	a4,a4,0x18
    256c:	00865613          	srli	a2,a2,0x8
    2570:	00f87833          	and	a6,a6,a5
    2574:	00c76633          	or	a2,a4,a2
    2578:	7ff00793          	li	a5,2047
    257c:	f5dff06f          	j	24d8 <__pack_d+0x94>
    2580:	10067693          	andi	a3,a2,256
    2584:	f20680e3          	beqz	a3,24a4 <__pack_d+0x60>
    2588:	00a606b3          	add	a3,a2,a0
    258c:	00c6b633          	sltu	a2,a3,a2
    2590:	00e60733          	add	a4,a2,a4
    2594:	00068613          	mv	a2,a3
    2598:	f0dff06f          	j	24a4 <__pack_d+0x60>
    259c:	40f507b3          	sub	a5,a0,a5
    25a0:	03800693          	li	a3,56
    25a4:	f2f6c4e3          	blt	a3,a5,24cc <__pack_d+0x88>
    25a8:	0207f693          	andi	a3,a5,32
    25ac:	0a068663          	beqz	a3,2658 <__pack_d+0x214>
    25b0:	00f75833          	srl	a6,a4,a5
    25b4:	00f595b3          	sll	a1,a1,a5
    25b8:	00000693          	li	a3,0
    25bc:	00000793          	li	a5,0
    25c0:	fff78513          	addi	a0,a5,-1
    25c4:	00f537b3          	sltu	a5,a0,a5
    25c8:	fff58593          	addi	a1,a1,-1 # 1fffffff <_end+0x1ffd91bf>
    25cc:	00b785b3          	add	a1,a5,a1
    25d0:	00e5f733          	and	a4,a1,a4
    25d4:	00c577b3          	and	a5,a0,a2
    25d8:	00e7e7b3          	or	a5,a5,a4
    25dc:	00f037b3          	snez	a5,a5
    25e0:	00f86633          	or	a2,a6,a5
    25e4:	0ff67713          	andi	a4,a2,255
    25e8:	08000793          	li	a5,128
    25ec:	02f71a63          	bne	a4,a5,2620 <__pack_d+0x1dc>
    25f0:	10067793          	andi	a5,a2,256
    25f4:	08079663          	bnez	a5,2680 <__pack_d+0x23c>
    25f8:	00469713          	slli	a4,a3,0x4
    25fc:	01869793          	slli	a5,a3,0x18
    2600:	00865613          	srli	a2,a2,0x8
    2604:	00c75813          	srli	a6,a4,0xc
    2608:	10000737          	lui	a4,0x10000
    260c:	00c7e633          	or	a2,a5,a2
    2610:	00100793          	li	a5,1
    2614:	02e6ec63          	bltu	a3,a4,264c <__pack_d+0x208>
    2618:	0017f793          	andi	a5,a5,1
    261c:	ebdff06f          	j	24d8 <__pack_d+0x94>
    2620:	07f60793          	addi	a5,a2,127
    2624:	00c7b633          	sltu	a2,a5,a2
    2628:	00d606b3          	add	a3,a2,a3
    262c:	00469713          	slli	a4,a3,0x4
    2630:	0087d613          	srli	a2,a5,0x8
    2634:	01869593          	slli	a1,a3,0x18
    2638:	00c75813          	srli	a6,a4,0xc
    263c:	10000737          	lui	a4,0x10000
    2640:	00c5e633          	or	a2,a1,a2
    2644:	00100793          	li	a5,1
    2648:	fce6f8e3          	bleu	a4,a3,2618 <__pack_d+0x1d4>
    264c:	00000793          	li	a5,0
    2650:	0017f793          	andi	a5,a5,1
    2654:	e85ff06f          	j	24d8 <__pack_d+0x94>
    2658:	fff7c593          	not	a1,a5
    265c:	00171693          	slli	a3,a4,0x1
    2660:	00b696b3          	sll	a3,a3,a1
    2664:	00f65833          	srl	a6,a2,a5
    2668:	00100513          	li	a0,1
    266c:	0106e833          	or	a6,a3,a6
    2670:	00000593          	li	a1,0
    2674:	00f756b3          	srl	a3,a4,a5
    2678:	00f517b3          	sll	a5,a0,a5
    267c:	f45ff06f          	j	25c0 <__pack_d+0x17c>
    2680:	08060793          	addi	a5,a2,128
    2684:	fa1ff06f          	j	2624 <__pack_d+0x1e0>

00002688 <__unpack_d>:
    2688:	00754703          	lbu	a4,7(a0)
    268c:	00655683          	lhu	a3,6(a0)
    2690:	00452803          	lw	a6,4(a0)
    2694:	00775613          	srli	a2,a4,0x7
    2698:	0046d693          	srli	a3,a3,0x4
    269c:	001007b7          	lui	a5,0x100
    26a0:	00052703          	lw	a4,0(a0)
    26a4:	fff78793          	addi	a5,a5,-1 # fffff <_end+0xd91bf>
    26a8:	7ff6f693          	andi	a3,a3,2047
    26ac:	00c5a223          	sw	a2,4(a1)
    26b0:	00f877b3          	and	a5,a6,a5
    26b4:	04069c63          	bnez	a3,270c <__unpack_d+0x84>
    26b8:	00f766b3          	or	a3,a4,a5
    26bc:	08068663          	beqz	a3,2748 <__unpack_d+0xc0>
    26c0:	01875693          	srli	a3,a4,0x18
    26c4:	00879793          	slli	a5,a5,0x8
    26c8:	00f6e7b3          	or	a5,a3,a5
    26cc:	00300693          	li	a3,3
    26d0:	00d5a023          	sw	a3,0(a1)
    26d4:	00871713          	slli	a4,a4,0x8
    26d8:	c0100693          	li	a3,-1023
    26dc:	10000537          	lui	a0,0x10000
    26e0:	01f75613          	srli	a2,a4,0x1f
    26e4:	00179793          	slli	a5,a5,0x1
    26e8:	00f667b3          	or	a5,a2,a5
    26ec:	00171713          	slli	a4,a4,0x1
    26f0:	00068613          	mv	a2,a3
    26f4:	fff68693          	addi	a3,a3,-1
    26f8:	fea7e4e3          	bltu	a5,a0,26e0 <__unpack_d+0x58>
    26fc:	00c5a423          	sw	a2,8(a1)
    2700:	00e5a823          	sw	a4,16(a1)
    2704:	00f5aa23          	sw	a5,20(a1)
    2708:	00008067          	ret
    270c:	7ff00613          	li	a2,2047
    2710:	04c68263          	beq	a3,a2,2754 <__unpack_d+0xcc>
    2714:	01875613          	srli	a2,a4,0x18
    2718:	00879793          	slli	a5,a5,0x8
    271c:	00f667b3          	or	a5,a2,a5
    2720:	c0168693          	addi	a3,a3,-1023
    2724:	10000637          	lui	a2,0x10000
    2728:	00871713          	slli	a4,a4,0x8
    272c:	00c7e7b3          	or	a5,a5,a2
    2730:	00d5a423          	sw	a3,8(a1)
    2734:	00300693          	li	a3,3
    2738:	00d5a023          	sw	a3,0(a1)
    273c:	00e5a823          	sw	a4,16(a1)
    2740:	00f5aa23          	sw	a5,20(a1)
    2744:	00008067          	ret
    2748:	00200793          	li	a5,2
    274c:	00f5a023          	sw	a5,0(a1)
    2750:	00008067          	ret
    2754:	00f766b3          	or	a3,a4,a5
    2758:	02068e63          	beqz	a3,2794 <__unpack_d+0x10c>
    275c:	00c79693          	slli	a3,a5,0xc
    2760:	0406d063          	bgez	a3,27a0 <__unpack_d+0x118>
    2764:	00100693          	li	a3,1
    2768:	00d5a023          	sw	a3,0(a1)
    276c:	fff806b7          	lui	a3,0xfff80
    2770:	fff68693          	addi	a3,a3,-1 # fff7ffff <_end+0xfff591bf>
    2774:	00d7f7b3          	and	a5,a5,a3
    2778:	00879793          	slli	a5,a5,0x8
    277c:	01875693          	srli	a3,a4,0x18
    2780:	00d7e7b3          	or	a5,a5,a3
    2784:	00871713          	slli	a4,a4,0x8
    2788:	00f5aa23          	sw	a5,20(a1)
    278c:	00e5a823          	sw	a4,16(a1)
    2790:	00008067          	ret
    2794:	00400793          	li	a5,4
    2798:	00f5a023          	sw	a5,0(a1)
    279c:	00008067          	ret
    27a0:	0005a023          	sw	zero,0(a1)
    27a4:	fc9ff06f          	j	276c <__unpack_d+0xe4>

000027a8 <__adddf3>:
    27a8:	f9010113          	addi	sp,sp,-112
    27ac:	00a12423          	sw	a0,8(sp)
    27b0:	00b12623          	sw	a1,12(sp)
    27b4:	00810513          	addi	a0,sp,8
    27b8:	01810593          	addi	a1,sp,24
    27bc:	06112623          	sw	ra,108(sp)
    27c0:	00d12a23          	sw	a3,20(sp)
    27c4:	00c12823          	sw	a2,16(sp)
    27c8:	ec1ff0ef          	jal	2688 <__unpack_d>
    27cc:	03010593          	addi	a1,sp,48
    27d0:	01010513          	addi	a0,sp,16
    27d4:	eb5ff0ef          	jal	2688 <__unpack_d>
    27d8:	04810613          	addi	a2,sp,72
    27dc:	03010593          	addi	a1,sp,48
    27e0:	01810513          	addi	a0,sp,24
    27e4:	911ff0ef          	jal	20f4 <_fpadd_parts>
    27e8:	c5dff0ef          	jal	2444 <__pack_d>
    27ec:	06c12083          	lw	ra,108(sp)
    27f0:	07010113          	addi	sp,sp,112
    27f4:	00008067          	ret

000027f8 <__subdf3>:
    27f8:	f9010113          	addi	sp,sp,-112
    27fc:	00a12423          	sw	a0,8(sp)
    2800:	00b12623          	sw	a1,12(sp)
    2804:	00810513          	addi	a0,sp,8
    2808:	01810593          	addi	a1,sp,24
    280c:	06112623          	sw	ra,108(sp)
    2810:	00d12a23          	sw	a3,20(sp)
    2814:	00c12823          	sw	a2,16(sp)
    2818:	e71ff0ef          	jal	2688 <__unpack_d>
    281c:	03010593          	addi	a1,sp,48
    2820:	01010513          	addi	a0,sp,16
    2824:	e65ff0ef          	jal	2688 <__unpack_d>
    2828:	03412783          	lw	a5,52(sp)
    282c:	04810613          	addi	a2,sp,72
    2830:	03010593          	addi	a1,sp,48
    2834:	0017c793          	xori	a5,a5,1
    2838:	01810513          	addi	a0,sp,24
    283c:	02f12a23          	sw	a5,52(sp)
    2840:	8b5ff0ef          	jal	20f4 <_fpadd_parts>
    2844:	c01ff0ef          	jal	2444 <__pack_d>
    2848:	06c12083          	lw	ra,108(sp)
    284c:	07010113          	addi	sp,sp,112
    2850:	00008067          	ret

00002854 <__muldf3>:
    2854:	f7010113          	addi	sp,sp,-144
    2858:	00a12423          	sw	a0,8(sp)
    285c:	00b12623          	sw	a1,12(sp)
    2860:	00810513          	addi	a0,sp,8
    2864:	01810593          	addi	a1,sp,24
    2868:	00d12a23          	sw	a3,20(sp)
    286c:	08112623          	sw	ra,140(sp)
    2870:	00c12823          	sw	a2,16(sp)
    2874:	08812423          	sw	s0,136(sp)
    2878:	08912223          	sw	s1,132(sp)
    287c:	09212023          	sw	s2,128(sp)
    2880:	07312e23          	sw	s3,124(sp)
    2884:	07412c23          	sw	s4,120(sp)
    2888:	07512a23          	sw	s5,116(sp)
    288c:	07612823          	sw	s6,112(sp)
    2890:	07712623          	sw	s7,108(sp)
    2894:	df5ff0ef          	jal	2688 <__unpack_d>
    2898:	03010593          	addi	a1,sp,48
    289c:	01010513          	addi	a0,sp,16
    28a0:	de9ff0ef          	jal	2688 <__unpack_d>
    28a4:	01812783          	lw	a5,24(sp)
    28a8:	00100693          	li	a3,1
    28ac:	1cf6fe63          	bleu	a5,a3,2a88 <__muldf3+0x234>
    28b0:	03012703          	lw	a4,48(sp)
    28b4:	1ae6f863          	bleu	a4,a3,2a64 <__muldf3+0x210>
    28b8:	00400693          	li	a3,4
    28bc:	1cd78263          	beq	a5,a3,2a80 <__muldf3+0x22c>
    28c0:	18d70e63          	beq	a4,a3,2a5c <__muldf3+0x208>
    28c4:	00200693          	li	a3,2
    28c8:	1cd78063          	beq	a5,a3,2a88 <__muldf3+0x234>
    28cc:	18d70c63          	beq	a4,a3,2a64 <__muldf3+0x210>
    28d0:	02812483          	lw	s1,40(sp)
    28d4:	04012a83          	lw	s5,64(sp)
    28d8:	04412403          	lw	s0,68(sp)
    28dc:	00048613          	mv	a2,s1
    28e0:	00000693          	li	a3,0
    28e4:	000a8513          	mv	a0,s5
    28e8:	00000593          	li	a1,0
    28ec:	1d9000ef          	jal	32c4 <__muldi3>
    28f0:	02c12a03          	lw	s4,44(sp)
    28f4:	00048613          	mv	a2,s1
    28f8:	00058993          	mv	s3,a1
    28fc:	00000693          	li	a3,0
    2900:	00050b93          	mv	s7,a0
    2904:	00000593          	li	a1,0
    2908:	00040513          	mv	a0,s0
    290c:	1b9000ef          	jal	32c4 <__muldi3>
    2910:	00040613          	mv	a2,s0
    2914:	00050913          	mv	s2,a0
    2918:	00058493          	mv	s1,a1
    291c:	00000693          	li	a3,0
    2920:	000a0513          	mv	a0,s4
    2924:	00000593          	li	a1,0
    2928:	19d000ef          	jal	32c4 <__muldi3>
    292c:	000a8613          	mv	a2,s5
    2930:	00000693          	li	a3,0
    2934:	00050413          	mv	s0,a0
    2938:	00058b13          	mv	s6,a1
    293c:	000a0513          	mv	a0,s4
    2940:	00000593          	li	a1,0
    2944:	181000ef          	jal	32c4 <__muldi3>
    2948:	012506b3          	add	a3,a0,s2
    294c:	009585b3          	add	a1,a1,s1
    2950:	00a6b533          	sltu	a0,a3,a0
    2954:	00b50633          	add	a2,a0,a1
    2958:	00098593          	mv	a1,s3
    295c:	14966663          	bltu	a2,s1,2aa8 <__muldf3+0x254>
    2960:	14c48263          	beq	s1,a2,2aa4 <__muldf3+0x250>
    2964:	00000793          	li	a5,0
    2968:	00000713          	li	a4,0
    296c:	013686b3          	add	a3,a3,s3
    2970:	000b8513          	mv	a0,s7
    2974:	00b6f463          	bleu	a1,a3,297c <__muldf3+0x128>
    2978:	00100793          	li	a5,1
    297c:	00860833          	add	a6,a2,s0
    2980:	00c835b3          	sltu	a1,a6,a2
    2984:	03812883          	lw	a7,56(sp)
    2988:	02012603          	lw	a2,32(sp)
    298c:	03412303          	lw	t1,52(sp)
    2990:	016585b3          	add	a1,a1,s6
    2994:	01160633          	add	a2,a2,a7
    2998:	01c12883          	lw	a7,28(sp)
    299c:	00f807b3          	add	a5,a6,a5
    29a0:	00e58733          	add	a4,a1,a4
    29a4:	406888b3          	sub	a7,a7,t1
    29a8:	011035b3          	snez	a1,a7
    29ac:	0107b833          	sltu	a6,a5,a6
    29b0:	00460313          	addi	t1,a2,4 # 10000004 <_end+0xffd91c4>
    29b4:	04b12623          	sw	a1,76(sp)
    29b8:	00e80733          	add	a4,a6,a4
    29bc:	04612823          	sw	t1,80(sp)
    29c0:	20000eb7          	lui	t4,0x20000
    29c4:	00560593          	addi	a1,a2,5
    29c8:	80000fb7          	lui	t6,0x80000
    29cc:	11d76c63          	bltu	a4,t4,2ae4 <__muldf3+0x290>
    29d0:	0017f813          	andi	a6,a5,1
    29d4:	01f71613          	slli	a2,a4,0x1f
    29d8:	0017d793          	srli	a5,a5,0x1
    29dc:	00175713          	srli	a4,a4,0x1
    29e0:	01f69e13          	slli	t3,a3,0x1f
    29e4:	00155313          	srli	t1,a0,0x1
    29e8:	0016d893          	srli	a7,a3,0x1
    29ec:	00058f13          	mv	t5,a1
    29f0:	00080663          	beqz	a6,29fc <__muldf3+0x1a8>
    29f4:	006e6533          	or	a0,t3,t1
    29f8:	01f8e6b3          	or	a3,a7,t6
    29fc:	00f667b3          	or	a5,a2,a5
    2a00:	00158593          	addi	a1,a1,1
    2a04:	fdd776e3          	bleu	t4,a4,29d0 <__muldf3+0x17c>
    2a08:	05e12823          	sw	t5,80(sp)
    2a0c:	0ff7f613          	andi	a2,a5,255
    2a10:	08000593          	li	a1,128
    2a14:	0ab60063          	beq	a2,a1,2ab4 <__muldf3+0x260>
    2a18:	04f12c23          	sw	a5,88(sp)
    2a1c:	00300793          	li	a5,3
    2a20:	04e12e23          	sw	a4,92(sp)
    2a24:	04f12423          	sw	a5,72(sp)
    2a28:	04810513          	addi	a0,sp,72
    2a2c:	a19ff0ef          	jal	2444 <__pack_d>
    2a30:	08c12083          	lw	ra,140(sp)
    2a34:	08812403          	lw	s0,136(sp)
    2a38:	08412483          	lw	s1,132(sp)
    2a3c:	08012903          	lw	s2,128(sp)
    2a40:	07c12983          	lw	s3,124(sp)
    2a44:	07812a03          	lw	s4,120(sp)
    2a48:	07412a83          	lw	s5,116(sp)
    2a4c:	07012b03          	lw	s6,112(sp)
    2a50:	06c12b83          	lw	s7,108(sp)
    2a54:	09010113          	addi	sp,sp,144
    2a58:	00008067          	ret
    2a5c:	00200713          	li	a4,2
    2a60:	06e78c63          	beq	a5,a4,2ad8 <__muldf3+0x284>
    2a64:	03412703          	lw	a4,52(sp)
    2a68:	01c12783          	lw	a5,28(sp)
    2a6c:	03010513          	addi	a0,sp,48
    2a70:	40e787b3          	sub	a5,a5,a4
    2a74:	00f037b3          	snez	a5,a5
    2a78:	02f12a23          	sw	a5,52(sp)
    2a7c:	fb1ff06f          	j	2a2c <__muldf3+0x1d8>
    2a80:	00200793          	li	a5,2
    2a84:	04f70a63          	beq	a4,a5,2ad8 <__muldf3+0x284>
    2a88:	01c12783          	lw	a5,28(sp)
    2a8c:	03412703          	lw	a4,52(sp)
    2a90:	01810513          	addi	a0,sp,24
    2a94:	40e787b3          	sub	a5,a5,a4
    2a98:	00f037b3          	snez	a5,a5
    2a9c:	00f12e23          	sw	a5,28(sp)
    2aa0:	f8dff06f          	j	2a2c <__muldf3+0x1d8>
    2aa4:	ed26f0e3          	bleu	s2,a3,2964 <__muldf3+0x110>
    2aa8:	00000793          	li	a5,0
    2aac:	00100713          	li	a4,1
    2ab0:	ebdff06f          	j	296c <__muldf3+0x118>
    2ab4:	1007f613          	andi	a2,a5,256
    2ab8:	f60610e3          	bnez	a2,2a18 <__muldf3+0x1c4>
    2abc:	00d56533          	or	a0,a0,a3
    2ac0:	f4050ce3          	beqz	a0,2a18 <__muldf3+0x1c4>
    2ac4:	00b786b3          	add	a3,a5,a1
    2ac8:	00f6b7b3          	sltu	a5,a3,a5
    2acc:	00e78733          	add	a4,a5,a4
    2ad0:	f006f793          	andi	a5,a3,-256
    2ad4:	f45ff06f          	j	2a18 <__muldf3+0x1c4>
    2ad8:	00026537          	lui	a0,0x26
    2adc:	66050513          	addi	a0,a0,1632 # 26660 <__thenan_df>
    2ae0:	f4dff06f          	j	2a2c <__muldf3+0x1d8>
    2ae4:	10000e37          	lui	t3,0x10000
    2ae8:	00360593          	addi	a1,a2,3
    2aec:	f3c770e3          	bleu	t3,a4,2a0c <__muldf3+0x1b8>
    2af0:	01f7d813          	srli	a6,a5,0x1f
    2af4:	00171613          	slli	a2,a4,0x1
    2af8:	00c86633          	or	a2,a6,a2
    2afc:	01f55893          	srli	a7,a0,0x1f
    2b00:	00169813          	slli	a6,a3,0x1
    2b04:	00058313          	mv	t1,a1
    2b08:	00179793          	slli	a5,a5,0x1
    2b0c:	00060713          	mv	a4,a2
    2b10:	0006d463          	bgez	a3,2b18 <__muldf3+0x2c4>
    2b14:	0017e793          	ori	a5,a5,1
    2b18:	00151513          	slli	a0,a0,0x1
    2b1c:	0108e6b3          	or	a3,a7,a6
    2b20:	fff58593          	addi	a1,a1,-1
    2b24:	fdc666e3          	bltu	a2,t3,2af0 <__muldf3+0x29c>
    2b28:	04612823          	sw	t1,80(sp)
    2b2c:	ee1ff06f          	j	2a0c <__muldf3+0x1b8>

00002b30 <__divdf3>:
    2b30:	fb010113          	addi	sp,sp,-80
    2b34:	00a12023          	sw	a0,0(sp)
    2b38:	00b12223          	sw	a1,4(sp)
    2b3c:	00010513          	mv	a0,sp
    2b40:	01010593          	addi	a1,sp,16
    2b44:	00c12423          	sw	a2,8(sp)
    2b48:	04112623          	sw	ra,76(sp)
    2b4c:	00d12623          	sw	a3,12(sp)
    2b50:	b39ff0ef          	jal	2688 <__unpack_d>
    2b54:	02810593          	addi	a1,sp,40
    2b58:	00810513          	addi	a0,sp,8
    2b5c:	b2dff0ef          	jal	2688 <__unpack_d>
    2b60:	01012603          	lw	a2,16(sp)
    2b64:	00100793          	li	a5,1
    2b68:	0ec7fa63          	bleu	a2,a5,2c5c <__divdf3+0x12c>
    2b6c:	02812683          	lw	a3,40(sp)
    2b70:	14d7fe63          	bleu	a3,a5,2ccc <__divdf3+0x19c>
    2b74:	01412583          	lw	a1,20(sp)
    2b78:	02c12703          	lw	a4,44(sp)
    2b7c:	ffe60793          	addi	a5,a2,-2
    2b80:	ffd7f793          	andi	a5,a5,-3
    2b84:	00e5c733          	xor	a4,a1,a4
    2b88:	00e12a23          	sw	a4,20(sp)
    2b8c:	0e078263          	beqz	a5,2c70 <__divdf3+0x140>
    2b90:	00400793          	li	a5,4
    2b94:	0ef68663          	beq	a3,a5,2c80 <__divdf3+0x150>
    2b98:	00200713          	li	a4,2
    2b9c:	12e68263          	beq	a3,a4,2cc0 <__divdf3+0x190>
    2ba0:	01812703          	lw	a4,24(sp)
    2ba4:	03012603          	lw	a2,48(sp)
    2ba8:	02412783          	lw	a5,36(sp)
    2bac:	03c12883          	lw	a7,60(sp)
    2bb0:	40c70633          	sub	a2,a4,a2
    2bb4:	00c12c23          	sw	a2,24(sp)
    2bb8:	02012683          	lw	a3,32(sp)
    2bbc:	03812283          	lw	t0,56(sp)
    2bc0:	0117e663          	bltu	a5,a7,2bcc <__divdf3+0x9c>
    2bc4:	02f89063          	bne	a7,a5,2be4 <__divdf3+0xb4>
    2bc8:	0056fe63          	bleu	t0,a3,2be4 <__divdf3+0xb4>
    2bcc:	01f6d593          	srli	a1,a3,0x1f
    2bd0:	00179713          	slli	a4,a5,0x1
    2bd4:	fff60613          	addi	a2,a2,-1
    2bd8:	00e5e7b3          	or	a5,a1,a4
    2bdc:	00169693          	slli	a3,a3,0x1
    2be0:	00c12c23          	sw	a2,24(sp)
    2be4:	03d00513          	li	a0,61
    2be8:	00000e93          	li	t4,0
    2bec:	00000f13          	li	t5,0
    2bf0:	00000813          	li	a6,0
    2bf4:	100005b7          	lui	a1,0x10000
    2bf8:	01f59e13          	slli	t3,a1,0x1f
    2bfc:	00185313          	srli	t1,a6,0x1
    2c00:	fff50513          	addi	a0,a0,-1
    2c04:	0317e463          	bltu	a5,a7,2c2c <__divdf3+0xfc>
    2c08:	40568733          	sub	a4,a3,t0
    2c0c:	00e6b633          	sltu	a2,a3,a4
    2c10:	41178fb3          	sub	t6,a5,a7
    2c14:	00f89463          	bne	a7,a5,2c1c <__divdf3+0xec>
    2c18:	0056ea63          	bltu	a3,t0,2c2c <__divdf3+0xfc>
    2c1c:	00070693          	mv	a3,a4
    2c20:	40cf87b3          	sub	a5,t6,a2
    2c24:	010eeeb3          	or	t4,t4,a6
    2c28:	00bf6f33          	or	t5,t5,a1
    2c2c:	01f6d613          	srli	a2,a3,0x1f
    2c30:	00179713          	slli	a4,a5,0x1
    2c34:	006e6833          	or	a6,t3,t1
    2c38:	0015d593          	srli	a1,a1,0x1
    2c3c:	00e667b3          	or	a5,a2,a4
    2c40:	00169693          	slli	a3,a3,0x1
    2c44:	fa051ae3          	bnez	a0,2bf8 <__divdf3+0xc8>
    2c48:	0ffef713          	andi	a4,t4,255
    2c4c:	08000613          	li	a2,128
    2c50:	04c70663          	beq	a4,a2,2c9c <__divdf3+0x16c>
    2c54:	03d12023          	sw	t4,32(sp)
    2c58:	03e12223          	sw	t5,36(sp)
    2c5c:	01010513          	addi	a0,sp,16
    2c60:	fe4ff0ef          	jal	2444 <__pack_d>
    2c64:	04c12083          	lw	ra,76(sp)
    2c68:	05010113          	addi	sp,sp,80
    2c6c:	00008067          	ret
    2c70:	fed616e3          	bne	a2,a3,2c5c <__divdf3+0x12c>
    2c74:	00026537          	lui	a0,0x26
    2c78:	66050513          	addi	a0,a0,1632 # 26660 <__thenan_df>
    2c7c:	fe5ff06f          	j	2c60 <__divdf3+0x130>
    2c80:	00000713          	li	a4,0
    2c84:	00000793          	li	a5,0
    2c88:	02e12023          	sw	a4,32(sp)
    2c8c:	02f12223          	sw	a5,36(sp)
    2c90:	00012c23          	sw	zero,24(sp)
    2c94:	01010513          	addi	a0,sp,16
    2c98:	fc9ff06f          	j	2c60 <__divdf3+0x130>
    2c9c:	100ef713          	andi	a4,t4,256
    2ca0:	fa071ae3          	bnez	a4,2c54 <__divdf3+0x124>
    2ca4:	00f6e7b3          	or	a5,a3,a5
    2ca8:	fa0786e3          	beqz	a5,2c54 <__divdf3+0x124>
    2cac:	00ce87b3          	add	a5,t4,a2
    2cb0:	01d7beb3          	sltu	t4,a5,t4
    2cb4:	01ee8f33          	add	t5,t4,t5
    2cb8:	f007fe93          	andi	t4,a5,-256
    2cbc:	f99ff06f          	j	2c54 <__divdf3+0x124>
    2cc0:	00f12823          	sw	a5,16(sp)
    2cc4:	01010513          	addi	a0,sp,16
    2cc8:	f99ff06f          	j	2c60 <__divdf3+0x130>
    2ccc:	02810513          	addi	a0,sp,40
    2cd0:	f91ff06f          	j	2c60 <__divdf3+0x130>

00002cd4 <__fpcmp_parts_d>:
    2cd4:	00052703          	lw	a4,0(a0)
    2cd8:	00100793          	li	a5,1
    2cdc:	00050613          	mv	a2,a0
    2ce0:	08e7f263          	bleu	a4,a5,2d64 <__fpcmp_parts_d+0x90>
    2ce4:	0005a683          	lw	a3,0(a1) # 10000000 <_end+0xffd91c0>
    2ce8:	00078513          	mv	a0,a5
    2cec:	04d7f263          	bleu	a3,a5,2d30 <__fpcmp_parts_d+0x5c>
    2cf0:	00400793          	li	a5,4
    2cf4:	04f70c63          	beq	a4,a5,2d4c <__fpcmp_parts_d+0x78>
    2cf8:	04f68063          	beq	a3,a5,2d38 <__fpcmp_parts_d+0x64>
    2cfc:	00200793          	li	a5,2
    2d00:	02f70a63          	beq	a4,a5,2d34 <__fpcmp_parts_d+0x60>
    2d04:	04f68663          	beq	a3,a5,2d50 <__fpcmp_parts_d+0x7c>
    2d08:	00462783          	lw	a5,4(a2)
    2d0c:	0045a703          	lw	a4,4(a1)
    2d10:	04e78e63          	beq	a5,a4,2d6c <__fpcmp_parts_d+0x98>
    2d14:	00f03533          	snez	a0,a5
    2d18:	40a00533          	neg	a0,a0
    2d1c:	00156513          	ori	a0,a0,1
    2d20:	00008067          	ret
    2d24:	00e69463          	bne	a3,a4,2d2c <__fpcmp_parts_d+0x58>
    2d28:	06b66a63          	bltu	a2,a1,2d9c <__fpcmp_parts_d+0xc8>
    2d2c:	00000513          	li	a0,0
    2d30:	00008067          	ret
    2d34:	fee68ce3          	beq	a3,a4,2d2c <__fpcmp_parts_d+0x58>
    2d38:	0045a503          	lw	a0,4(a1)
    2d3c:	00153513          	seqz	a0,a0
    2d40:	40a00533          	neg	a0,a0
    2d44:	00156513          	ori	a0,a0,1
    2d48:	00008067          	ret
    2d4c:	06e68063          	beq	a3,a4,2dac <__fpcmp_parts_d+0xd8>
    2d50:	00462503          	lw	a0,4(a2)
    2d54:	00a03533          	snez	a0,a0
    2d58:	40a00533          	neg	a0,a0
    2d5c:	00156513          	ori	a0,a0,1
    2d60:	00008067          	ret
    2d64:	00078513          	mv	a0,a5
    2d68:	00008067          	ret
    2d6c:	00862683          	lw	a3,8(a2)
    2d70:	0085a703          	lw	a4,8(a1)
    2d74:	fad740e3          	blt	a4,a3,2d14 <__fpcmp_parts_d+0x40>
    2d78:	02e6c263          	blt	a3,a4,2d9c <__fpcmp_parts_d+0xc8>
    2d7c:	01462703          	lw	a4,20(a2)
    2d80:	0145a683          	lw	a3,20(a1)
    2d84:	01062603          	lw	a2,16(a2)
    2d88:	0105a583          	lw	a1,16(a1)
    2d8c:	f8e6e4e3          	bltu	a3,a4,2d14 <__fpcmp_parts_d+0x40>
    2d90:	00d71463          	bne	a4,a3,2d98 <__fpcmp_parts_d+0xc4>
    2d94:	f8c5e0e3          	bltu	a1,a2,2d14 <__fpcmp_parts_d+0x40>
    2d98:	f8d776e3          	bleu	a3,a4,2d24 <__fpcmp_parts_d+0x50>
    2d9c:	0017b513          	seqz	a0,a5
    2da0:	40a00533          	neg	a0,a0
    2da4:	00156513          	ori	a0,a0,1
    2da8:	00008067          	ret
    2dac:	0045a783          	lw	a5,4(a1)
    2db0:	00462503          	lw	a0,4(a2)
    2db4:	40a78533          	sub	a0,a5,a0
    2db8:	00008067          	ret

00002dbc <__cmpdf2>:
    2dbc:	fb010113          	addi	sp,sp,-80
    2dc0:	00a12023          	sw	a0,0(sp)
    2dc4:	00b12223          	sw	a1,4(sp)
    2dc8:	00010513          	mv	a0,sp
    2dcc:	01010593          	addi	a1,sp,16
    2dd0:	04112623          	sw	ra,76(sp)
    2dd4:	00c12423          	sw	a2,8(sp)
    2dd8:	00d12623          	sw	a3,12(sp)
    2ddc:	8adff0ef          	jal	2688 <__unpack_d>
    2de0:	02810593          	addi	a1,sp,40
    2de4:	00810513          	addi	a0,sp,8
    2de8:	8a1ff0ef          	jal	2688 <__unpack_d>
    2dec:	02810593          	addi	a1,sp,40
    2df0:	01010513          	addi	a0,sp,16
    2df4:	ee1ff0ef          	jal	2cd4 <__fpcmp_parts_d>
    2df8:	04c12083          	lw	ra,76(sp)
    2dfc:	05010113          	addi	sp,sp,80
    2e00:	00008067          	ret

00002e04 <__gedf2>:
    2e04:	fb010113          	addi	sp,sp,-80
    2e08:	00a12023          	sw	a0,0(sp)
    2e0c:	00b12223          	sw	a1,4(sp)
    2e10:	00010513          	mv	a0,sp
    2e14:	01010593          	addi	a1,sp,16
    2e18:	04112623          	sw	ra,76(sp)
    2e1c:	00c12423          	sw	a2,8(sp)
    2e20:	00d12623          	sw	a3,12(sp)
    2e24:	865ff0ef          	jal	2688 <__unpack_d>
    2e28:	00810513          	addi	a0,sp,8
    2e2c:	02810593          	addi	a1,sp,40
    2e30:	859ff0ef          	jal	2688 <__unpack_d>
    2e34:	01012703          	lw	a4,16(sp)
    2e38:	00100793          	li	a5,1
    2e3c:	fff00513          	li	a0,-1
    2e40:	00e7fc63          	bleu	a4,a5,2e58 <__gedf2+0x54>
    2e44:	02812703          	lw	a4,40(sp)
    2e48:	00e7f863          	bleu	a4,a5,2e58 <__gedf2+0x54>
    2e4c:	02810593          	addi	a1,sp,40
    2e50:	01010513          	addi	a0,sp,16
    2e54:	e81ff0ef          	jal	2cd4 <__fpcmp_parts_d>
    2e58:	04c12083          	lw	ra,76(sp)
    2e5c:	05010113          	addi	sp,sp,80
    2e60:	00008067          	ret

00002e64 <__gtdf2>:
    2e64:	fa1ff06f          	j	2e04 <__gedf2>

00002e68 <__ledf2>:
    2e68:	fb010113          	addi	sp,sp,-80
    2e6c:	00a12023          	sw	a0,0(sp)
    2e70:	00b12223          	sw	a1,4(sp)
    2e74:	00010513          	mv	a0,sp
    2e78:	01010593          	addi	a1,sp,16
    2e7c:	04112623          	sw	ra,76(sp)
    2e80:	00c12423          	sw	a2,8(sp)
    2e84:	00d12623          	sw	a3,12(sp)
    2e88:	801ff0ef          	jal	2688 <__unpack_d>
    2e8c:	00810513          	addi	a0,sp,8
    2e90:	02810593          	addi	a1,sp,40
    2e94:	ff4ff0ef          	jal	2688 <__unpack_d>
    2e98:	01012783          	lw	a5,16(sp)
    2e9c:	00100513          	li	a0,1
    2ea0:	00f57c63          	bleu	a5,a0,2eb8 <__ledf2+0x50>
    2ea4:	02812783          	lw	a5,40(sp)
    2ea8:	00f57863          	bleu	a5,a0,2eb8 <__ledf2+0x50>
    2eac:	02810593          	addi	a1,sp,40
    2eb0:	01010513          	addi	a0,sp,16
    2eb4:	e21ff0ef          	jal	2cd4 <__fpcmp_parts_d>
    2eb8:	04c12083          	lw	ra,76(sp)
    2ebc:	05010113          	addi	sp,sp,80
    2ec0:	00008067          	ret

00002ec4 <__ltdf2>:
    2ec4:	fa5ff06f          	j	2e68 <__ledf2>

00002ec8 <__nedf2>:
    2ec8:	fa1ff06f          	j	2e68 <__ledf2>

00002ecc <__eqdf2>:
    2ecc:	f9dff06f          	j	2e68 <__ledf2>

00002ed0 <__unorddf2>:
    2ed0:	fb010113          	addi	sp,sp,-80
    2ed4:	00a12023          	sw	a0,0(sp)
    2ed8:	00b12223          	sw	a1,4(sp)
    2edc:	00010513          	mv	a0,sp
    2ee0:	01010593          	addi	a1,sp,16
    2ee4:	04112623          	sw	ra,76(sp)
    2ee8:	00c12423          	sw	a2,8(sp)
    2eec:	00d12623          	sw	a3,12(sp)
    2ef0:	f98ff0ef          	jal	2688 <__unpack_d>
    2ef4:	00810513          	addi	a0,sp,8
    2ef8:	02810593          	addi	a1,sp,40
    2efc:	f8cff0ef          	jal	2688 <__unpack_d>
    2f00:	01012783          	lw	a5,16(sp)
    2f04:	00100513          	li	a0,1
    2f08:	00f57663          	bleu	a5,a0,2f14 <__unorddf2+0x44>
    2f0c:	02812503          	lw	a0,40(sp)
    2f10:	00253513          	sltiu	a0,a0,2
    2f14:	04c12083          	lw	ra,76(sp)
    2f18:	05010113          	addi	sp,sp,80
    2f1c:	00008067          	ret

00002f20 <__floatsidf>:
    2f20:	fd010113          	addi	sp,sp,-48
    2f24:	01f55793          	srli	a5,a0,0x1f
    2f28:	00300713          	li	a4,3
    2f2c:	02112623          	sw	ra,44(sp)
    2f30:	02812423          	sw	s0,40(sp)
    2f34:	00e12423          	sw	a4,8(sp)
    2f38:	00f12623          	sw	a5,12(sp)
    2f3c:	02051263          	bnez	a0,2f60 <__floatsidf+0x40>
    2f40:	00200793          	li	a5,2
    2f44:	00f12423          	sw	a5,8(sp)
    2f48:	00810513          	addi	a0,sp,8
    2f4c:	cf8ff0ef          	jal	2444 <__pack_d>
    2f50:	02c12083          	lw	ra,44(sp)
    2f54:	02812403          	lw	s0,40(sp)
    2f58:	03010113          	addi	sp,sp,48
    2f5c:	00008067          	ret
    2f60:	02054c63          	bltz	a0,2f98 <__floatsidf+0x78>
    2f64:	00050413          	mv	s0,a0
    2f68:	00040513          	mv	a0,s0
    2f6c:	484000ef          	jal	33f0 <__clzsi2>
    2f70:	01d50513          	addi	a0,a0,29
    2f74:	02057793          	andi	a5,a0,32
    2f78:	04078063          	beqz	a5,2fb8 <__floatsidf+0x98>
    2f7c:	00a41433          	sll	s0,s0,a0
    2f80:	00812e23          	sw	s0,28(sp)
    2f84:	00012c23          	sw	zero,24(sp)
    2f88:	03c00793          	li	a5,60
    2f8c:	40a78533          	sub	a0,a5,a0
    2f90:	00a12823          	sw	a0,16(sp)
    2f94:	fb5ff06f          	j	2f48 <__floatsidf+0x28>
    2f98:	800007b7          	lui	a5,0x80000
    2f9c:	02f50c63          	beq	a0,a5,2fd4 <__floatsidf+0xb4>
    2fa0:	40a00433          	neg	s0,a0
    2fa4:	00040513          	mv	a0,s0
    2fa8:	448000ef          	jal	33f0 <__clzsi2>
    2fac:	01d50513          	addi	a0,a0,29
    2fb0:	02057793          	andi	a5,a0,32
    2fb4:	fc0794e3          	bnez	a5,2f7c <__floatsidf+0x5c>
    2fb8:	00145793          	srli	a5,s0,0x1
    2fbc:	fff54713          	not	a4,a0
    2fc0:	00e7d7b3          	srl	a5,a5,a4
    2fc4:	00a41433          	sll	s0,s0,a0
    2fc8:	00f12e23          	sw	a5,28(sp)
    2fcc:	00812c23          	sw	s0,24(sp)
    2fd0:	fb9ff06f          	j	2f88 <__floatsidf+0x68>
    2fd4:	000047b7          	lui	a5,0x4
    2fd8:	1e07a503          	lw	a0,480(a5) # 41e0 <main+0x188>
    2fdc:	1e47a583          	lw	a1,484(a5)
    2fe0:	f71ff06f          	j	2f50 <__floatsidf+0x30>

00002fe4 <__floatunsidf>:
    2fe4:	fd010113          	addi	sp,sp,-48
    2fe8:	02112623          	sw	ra,44(sp)
    2fec:	02812423          	sw	s0,40(sp)
    2ff0:	00012623          	sw	zero,12(sp)
    2ff4:	06050663          	beqz	a0,3060 <__floatunsidf+0x7c>
    2ff8:	00300793          	li	a5,3
    2ffc:	00f12423          	sw	a5,8(sp)
    3000:	00050413          	mv	s0,a0
    3004:	3ec000ef          	jal	33f0 <__clzsi2>
    3008:	01d50513          	addi	a0,a0,29
    300c:	02057793          	andi	a5,a0,32
    3010:	02078a63          	beqz	a5,3044 <__floatunsidf+0x60>
    3014:	00a41433          	sll	s0,s0,a0
    3018:	00812e23          	sw	s0,28(sp)
    301c:	00012c23          	sw	zero,24(sp)
    3020:	03c00793          	li	a5,60
    3024:	40a78533          	sub	a0,a5,a0
    3028:	00a12823          	sw	a0,16(sp)
    302c:	00810513          	addi	a0,sp,8
    3030:	c14ff0ef          	jal	2444 <__pack_d>
    3034:	02c12083          	lw	ra,44(sp)
    3038:	02812403          	lw	s0,40(sp)
    303c:	03010113          	addi	sp,sp,48
    3040:	00008067          	ret
    3044:	00145793          	srli	a5,s0,0x1
    3048:	fff54713          	not	a4,a0
    304c:	00e7d7b3          	srl	a5,a5,a4
    3050:	00a41433          	sll	s0,s0,a0
    3054:	00f12e23          	sw	a5,28(sp)
    3058:	00812c23          	sw	s0,24(sp)
    305c:	fc5ff06f          	j	3020 <__floatunsidf+0x3c>
    3060:	00200793          	li	a5,2
    3064:	00f12423          	sw	a5,8(sp)
    3068:	fc5ff06f          	j	302c <__floatunsidf+0x48>

0000306c <__fixdfsi>:
    306c:	fd010113          	addi	sp,sp,-48
    3070:	00a12023          	sw	a0,0(sp)
    3074:	00b12223          	sw	a1,4(sp)
    3078:	00010513          	mv	a0,sp
    307c:	00810593          	addi	a1,sp,8
    3080:	02112623          	sw	ra,44(sp)
    3084:	e04ff0ef          	jal	2688 <__unpack_d>
    3088:	00812783          	lw	a5,8(sp)
    308c:	00200713          	li	a4,2
    3090:	06f77463          	bleu	a5,a4,30f8 <__fixdfsi+0x8c>
    3094:	00400713          	li	a4,4
    3098:	00e78a63          	beq	a5,a4,30ac <__fixdfsi+0x40>
    309c:	01012503          	lw	a0,16(sp)
    30a0:	04054c63          	bltz	a0,30f8 <__fixdfsi+0x8c>
    30a4:	01e00793          	li	a5,30
    30a8:	02a7d063          	ble	a0,a5,30c8 <__fixdfsi+0x5c>
    30ac:	00c12783          	lw	a5,12(sp)
    30b0:	80000537          	lui	a0,0x80000
    30b4:	00079463          	bnez	a5,30bc <__fixdfsi+0x50>
    30b8:	fff54513          	not	a0,a0
    30bc:	02c12083          	lw	ra,44(sp)
    30c0:	03010113          	addi	sp,sp,48
    30c4:	00008067          	ret
    30c8:	03c00793          	li	a5,60
    30cc:	40a787b3          	sub	a5,a5,a0
    30d0:	0207f713          	andi	a4,a5,32
    30d4:	02070a63          	beqz	a4,3108 <__fixdfsi+0x9c>
    30d8:	01c12503          	lw	a0,28(sp)
    30dc:	00f55533          	srl	a0,a0,a5
    30e0:	00c12783          	lw	a5,12(sp)
    30e4:	fc078ce3          	beqz	a5,30bc <__fixdfsi+0x50>
    30e8:	02c12083          	lw	ra,44(sp)
    30ec:	40a00533          	neg	a0,a0
    30f0:	03010113          	addi	sp,sp,48
    30f4:	00008067          	ret
    30f8:	02c12083          	lw	ra,44(sp)
    30fc:	00000513          	li	a0,0
    3100:	03010113          	addi	sp,sp,48
    3104:	00008067          	ret
    3108:	01c12703          	lw	a4,28(sp)
    310c:	01812503          	lw	a0,24(sp)
    3110:	fff7c693          	not	a3,a5
    3114:	00171713          	slli	a4,a4,0x1
    3118:	00d71733          	sll	a4,a4,a3
    311c:	00f55533          	srl	a0,a0,a5
    3120:	00a76533          	or	a0,a4,a0
    3124:	fbdff06f          	j	30e0 <__fixdfsi+0x74>

00003128 <__negdf2>:
    3128:	fd010113          	addi	sp,sp,-48
    312c:	00a12023          	sw	a0,0(sp)
    3130:	00b12223          	sw	a1,4(sp)
    3134:	00010513          	mv	a0,sp
    3138:	00810593          	addi	a1,sp,8
    313c:	02112623          	sw	ra,44(sp)
    3140:	d48ff0ef          	jal	2688 <__unpack_d>
    3144:	00c12783          	lw	a5,12(sp)
    3148:	00810513          	addi	a0,sp,8
    314c:	0017b793          	seqz	a5,a5
    3150:	00f12623          	sw	a5,12(sp)
    3154:	af0ff0ef          	jal	2444 <__pack_d>
    3158:	02c12083          	lw	ra,44(sp)
    315c:	03010113          	addi	sp,sp,48
    3160:	00008067          	ret

00003164 <__make_dp>:
    3164:	fd010113          	addi	sp,sp,-48
    3168:	00a12423          	sw	a0,8(sp)
    316c:	00810513          	addi	a0,sp,8
    3170:	02112623          	sw	ra,44(sp)
    3174:	00b12623          	sw	a1,12(sp)
    3178:	00c12823          	sw	a2,16(sp)
    317c:	00e12c23          	sw	a4,24(sp)
    3180:	00f12e23          	sw	a5,28(sp)
    3184:	ac0ff0ef          	jal	2444 <__pack_d>
    3188:	02c12083          	lw	ra,44(sp)
    318c:	03010113          	addi	sp,sp,48
    3190:	00008067          	ret

00003194 <__truncdfsf2>:
    3194:	fd010113          	addi	sp,sp,-48
    3198:	00a12023          	sw	a0,0(sp)
    319c:	00b12223          	sw	a1,4(sp)
    31a0:	00010513          	mv	a0,sp
    31a4:	00810593          	addi	a1,sp,8
    31a8:	02112623          	sw	ra,44(sp)
    31ac:	cdcff0ef          	jal	2688 <__unpack_d>
    31b0:	01812703          	lw	a4,24(sp)
    31b4:	01c12683          	lw	a3,28(sp)
    31b8:	01e75793          	srli	a5,a4,0x1e
    31bc:	00269693          	slli	a3,a3,0x2
    31c0:	00f6e6b3          	or	a3,a3,a5
    31c4:	00271793          	slli	a5,a4,0x2
    31c8:	00078463          	beqz	a5,31d0 <__truncdfsf2+0x3c>
    31cc:	0016e693          	ori	a3,a3,1
    31d0:	01012603          	lw	a2,16(sp)
    31d4:	00c12583          	lw	a1,12(sp)
    31d8:	00812503          	lw	a0,8(sp)
    31dc:	611000ef          	jal	3fec <__make_fp>
    31e0:	02c12083          	lw	ra,44(sp)
    31e4:	03010113          	addi	sp,sp,48
    31e8:	00008067          	ret

000031ec <__mulsi3>:
    31ec:	00050613          	mv	a2,a0
    31f0:	00000513          	li	a0,0
    31f4:	0015f693          	andi	a3,a1,1
    31f8:	00068463          	beqz	a3,3200 <__mulsi3+0x14>
    31fc:	00c50533          	add	a0,a0,a2
    3200:	0015d593          	srli	a1,a1,0x1
    3204:	00161613          	slli	a2,a2,0x1
    3208:	fe0596e3          	bnez	a1,31f4 <__mulsi3+0x8>
    320c:	00008067          	ret

00003210 <__divsi3>:
    3210:	06054063          	bltz	a0,3270 <__umodsi3+0x10>
    3214:	0605c663          	bltz	a1,3280 <__umodsi3+0x20>

00003218 <__udivsi3>:
    3218:	00058613          	mv	a2,a1
    321c:	00050593          	mv	a1,a0
    3220:	fff00513          	li	a0,-1
    3224:	02060c63          	beqz	a2,325c <__udivsi3+0x44>
    3228:	00100693          	li	a3,1
    322c:	00b67a63          	bleu	a1,a2,3240 <__udivsi3+0x28>
    3230:	00c05863          	blez	a2,3240 <__udivsi3+0x28>
    3234:	00161613          	slli	a2,a2,0x1
    3238:	00169693          	slli	a3,a3,0x1
    323c:	feb66ae3          	bltu	a2,a1,3230 <__udivsi3+0x18>
    3240:	00000513          	li	a0,0
    3244:	00c5e663          	bltu	a1,a2,3250 <__udivsi3+0x38>
    3248:	40c585b3          	sub	a1,a1,a2
    324c:	00d56533          	or	a0,a0,a3
    3250:	0016d693          	srli	a3,a3,0x1
    3254:	00165613          	srli	a2,a2,0x1
    3258:	fe0696e3          	bnez	a3,3244 <__udivsi3+0x2c>
    325c:	00008067          	ret

00003260 <__umodsi3>:
    3260:	00008293          	mv	t0,ra
    3264:	fb5ff0ef          	jal	3218 <__udivsi3>
    3268:	00058513          	mv	a0,a1
    326c:	00028067          	jr	t0
    3270:	40a00533          	neg	a0,a0
    3274:	0005d863          	bgez	a1,3284 <__umodsi3+0x24>
    3278:	40b005b3          	neg	a1,a1
    327c:	f95ff06f          	j	3210 <__divsi3>
    3280:	40b005b3          	neg	a1,a1
    3284:	00008293          	mv	t0,ra
    3288:	f89ff0ef          	jal	3210 <__divsi3>
    328c:	40a00533          	neg	a0,a0
    3290:	00028067          	jr	t0

00003294 <__modsi3>:
    3294:	00008293          	mv	t0,ra
    3298:	0005ca63          	bltz	a1,32ac <__modsi3+0x18>
    329c:	00054c63          	bltz	a0,32b4 <__modsi3+0x20>
    32a0:	f79ff0ef          	jal	3218 <__udivsi3>
    32a4:	00058513          	mv	a0,a1
    32a8:	00028067          	jr	t0
    32ac:	40b005b3          	neg	a1,a1
    32b0:	fe0558e3          	bgez	a0,32a0 <__modsi3+0xc>
    32b4:	40a00533          	neg	a0,a0
    32b8:	f61ff0ef          	jal	3218 <__udivsi3>
    32bc:	40b00533          	neg	a0,a1
    32c0:	00028067          	jr	t0

000032c4 <__muldi3>:
    32c4:	fd010113          	addi	sp,sp,-48
    32c8:	01912223          	sw	s9,4(sp)
    32cc:	00010cb7          	lui	s9,0x10
    32d0:	02812423          	sw	s0,40(sp)
    32d4:	fffc8413          	addi	s0,s9,-1 # ffff <idx+0x8f27>
    32d8:	01612823          	sw	s6,16(sp)
    32dc:	00a47b33          	and	s6,s0,a0
    32e0:	00c47433          	and	s0,s0,a2
    32e4:	03212023          	sw	s2,32(sp)
    32e8:	01312e23          	sw	s3,28(sp)
    32ec:	01812423          	sw	s8,8(sp)
    32f0:	00050993          	mv	s3,a0
    32f4:	01055c13          	srli	s8,a0,0x10
    32f8:	00058913          	mv	s2,a1
    32fc:	000b0513          	mv	a0,s6
    3300:	00040593          	mv	a1,s0
    3304:	02112623          	sw	ra,44(sp)
    3308:	02912223          	sw	s1,36(sp)
    330c:	01412c23          	sw	s4,24(sp)
    3310:	01512a23          	sw	s5,20(sp)
    3314:	00060a13          	mv	s4,a2
    3318:	01712623          	sw	s7,12(sp)
    331c:	01a12023          	sw	s10,0(sp)
    3320:	01065b93          	srli	s7,a2,0x10
    3324:	00068d13          	mv	s10,a3
    3328:	ec5ff0ef          	jal	31ec <__mulsi3>
    332c:	00040593          	mv	a1,s0
    3330:	00050a93          	mv	s5,a0
    3334:	000c0513          	mv	a0,s8
    3338:	eb5ff0ef          	jal	31ec <__mulsi3>
    333c:	00050493          	mv	s1,a0
    3340:	000b8593          	mv	a1,s7
    3344:	000c0513          	mv	a0,s8
    3348:	ea5ff0ef          	jal	31ec <__mulsi3>
    334c:	00050413          	mv	s0,a0
    3350:	000b8593          	mv	a1,s7
    3354:	000b0513          	mv	a0,s6
    3358:	e95ff0ef          	jal	31ec <__mulsi3>
    335c:	00950533          	add	a0,a0,s1
    3360:	010ad793          	srli	a5,s5,0x10
    3364:	00a78533          	add	a0,a5,a0
    3368:	00957463          	bleu	s1,a0,3370 <__muldi3+0xac>
    336c:	01940433          	add	s0,s0,s9
    3370:	000107b7          	lui	a5,0x10
    3374:	fff78713          	addi	a4,a5,-1 # ffff <idx+0x8f27>
    3378:	00e574b3          	and	s1,a0,a4
    337c:	01055793          	srli	a5,a0,0x10
    3380:	00eaf733          	and	a4,s5,a4
    3384:	000d0593          	mv	a1,s10
    3388:	00098513          	mv	a0,s3
    338c:	01049493          	slli	s1,s1,0x10
    3390:	00878433          	add	s0,a5,s0
    3394:	00e484b3          	add	s1,s1,a4
    3398:	e55ff0ef          	jal	31ec <__mulsi3>
    339c:	00050993          	mv	s3,a0
    33a0:	00090593          	mv	a1,s2
    33a4:	000a0513          	mv	a0,s4
    33a8:	e45ff0ef          	jal	31ec <__mulsi3>
    33ac:	02c12083          	lw	ra,44(sp)
    33b0:	00a985b3          	add	a1,s3,a0
    33b4:	008585b3          	add	a1,a1,s0
    33b8:	00048513          	mv	a0,s1
    33bc:	02812403          	lw	s0,40(sp)
    33c0:	02412483          	lw	s1,36(sp)
    33c4:	02012903          	lw	s2,32(sp)
    33c8:	01c12983          	lw	s3,28(sp)
    33cc:	01812a03          	lw	s4,24(sp)
    33d0:	01412a83          	lw	s5,20(sp)
    33d4:	01012b03          	lw	s6,16(sp)
    33d8:	00c12b83          	lw	s7,12(sp)
    33dc:	00812c03          	lw	s8,8(sp)
    33e0:	00412c83          	lw	s9,4(sp)
    33e4:	00012d03          	lw	s10,0(sp)
    33e8:	03010113          	addi	sp,sp,48
    33ec:	00008067          	ret

000033f0 <__clzsi2>:
    33f0:	000107b7          	lui	a5,0x10
    33f4:	02f57c63          	bleu	a5,a0,342c <__clzsi2+0x3c>
    33f8:	0ff00693          	li	a3,255
    33fc:	01800713          	li	a4,24
    3400:	00800793          	li	a5,8
    3404:	00a6e663          	bltu	a3,a0,3410 <__clzsi2+0x20>
    3408:	02000713          	li	a4,32
    340c:	00000793          	li	a5,0
    3410:	00f55533          	srl	a0,a0,a5
    3414:	000267b7          	lui	a5,0x26
    3418:	67878793          	addi	a5,a5,1656 # 26678 <__clz_tab>
    341c:	00f507b3          	add	a5,a0,a5
    3420:	0007c503          	lbu	a0,0(a5)
    3424:	40a70533          	sub	a0,a4,a0
    3428:	00008067          	ret
    342c:	010006b7          	lui	a3,0x1000
    3430:	00800713          	li	a4,8
    3434:	01800793          	li	a5,24
    3438:	fcd57ce3          	bleu	a3,a0,3410 <__clzsi2+0x20>
    343c:	01000713          	li	a4,16
    3440:	00070793          	mv	a5,a4
    3444:	00f55533          	srl	a0,a0,a5
    3448:	000267b7          	lui	a5,0x26
    344c:	67878793          	addi	a5,a5,1656 # 26678 <__clz_tab>
    3450:	00f507b3          	add	a5,a0,a5
    3454:	0007c503          	lbu	a0,0(a5)
    3458:	40a70533          	sub	a0,a4,a0
    345c:	00008067          	ret

00003460 <_fpadd_parts>:
    3460:	00052783          	lw	a5,0(a0) # 80000000 <_end+0x7ffd91c0>
    3464:	00100713          	li	a4,1
    3468:	0ef77463          	bleu	a5,a4,3550 <_fpadd_parts+0xf0>
    346c:	0005a683          	lw	a3,0(a1)
    3470:	0cd77e63          	bleu	a3,a4,354c <_fpadd_parts+0xec>
    3474:	00400813          	li	a6,4
    3478:	15078c63          	beq	a5,a6,35d0 <_fpadd_parts+0x170>
    347c:	0d068863          	beq	a3,a6,354c <_fpadd_parts+0xec>
    3480:	00200813          	li	a6,2
    3484:	11068663          	beq	a3,a6,3590 <_fpadd_parts+0x130>
    3488:	0d078263          	beq	a5,a6,354c <_fpadd_parts+0xec>
    348c:	00852e03          	lw	t3,8(a0)
    3490:	0085a783          	lw	a5,8(a1)
    3494:	01f00693          	li	a3,31
    3498:	00c52e83          	lw	t4,12(a0)
    349c:	40fe0833          	sub	a6,t3,a5
    34a0:	41f85313          	srai	t1,a6,0x1f
    34a4:	010348b3          	xor	a7,t1,a6
    34a8:	406888b3          	sub	a7,a7,t1
    34ac:	00c5a303          	lw	t1,12(a1)
    34b0:	0b16d263          	ble	a7,a3,3554 <_fpadd_parts+0xf4>
    34b4:	11c7ca63          	blt	a5,t3,35c8 <_fpadd_parts+0x168>
    34b8:	00078e13          	mv	t3,a5
    34bc:	00000e93          	li	t4,0
    34c0:	00452703          	lw	a4,4(a0)
    34c4:	0045a783          	lw	a5,4(a1)
    34c8:	0af70a63          	beq	a4,a5,357c <_fpadd_parts+0x11c>
    34cc:	406e87b3          	sub	a5,t4,t1
    34d0:	00070463          	beqz	a4,34d8 <_fpadd_parts+0x78>
    34d4:	41d307b3          	sub	a5,t1,t4
    34d8:	1007ca63          	bltz	a5,35ec <_fpadd_parts+0x18c>
    34dc:	00062223          	sw	zero,4(a2)
    34e0:	01c62423          	sw	t3,8(a2)
    34e4:	00f62623          	sw	a5,12(a2)
    34e8:	400005b7          	lui	a1,0x40000
    34ec:	fff78713          	addi	a4,a5,-1
    34f0:	ffe58593          	addi	a1,a1,-2 # 3ffffffe <_end+0x3ffd91be>
    34f4:	02e5e463          	bltu	a1,a4,351c <_fpadd_parts+0xbc>
    34f8:	00862703          	lw	a4,8(a2)
    34fc:	fff70713          	addi	a4,a4,-1 # fffffff <_end+0xffd91bf>
    3500:	00179793          	slli	a5,a5,0x1
    3504:	fff78693          	addi	a3,a5,-1
    3508:	00070513          	mv	a0,a4
    350c:	fff70713          	addi	a4,a4,-1
    3510:	fed5f8e3          	bleu	a3,a1,3500 <_fpadd_parts+0xa0>
    3514:	00f62623          	sw	a5,12(a2)
    3518:	00a62423          	sw	a0,8(a2)
    351c:	00300713          	li	a4,3
    3520:	00e62023          	sw	a4,0(a2)
    3524:	00060513          	mv	a0,a2
    3528:	0207d463          	bgez	a5,3550 <_fpadd_parts+0xf0>
    352c:	00862703          	lw	a4,8(a2)
    3530:	0017d693          	srli	a3,a5,0x1
    3534:	0017f793          	andi	a5,a5,1
    3538:	00f6e7b3          	or	a5,a3,a5
    353c:	00170713          	addi	a4,a4,1
    3540:	00f62623          	sw	a5,12(a2)
    3544:	00e62423          	sw	a4,8(a2)
    3548:	00008067          	ret
    354c:	00058513          	mv	a0,a1
    3550:	00008067          	ret
    3554:	0b005863          	blez	a6,3604 <_fpadd_parts+0x1a4>
    3558:	011716b3          	sll	a3,a4,a7
    355c:	fff68693          	addi	a3,a3,-1 # ffffff <_end+0xfd91bf>
    3560:	0066f6b3          	and	a3,a3,t1
    3564:	00d03733          	snez	a4,a3
    3568:	01135333          	srl	t1,t1,a7
    356c:	00e36333          	or	t1,t1,a4
    3570:	0045a783          	lw	a5,4(a1)
    3574:	00452703          	lw	a4,4(a0)
    3578:	f4f71ae3          	bne	a4,a5,34cc <_fpadd_parts+0x6c>
    357c:	006e87b3          	add	a5,t4,t1
    3580:	00e62223          	sw	a4,4(a2)
    3584:	01c62423          	sw	t3,8(a2)
    3588:	00f62623          	sw	a5,12(a2)
    358c:	f91ff06f          	j	351c <_fpadd_parts+0xbc>
    3590:	fcd790e3          	bne	a5,a3,3550 <_fpadd_parts+0xf0>
    3594:	00f62023          	sw	a5,0(a2)
    3598:	00452783          	lw	a5,4(a0)
    359c:	00f62223          	sw	a5,4(a2)
    35a0:	00852703          	lw	a4,8(a0)
    35a4:	00452683          	lw	a3,4(a0)
    35a8:	0045a783          	lw	a5,4(a1)
    35ac:	00e62423          	sw	a4,8(a2)
    35b0:	00c52703          	lw	a4,12(a0)
    35b4:	00f6f7b3          	and	a5,a3,a5
    35b8:	00f62223          	sw	a5,4(a2)
    35bc:	00e62623          	sw	a4,12(a2)
    35c0:	00060513          	mv	a0,a2
    35c4:	00008067          	ret
    35c8:	00000313          	li	t1,0
    35cc:	ef5ff06f          	j	34c0 <_fpadd_parts+0x60>
    35d0:	f8f690e3          	bne	a3,a5,3550 <_fpadd_parts+0xf0>
    35d4:	00452703          	lw	a4,4(a0)
    35d8:	0045a783          	lw	a5,4(a1)
    35dc:	f6f70ae3          	beq	a4,a5,3550 <_fpadd_parts+0xf0>
    35e0:	00026537          	lui	a0,0x26
    35e4:	77850513          	addi	a0,a0,1912 # 26778 <__thenan_sf>
    35e8:	00008067          	ret
    35ec:	40f007b3          	neg	a5,a5
    35f0:	00100713          	li	a4,1
    35f4:	00e62223          	sw	a4,4(a2)
    35f8:	01c62423          	sw	t3,8(a2)
    35fc:	00f62623          	sw	a5,12(a2)
    3600:	ee9ff06f          	j	34e8 <_fpadd_parts+0x88>
    3604:	ea080ee3          	beqz	a6,34c0 <_fpadd_parts+0x60>
    3608:	01171833          	sll	a6,a4,a7
    360c:	fff80813          	addi	a6,a6,-1
    3610:	01d87833          	and	a6,a6,t4
    3614:	011ed7b3          	srl	a5,t4,a7
    3618:	010036b3          	snez	a3,a6
    361c:	011e0e33          	add	t3,t3,a7
    3620:	00d7eeb3          	or	t4,a5,a3
    3624:	e9dff06f          	j	34c0 <_fpadd_parts+0x60>

00003628 <__pack_f>:
    3628:	00052783          	lw	a5,0(a0)
    362c:	00100613          	li	a2,1
    3630:	00c52683          	lw	a3,12(a0)
    3634:	00452583          	lw	a1,4(a0)
    3638:	08f67a63          	bleu	a5,a2,36cc <__pack_f+0xa4>
    363c:	00400713          	li	a4,4
    3640:	08e78063          	beq	a5,a4,36c0 <__pack_f+0x98>
    3644:	00200713          	li	a4,2
    3648:	04e78263          	beq	a5,a4,368c <__pack_f+0x64>
    364c:	04068063          	beqz	a3,368c <__pack_f+0x64>
    3650:	00852703          	lw	a4,8(a0)
    3654:	f8200793          	li	a5,-126
    3658:	0af74c63          	blt	a4,a5,3710 <__pack_f+0xe8>
    365c:	07f00793          	li	a5,127
    3660:	06e7c063          	blt	a5,a4,36c0 <__pack_f+0x98>
    3664:	00f6f7b3          	and	a5,a3,a5
    3668:	04000613          	li	a2,64
    366c:	08c78463          	beq	a5,a2,36f4 <__pack_f+0xcc>
    3670:	03f68693          	addi	a3,a3,63
    3674:	0806c863          	bltz	a3,3704 <__pack_f+0xdc>
    3678:	07f70713          	addi	a4,a4,127
    367c:	00269693          	slli	a3,a3,0x2
    3680:	0096d693          	srli	a3,a3,0x9
    3684:	0ff77713          	andi	a4,a4,255
    3688:	00c0006f          	j	3694 <__pack_f+0x6c>
    368c:	00000713          	li	a4,0
    3690:	00000693          	li	a3,0
    3694:	008007b7          	lui	a5,0x800
    3698:	fff78793          	addi	a5,a5,-1 # 7fffff <_end+0x7d91bf>
    369c:	80800637          	lui	a2,0x80800
    36a0:	00f6f7b3          	and	a5,a3,a5
    36a4:	fff60613          	addi	a2,a2,-1 # 807fffff <_end+0x807d91bf>
    36a8:	01771713          	slli	a4,a4,0x17
    36ac:	00c7f7b3          	and	a5,a5,a2
    36b0:	01f59513          	slli	a0,a1,0x1f
    36b4:	00e7e7b3          	or	a5,a5,a4
    36b8:	00a7e533          	or	a0,a5,a0
    36bc:	00008067          	ret
    36c0:	0ff00713          	li	a4,255
    36c4:	00000693          	li	a3,0
    36c8:	fcdff06f          	j	3694 <__pack_f+0x6c>
    36cc:	004007b7          	lui	a5,0x400
    36d0:	0076d713          	srli	a4,a3,0x7
    36d4:	fff78693          	addi	a3,a5,-1 # 3fffff <_end+0x3d91bf>
    36d8:	00d776b3          	and	a3,a4,a3
    36dc:	00f6e6b3          	or	a3,a3,a5
    36e0:	008007b7          	lui	a5,0x800
    36e4:	fff78793          	addi	a5,a5,-1 # 7fffff <_end+0x7d91bf>
    36e8:	00f6f6b3          	and	a3,a3,a5
    36ec:	0ff00713          	li	a4,255
    36f0:	fa5ff06f          	j	3694 <__pack_f+0x6c>
    36f4:	0806f793          	andi	a5,a3,128
    36f8:	f6078ee3          	beqz	a5,3674 <__pack_f+0x4c>
    36fc:	00c686b3          	add	a3,a3,a2
    3700:	f75ff06f          	j	3674 <__pack_f+0x4c>
    3704:	0016d693          	srli	a3,a3,0x1
    3708:	08070713          	addi	a4,a4,128
    370c:	f71ff06f          	j	367c <__pack_f+0x54>
    3710:	40e78733          	sub	a4,a5,a4
    3714:	01900793          	li	a5,25
    3718:	f6e7cae3          	blt	a5,a4,368c <__pack_f+0x64>
    371c:	00e617b3          	sll	a5,a2,a4
    3720:	fff78793          	addi	a5,a5,-1
    3724:	00d7f7b3          	and	a5,a5,a3
    3728:	00f037b3          	snez	a5,a5
    372c:	00e6d6b3          	srl	a3,a3,a4
    3730:	00f6e6b3          	or	a3,a3,a5
    3734:	07f6f713          	andi	a4,a3,127
    3738:	04000793          	li	a5,64
    373c:	02f71263          	bne	a4,a5,3760 <__pack_f+0x138>
    3740:	0806f793          	andi	a5,a3,128
    3744:	02079c63          	bnez	a5,377c <__pack_f+0x154>
    3748:	40000737          	lui	a4,0x40000
    374c:	00e6b733          	sltu	a4,a3,a4
    3750:	00269613          	slli	a2,a3,0x2
    3754:	00965693          	srli	a3,a2,0x9
    3758:	00174713          	xori	a4,a4,1
    375c:	f39ff06f          	j	3694 <__pack_f+0x6c>
    3760:	03f68793          	addi	a5,a3,63
    3764:	40000737          	lui	a4,0x40000
    3768:	00279693          	slli	a3,a5,0x2
    376c:	00e7b733          	sltu	a4,a5,a4
    3770:	0096d693          	srli	a3,a3,0x9
    3774:	00174713          	xori	a4,a4,1
    3778:	f1dff06f          	j	3694 <__pack_f+0x6c>
    377c:	04068793          	addi	a5,a3,64
    3780:	fe5ff06f          	j	3764 <__pack_f+0x13c>

00003784 <__unpack_f>:
    3784:	00255703          	lhu	a4,2(a0)
    3788:	00354683          	lbu	a3,3(a0)
    378c:	00052603          	lw	a2,0(a0)
    3790:	00775713          	srli	a4,a4,0x7
    3794:	0076d693          	srli	a3,a3,0x7
    3798:	008007b7          	lui	a5,0x800
    379c:	fff78793          	addi	a5,a5,-1 # 7fffff <_end+0x7d91bf>
    37a0:	0ff77713          	andi	a4,a4,255
    37a4:	00d5a223          	sw	a3,4(a1)
    37a8:	00f677b3          	and	a5,a2,a5
    37ac:	02071c63          	bnez	a4,37e4 <__unpack_f+0x60>
    37b0:	06078063          	beqz	a5,3810 <__unpack_f+0x8c>
    37b4:	00300713          	li	a4,3
    37b8:	00e5a023          	sw	a4,0(a1)
    37bc:	00779793          	slli	a5,a5,0x7
    37c0:	f8100713          	li	a4,-127
    37c4:	40000637          	lui	a2,0x40000
    37c8:	00179793          	slli	a5,a5,0x1
    37cc:	00070693          	mv	a3,a4
    37d0:	fff70713          	addi	a4,a4,-1 # 3fffffff <_end+0x3ffd91bf>
    37d4:	fec7eae3          	bltu	a5,a2,37c8 <__unpack_f+0x44>
    37d8:	00d5a423          	sw	a3,8(a1)
    37dc:	00f5a623          	sw	a5,12(a1)
    37e0:	00008067          	ret
    37e4:	0ff00693          	li	a3,255
    37e8:	02d70a63          	beq	a4,a3,381c <__unpack_f+0x98>
    37ec:	f8170713          	addi	a4,a4,-127
    37f0:	00779793          	slli	a5,a5,0x7
    37f4:	400006b7          	lui	a3,0x40000
    37f8:	00d7e7b3          	or	a5,a5,a3
    37fc:	00e5a423          	sw	a4,8(a1)
    3800:	00300713          	li	a4,3
    3804:	00e5a023          	sw	a4,0(a1)
    3808:	00f5a623          	sw	a5,12(a1)
    380c:	00008067          	ret
    3810:	00200793          	li	a5,2
    3814:	00f5a023          	sw	a5,0(a1)
    3818:	00008067          	ret
    381c:	02078663          	beqz	a5,3848 <__unpack_f+0xc4>
    3820:	00979713          	slli	a4,a5,0x9
    3824:	02075863          	bgez	a4,3854 <__unpack_f+0xd0>
    3828:	00100713          	li	a4,1
    382c:	00e5a023          	sw	a4,0(a1)
    3830:	ffc00737          	lui	a4,0xffc00
    3834:	fff70713          	addi	a4,a4,-1 # ffbfffff <_end+0xffbd91bf>
    3838:	00e7f7b3          	and	a5,a5,a4
    383c:	00779793          	slli	a5,a5,0x7
    3840:	00f5a623          	sw	a5,12(a1)
    3844:	00008067          	ret
    3848:	00400793          	li	a5,4
    384c:	00f5a023          	sw	a5,0(a1)
    3850:	00008067          	ret
    3854:	0005a023          	sw	zero,0(a1)
    3858:	fd9ff06f          	j	3830 <__unpack_f+0xac>

0000385c <__addsf3>:
    385c:	fb010113          	addi	sp,sp,-80
    3860:	00a12423          	sw	a0,8(sp)
    3864:	00b12623          	sw	a1,12(sp)
    3868:	00810513          	addi	a0,sp,8
    386c:	01010593          	addi	a1,sp,16
    3870:	04112623          	sw	ra,76(sp)
    3874:	f11ff0ef          	jal	3784 <__unpack_f>
    3878:	02010593          	addi	a1,sp,32
    387c:	00c10513          	addi	a0,sp,12
    3880:	f05ff0ef          	jal	3784 <__unpack_f>
    3884:	03010613          	addi	a2,sp,48
    3888:	02010593          	addi	a1,sp,32
    388c:	01010513          	addi	a0,sp,16
    3890:	bd1ff0ef          	jal	3460 <_fpadd_parts>
    3894:	d95ff0ef          	jal	3628 <__pack_f>
    3898:	04c12083          	lw	ra,76(sp)
    389c:	05010113          	addi	sp,sp,80
    38a0:	00008067          	ret

000038a4 <__subsf3>:
    38a4:	fb010113          	addi	sp,sp,-80
    38a8:	00a12423          	sw	a0,8(sp)
    38ac:	00b12623          	sw	a1,12(sp)
    38b0:	00810513          	addi	a0,sp,8
    38b4:	01010593          	addi	a1,sp,16
    38b8:	04112623          	sw	ra,76(sp)
    38bc:	ec9ff0ef          	jal	3784 <__unpack_f>
    38c0:	02010593          	addi	a1,sp,32
    38c4:	00c10513          	addi	a0,sp,12
    38c8:	ebdff0ef          	jal	3784 <__unpack_f>
    38cc:	02412783          	lw	a5,36(sp)
    38d0:	03010613          	addi	a2,sp,48
    38d4:	02010593          	addi	a1,sp,32
    38d8:	0017c793          	xori	a5,a5,1
    38dc:	01010513          	addi	a0,sp,16
    38e0:	02f12223          	sw	a5,36(sp)
    38e4:	b7dff0ef          	jal	3460 <_fpadd_parts>
    38e8:	d41ff0ef          	jal	3628 <__pack_f>
    38ec:	04c12083          	lw	ra,76(sp)
    38f0:	05010113          	addi	sp,sp,80
    38f4:	00008067          	ret

000038f8 <__mulsf3>:
    38f8:	fb010113          	addi	sp,sp,-80
    38fc:	00a12423          	sw	a0,8(sp)
    3900:	00b12623          	sw	a1,12(sp)
    3904:	00810513          	addi	a0,sp,8
    3908:	01010593          	addi	a1,sp,16
    390c:	04112623          	sw	ra,76(sp)
    3910:	e75ff0ef          	jal	3784 <__unpack_f>
    3914:	02010593          	addi	a1,sp,32
    3918:	00c10513          	addi	a0,sp,12
    391c:	e69ff0ef          	jal	3784 <__unpack_f>
    3920:	01012783          	lw	a5,16(sp)
    3924:	00100693          	li	a3,1
    3928:	0ef6f863          	bleu	a5,a3,3a18 <__mulsf3+0x120>
    392c:	02012703          	lw	a4,32(sp)
    3930:	0ae6fc63          	bleu	a4,a3,39e8 <__mulsf3+0xf0>
    3934:	00400693          	li	a3,4
    3938:	0cd78c63          	beq	a5,a3,3a10 <__mulsf3+0x118>
    393c:	0ad70263          	beq	a4,a3,39e0 <__mulsf3+0xe8>
    3940:	00200693          	li	a3,2
    3944:	0cd78a63          	beq	a5,a3,3a18 <__mulsf3+0x120>
    3948:	0ad70063          	beq	a4,a3,39e8 <__mulsf3+0xf0>
    394c:	02c12603          	lw	a2,44(sp)
    3950:	01c12503          	lw	a0,28(sp)
    3954:	00000693          	li	a3,0
    3958:	00000593          	li	a1,0
    395c:	969ff0ef          	jal	32c4 <__muldi3>
    3960:	02812703          	lw	a4,40(sp)
    3964:	01812783          	lw	a5,24(sp)
    3968:	02412683          	lw	a3,36(sp)
    396c:	00e787b3          	add	a5,a5,a4
    3970:	01412703          	lw	a4,20(sp)
    3974:	00278613          	addi	a2,a5,2
    3978:	02c12c23          	sw	a2,56(sp)
    397c:	40d706b3          	sub	a3,a4,a3
    3980:	00d036b3          	snez	a3,a3
    3984:	02d12a23          	sw	a3,52(sp)
    3988:	00058713          	mv	a4,a1
    398c:	00050693          	mv	a3,a0
    3990:	0c05da63          	bgez	a1,3a64 <__mulsf3+0x16c>
    3994:	0015f713          	andi	a4,a1,1
    3998:	00378793          	addi	a5,a5,3
    399c:	00070863          	beqz	a4,39ac <__mulsf3+0xb4>
    39a0:	00155693          	srli	a3,a0,0x1
    39a4:	80000737          	lui	a4,0x80000
    39a8:	00e6e6b3          	or	a3,a3,a4
    39ac:	0015d713          	srli	a4,a1,0x1
    39b0:	02f12c23          	sw	a5,56(sp)
    39b4:	07f77793          	andi	a5,a4,127
    39b8:	04000613          	li	a2,64
    39bc:	08c78263          	beq	a5,a2,3a40 <__mulsf3+0x148>
    39c0:	00300793          	li	a5,3
    39c4:	02e12e23          	sw	a4,60(sp)
    39c8:	02f12823          	sw	a5,48(sp)
    39cc:	03010513          	addi	a0,sp,48
    39d0:	c59ff0ef          	jal	3628 <__pack_f>
    39d4:	04c12083          	lw	ra,76(sp)
    39d8:	05010113          	addi	sp,sp,80
    39dc:	00008067          	ret
    39e0:	00200713          	li	a4,2
    39e4:	06e78a63          	beq	a5,a4,3a58 <__mulsf3+0x160>
    39e8:	02412703          	lw	a4,36(sp)
    39ec:	01412783          	lw	a5,20(sp)
    39f0:	02010513          	addi	a0,sp,32
    39f4:	40e787b3          	sub	a5,a5,a4
    39f8:	00f037b3          	snez	a5,a5
    39fc:	02f12223          	sw	a5,36(sp)
    3a00:	c29ff0ef          	jal	3628 <__pack_f>
    3a04:	04c12083          	lw	ra,76(sp)
    3a08:	05010113          	addi	sp,sp,80
    3a0c:	00008067          	ret
    3a10:	00200793          	li	a5,2
    3a14:	04f70263          	beq	a4,a5,3a58 <__mulsf3+0x160>
    3a18:	02412703          	lw	a4,36(sp)
    3a1c:	01412783          	lw	a5,20(sp)
    3a20:	01010513          	addi	a0,sp,16
    3a24:	40e787b3          	sub	a5,a5,a4
    3a28:	00f037b3          	snez	a5,a5
    3a2c:	00f12a23          	sw	a5,20(sp)
    3a30:	bf9ff0ef          	jal	3628 <__pack_f>
    3a34:	04c12083          	lw	ra,76(sp)
    3a38:	05010113          	addi	sp,sp,80
    3a3c:	00008067          	ret
    3a40:	08077793          	andi	a5,a4,128
    3a44:	f6079ee3          	bnez	a5,39c0 <__mulsf3+0xc8>
    3a48:	f6068ce3          	beqz	a3,39c0 <__mulsf3+0xc8>
    3a4c:	00c70733          	add	a4,a4,a2
    3a50:	f8077713          	andi	a4,a4,-128
    3a54:	f6dff06f          	j	39c0 <__mulsf3+0xc8>
    3a58:	00026537          	lui	a0,0x26
    3a5c:	77850513          	addi	a0,a0,1912 # 26778 <__thenan_sf>
    3a60:	f71ff06f          	j	39d0 <__mulsf3+0xd8>
    3a64:	40000637          	lui	a2,0x40000
    3a68:	f4c5f6e3          	bleu	a2,a1,39b4 <__mulsf3+0xbc>
    3a6c:	00178793          	addi	a5,a5,1
    3a70:	0100006f          	j	3a80 <__mulsf3+0x188>
    3a74:	00169693          	slli	a3,a3,0x1
    3a78:	fff78793          	addi	a5,a5,-1
    3a7c:	02c77063          	bleu	a2,a4,3a9c <__mulsf3+0x1a4>
    3a80:	00171713          	slli	a4,a4,0x1
    3a84:	00078593          	mv	a1,a5
    3a88:	fe06d6e3          	bgez	a3,3a74 <__mulsf3+0x17c>
    3a8c:	00176713          	ori	a4,a4,1
    3a90:	00169693          	slli	a3,a3,0x1
    3a94:	fff78793          	addi	a5,a5,-1
    3a98:	fec764e3          	bltu	a4,a2,3a80 <__mulsf3+0x188>
    3a9c:	02b12c23          	sw	a1,56(sp)
    3aa0:	f15ff06f          	j	39b4 <__mulsf3+0xbc>

00003aa4 <__divsf3>:
    3aa4:	fc010113          	addi	sp,sp,-64
    3aa8:	00a12423          	sw	a0,8(sp)
    3aac:	00b12623          	sw	a1,12(sp)
    3ab0:	00810513          	addi	a0,sp,8
    3ab4:	01010593          	addi	a1,sp,16
    3ab8:	02112e23          	sw	ra,60(sp)
    3abc:	cc9ff0ef          	jal	3784 <__unpack_f>
    3ac0:	02010593          	addi	a1,sp,32
    3ac4:	00c10513          	addi	a0,sp,12
    3ac8:	cbdff0ef          	jal	3784 <__unpack_f>
    3acc:	01012683          	lw	a3,16(sp)
    3ad0:	00100793          	li	a5,1
    3ad4:	08d7f663          	bleu	a3,a5,3b60 <__divsf3+0xbc>
    3ad8:	02012603          	lw	a2,32(sp)
    3adc:	0ec7f663          	bleu	a2,a5,3bc8 <__divsf3+0x124>
    3ae0:	01412583          	lw	a1,20(sp)
    3ae4:	02412703          	lw	a4,36(sp)
    3ae8:	ffe68793          	addi	a5,a3,-2 # 3ffffffe <_end+0x3ffd91be>
    3aec:	ffd7f793          	andi	a5,a5,-3
    3af0:	00e5c733          	xor	a4,a1,a4
    3af4:	00e12a23          	sw	a4,20(sp)
    3af8:	06078e63          	beqz	a5,3b74 <__divsf3+0xd0>
    3afc:	00400793          	li	a5,4
    3b00:	08f60a63          	beq	a2,a5,3b94 <__divsf3+0xf0>
    3b04:	00200713          	li	a4,2
    3b08:	0ae60a63          	beq	a2,a4,3bbc <__divsf3+0x118>
    3b0c:	01812703          	lw	a4,24(sp)
    3b10:	02812683          	lw	a3,40(sp)
    3b14:	01c12783          	lw	a5,28(sp)
    3b18:	02c12603          	lw	a2,44(sp)
    3b1c:	40d70733          	sub	a4,a4,a3
    3b20:	00e12c23          	sw	a4,24(sp)
    3b24:	06c7e063          	bltu	a5,a2,3b84 <__divsf3+0xe0>
    3b28:	01f00713          	li	a4,31
    3b2c:	00000593          	li	a1,0
    3b30:	400006b7          	lui	a3,0x40000
    3b34:	fff70713          	addi	a4,a4,-1 # 7fffffff <_end+0x7ffd91bf>
    3b38:	00c7e663          	bltu	a5,a2,3b44 <__divsf3+0xa0>
    3b3c:	00d5e5b3          	or	a1,a1,a3
    3b40:	40c787b3          	sub	a5,a5,a2
    3b44:	0016d693          	srli	a3,a3,0x1
    3b48:	00179793          	slli	a5,a5,0x1
    3b4c:	fe0714e3          	bnez	a4,3b34 <__divsf3+0x90>
    3b50:	07f5f713          	andi	a4,a1,127
    3b54:	04000693          	li	a3,64
    3b58:	04d70663          	beq	a4,a3,3ba4 <__divsf3+0x100>
    3b5c:	00b12e23          	sw	a1,28(sp)
    3b60:	01010513          	addi	a0,sp,16
    3b64:	ac5ff0ef          	jal	3628 <__pack_f>
    3b68:	03c12083          	lw	ra,60(sp)
    3b6c:	04010113          	addi	sp,sp,64
    3b70:	00008067          	ret
    3b74:	fec696e3          	bne	a3,a2,3b60 <__divsf3+0xbc>
    3b78:	00026537          	lui	a0,0x26
    3b7c:	77850513          	addi	a0,a0,1912 # 26778 <__thenan_sf>
    3b80:	fe5ff06f          	j	3b64 <__divsf3+0xc0>
    3b84:	fff70713          	addi	a4,a4,-1
    3b88:	00179793          	slli	a5,a5,0x1
    3b8c:	00e12c23          	sw	a4,24(sp)
    3b90:	f99ff06f          	j	3b28 <__divsf3+0x84>
    3b94:	00012e23          	sw	zero,28(sp)
    3b98:	00012c23          	sw	zero,24(sp)
    3b9c:	01010513          	addi	a0,sp,16
    3ba0:	fc5ff06f          	j	3b64 <__divsf3+0xc0>
    3ba4:	0805f713          	andi	a4,a1,128
    3ba8:	fa071ae3          	bnez	a4,3b5c <__divsf3+0xb8>
    3bac:	fa0788e3          	beqz	a5,3b5c <__divsf3+0xb8>
    3bb0:	00d585b3          	add	a1,a1,a3
    3bb4:	f805f593          	andi	a1,a1,-128
    3bb8:	fa5ff06f          	j	3b5c <__divsf3+0xb8>
    3bbc:	00f12823          	sw	a5,16(sp)
    3bc0:	01010513          	addi	a0,sp,16
    3bc4:	fa1ff06f          	j	3b64 <__divsf3+0xc0>
    3bc8:	02010513          	addi	a0,sp,32
    3bcc:	f99ff06f          	j	3b64 <__divsf3+0xc0>

00003bd0 <__fpcmp_parts_f>:
    3bd0:	00052703          	lw	a4,0(a0)
    3bd4:	00100793          	li	a5,1
    3bd8:	00050613          	mv	a2,a0
    3bdc:	06e7fe63          	bleu	a4,a5,3c58 <__fpcmp_parts_f+0x88>
    3be0:	0005a683          	lw	a3,0(a1)
    3be4:	00078513          	mv	a0,a5
    3be8:	04d7f063          	bleu	a3,a5,3c28 <__fpcmp_parts_f+0x58>
    3bec:	00400793          	li	a5,4
    3bf0:	04f70863          	beq	a4,a5,3c40 <__fpcmp_parts_f+0x70>
    3bf4:	02f68c63          	beq	a3,a5,3c2c <__fpcmp_parts_f+0x5c>
    3bf8:	00200793          	li	a5,2
    3bfc:	02f70263          	beq	a4,a5,3c20 <__fpcmp_parts_f+0x50>
    3c00:	04f68263          	beq	a3,a5,3c44 <__fpcmp_parts_f+0x74>
    3c04:	00462783          	lw	a5,4(a2) # 40000004 <_end+0x3ffd91c4>
    3c08:	0045a703          	lw	a4,4(a1)
    3c0c:	04e78a63          	beq	a5,a4,3c60 <__fpcmp_parts_f+0x90>
    3c10:	00f03533          	snez	a0,a5
    3c14:	40a00533          	neg	a0,a0
    3c18:	00156513          	ori	a0,a0,1
    3c1c:	00008067          	ret
    3c20:	00e69663          	bne	a3,a4,3c2c <__fpcmp_parts_f+0x5c>
    3c24:	00000513          	li	a0,0
    3c28:	00008067          	ret
    3c2c:	0045a503          	lw	a0,4(a1)
    3c30:	00153513          	seqz	a0,a0
    3c34:	40a00533          	neg	a0,a0
    3c38:	00156513          	ori	a0,a0,1
    3c3c:	00008067          	ret
    3c40:	04e68a63          	beq	a3,a4,3c94 <__fpcmp_parts_f+0xc4>
    3c44:	00462503          	lw	a0,4(a2)
    3c48:	00a03533          	snez	a0,a0
    3c4c:	40a00533          	neg	a0,a0
    3c50:	00156513          	ori	a0,a0,1
    3c54:	00008067          	ret
    3c58:	00078513          	mv	a0,a5
    3c5c:	00008067          	ret
    3c60:	00862683          	lw	a3,8(a2)
    3c64:	0085a703          	lw	a4,8(a1)
    3c68:	fad744e3          	blt	a4,a3,3c10 <__fpcmp_parts_f+0x40>
    3c6c:	00e6cc63          	blt	a3,a4,3c84 <__fpcmp_parts_f+0xb4>
    3c70:	00c62683          	lw	a3,12(a2)
    3c74:	00c5a703          	lw	a4,12(a1)
    3c78:	f8d76ce3          	bltu	a4,a3,3c10 <__fpcmp_parts_f+0x40>
    3c7c:	00000513          	li	a0,0
    3c80:	fae6f4e3          	bleu	a4,a3,3c28 <__fpcmp_parts_f+0x58>
    3c84:	0017b513          	seqz	a0,a5
    3c88:	40a00533          	neg	a0,a0
    3c8c:	00156513          	ori	a0,a0,1
    3c90:	00008067          	ret
    3c94:	0045a783          	lw	a5,4(a1)
    3c98:	00462503          	lw	a0,4(a2)
    3c9c:	40a78533          	sub	a0,a5,a0
    3ca0:	00008067          	ret

00003ca4 <__cmpsf2>:
    3ca4:	fc010113          	addi	sp,sp,-64
    3ca8:	00a12423          	sw	a0,8(sp)
    3cac:	00b12623          	sw	a1,12(sp)
    3cb0:	00810513          	addi	a0,sp,8
    3cb4:	01010593          	addi	a1,sp,16
    3cb8:	02112e23          	sw	ra,60(sp)
    3cbc:	ac9ff0ef          	jal	3784 <__unpack_f>
    3cc0:	02010593          	addi	a1,sp,32
    3cc4:	00c10513          	addi	a0,sp,12
    3cc8:	abdff0ef          	jal	3784 <__unpack_f>
    3ccc:	02010593          	addi	a1,sp,32
    3cd0:	01010513          	addi	a0,sp,16
    3cd4:	efdff0ef          	jal	3bd0 <__fpcmp_parts_f>
    3cd8:	03c12083          	lw	ra,60(sp)
    3cdc:	04010113          	addi	sp,sp,64
    3ce0:	00008067          	ret

00003ce4 <__gesf2>:
    3ce4:	fc010113          	addi	sp,sp,-64
    3ce8:	00a12423          	sw	a0,8(sp)
    3cec:	00b12623          	sw	a1,12(sp)
    3cf0:	00810513          	addi	a0,sp,8
    3cf4:	01010593          	addi	a1,sp,16
    3cf8:	02112e23          	sw	ra,60(sp)
    3cfc:	a89ff0ef          	jal	3784 <__unpack_f>
    3d00:	00c10513          	addi	a0,sp,12
    3d04:	02010593          	addi	a1,sp,32
    3d08:	a7dff0ef          	jal	3784 <__unpack_f>
    3d0c:	01012703          	lw	a4,16(sp)
    3d10:	00100793          	li	a5,1
    3d14:	fff00513          	li	a0,-1
    3d18:	00e7fc63          	bleu	a4,a5,3d30 <__gesf2+0x4c>
    3d1c:	02012703          	lw	a4,32(sp)
    3d20:	00e7f863          	bleu	a4,a5,3d30 <__gesf2+0x4c>
    3d24:	02010593          	addi	a1,sp,32
    3d28:	01010513          	addi	a0,sp,16
    3d2c:	ea5ff0ef          	jal	3bd0 <__fpcmp_parts_f>
    3d30:	03c12083          	lw	ra,60(sp)
    3d34:	04010113          	addi	sp,sp,64
    3d38:	00008067          	ret

00003d3c <__gtsf2>:
    3d3c:	fa9ff06f          	j	3ce4 <__gesf2>

00003d40 <__lesf2>:
    3d40:	fc010113          	addi	sp,sp,-64
    3d44:	00a12423          	sw	a0,8(sp)
    3d48:	00b12623          	sw	a1,12(sp)
    3d4c:	00810513          	addi	a0,sp,8
    3d50:	01010593          	addi	a1,sp,16
    3d54:	02112e23          	sw	ra,60(sp)
    3d58:	a2dff0ef          	jal	3784 <__unpack_f>
    3d5c:	00c10513          	addi	a0,sp,12
    3d60:	02010593          	addi	a1,sp,32
    3d64:	a21ff0ef          	jal	3784 <__unpack_f>
    3d68:	01012783          	lw	a5,16(sp)
    3d6c:	00100513          	li	a0,1
    3d70:	00f57c63          	bleu	a5,a0,3d88 <__lesf2+0x48>
    3d74:	02012783          	lw	a5,32(sp)
    3d78:	00f57863          	bleu	a5,a0,3d88 <__lesf2+0x48>
    3d7c:	02010593          	addi	a1,sp,32
    3d80:	01010513          	addi	a0,sp,16
    3d84:	e4dff0ef          	jal	3bd0 <__fpcmp_parts_f>
    3d88:	03c12083          	lw	ra,60(sp)
    3d8c:	04010113          	addi	sp,sp,64
    3d90:	00008067          	ret

00003d94 <__ltsf2>:
    3d94:	fadff06f          	j	3d40 <__lesf2>

00003d98 <__nesf2>:
    3d98:	fa9ff06f          	j	3d40 <__lesf2>

00003d9c <__eqsf2>:
    3d9c:	fa5ff06f          	j	3d40 <__lesf2>

00003da0 <__unordsf2>:
    3da0:	fc010113          	addi	sp,sp,-64
    3da4:	00a12423          	sw	a0,8(sp)
    3da8:	00b12623          	sw	a1,12(sp)
    3dac:	00810513          	addi	a0,sp,8
    3db0:	01010593          	addi	a1,sp,16
    3db4:	02112e23          	sw	ra,60(sp)
    3db8:	9cdff0ef          	jal	3784 <__unpack_f>
    3dbc:	00c10513          	addi	a0,sp,12
    3dc0:	02010593          	addi	a1,sp,32
    3dc4:	9c1ff0ef          	jal	3784 <__unpack_f>
    3dc8:	01012783          	lw	a5,16(sp)
    3dcc:	00100513          	li	a0,1
    3dd0:	00f57663          	bleu	a5,a0,3ddc <__unordsf2+0x3c>
    3dd4:	02012503          	lw	a0,32(sp)
    3dd8:	00253513          	sltiu	a0,a0,2
    3ddc:	03c12083          	lw	ra,60(sp)
    3de0:	04010113          	addi	sp,sp,64
    3de4:	00008067          	ret

00003de8 <__floatsisf>:
    3de8:	fe010113          	addi	sp,sp,-32
    3dec:	01f55793          	srli	a5,a0,0x1f
    3df0:	00300713          	li	a4,3
    3df4:	00112e23          	sw	ra,28(sp)
    3df8:	00812c23          	sw	s0,24(sp)
    3dfc:	00e12023          	sw	a4,0(sp)
    3e00:	00f12223          	sw	a5,4(sp)
    3e04:	02051263          	bnez	a0,3e28 <__floatsisf+0x40>
    3e08:	00200793          	li	a5,2
    3e0c:	00f12023          	sw	a5,0(sp)
    3e10:	00010513          	mv	a0,sp
    3e14:	815ff0ef          	jal	3628 <__pack_f>
    3e18:	01c12083          	lw	ra,28(sp)
    3e1c:	01812403          	lw	s0,24(sp)
    3e20:	02010113          	addi	sp,sp,32
    3e24:	00008067          	ret
    3e28:	01e00793          	li	a5,30
    3e2c:	00f12423          	sw	a5,8(sp)
    3e30:	02054863          	bltz	a0,3e60 <__floatsisf+0x78>
    3e34:	00050413          	mv	s0,a0
    3e38:	00040513          	mv	a0,s0
    3e3c:	db4ff0ef          	jal	33f0 <__clzsi2>
    3e40:	fff50793          	addi	a5,a0,-1
    3e44:	02078c63          	beqz	a5,3e7c <__floatsisf+0x94>
    3e48:	01e00713          	li	a4,30
    3e4c:	00f41533          	sll	a0,s0,a5
    3e50:	40f707b3          	sub	a5,a4,a5
    3e54:	00a12623          	sw	a0,12(sp)
    3e58:	00f12423          	sw	a5,8(sp)
    3e5c:	fb5ff06f          	j	3e10 <__floatsisf+0x28>
    3e60:	800007b7          	lui	a5,0x80000
    3e64:	02f50063          	beq	a0,a5,3e84 <__floatsisf+0x9c>
    3e68:	40a00433          	neg	s0,a0
    3e6c:	00040513          	mv	a0,s0
    3e70:	d80ff0ef          	jal	33f0 <__clzsi2>
    3e74:	fff50793          	addi	a5,a0,-1
    3e78:	fc0798e3          	bnez	a5,3e48 <__floatsisf+0x60>
    3e7c:	00812623          	sw	s0,12(sp)
    3e80:	f91ff06f          	j	3e10 <__floatsisf+0x28>
    3e84:	000047b7          	lui	a5,0x4
    3e88:	1e87a503          	lw	a0,488(a5) # 41e8 <main+0x190>
    3e8c:	f8dff06f          	j	3e18 <__floatsisf+0x30>

00003e90 <__floatunsisf>:
    3e90:	fe010113          	addi	sp,sp,-32
    3e94:	00112e23          	sw	ra,28(sp)
    3e98:	00812c23          	sw	s0,24(sp)
    3e9c:	00912a23          	sw	s1,20(sp)
    3ea0:	00012223          	sw	zero,4(sp)
    3ea4:	04050a63          	beqz	a0,3ef8 <__floatunsisf+0x68>
    3ea8:	00300793          	li	a5,3
    3eac:	01e00493          	li	s1,30
    3eb0:	00f12023          	sw	a5,0(sp)
    3eb4:	00050413          	mv	s0,a0
    3eb8:	00912423          	sw	s1,8(sp)
    3ebc:	d34ff0ef          	jal	33f0 <__clzsi2>
    3ec0:	fff50793          	addi	a5,a0,-1
    3ec4:	04050063          	beqz	a0,3f04 <__floatunsisf+0x74>
    3ec8:	04078c63          	beqz	a5,3f20 <__floatunsisf+0x90>
    3ecc:	00f41433          	sll	s0,s0,a5
    3ed0:	40f484b3          	sub	s1,s1,a5
    3ed4:	00812623          	sw	s0,12(sp)
    3ed8:	00912423          	sw	s1,8(sp)
    3edc:	00010513          	mv	a0,sp
    3ee0:	f48ff0ef          	jal	3628 <__pack_f>
    3ee4:	01c12083          	lw	ra,28(sp)
    3ee8:	01812403          	lw	s0,24(sp)
    3eec:	01412483          	lw	s1,20(sp)
    3ef0:	02010113          	addi	sp,sp,32
    3ef4:	00008067          	ret
    3ef8:	00200793          	li	a5,2
    3efc:	00f12023          	sw	a5,0(sp)
    3f00:	fddff06f          	j	3edc <__floatunsisf+0x4c>
    3f04:	00147793          	andi	a5,s0,1
    3f08:	00145413          	srli	s0,s0,0x1
    3f0c:	0087e433          	or	s0,a5,s0
    3f10:	01f00793          	li	a5,31
    3f14:	00812623          	sw	s0,12(sp)
    3f18:	00f12423          	sw	a5,8(sp)
    3f1c:	fc1ff06f          	j	3edc <__floatunsisf+0x4c>
    3f20:	00812623          	sw	s0,12(sp)
    3f24:	fb9ff06f          	j	3edc <__floatunsisf+0x4c>

00003f28 <__fixsfsi>:
    3f28:	fd010113          	addi	sp,sp,-48
    3f2c:	00a12623          	sw	a0,12(sp)
    3f30:	01010593          	addi	a1,sp,16
    3f34:	00c10513          	addi	a0,sp,12
    3f38:	02112623          	sw	ra,44(sp)
    3f3c:	849ff0ef          	jal	3784 <__unpack_f>
    3f40:	01012783          	lw	a5,16(sp)
    3f44:	00200713          	li	a4,2
    3f48:	04f77e63          	bleu	a5,a4,3fa4 <__fixsfsi+0x7c>
    3f4c:	00400713          	li	a4,4
    3f50:	00e78a63          	beq	a5,a4,3f64 <__fixsfsi+0x3c>
    3f54:	01812783          	lw	a5,24(sp)
    3f58:	0407c663          	bltz	a5,3fa4 <__fixsfsi+0x7c>
    3f5c:	01e00513          	li	a0,30
    3f60:	02f55063          	ble	a5,a0,3f80 <__fixsfsi+0x58>
    3f64:	01412783          	lw	a5,20(sp)
    3f68:	80000537          	lui	a0,0x80000
    3f6c:	00079463          	bnez	a5,3f74 <__fixsfsi+0x4c>
    3f70:	fff54513          	not	a0,a0
    3f74:	02c12083          	lw	ra,44(sp)
    3f78:	03010113          	addi	sp,sp,48
    3f7c:	00008067          	ret
    3f80:	40f50533          	sub	a0,a0,a5
    3f84:	01c12783          	lw	a5,28(sp)
    3f88:	00a7d533          	srl	a0,a5,a0
    3f8c:	01412783          	lw	a5,20(sp)
    3f90:	fe0782e3          	beqz	a5,3f74 <__fixsfsi+0x4c>
    3f94:	02c12083          	lw	ra,44(sp)
    3f98:	40a00533          	neg	a0,a0
    3f9c:	03010113          	addi	sp,sp,48
    3fa0:	00008067          	ret
    3fa4:	02c12083          	lw	ra,44(sp)
    3fa8:	00000513          	li	a0,0
    3fac:	03010113          	addi	sp,sp,48
    3fb0:	00008067          	ret

00003fb4 <__negsf2>:
    3fb4:	fd010113          	addi	sp,sp,-48
    3fb8:	00a12623          	sw	a0,12(sp)
    3fbc:	01010593          	addi	a1,sp,16
    3fc0:	00c10513          	addi	a0,sp,12
    3fc4:	02112623          	sw	ra,44(sp)
    3fc8:	fbcff0ef          	jal	3784 <__unpack_f>
    3fcc:	01412783          	lw	a5,20(sp)
    3fd0:	01010513          	addi	a0,sp,16
    3fd4:	0017b793          	seqz	a5,a5
    3fd8:	00f12a23          	sw	a5,20(sp)
    3fdc:	e4cff0ef          	jal	3628 <__pack_f>
    3fe0:	02c12083          	lw	ra,44(sp)
    3fe4:	03010113          	addi	sp,sp,48
    3fe8:	00008067          	ret

00003fec <__make_fp>:
    3fec:	fe010113          	addi	sp,sp,-32
    3ff0:	00a12023          	sw	a0,0(sp)
    3ff4:	00010513          	mv	a0,sp
    3ff8:	00112e23          	sw	ra,28(sp)
    3ffc:	00b12223          	sw	a1,4(sp)
    4000:	00c12423          	sw	a2,8(sp)
    4004:	00d12623          	sw	a3,12(sp)
    4008:	e20ff0ef          	jal	3628 <__pack_f>
    400c:	01c12083          	lw	ra,28(sp)
    4010:	02010113          	addi	sp,sp,32
    4014:	00008067          	ret

00004018 <__extendsfdf2>:
    4018:	fd010113          	addi	sp,sp,-48
    401c:	00a12623          	sw	a0,12(sp)
    4020:	01010593          	addi	a1,sp,16
    4024:	00c10513          	addi	a0,sp,12
    4028:	02112623          	sw	ra,44(sp)
    402c:	f58ff0ef          	jal	3784 <__unpack_f>
    4030:	01c12783          	lw	a5,28(sp)
    4034:	01812603          	lw	a2,24(sp)
    4038:	01412583          	lw	a1,20(sp)
    403c:	01012503          	lw	a0,16(sp)
    4040:	01e79713          	slli	a4,a5,0x1e
    4044:	0027d793          	srli	a5,a5,0x2
    4048:	91cff0ef          	jal	3164 <__make_dp>
    404c:	02c12083          	lw	ra,44(sp)
    4050:	03010113          	addi	sp,sp,48
    4054:	00008067          	ret

Disassembly of section .text.startup:

00004058 <main>:
    4058:	fffff337          	lui	t1,0xfffff
    405c:	81010113          	addi	sp,sp,-2032
    4060:	89030313          	addi	t1,t1,-1904 # ffffe890 <_end+0xfffd7a50>
    4064:	000027b7          	lui	a5,0x2
    4068:	7e112623          	sw	ra,2028(sp)
    406c:	7e812423          	sw	s0,2024(sp)
    4070:	7e912223          	sw	s1,2020(sp)
    4074:	7f212023          	sw	s2,2016(sp)
    4078:	7d312e23          	sw	s3,2012(sp)
    407c:	7d412c23          	sw	s4,2008(sp)
    4080:	7d612823          	sw	s6,2000(sp)
    4084:	7d512a23          	sw	s5,2004(sp)
    4088:	ffffe437          	lui	s0,0xffffe
    408c:	00610133          	add	sp,sp,t1
    4090:	f4078793          	addi	a5,a5,-192 # 1f40 <__umoddi3+0x40c>
    4094:	002787b3          	add	a5,a5,sp
    4098:	0c040413          	addi	s0,s0,192 # ffffe0c0 <_end+0xfffd7280>
    409c:	00007937          	lui	s2,0x7
    40a0:	000114b7          	lui	s1,0x11
    40a4:	7c018993          	addi	s3,gp,1984 # 5198 <x>
    40a8:	0d890913          	addi	s2,s2,216 # 70d8 <idx>
    40ac:	00878433          	add	s0,a5,s0
    40b0:	d2848493          	addi	s1,s1,-728 # 10d28 <val>
    40b4:	00098693          	mv	a3,s3
    40b8:	00090613          	mv	a2,s2
    40bc:	81818713          	addi	a4,gp,-2024 # 41f0 <ptr>
    40c0:	00048593          	mv	a1,s1
    40c4:	00040793          	mv	a5,s0
    40c8:	3e800513          	li	a0,1000
    40cc:	b4cfc0ef          	jal	418 <spmv>
    40d0:	00100513          	li	a0,1
    40d4:	eddfc0ef          	jal	fb0 <setStats>
    40d8:	00098693          	mv	a3,s3
    40dc:	00090613          	mv	a2,s2
    40e0:	00040793          	mv	a5,s0
    40e4:	81818713          	addi	a4,gp,-2024 # 41f0 <ptr>
    40e8:	00048593          	mv	a1,s1
    40ec:	3e800513          	li	a0,1000
    40f0:	b28fc0ef          	jal	418 <spmv>
    40f4:	00000513          	li	a0,0
    40f8:	eb9fc0ef          	jal	fb0 <setStats>
    40fc:	000047b7          	lui	a5,0x4
    4100:	1d87a603          	lw	a2,472(a5) # 41d8 <main+0x180>
    4104:	1dc7a683          	lw	a3,476(a5)
    4108:	00024937          	lui	s2,0x24
    410c:	5c890913          	addi	s2,s2,1480 # 245c8 <verify_data>
    4110:	00000993          	li	s3,0
    4114:	3e800b13          	li	s6,1000
    4118:	00042503          	lw	a0,0(s0)
    411c:	00442583          	lw	a1,4(s0)
    4120:	00842a03          	lw	s4,8(s0)
    4124:	00c42a83          	lw	s5,12(s0)
    4128:	da5fe0ef          	jal	2ecc <__eqdf2>
    412c:	00100493          	li	s1,1
    4130:	000a0613          	mv	a2,s4
    4134:	000a8693          	mv	a3,s5
    4138:	00050463          	beqz	a0,4140 <main+0xe8>
    413c:	00000493          	li	s1,0
    4140:	00892503          	lw	a0,8(s2)
    4144:	00c92583          	lw	a1,12(s2)
    4148:	0ff4f493          	andi	s1,s1,255
    414c:	01090913          	addi	s2,s2,16
    4150:	d7dfe0ef          	jal	2ecc <__eqdf2>
    4154:	04050063          	beqz	a0,4194 <main+0x13c>
    4158:	00198513          	addi	a0,s3,1
    415c:	00950533          	add	a0,a0,s1
    4160:	00001337          	lui	t1,0x1
    4164:	77030313          	addi	t1,t1,1904 # 1770 <__udivdi3+0x260>
    4168:	00610133          	add	sp,sp,t1
    416c:	7ec12083          	lw	ra,2028(sp)
    4170:	7e812403          	lw	s0,2024(sp)
    4174:	7e412483          	lw	s1,2020(sp)
    4178:	7e012903          	lw	s2,2016(sp)
    417c:	7dc12983          	lw	s3,2012(sp)
    4180:	7d812a03          	lw	s4,2008(sp)
    4184:	7d412a83          	lw	s5,2004(sp)
    4188:	7d012b03          	lw	s6,2000(sp)
    418c:	7f010113          	addi	sp,sp,2032
    4190:	00008067          	ret
    4194:	fc0482e3          	beqz	s1,4158 <main+0x100>
    4198:	00298993          	addi	s3,s3,2
    419c:	01040413          	addi	s0,s0,16
    41a0:	01698863          	beq	s3,s6,41b0 <main+0x158>
    41a4:	00092603          	lw	a2,0(s2)
    41a8:	00492683          	lw	a3,4(s2)
    41ac:	f6dff06f          	j	4118 <main+0xc0>
    41b0:	00000513          	li	a0,0
    41b4:	fadff06f          	j	4160 <main+0x108>
    41b8:	000275b7          	lui	a1,0x27
    41bc:	04000893          	li	a7,64
    41c0:	00100513          	li	a0,1
    41c4:	82058593          	addi	a1,a1,-2016 # 26820 <__thenan_sf+0xa8>
    41c8:	01700613          	li	a2,23
    41cc:	00000073          	ecall
    41d0:	fff00513          	li	a0,-1
    41d4:	00008067          	ret
