
towers.riscv:     file format elf32-littleriscv


Disassembly of section .text:

00000100 <user_trap_entry>:
     100:	2000006f          	j	300 <trap_entry>
     104:	00000013          	nop
     108:	00000013          	nop
     10c:	00000013          	nop
     110:	00000013          	nop
     114:	00000013          	nop
     118:	00000013          	nop
     11c:	00000013          	nop
     120:	00000013          	nop
     124:	00000013          	nop
     128:	00000013          	nop
     12c:	00000013          	nop
     130:	00000013          	nop
     134:	00000013          	nop
     138:	00000013          	nop
     13c:	00000013          	nop

00000140 <supervisor_trap_entry>:
     140:	0000006f          	j	140 <supervisor_trap_entry>
     144:	00000013          	nop
     148:	00000013          	nop
     14c:	00000013          	nop
     150:	00000013          	nop
     154:	00000013          	nop
     158:	00000013          	nop
     15c:	00000013          	nop
     160:	00000013          	nop
     164:	00000013          	nop
     168:	00000013          	nop
     16c:	00000013          	nop
     170:	00000013          	nop
     174:	00000013          	nop
     178:	00000013          	nop
     17c:	00000013          	nop

00000180 <hypervisor_trap_entry>:
     180:	0000006f          	j	180 <hypervisor_trap_entry>
     184:	00000013          	nop
     188:	00000013          	nop
     18c:	00000013          	nop
     190:	00000013          	nop
     194:	00000013          	nop
     198:	00000013          	nop
     19c:	00000013          	nop
     1a0:	00000013          	nop
     1a4:	00000013          	nop
     1a8:	00000013          	nop
     1ac:	00000013          	nop
     1b0:	00000013          	nop
     1b4:	00000013          	nop
     1b8:	00000013          	nop
     1bc:	00000013          	nop

000001c0 <machine_trap_entry>:
     1c0:	1400006f          	j	300 <trap_entry>
     1c4:	00000013          	nop
     1c8:	00000013          	nop
     1cc:	00000013          	nop
     1d0:	00000013          	nop
     1d4:	00000013          	nop
     1d8:	00000013          	nop
     1dc:	00000013          	nop
     1e0:	00000013          	nop
     1e4:	00000013          	nop
     1e8:	00000013          	nop
     1ec:	00000013          	nop
     1f0:	00000013          	nop
     1f4:	00000013          	nop
     1f8:	00000013          	nop
     1fc:	00000013          	nop

00000200 <_start>:
     200:	00000093          	li	ra,0
     204:	00000113          	li	sp,0
     208:	00000193          	li	gp,0
     20c:	00000213          	li	tp,0
     210:	00000293          	li	t0,0
     214:	00000313          	li	t1,0
     218:	00000393          	li	t2,0
     21c:	00000413          	li	s0,0
     220:	00000493          	li	s1,0
     224:	00000513          	li	a0,0
     228:	00000593          	li	a1,0
     22c:	00000613          	li	a2,0
     230:	00000693          	li	a3,0
     234:	00000713          	li	a4,0
     238:	00000793          	li	a5,0
     23c:	00000813          	li	a6,0
     240:	00000893          	li	a7,0
     244:	00000913          	li	s2,0
     248:	00000993          	li	s3,0
     24c:	00000a13          	li	s4,0
     250:	00000a93          	li	s5,0
     254:	00000b13          	li	s6,0
     258:	00000b93          	li	s7,0
     25c:	00000c13          	li	s8,0
     260:	00000c93          	li	s9,0
     264:	00000d13          	li	s10,0
     268:	00000d93          	li	s11,0
     26c:	00000e13          	li	t3,0
     270:	00000e93          	li	t4,0
     274:	00000f13          	li	t5,0
     278:	00000f93          	li	t6,0
     27c:	03000293          	li	t0,48
     280:	3002b073          	csrc	mstatus,t0
     284:	00800293          	li	t0,8
     288:	3002a073          	csrs	mstatus,t0
     28c:	000032b7          	lui	t0,0x3
     290:	3002a073          	csrs	mstatus,t0
     294:	0000c2b7          	lui	t0,0xc
     298:	3002a073          	csrs	mstatus,t0
     29c:	300022f3          	csrr	t0,mstatus
     2a0:	0000c337          	lui	t1,0xc
     2a4:	0062f333          	and	t1,t0,t1
     2a8:	00002397          	auipc	t2,0x2
     2ac:	4e63a023          	sw	t1,1248(t2) # 2788 <have_vec>
     2b0:	00003337          	lui	t1,0x3
     2b4:	0062f333          	and	t1,t0,t1
     2b8:	00030263          	beqz	t1,2bc <_start+0xbc>
     2bc:	00003197          	auipc	gp,0x3
     2c0:	cc418193          	addi	gp,gp,-828 # 2f80 <_gp>
     2c4:	00002217          	auipc	tp,0x2
     2c8:	5fb20213          	addi	tp,tp,1531 # 28bf <_end+0x3f>
     2cc:	fc027213          	andi	tp,tp,-64
     2d0:	f1002573          	csrr	a0,mhartid
     2d4:	00100593          	li	a1,1
     2d8:	00b57063          	bleu	a1,a0,2d8 <_start+0xd8>
     2dc:	01151613          	slli	a2,a0,0x11
     2e0:	00c20233          	add	tp,tp,a2
     2e4:	00150113          	addi	sp,a0,1
     2e8:	01111113          	slli	sp,sp,0x11
     2ec:	00410133          	add	sp,sp,tp
     2f0:	00001297          	auipc	t0,0x1
     2f4:	ef828293          	addi	t0,t0,-264 # 11e8 <_init>
     2f8:	34129073          	csrw	mepc,t0
     2fc:	10000073          	eret

00000300 <trap_entry>:
     300:	ef010113          	addi	sp,sp,-272
     304:	00112223          	sw	ra,4(sp)
     308:	00212423          	sw	sp,8(sp)
     30c:	00312623          	sw	gp,12(sp)
     310:	00412823          	sw	tp,16(sp)
     314:	00512a23          	sw	t0,20(sp)
     318:	00612c23          	sw	t1,24(sp)
     31c:	00712e23          	sw	t2,28(sp)
     320:	02812023          	sw	s0,32(sp)
     324:	02912223          	sw	s1,36(sp)
     328:	02a12423          	sw	a0,40(sp)
     32c:	02b12623          	sw	a1,44(sp)
     330:	02c12823          	sw	a2,48(sp)
     334:	02d12a23          	sw	a3,52(sp)
     338:	02e12c23          	sw	a4,56(sp)
     33c:	02f12e23          	sw	a5,60(sp)
     340:	05012023          	sw	a6,64(sp)
     344:	05112223          	sw	a7,68(sp)
     348:	05212423          	sw	s2,72(sp)
     34c:	05312623          	sw	s3,76(sp)
     350:	05412823          	sw	s4,80(sp)
     354:	05512a23          	sw	s5,84(sp)
     358:	05612c23          	sw	s6,88(sp)
     35c:	05712e23          	sw	s7,92(sp)
     360:	07812023          	sw	s8,96(sp)
     364:	07912223          	sw	s9,100(sp)
     368:	07a12423          	sw	s10,104(sp)
     36c:	07b12623          	sw	s11,108(sp)
     370:	07c12823          	sw	t3,112(sp)
     374:	07d12a23          	sw	t4,116(sp)
     378:	07e12c23          	sw	t5,120(sp)
     37c:	07f12e23          	sw	t6,124(sp)
     380:	34202573          	csrr	a0,mcause
     384:	341025f3          	csrr	a1,mepc
     388:	00010613          	mv	a2,sp
     38c:	16d000ef          	jal	cf8 <handle_trap>
     390:	34151073          	csrw	mepc,a0
     394:	00412083          	lw	ra,4(sp)
     398:	00812103          	lw	sp,8(sp)
     39c:	00c12183          	lw	gp,12(sp)
     3a0:	01012203          	lw	tp,16(sp)
     3a4:	01412283          	lw	t0,20(sp)
     3a8:	01812303          	lw	t1,24(sp)
     3ac:	01c12383          	lw	t2,28(sp)
     3b0:	02012403          	lw	s0,32(sp)
     3b4:	02412483          	lw	s1,36(sp)
     3b8:	02812503          	lw	a0,40(sp)
     3bc:	02c12583          	lw	a1,44(sp)
     3c0:	03012603          	lw	a2,48(sp)
     3c4:	03412683          	lw	a3,52(sp)
     3c8:	03812703          	lw	a4,56(sp)
     3cc:	03c12783          	lw	a5,60(sp)
     3d0:	04012803          	lw	a6,64(sp)
     3d4:	04412883          	lw	a7,68(sp)
     3d8:	04812903          	lw	s2,72(sp)
     3dc:	04c12983          	lw	s3,76(sp)
     3e0:	05012a03          	lw	s4,80(sp)
     3e4:	05412a83          	lw	s5,84(sp)
     3e8:	05812b03          	lw	s6,88(sp)
     3ec:	05c12b83          	lw	s7,92(sp)
     3f0:	06012c03          	lw	s8,96(sp)
     3f4:	06412c83          	lw	s9,100(sp)
     3f8:	06812d03          	lw	s10,104(sp)
     3fc:	06c12d83          	lw	s11,108(sp)
     400:	07012e03          	lw	t3,112(sp)
     404:	07412e83          	lw	t4,116(sp)
     408:	07812f03          	lw	t5,120(sp)
     40c:	07c12f83          	lw	t6,124(sp)
     410:	11010113          	addi	sp,sp,272
     414:	10000073          	eret

00000418 <towers_verify.part.0>:
     418:	01852583          	lw	a1,24(a0)
     41c:	00052783          	lw	a5,0(a0)
     420:	00050693          	mv	a3,a0
     424:	00f58663          	beq	a1,a5,430 <towers_verify.part.0+0x18>
     428:	00400513          	li	a0,4
     42c:	00008067          	ret
     430:	01c52783          	lw	a5,28(a0)
     434:	02078663          	beqz	a5,460 <towers_verify.part.0+0x48>
     438:	0007a703          	lw	a4,0(a5)
     43c:	00100613          	li	a2,1
     440:	00500513          	li	a0,5
     444:	00c70863          	beq	a4,a2,454 <towers_verify.part.0+0x3c>
     448:	0400006f          	j	488 <towers_verify.part.0+0x70>
     44c:	0007a603          	lw	a2,0(a5)
     450:	02c71a63          	bne	a4,a2,484 <towers_verify.part.0+0x6c>
     454:	0047a783          	lw	a5,4(a5)
     458:	00170713          	addi	a4,a4,1
     45c:	fe0798e3          	bnez	a5,44c <towers_verify.part.0+0x34>
     460:	0046a783          	lw	a5,4(a3)
     464:	00100513          	li	a0,1
     468:	00b51533          	sll	a0,a0,a1
     46c:	fff50513          	addi	a0,a0,-1
     470:	40a78533          	sub	a0,a5,a0
     474:	00a03533          	snez	a0,a0
     478:	40a00533          	neg	a0,a0
     47c:	00657513          	andi	a0,a0,6
     480:	00008067          	ret
     484:	00500513          	li	a0,5
     488:	00008067          	ret

0000048c <list_getSize>:
     48c:	00052503          	lw	a0,0(a0)
     490:	00008067          	ret

00000494 <list_init>:
     494:	00052023          	sw	zero,0(a0)
     498:	00052223          	sw	zero,4(a0)
     49c:	00008067          	ret

000004a0 <list_push>:
     4a0:	80018713          	addi	a4,gp,-2048 # 2780 <g_nodeFreeList>
     4a4:	00472783          	lw	a5,4(a4)
     4a8:	00052683          	lw	a3,0(a0)
     4ac:	0047a603          	lw	a2,4(a5)
     4b0:	00168693          	addi	a3,a3,1
     4b4:	00c72223          	sw	a2,4(a4)
     4b8:	00452703          	lw	a4,4(a0)
     4bc:	00e7a223          	sw	a4,4(a5)
     4c0:	00f52223          	sw	a5,4(a0)
     4c4:	00b7a023          	sw	a1,0(a5)
     4c8:	00d52023          	sw	a3,0(a0)
     4cc:	00008067          	ret

000004d0 <list_pop>:
     4d0:	00452683          	lw	a3,4(a0)
     4d4:	00050793          	mv	a5,a0
     4d8:	0046a583          	lw	a1,4(a3)
     4dc:	0006a503          	lw	a0,0(a3)
     4e0:	80018713          	addi	a4,gp,-2048 # 2780 <g_nodeFreeList>
     4e4:	00b7a223          	sw	a1,4(a5)
     4e8:	00472583          	lw	a1,4(a4)
     4ec:	0007a603          	lw	a2,0(a5)
     4f0:	00b6a223          	sw	a1,4(a3)
     4f4:	fff60613          	addi	a2,a2,-1
     4f8:	00d72223          	sw	a3,4(a4)
     4fc:	00c7a023          	sw	a2,0(a5)
     500:	00008067          	ret

00000504 <list_clear>:
     504:	00052703          	lw	a4,0(a0)
     508:	80018693          	addi	a3,gp,-2048 # 2780 <g_nodeFreeList>
     50c:	02e05463          	blez	a4,534 <list_clear+0x30>
     510:	00452783          	lw	a5,4(a0)
     514:	fff70713          	addi	a4,a4,-1
     518:	0047a603          	lw	a2,4(a5)
     51c:	00c52223          	sw	a2,4(a0)
     520:	0046a603          	lw	a2,4(a3)
     524:	00c7a223          	sw	a2,4(a5)
     528:	00f6a223          	sw	a5,4(a3)
     52c:	fe0712e3          	bnez	a4,510 <list_clear+0xc>
     530:	00052023          	sw	zero,0(a0)
     534:	00008067          	ret

00000538 <towers_init>:
     538:	00b52023          	sw	a1,0(a0)
     53c:	00052223          	sw	zero,4(a0)
     540:	00052423          	sw	zero,8(a0)
     544:	00052623          	sw	zero,12(a0)
     548:	00052823          	sw	zero,16(a0)
     54c:	00052a23          	sw	zero,20(a0)
     550:	00052c23          	sw	zero,24(a0)
     554:	00052e23          	sw	zero,28(a0)
     558:	04b05063          	blez	a1,598 <towers_init+0x60>
     55c:	80018813          	addi	a6,gp,-2048 # 2780 <g_nodeFreeList>
     560:	00482783          	lw	a5,4(a6)
     564:	00058713          	mv	a4,a1
     568:	00000693          	li	a3,0
     56c:	0080006f          	j	574 <towers_init+0x3c>
     570:	00060793          	mv	a5,a2
     574:	0047a603          	lw	a2,4(a5)
     578:	00e7a023          	sw	a4,0(a5)
     57c:	00d7a223          	sw	a3,4(a5)
     580:	fff70713          	addi	a4,a4,-1
     584:	00078693          	mv	a3,a5
     588:	fe0714e3          	bnez	a4,570 <towers_init+0x38>
     58c:	00c82223          	sw	a2,4(a6)
     590:	00f52623          	sw	a5,12(a0)
     594:	00b52423          	sw	a1,8(a0)
     598:	00008067          	ret

0000059c <towers_clear>:
     59c:	00852703          	lw	a4,8(a0)
     5a0:	02e05c63          	blez	a4,5d8 <towers_clear+0x3c>
     5a4:	80018593          	addi	a1,gp,-2048 # 2780 <g_nodeFreeList>
     5a8:	00c52783          	lw	a5,12(a0)
     5ac:	0045a683          	lw	a3,4(a1)
     5b0:	0080006f          	j	5b8 <towers_clear+0x1c>
     5b4:	00060793          	mv	a5,a2
     5b8:	0047a603          	lw	a2,4(a5)
     5bc:	fff70713          	addi	a4,a4,-1
     5c0:	00d7a223          	sw	a3,4(a5)
     5c4:	00078693          	mv	a3,a5
     5c8:	fe0716e3          	bnez	a4,5b4 <towers_clear+0x18>
     5cc:	00f5a223          	sw	a5,4(a1)
     5d0:	00c52623          	sw	a2,12(a0)
     5d4:	00052423          	sw	zero,8(a0)
     5d8:	01052703          	lw	a4,16(a0)
     5dc:	02e05c63          	blez	a4,614 <towers_clear+0x78>
     5e0:	80018593          	addi	a1,gp,-2048 # 2780 <g_nodeFreeList>
     5e4:	01452783          	lw	a5,20(a0)
     5e8:	0045a683          	lw	a3,4(a1)
     5ec:	0080006f          	j	5f4 <towers_clear+0x58>
     5f0:	00060793          	mv	a5,a2
     5f4:	0047a603          	lw	a2,4(a5)
     5f8:	fff70713          	addi	a4,a4,-1
     5fc:	00d7a223          	sw	a3,4(a5)
     600:	00078693          	mv	a3,a5
     604:	fe0716e3          	bnez	a4,5f0 <towers_clear+0x54>
     608:	00f5a223          	sw	a5,4(a1)
     60c:	00c52a23          	sw	a2,20(a0)
     610:	00052823          	sw	zero,16(a0)
     614:	01852703          	lw	a4,24(a0)
     618:	02e05863          	blez	a4,648 <towers_clear+0xac>
     61c:	80018593          	addi	a1,gp,-2048 # 2780 <g_nodeFreeList>
     620:	01c52783          	lw	a5,28(a0)
     624:	0045a683          	lw	a3,4(a1)
     628:	0080006f          	j	630 <towers_clear+0x94>
     62c:	00060793          	mv	a5,a2
     630:	0047a603          	lw	a2,4(a5)
     634:	fff70713          	addi	a4,a4,-1
     638:	00d7a223          	sw	a3,4(a5)
     63c:	00078693          	mv	a3,a5
     640:	fe0716e3          	bnez	a4,62c <towers_clear+0x90>
     644:	00f5a223          	sw	a5,4(a1)
     648:	00052803          	lw	a6,0(a0)
     64c:	00052223          	sw	zero,4(a0)
     650:	00052423          	sw	zero,8(a0)
     654:	00052623          	sw	zero,12(a0)
     658:	00052823          	sw	zero,16(a0)
     65c:	00052a23          	sw	zero,20(a0)
     660:	00052c23          	sw	zero,24(a0)
     664:	00052e23          	sw	zero,28(a0)
     668:	05005263          	blez	a6,6ac <towers_clear+0x110>
     66c:	80018593          	addi	a1,gp,-2048 # 2780 <g_nodeFreeList>
     670:	0045a783          	lw	a5,4(a1)
     674:	00080713          	mv	a4,a6
     678:	00000693          	li	a3,0
     67c:	0080006f          	j	684 <towers_clear+0xe8>
     680:	00060793          	mv	a5,a2
     684:	0047a603          	lw	a2,4(a5)
     688:	00e7a023          	sw	a4,0(a5)
     68c:	00d7a223          	sw	a3,4(a5)
     690:	fff70713          	addi	a4,a4,-1
     694:	00078693          	mv	a3,a5
     698:	fe0714e3          	bnez	a4,680 <towers_clear+0xe4>
     69c:	00c5a223          	sw	a2,4(a1)
     6a0:	00f52623          	sw	a5,12(a0)
     6a4:	01052423          	sw	a6,8(a0)
     6a8:	00008067          	ret
     6ac:	00008067          	ret

000006b0 <towers_solve_h>:
     6b0:	fe010113          	addi	sp,sp,-32
     6b4:	00812c23          	sw	s0,24(sp)
     6b8:	00912a23          	sw	s1,20(sp)
     6bc:	01212823          	sw	s2,16(sp)
     6c0:	01312623          	sw	s3,12(sp)
     6c4:	01412423          	sw	s4,8(sp)
     6c8:	01512223          	sw	s5,4(sp)
     6cc:	00112e23          	sw	ra,28(sp)
     6d0:	00100a93          	li	s5,1
     6d4:	00050a13          	mv	s4,a0
     6d8:	00060413          	mv	s0,a2
     6dc:	00070993          	mv	s3,a4
     6e0:	00058493          	mv	s1,a1
     6e4:	00068913          	mv	s2,a3
     6e8:	01559863          	bne	a1,s5,6f8 <towers_solve_h+0x48>
     6ec:	04c0006f          	j	738 <towers_solve_h+0x88>
     6f0:	00040913          	mv	s2,s0
     6f4:	00078413          	mv	s0,a5
     6f8:	fff48493          	addi	s1,s1,-1
     6fc:	00048593          	mv	a1,s1
     700:	000a0513          	mv	a0,s4
     704:	00090713          	mv	a4,s2
     708:	00098693          	mv	a3,s3
     70c:	00040613          	mv	a2,s0
     710:	fa1ff0ef          	jal	6b0 <towers_solve_h>
     714:	00098713          	mv	a4,s3
     718:	00090693          	mv	a3,s2
     71c:	00040613          	mv	a2,s0
     720:	00100593          	li	a1,1
     724:	000a0513          	mv	a0,s4
     728:	f89ff0ef          	jal	6b0 <towers_solve_h>
     72c:	00090793          	mv	a5,s2
     730:	fd5490e3          	bne	s1,s5,6f0 <towers_solve_h+0x40>
     734:	00090413          	mv	s0,s2
     738:	00442683          	lw	a3,4(s0)
     73c:	00042703          	lw	a4,0(s0)
     740:	004a2783          	lw	a5,4(s4)
     744:	0046a603          	lw	a2,4(a3)
     748:	fff70713          	addi	a4,a4,-1
     74c:	00e42023          	sw	a4,0(s0)
     750:	00c42223          	sw	a2,4(s0)
     754:	0009a703          	lw	a4,0(s3)
     758:	0049a603          	lw	a2,4(s3)
     75c:	01c12083          	lw	ra,28(sp)
     760:	00170713          	addi	a4,a4,1
     764:	00c6a223          	sw	a2,4(a3)
     768:	00d9a223          	sw	a3,4(s3)
     76c:	00e9a023          	sw	a4,0(s3)
     770:	00178793          	addi	a5,a5,1
     774:	00fa2223          	sw	a5,4(s4)
     778:	01812403          	lw	s0,24(sp)
     77c:	01412483          	lw	s1,20(sp)
     780:	01012903          	lw	s2,16(sp)
     784:	00c12983          	lw	s3,12(sp)
     788:	00812a03          	lw	s4,8(sp)
     78c:	00412a83          	lw	s5,4(sp)
     790:	02010113          	addi	sp,sp,32
     794:	00008067          	ret

00000798 <towers_solve>:
     798:	00052583          	lw	a1,0(a0)
     79c:	01850713          	addi	a4,a0,24
     7a0:	01050693          	addi	a3,a0,16
     7a4:	00850613          	addi	a2,a0,8
     7a8:	f09ff06f          	j	6b0 <towers_solve_h>

000007ac <towers_verify>:
     7ac:	00852703          	lw	a4,8(a0)
     7b0:	00070863          	beqz	a4,7c0 <towers_verify+0x14>
     7b4:	00200793          	li	a5,2
     7b8:	00078513          	mv	a0,a5
     7bc:	00008067          	ret
     7c0:	01052703          	lw	a4,16(a0)
     7c4:	00300793          	li	a5,3
     7c8:	fe0718e3          	bnez	a4,7b8 <towers_verify+0xc>
     7cc:	c4dff06f          	j	418 <towers_verify.part.0>

000007d0 <putchar>:
     7d0:	04022803          	lw	a6,64(tp) # 40 <buflen.2846>
     7d4:	00020793          	mv	a5,tp
     7d8:	010787b3          	add	a5,a5,a6
     7dc:	00180613          	addi	a2,a6,1
     7e0:	00a78023          	sb	a0,0(a5)
     7e4:	04c22023          	sw	a2,64(tp) # 40 <buflen.2846>
     7e8:	00a00793          	li	a5,10
     7ec:	00f50a63          	beq	a0,a5,800 <putchar+0x30>
     7f0:	04000793          	li	a5,64
     7f4:	00f60663          	beq	a2,a5,800 <putchar+0x30>
     7f8:	00000513          	li	a0,0
     7fc:	00008067          	ret
     800:	04000893          	li	a7,64
     804:	00100513          	li	a0,1
     808:	00020593          	mv	a1,tp
     80c:	00000073          	ecall
     810:	04022023          	sw	zero,64(tp) # 40 <buflen.2846>
     814:	00000513          	li	a0,0
     818:	00008067          	ret

0000081c <sprintf_putch.2960>:
     81c:	0005a783          	lw	a5,0(a1)
     820:	00a78023          	sb	a0,0(a5)
     824:	0005a783          	lw	a5,0(a1)
     828:	00178793          	addi	a5,a5,1
     82c:	00f5a023          	sw	a5,0(a1)
     830:	00008067          	ret

00000834 <vprintfmt>:
     834:	eb010113          	addi	sp,sp,-336
     838:	13812423          	sw	s8,296(sp)
     83c:	00002c37          	lui	s8,0x2
     840:	3a4c0793          	addi	a5,s8,932 # 23a4 <main+0x12c>
     844:	13a12023          	sw	s10,288(sp)
     848:	40000d37          	lui	s10,0x40000
     84c:	00f12423          	sw	a5,8(sp)
     850:	fffd0793          	addi	a5,s10,-1 # 3fffffff <_gp+0x3fffd07f>
     854:	14912223          	sw	s1,324(sp)
     858:	15212023          	sw	s2,320(sp)
     85c:	13312e23          	sw	s3,316(sp)
     860:	13512a23          	sw	s5,308(sp)
     864:	14112623          	sw	ra,332(sp)
     868:	14812423          	sw	s0,328(sp)
     86c:	13412c23          	sw	s4,312(sp)
     870:	13612823          	sw	s6,304(sp)
     874:	13712623          	sw	s7,300(sp)
     878:	13912223          	sw	s9,292(sp)
     87c:	11b12e23          	sw	s11,284(sp)
     880:	00050993          	mv	s3,a0
     884:	00058913          	mv	s2,a1
     888:	00060493          	mv	s1,a2
     88c:	00d12223          	sw	a3,4(sp)
     890:	02500a93          	li	s5,37
     894:	00f12623          	sw	a5,12(sp)
     898:	0140006f          	j	8ac <vprintfmt+0x78>
     89c:	06050263          	beqz	a0,900 <vprintfmt+0xcc>
     8a0:	00148493          	addi	s1,s1,1
     8a4:	00090593          	mv	a1,s2
     8a8:	000980e7          	jalr	s3
     8ac:	0004c503          	lbu	a0,0(s1)
     8b0:	ff5516e3          	bne	a0,s5,89c <vprintfmt+0x68>
     8b4:	0014c503          	lbu	a0,1(s1)
     8b8:	00148a13          	addi	s4,s1,1
     8bc:	fff00413          	li	s0,-1
     8c0:	02000793          	li	a5,32
     8c4:	000a0713          	mv	a4,s4
     8c8:	00f12023          	sw	a5,0(sp)
     8cc:	00040b13          	mv	s6,s0
     8d0:	00000613          	li	a2,0
     8d4:	00900593          	li	a1,9
     8d8:	fdd50793          	addi	a5,a0,-35
     8dc:	0ff7f793          	andi	a5,a5,255
     8e0:	05500693          	li	a3,85
     8e4:	00170493          	addi	s1,a4,1
     8e8:	38f6e263          	bltu	a3,a5,c6c <vprintfmt+0x438>
     8ec:	00812683          	lw	a3,8(sp)
     8f0:	00279793          	slli	a5,a5,0x2
     8f4:	00d787b3          	add	a5,a5,a3
     8f8:	0007a783          	lw	a5,0(a5)
     8fc:	00078067          	jr	a5
     900:	14c12083          	lw	ra,332(sp)
     904:	14812403          	lw	s0,328(sp)
     908:	14412483          	lw	s1,324(sp)
     90c:	14012903          	lw	s2,320(sp)
     910:	13c12983          	lw	s3,316(sp)
     914:	13812a03          	lw	s4,312(sp)
     918:	13412a83          	lw	s5,308(sp)
     91c:	13012b03          	lw	s6,304(sp)
     920:	12c12b83          	lw	s7,300(sp)
     924:	12812c03          	lw	s8,296(sp)
     928:	12412c83          	lw	s9,292(sp)
     92c:	12012d03          	lw	s10,288(sp)
     930:	11c12d83          	lw	s11,284(sp)
     934:	15010113          	addi	sp,sp,336
     938:	00008067          	ret
     93c:	000b5463          	bgez	s6,944 <vprintfmt+0x110>
     940:	00000b13          	li	s6,0
     944:	00174503          	lbu	a0,1(a4)
     948:	00048713          	mv	a4,s1
     94c:	f8dff06f          	j	8d8 <vprintfmt+0xa4>
     950:	00800413          	li	s0,8
     954:	00000a13          	li	s4,0
     958:	00100793          	li	a5,1
     95c:	28c7d663          	ble	a2,a5,be8 <vprintfmt+0x3b4>
     960:	00412783          	lw	a5,4(sp)
     964:	00778793          	addi	a5,a5,7
     968:	ff87f793          	andi	a5,a5,-8
     96c:	0007ac83          	lw	s9,0(a5)
     970:	0047ab83          	lw	s7,4(a5)
     974:	00878713          	addi	a4,a5,8
     978:	00e12223          	sw	a4,4(sp)
     97c:	00040613          	mv	a2,s0
     980:	00000693          	li	a3,0
     984:	000c8513          	mv	a0,s9
     988:	000b8593          	mv	a1,s7
     98c:	254010ef          	jal	1be0 <__umoddi3>
     990:	00a12823          	sw	a0,16(sp)
     994:	337a0c63          	beq	s4,s7,ccc <vprintfmt+0x498>
     998:	01410d93          	addi	s11,sp,20
     99c:	00100d13          	li	s10,1
     9a0:	00040613          	mv	a2,s0
     9a4:	00000693          	li	a3,0
     9a8:	000c8513          	mv	a0,s9
     9ac:	000b8593          	mv	a1,s7
     9b0:	40d000ef          	jal	15bc <__udivdi3>
     9b4:	00040613          	mv	a2,s0
     9b8:	00000693          	li	a3,0
     9bc:	00050c93          	mv	s9,a0
     9c0:	00058b93          	mv	s7,a1
     9c4:	21c010ef          	jal	1be0 <__umoddi3>
     9c8:	00ada023          	sw	a0,0(s11)
     9cc:	001d0c13          	addi	s8,s10,1
     9d0:	004d8d93          	addi	s11,s11,4
     9d4:	017a0663          	beq	s4,s7,9e0 <vprintfmt+0x1ac>
     9d8:	000c0d13          	mv	s10,s8
     9dc:	fc5ff06f          	j	9a0 <vprintfmt+0x16c>
     9e0:	fe8cfce3          	bleu	s0,s9,9d8 <vprintfmt+0x1a4>
     9e4:	fffb0413          	addi	s0,s6,-1
     9e8:	000d0a13          	mv	s4,s10
     9ec:	036c5263          	ble	s6,s8,a10 <vprintfmt+0x1dc>
     9f0:	00012503          	lw	a0,0(sp)
     9f4:	00090593          	mv	a1,s2
     9f8:	fff40413          	addi	s0,s0,-1
     9fc:	000980e7          	jalr	s3
     a00:	00140793          	addi	a5,s0,1
     a04:	fefc46e3          	blt	s8,a5,9f0 <vprintfmt+0x1bc>
     a08:	000a0d13          	mv	s10,s4
     a0c:	eb8050e3          	blez	s8,8ac <vprintfmt+0x78>
     a10:	002d1793          	slli	a5,s10,0x2
     a14:	11010713          	addi	a4,sp,272
     a18:	00f707b3          	add	a5,a4,a5
     a1c:	f007a503          	lw	a0,-256(a5)
     a20:	00c12783          	lw	a5,12(sp)
     a24:	000d0413          	mv	s0,s10
     a28:	00fd0a33          	add	s4,s10,a5
     a2c:	002a1a13          	slli	s4,s4,0x2
     a30:	01010793          	addi	a5,sp,16
     a34:	01478a33          	add	s4,a5,s4
     a38:	0100006f          	j	a48 <vprintfmt+0x214>
     a3c:	000a2503          	lw	a0,0(s4)
     a40:	fff40413          	addi	s0,s0,-1
     a44:	ffca0a13          	addi	s4,s4,-4
     a48:	00a53793          	sltiu	a5,a0,10
     a4c:	40f007b3          	neg	a5,a5
     a50:	fd97f793          	andi	a5,a5,-39
     a54:	05778793          	addi	a5,a5,87
     a58:	00090593          	mv	a1,s2
     a5c:	00a78533          	add	a0,a5,a0
     a60:	000980e7          	jalr	s3
     a64:	fc804ce3          	bgtz	s0,a3c <vprintfmt+0x208>
     a68:	e45ff06f          	j	8ac <vprintfmt+0x78>
     a6c:	00412783          	lw	a5,4(sp)
     a70:	00174503          	lbu	a0,1(a4)
     a74:	00048713          	mv	a4,s1
     a78:	0007a403          	lw	s0,0(a5)
     a7c:	00478793          	addi	a5,a5,4
     a80:	00f12223          	sw	a5,4(sp)
     a84:	e40b5ae3          	bgez	s6,8d8 <vprintfmt+0xa4>
     a88:	00040b13          	mv	s6,s0
     a8c:	fff00413          	li	s0,-1
     a90:	e49ff06f          	j	8d8 <vprintfmt+0xa4>
     a94:	03000793          	li	a5,48
     a98:	00174503          	lbu	a0,1(a4)
     a9c:	00f12023          	sw	a5,0(sp)
     aa0:	00048713          	mv	a4,s1
     aa4:	e35ff06f          	j	8d8 <vprintfmt+0xa4>
     aa8:	02d00793          	li	a5,45
     aac:	00174503          	lbu	a0,1(a4)
     ab0:	00f12023          	sw	a5,0(sp)
     ab4:	00048713          	mv	a4,s1
     ab8:	e21ff06f          	j	8d8 <vprintfmt+0xa4>
     abc:	00174683          	lbu	a3,1(a4)
     ac0:	fd050413          	addi	s0,a0,-48
     ac4:	00048713          	mv	a4,s1
     ac8:	fd068793          	addi	a5,a3,-48
     acc:	1ef5ea63          	bltu	a1,a5,cc0 <vprintfmt+0x48c>
     ad0:	00141793          	slli	a5,s0,0x1
     ad4:	00341413          	slli	s0,s0,0x3
     ad8:	00878433          	add	s0,a5,s0
     adc:	00170713          	addi	a4,a4,1
     ae0:	00d40433          	add	s0,s0,a3
     ae4:	00074683          	lbu	a3,0(a4)
     ae8:	fd040413          	addi	s0,s0,-48
     aec:	fd068793          	addi	a5,a3,-48
     af0:	fef5f0e3          	bleu	a5,a1,ad0 <vprintfmt+0x29c>
     af4:	00068513          	mv	a0,a3
     af8:	f8dff06f          	j	a84 <vprintfmt+0x250>
     afc:	00412783          	lw	a5,4(sp)
     b00:	00090593          	mv	a1,s2
     b04:	0007a503          	lw	a0,0(a5)
     b08:	00478c93          	addi	s9,a5,4
     b0c:	000980e7          	jalr	s3
     b10:	01912223          	sw	s9,4(sp)
     b14:	d99ff06f          	j	8ac <vprintfmt+0x78>
     b18:	00412783          	lw	a5,4(sp)
     b1c:	0007ac03          	lw	s8,0(a5)
     b20:	00478c93          	addi	s9,a5,4
     b24:	160c0c63          	beqz	s8,c9c <vprintfmt+0x468>
     b28:	03605c63          	blez	s6,b60 <vprintfmt+0x32c>
     b2c:	00012783          	lw	a5,0(sp)
     b30:	02d00713          	li	a4,45
     b34:	14e78c63          	beq	a5,a4,c8c <vprintfmt+0x458>
     b38:	00040593          	mv	a1,s0
     b3c:	000c0513          	mv	a0,s8
     b40:	239000ef          	jal	1578 <strnlen>
     b44:	40ab0b33          	sub	s6,s6,a0
     b48:	01605c63          	blez	s6,b60 <vprintfmt+0x32c>
     b4c:	00012503          	lw	a0,0(sp)
     b50:	fffb0b13          	addi	s6,s6,-1
     b54:	00090593          	mv	a1,s2
     b58:	000980e7          	jalr	s3
     b5c:	fe0b18e3          	bnez	s6,b4c <vprintfmt+0x318>
     b60:	000c4503          	lbu	a0,0(s8)
     b64:	04050263          	beqz	a0,ba8 <vprintfmt+0x374>
     b68:	fff00a13          	li	s4,-1
     b6c:	00044663          	bltz	s0,b78 <vprintfmt+0x344>
     b70:	fff40413          	addi	s0,s0,-1
     b74:	01440e63          	beq	s0,s4,b90 <vprintfmt+0x35c>
     b78:	00090593          	mv	a1,s2
     b7c:	001c0c13          	addi	s8,s8,1
     b80:	000980e7          	jalr	s3
     b84:	000c4503          	lbu	a0,0(s8)
     b88:	fffb0b13          	addi	s6,s6,-1
     b8c:	fe0510e3          	bnez	a0,b6c <vprintfmt+0x338>
     b90:	01605c63          	blez	s6,ba8 <vprintfmt+0x374>
     b94:	fffb0b13          	addi	s6,s6,-1
     b98:	00090593          	mv	a1,s2
     b9c:	02000513          	li	a0,32
     ba0:	000980e7          	jalr	s3
     ba4:	fe0b18e3          	bnez	s6,b94 <vprintfmt+0x360>
     ba8:	01912223          	sw	s9,4(sp)
     bac:	d01ff06f          	j	8ac <vprintfmt+0x78>
     bb0:	00a00413          	li	s0,10
     bb4:	00000a13          	li	s4,0
     bb8:	da1ff06f          	j	958 <vprintfmt+0x124>
     bbc:	01000413          	li	s0,16
     bc0:	00000a13          	li	s4,0
     bc4:	d95ff06f          	j	958 <vprintfmt+0x124>
     bc8:	03000513          	li	a0,48
     bcc:	00090593          	mv	a1,s2
     bd0:	000980e7          	jalr	s3
     bd4:	00090593          	mv	a1,s2
     bd8:	07800513          	li	a0,120
     bdc:	000980e7          	jalr	s3
     be0:	01000413          	li	s0,16
     be4:	00000a13          	li	s4,0
     be8:	00412783          	lw	a5,4(sp)
     bec:	00000b93          	li	s7,0
     bf0:	0007ac83          	lw	s9,0(a5)
     bf4:	00478793          	addi	a5,a5,4
     bf8:	00f12223          	sw	a5,4(sp)
     bfc:	d81ff06f          	j	97c <vprintfmt+0x148>
     c00:	00100793          	li	a5,1
     c04:	0ac7d263          	ble	a2,a5,ca8 <vprintfmt+0x474>
     c08:	00412783          	lw	a5,4(sp)
     c0c:	00778793          	addi	a5,a5,7
     c10:	ff87f793          	andi	a5,a5,-8
     c14:	00878713          	addi	a4,a5,8
     c18:	0007a803          	lw	a6,0(a5)
     c1c:	0047a783          	lw	a5,4(a5)
     c20:	00e12223          	sw	a4,4(sp)
     c24:	00078b93          	mv	s7,a5
     c28:	00080c93          	mv	s9,a6
     c2c:	0407da63          	bgez	a5,c80 <vprintfmt+0x44c>
     c30:	00090593          	mv	a1,s2
     c34:	02d00513          	li	a0,45
     c38:	000980e7          	jalr	s3
     c3c:	41900833          	neg	a6,s9
     c40:	01003733          	snez	a4,a6
     c44:	417007b3          	neg	a5,s7
     c48:	00080c93          	mv	s9,a6
     c4c:	40e78bb3          	sub	s7,a5,a4
     c50:	00a00413          	li	s0,10
     c54:	00000a13          	li	s4,0
     c58:	d25ff06f          	j	97c <vprintfmt+0x148>
     c5c:	00174503          	lbu	a0,1(a4)
     c60:	00160613          	addi	a2,a2,1
     c64:	00048713          	mv	a4,s1
     c68:	c71ff06f          	j	8d8 <vprintfmt+0xa4>
     c6c:	00090593          	mv	a1,s2
     c70:	02500513          	li	a0,37
     c74:	000980e7          	jalr	s3
     c78:	000a0493          	mv	s1,s4
     c7c:	c31ff06f          	j	8ac <vprintfmt+0x78>
     c80:	00a00413          	li	s0,10
     c84:	00000a13          	li	s4,0
     c88:	cf5ff06f          	j	97c <vprintfmt+0x148>
     c8c:	000c4503          	lbu	a0,0(s8)
     c90:	f00502e3          	beqz	a0,b94 <vprintfmt+0x360>
     c94:	fff00a13          	li	s4,-1
     c98:	ed5ff06f          	j	b6c <vprintfmt+0x338>
     c9c:	000027b7          	lui	a5,0x2
     ca0:	5fc78c13          	addi	s8,a5,1532 # 25fc <__clz_tab+0x100>
     ca4:	e85ff06f          	j	b28 <vprintfmt+0x2f4>
     ca8:	00412783          	lw	a5,4(sp)
     cac:	0007a803          	lw	a6,0(a5)
     cb0:	00478793          	addi	a5,a5,4
     cb4:	00f12223          	sw	a5,4(sp)
     cb8:	41f85793          	srai	a5,a6,0x1f
     cbc:	f69ff06f          	j	c24 <vprintfmt+0x3f0>
     cc0:	00068513          	mv	a0,a3
     cc4:	00048713          	mv	a4,s1
     cc8:	dbdff06f          	j	a84 <vprintfmt+0x250>
     ccc:	cc8cf6e3          	bleu	s0,s9,998 <vprintfmt+0x164>
     cd0:	00100c13          	li	s8,1
     cd4:	fffb0413          	addi	s0,s6,-1
     cd8:	00000a13          	li	s4,0
     cdc:	00000d13          	li	s10,0
     ce0:	d16c48e3          	blt	s8,s6,9f0 <vprintfmt+0x1bc>
     ce4:	d3dff06f          	j	a20 <vprintfmt+0x1ec>

00000ce8 <tohost_exit>:
     ce8:	00151513          	slli	a0,a0,0x1
     cec:	00156793          	ori	a5,a0,1
     cf0:	78079073          	csrw	mtohost,a5
     cf4:	0000006f          	j	cf4 <tohost_exit+0xc>

00000cf8 <handle_trap>:
     cf8:	ff010113          	addi	sp,sp,-16
     cfc:	00812423          	sw	s0,8(sp)
     d00:	00112623          	sw	ra,12(sp)
     d04:	00200693          	li	a3,2
     d08:	01010413          	addi	s0,sp,16
     d0c:	0080076f          	jal	a4,d14 <handle_trap+0x1c>
     d10:	0c002573          	csrr	a0,stats
     d14:	f8010113          	addi	sp,sp,-128
     d18:	0ad50863          	beq	a0,a3,dc8 <handle_trap+0xd0>
     d1c:	00800713          	li	a4,8
     d20:	00e50a63          	beq	a0,a4,d34 <handle_trap+0x3c>
     d24:	000017b7          	lui	a5,0x1
     d28:	a7378793          	addi	a5,a5,-1421 # a73 <vprintfmt+0x23f>
     d2c:	78079073          	csrw	mtohost,a5
     d30:	0000006f          	j	d30 <handle_trap+0x38>
     d34:	04462703          	lw	a4,68(a2)
     d38:	05d00693          	li	a3,93
     d3c:	30d70063          	beq	a4,a3,103c <handle_trap+0x344>
     d40:	4d200693          	li	a3,1234
     d44:	08d70e63          	beq	a4,a3,de0 <handle_trap+0xe8>
     d48:	03f10793          	addi	a5,sp,63
     d4c:	fc07f793          	andi	a5,a5,-64
     d50:	02862303          	lw	t1,40(a2)
     d54:	00e7a023          	sw	a4,0(a5)
     d58:	41f75893          	srai	a7,a4,0x1f
     d5c:	0117a223          	sw	a7,4(a5)
     d60:	02c62503          	lw	a0,44(a2)
     d64:	0067a423          	sw	t1,8(a5)
     d68:	41f35f93          	srai	t6,t1,0x1f
     d6c:	01f7a623          	sw	t6,12(a5)
     d70:	03062683          	lw	a3,48(a2)
     d74:	00a7a823          	sw	a0,16(a5)
     d78:	41f55e93          	srai	t4,a0,0x1f
     d7c:	01d7aa23          	sw	t4,20(a5)
     d80:	00d7ac23          	sw	a3,24(a5)
     d84:	41f6d893          	srai	a7,a3,0x1f
     d88:	0117ae23          	sw	a7,28(a5)
     d8c:	0330000f          	fence	rw,rw
     d90:	78079073          	csrw	mtohost,a5
     d94:	00000713          	li	a4,0
     d98:	781716f3          	csrrw	a3,mfromhost,a4
     d9c:	fe068ee3          	beqz	a3,d98 <handle_trap+0xa0>
     da0:	0007a703          	lw	a4,0(a5)
     da4:	0047a783          	lw	a5,4(a5)
     da8:	00070793          	mv	a5,a4
     dac:	ff040113          	addi	sp,s0,-16
     db0:	00c12083          	lw	ra,12(sp)
     db4:	00458513          	addi	a0,a1,4
     db8:	00812403          	lw	s0,8(sp)
     dbc:	02f62423          	sw	a5,40(a2)
     dc0:	01010113          	addi	sp,sp,16
     dc4:	00008067          	ret
     dc8:	00072703          	lw	a4,0(a4)
     dcc:	0005a783          	lw	a5,0(a1)
     dd0:	00f777b3          	and	a5,a4,a5
     dd4:	f4f718e3          	bne	a4,a5,d24 <handle_trap+0x2c>
     dd8:	00000793          	li	a5,0
     ddc:	fd1ff06f          	j	dac <handle_trap+0xb4>
     de0:	02862703          	lw	a4,40(a2)
     de4:	00070463          	beqz	a4,dec <handle_trap+0xf4>
     de8:	0c00e573          	csrrs	a0,stats,1
     dec:	c0002573          	rdcycle	a0
     df0:	84418793          	addi	a5,gp,-1980 # 27c4 <counters>
     df4:	00071c63          	bnez	a4,e0c <handle_trap+0x114>
     df8:	0007a683          	lw	a3,0(a5)
     dfc:	40d50533          	sub	a0,a0,a3
     e00:	000026b7          	lui	a3,0x2
     e04:	60468693          	addi	a3,a3,1540 # 2604 <__clz_tab+0x108>
     e08:	04d7a423          	sw	a3,72(a5)
     e0c:	00a7a023          	sw	a0,0(a5)
     e10:	c0202573          	rdinstret	a0
     e14:	00071c63          	bnez	a4,e2c <handle_trap+0x134>
     e18:	0047a683          	lw	a3,4(a5)
     e1c:	40d50533          	sub	a0,a0,a3
     e20:	000026b7          	lui	a3,0x2
     e24:	60c68693          	addi	a3,a3,1548 # 260c <__clz_tab+0x110>
     e28:	04d7a623          	sw	a3,76(a5)
     e2c:	00a7a223          	sw	a0,4(a5)
     e30:	cc002573          	csrr	a0,uarch0
     e34:	00071c63          	bnez	a4,e4c <handle_trap+0x154>
     e38:	0087a683          	lw	a3,8(a5)
     e3c:	40d50533          	sub	a0,a0,a3
     e40:	000026b7          	lui	a3,0x2
     e44:	61468693          	addi	a3,a3,1556 # 2614 <__clz_tab+0x118>
     e48:	04d7a823          	sw	a3,80(a5)
     e4c:	00a7a423          	sw	a0,8(a5)
     e50:	cc102573          	csrr	a0,uarch1
     e54:	00071c63          	bnez	a4,e6c <handle_trap+0x174>
     e58:	00c7a683          	lw	a3,12(a5)
     e5c:	40d50533          	sub	a0,a0,a3
     e60:	000026b7          	lui	a3,0x2
     e64:	61c68693          	addi	a3,a3,1564 # 261c <__clz_tab+0x120>
     e68:	04d7aa23          	sw	a3,84(a5)
     e6c:	00a7a623          	sw	a0,12(a5)
     e70:	cc202573          	csrr	a0,uarch2
     e74:	00071c63          	bnez	a4,e8c <handle_trap+0x194>
     e78:	0107a683          	lw	a3,16(a5)
     e7c:	40d50533          	sub	a0,a0,a3
     e80:	000026b7          	lui	a3,0x2
     e84:	62468693          	addi	a3,a3,1572 # 2624 <__clz_tab+0x128>
     e88:	04d7ac23          	sw	a3,88(a5)
     e8c:	00a7a823          	sw	a0,16(a5)
     e90:	cc302573          	csrr	a0,uarch3
     e94:	00071c63          	bnez	a4,eac <handle_trap+0x1b4>
     e98:	0147a683          	lw	a3,20(a5)
     e9c:	40d50533          	sub	a0,a0,a3
     ea0:	000026b7          	lui	a3,0x2
     ea4:	62c68693          	addi	a3,a3,1580 # 262c <__clz_tab+0x130>
     ea8:	04d7ae23          	sw	a3,92(a5)
     eac:	00a7aa23          	sw	a0,20(a5)
     eb0:	cc402573          	csrr	a0,uarch4
     eb4:	00071c63          	bnez	a4,ecc <handle_trap+0x1d4>
     eb8:	0187a683          	lw	a3,24(a5)
     ebc:	40d50533          	sub	a0,a0,a3
     ec0:	000026b7          	lui	a3,0x2
     ec4:	63468693          	addi	a3,a3,1588 # 2634 <__clz_tab+0x138>
     ec8:	06d7a023          	sw	a3,96(a5)
     ecc:	00a7ac23          	sw	a0,24(a5)
     ed0:	cc502573          	csrr	a0,uarch5
     ed4:	00071c63          	bnez	a4,eec <handle_trap+0x1f4>
     ed8:	01c7a683          	lw	a3,28(a5)
     edc:	40d50533          	sub	a0,a0,a3
     ee0:	000026b7          	lui	a3,0x2
     ee4:	63c68693          	addi	a3,a3,1596 # 263c <__clz_tab+0x140>
     ee8:	06d7a223          	sw	a3,100(a5)
     eec:	00a7ae23          	sw	a0,28(a5)
     ef0:	cc602573          	csrr	a0,uarch6
     ef4:	00071c63          	bnez	a4,f0c <handle_trap+0x214>
     ef8:	0207a683          	lw	a3,32(a5)
     efc:	40d50533          	sub	a0,a0,a3
     f00:	000026b7          	lui	a3,0x2
     f04:	64468693          	addi	a3,a3,1604 # 2644 <__clz_tab+0x148>
     f08:	06d7a423          	sw	a3,104(a5)
     f0c:	02a7a023          	sw	a0,32(a5)
     f10:	cc702573          	csrr	a0,uarch7
     f14:	00071c63          	bnez	a4,f2c <handle_trap+0x234>
     f18:	0247a683          	lw	a3,36(a5)
     f1c:	40d50533          	sub	a0,a0,a3
     f20:	000026b7          	lui	a3,0x2
     f24:	64c68693          	addi	a3,a3,1612 # 264c <__clz_tab+0x150>
     f28:	06d7a623          	sw	a3,108(a5)
     f2c:	02a7a223          	sw	a0,36(a5)
     f30:	cc802573          	csrr	a0,uarch8
     f34:	00071c63          	bnez	a4,f4c <handle_trap+0x254>
     f38:	0287a683          	lw	a3,40(a5)
     f3c:	40d50533          	sub	a0,a0,a3
     f40:	000026b7          	lui	a3,0x2
     f44:	65468693          	addi	a3,a3,1620 # 2654 <__clz_tab+0x158>
     f48:	06d7a823          	sw	a3,112(a5)
     f4c:	02a7a423          	sw	a0,40(a5)
     f50:	cc902573          	csrr	a0,uarch9
     f54:	00071c63          	bnez	a4,f6c <handle_trap+0x274>
     f58:	02c7a683          	lw	a3,44(a5)
     f5c:	40d50533          	sub	a0,a0,a3
     f60:	000026b7          	lui	a3,0x2
     f64:	65c68693          	addi	a3,a3,1628 # 265c <__clz_tab+0x160>
     f68:	06d7aa23          	sw	a3,116(a5)
     f6c:	02a7a623          	sw	a0,44(a5)
     f70:	cca02573          	csrr	a0,uarch10
     f74:	00071c63          	bnez	a4,f8c <handle_trap+0x294>
     f78:	0307a683          	lw	a3,48(a5)
     f7c:	40d50533          	sub	a0,a0,a3
     f80:	000026b7          	lui	a3,0x2
     f84:	66468693          	addi	a3,a3,1636 # 2664 <__clz_tab+0x168>
     f88:	06d7ac23          	sw	a3,120(a5)
     f8c:	02a7a823          	sw	a0,48(a5)
     f90:	ccb02573          	csrr	a0,uarch11
     f94:	00071c63          	bnez	a4,fac <handle_trap+0x2b4>
     f98:	0347a683          	lw	a3,52(a5)
     f9c:	40d50533          	sub	a0,a0,a3
     fa0:	000026b7          	lui	a3,0x2
     fa4:	66c68693          	addi	a3,a3,1644 # 266c <__clz_tab+0x170>
     fa8:	06d7ae23          	sw	a3,124(a5)
     fac:	02a7aa23          	sw	a0,52(a5)
     fb0:	ccc02573          	csrr	a0,uarch12
     fb4:	00071c63          	bnez	a4,fcc <handle_trap+0x2d4>
     fb8:	0387a683          	lw	a3,56(a5)
     fbc:	40d50533          	sub	a0,a0,a3
     fc0:	000026b7          	lui	a3,0x2
     fc4:	67468693          	addi	a3,a3,1652 # 2674 <__clz_tab+0x178>
     fc8:	08d7a023          	sw	a3,128(a5)
     fcc:	02a7ac23          	sw	a0,56(a5)
     fd0:	ccd02573          	csrr	a0,uarch13
     fd4:	00071c63          	bnez	a4,fec <handle_trap+0x2f4>
     fd8:	03c7a683          	lw	a3,60(a5)
     fdc:	40d50533          	sub	a0,a0,a3
     fe0:	000026b7          	lui	a3,0x2
     fe4:	67c68693          	addi	a3,a3,1660 # 267c <__clz_tab+0x180>
     fe8:	08d7a223          	sw	a3,132(a5)
     fec:	02a7ae23          	sw	a0,60(a5)
     ff0:	cce02573          	csrr	a0,uarch14
     ff4:	00071c63          	bnez	a4,100c <handle_trap+0x314>
     ff8:	0407a683          	lw	a3,64(a5)
     ffc:	40d50533          	sub	a0,a0,a3
    1000:	000026b7          	lui	a3,0x2
    1004:	68468693          	addi	a3,a3,1668 # 2684 <__clz_tab+0x188>
    1008:	08d7a423          	sw	a3,136(a5)
    100c:	04a7a023          	sw	a0,64(a5)
    1010:	ccf02573          	csrr	a0,uarch15
    1014:	02071863          	bnez	a4,1044 <handle_trap+0x34c>
    1018:	0447a703          	lw	a4,68(a5)
    101c:	40e50533          	sub	a0,a0,a4
    1020:	00002737          	lui	a4,0x2
    1024:	68c70713          	addi	a4,a4,1676 # 268c <__clz_tab+0x190>
    1028:	08e7a623          	sw	a4,140(a5)
    102c:	04a7a223          	sw	a0,68(a5)
    1030:	0c00f573          	csrrc	a0,stats,1
    1034:	00000793          	li	a5,0
    1038:	d75ff06f          	j	dac <handle_trap+0xb4>
    103c:	02862503          	lw	a0,40(a2)
    1040:	ca9ff0ef          	jal	ce8 <tohost_exit>
    1044:	04a7a223          	sw	a0,68(a5)
    1048:	d91ff06f          	j	dd8 <handle_trap+0xe0>

0000104c <exit>:
    104c:	05d00893          	li	a7,93
    1050:	00000593          	li	a1,0
    1054:	00000613          	li	a2,0
    1058:	00000073          	ecall
    105c:	0000006f          	j	105c <exit+0x10>

00001060 <setStats>:
    1060:	4d200893          	li	a7,1234
    1064:	00000593          	li	a1,0
    1068:	00000613          	li	a2,0
    106c:	00000073          	ecall
    1070:	00008067          	ret

00001074 <printstr>:
    1074:	ff010113          	addi	sp,sp,-16
    1078:	00812423          	sw	s0,8(sp)
    107c:	00112623          	sw	ra,12(sp)
    1080:	00050413          	mv	s0,a0
    1084:	464000ef          	jal	14e8 <strlen>
    1088:	00050613          	mv	a2,a0
    108c:	04000893          	li	a7,64
    1090:	00100513          	li	a0,1
    1094:	00040593          	mv	a1,s0
    1098:	00000073          	ecall
    109c:	00c12083          	lw	ra,12(sp)
    10a0:	00812403          	lw	s0,8(sp)
    10a4:	01010113          	addi	sp,sp,16
    10a8:	00008067          	ret

000010ac <thread_entry>:
    10ac:	00050463          	beqz	a0,10b4 <thread_entry+0x8>
    10b0:	0000006f          	j	10b0 <thread_entry+0x4>
    10b4:	00008067          	ret

000010b8 <printhex>:
    10b8:	fd010113          	addi	sp,sp,-48
    10bc:	02112623          	sw	ra,44(sp)
    10c0:	01b10693          	addi	a3,sp,27
    10c4:	00b10893          	addi	a7,sp,11
    10c8:	00900813          	li	a6,9
    10cc:	00f57613          	andi	a2,a0,15
    10d0:	00c83733          	sltu	a4,a6,a2
    10d4:	40e00733          	neg	a4,a4
    10d8:	02777793          	andi	a5,a4,39
    10dc:	03078793          	addi	a5,a5,48
    10e0:	00c787b3          	add	a5,a5,a2
    10e4:	01c59713          	slli	a4,a1,0x1c
    10e8:	00f68023          	sb	a5,0(a3)
    10ec:	00455513          	srli	a0,a0,0x4
    10f0:	fff68693          	addi	a3,a3,-1
    10f4:	00a76533          	or	a0,a4,a0
    10f8:	0045d593          	srli	a1,a1,0x4
    10fc:	fd1698e3          	bne	a3,a7,10cc <printhex+0x14>
    1100:	00c10513          	addi	a0,sp,12
    1104:	00010e23          	sb	zero,28(sp)
    1108:	3e0000ef          	jal	14e8 <strlen>
    110c:	00050613          	mv	a2,a0
    1110:	04000893          	li	a7,64
    1114:	00100513          	li	a0,1
    1118:	00c10593          	addi	a1,sp,12
    111c:	00000073          	ecall
    1120:	02c12083          	lw	ra,44(sp)
    1124:	03010113          	addi	sp,sp,48
    1128:	00008067          	ret

0000112c <printf>:
    112c:	fc010113          	addi	sp,sp,-64
    1130:	02410313          	addi	t1,sp,36
    1134:	02c12423          	sw	a2,40(sp)
    1138:	00050613          	mv	a2,a0
    113c:	02b12223          	sw	a1,36(sp)
    1140:	02d12623          	sw	a3,44(sp)
    1144:	7d000513          	li	a0,2000
    1148:	00030693          	mv	a3,t1
    114c:	00000593          	li	a1,0
    1150:	00112e23          	sw	ra,28(sp)
    1154:	02e12823          	sw	a4,48(sp)
    1158:	02f12a23          	sw	a5,52(sp)
    115c:	03012c23          	sw	a6,56(sp)
    1160:	03112e23          	sw	a7,60(sp)
    1164:	00612623          	sw	t1,12(sp)
    1168:	eccff0ef          	jal	834 <vprintfmt>
    116c:	01c12083          	lw	ra,28(sp)
    1170:	00000513          	li	a0,0
    1174:	04010113          	addi	sp,sp,64
    1178:	00008067          	ret

0000117c <sprintf>:
    117c:	fb010113          	addi	sp,sp,-80
    1180:	03810313          	addi	t1,sp,56
    1184:	02812423          	sw	s0,40(sp)
    1188:	00a12623          	sw	a0,12(sp)
    118c:	00050413          	mv	s0,a0
    1190:	00001537          	lui	a0,0x1
    1194:	02c12c23          	sw	a2,56(sp)
    1198:	02d12e23          	sw	a3,60(sp)
    119c:	00058613          	mv	a2,a1
    11a0:	81c50513          	addi	a0,a0,-2020 # 81c <sprintf_putch.2960>
    11a4:	00c10593          	addi	a1,sp,12
    11a8:	00030693          	mv	a3,t1
    11ac:	02112623          	sw	ra,44(sp)
    11b0:	04f12223          	sw	a5,68(sp)
    11b4:	04e12023          	sw	a4,64(sp)
    11b8:	05012423          	sw	a6,72(sp)
    11bc:	05112623          	sw	a7,76(sp)
    11c0:	00612e23          	sw	t1,28(sp)
    11c4:	e70ff0ef          	jal	834 <vprintfmt>
    11c8:	00c12783          	lw	a5,12(sp)
    11cc:	00078023          	sb	zero,0(a5)
    11d0:	00c12503          	lw	a0,12(sp)
    11d4:	02c12083          	lw	ra,44(sp)
    11d8:	40850533          	sub	a0,a0,s0
    11dc:	02812403          	lw	s0,40(sp)
    11e0:	05010113          	addi	sp,sp,80
    11e4:	00008067          	ret

000011e8 <_init>:
    11e8:	fd010113          	addi	sp,sp,-48
    11ec:	02912223          	sw	s1,36(sp)
    11f0:	03212023          	sw	s2,32(sp)
    11f4:	00020913          	mv	s2,tp
    11f8:	00020493          	mv	s1,tp
    11fc:	409904b3          	sub	s1,s2,s1
    1200:	01412c23          	sw	s4,24(sp)
    1204:	00058a13          	mv	s4,a1
    1208:	02112623          	sw	ra,44(sp)
    120c:	02812423          	sw	s0,40(sp)
    1210:	01312e23          	sw	s3,28(sp)
    1214:	03010413          	addi	s0,sp,48
    1218:	01512a23          	sw	s5,20(sp)
    121c:	01612823          	sw	s6,16(sp)
    1220:	01712623          	sw	s7,12(sp)
    1224:	00050993          	mv	s3,a0
    1228:	d8010113          	addi	sp,sp,-640
    122c:	00020513          	mv	a0,tp
    1230:	00048613          	mv	a2,s1
    1234:	90018593          	addi	a1,gp,-1792 # 2880 <_end>
    1238:	00020b13          	mv	s6,tp
    123c:	0b0000ef          	jal	12ec <memcpy>
    1240:	04420613          	addi	a2,tp,68 # 44 <_tbss_end>
    1244:	41260633          	sub	a2,a2,s2
    1248:	009b0533          	add	a0,s6,s1
    124c:	00000593          	li	a1,0
    1250:	1bc000ef          	jal	140c <memset>
    1254:	000a0593          	mv	a1,s4
    1258:	00098513          	mv	a0,s3
    125c:	e51ff0ef          	jal	10ac <thread_entry>
    1260:	03f10a93          	addi	s5,sp,63
    1264:	00000593          	li	a1,0
    1268:	00000513          	li	a0,0
    126c:	84418493          	addi	s1,gp,-1980 # 27c4 <counters>
    1270:	fc0afa93          	andi	s5,s5,-64
    1274:	004010ef          	jal	2278 <main>
    1278:	04848913          	addi	s2,s1,72
    127c:	00050b93          	mv	s7,a0
    1280:	00090993          	mv	s3,s2
    1284:	000a8a13          	mv	s4,s5
    1288:	00002b37          	lui	s6,0x2
    128c:	0100006f          	j	129c <_init+0xb4>
    1290:	00448493          	addi	s1,s1,4
    1294:	00490913          	addi	s2,s2,4
    1298:	03348663          	beq	s1,s3,12c4 <_init+0xdc>
    129c:	0004a683          	lw	a3,0(s1)
    12a0:	fe0688e3          	beqz	a3,1290 <_init+0xa8>
    12a4:	00092603          	lw	a2,0(s2)
    12a8:	000a0513          	mv	a0,s4
    12ac:	6acb0593          	addi	a1,s6,1708 # 26ac <__clz_tab+0x1b0>
    12b0:	ecdff0ef          	jal	117c <sprintf>
    12b4:	00448493          	addi	s1,s1,4
    12b8:	00aa0a33          	add	s4,s4,a0
    12bc:	00490913          	addi	s2,s2,4
    12c0:	fd349ee3          	bne	s1,s3,129c <_init+0xb4>
    12c4:	034a8063          	beq	s5,s4,12e4 <_init+0xfc>
    12c8:	000a8513          	mv	a0,s5
    12cc:	21c000ef          	jal	14e8 <strlen>
    12d0:	00050613          	mv	a2,a0
    12d4:	04000893          	li	a7,64
    12d8:	00100513          	li	a0,1
    12dc:	000a8593          	mv	a1,s5
    12e0:	00000073          	ecall
    12e4:	000b8513          	mv	a0,s7
    12e8:	d65ff0ef          	jal	104c <exit>

000012ec <memcpy>:
    12ec:	00a5c7b3          	xor	a5,a1,a0
    12f0:	0037f793          	andi	a5,a5,3
    12f4:	00c508b3          	add	a7,a0,a2
    12f8:	0e079263          	bnez	a5,13dc <memcpy+0xf0>
    12fc:	00300793          	li	a5,3
    1300:	0ec7fe63          	bleu	a2,a5,13fc <memcpy+0x110>
    1304:	00357793          	andi	a5,a0,3
    1308:	04079a63          	bnez	a5,135c <memcpy+0x70>
    130c:	ffc8f813          	andi	a6,a7,-4
    1310:	fe080793          	addi	a5,a6,-32
    1314:	00050713          	mv	a4,a0
    1318:	06f56663          	bltu	a0,a5,1384 <memcpy+0x98>
    131c:	00058693          	mv	a3,a1
    1320:	00070793          	mv	a5,a4
    1324:	03077863          	bleu	a6,a4,1354 <memcpy+0x68>
    1328:	0006a603          	lw	a2,0(a3)
    132c:	00478793          	addi	a5,a5,4
    1330:	00468693          	addi	a3,a3,4
    1334:	fec7ae23          	sw	a2,-4(a5)
    1338:	ff07e8e3          	bltu	a5,a6,1328 <memcpy+0x3c>
    133c:	fff74793          	not	a5,a4
    1340:	01078833          	add	a6,a5,a6
    1344:	ffc87813          	andi	a6,a6,-4
    1348:	00480813          	addi	a6,a6,4
    134c:	01070733          	add	a4,a4,a6
    1350:	010585b3          	add	a1,a1,a6
    1354:	09176863          	bltu	a4,a7,13e4 <memcpy+0xf8>
    1358:	00008067          	ret
    135c:	00050713          	mv	a4,a0
    1360:	0005c683          	lbu	a3,0(a1)
    1364:	00170713          	addi	a4,a4,1
    1368:	00377793          	andi	a5,a4,3
    136c:	fed70fa3          	sb	a3,-1(a4)
    1370:	00158593          	addi	a1,a1,1
    1374:	fe0796e3          	bnez	a5,1360 <memcpy+0x74>
    1378:	ffc8f813          	andi	a6,a7,-4
    137c:	fe080793          	addi	a5,a6,-32
    1380:	f8f77ee3          	bleu	a5,a4,131c <memcpy+0x30>
    1384:	0005a383          	lw	t2,0(a1)
    1388:	0045a283          	lw	t0,4(a1)
    138c:	0085af83          	lw	t6,8(a1)
    1390:	00c5af03          	lw	t5,12(a1)
    1394:	0105ae83          	lw	t4,16(a1)
    1398:	0145ae03          	lw	t3,20(a1)
    139c:	0185a303          	lw	t1,24(a1)
    13a0:	01c5a603          	lw	a2,28(a1)
    13a4:	02458593          	addi	a1,a1,36
    13a8:	02470713          	addi	a4,a4,36
    13ac:	ffc5a683          	lw	a3,-4(a1)
    13b0:	fc772e23          	sw	t2,-36(a4)
    13b4:	fe572023          	sw	t0,-32(a4)
    13b8:	fff72223          	sw	t6,-28(a4)
    13bc:	ffe72423          	sw	t5,-24(a4)
    13c0:	ffd72623          	sw	t4,-20(a4)
    13c4:	ffc72823          	sw	t3,-16(a4)
    13c8:	fe672a23          	sw	t1,-12(a4)
    13cc:	fec72c23          	sw	a2,-8(a4)
    13d0:	fed72e23          	sw	a3,-4(a4)
    13d4:	faf768e3          	bltu	a4,a5,1384 <memcpy+0x98>
    13d8:	f45ff06f          	j	131c <memcpy+0x30>
    13dc:	00050713          	mv	a4,a0
    13e0:	03157463          	bleu	a7,a0,1408 <memcpy+0x11c>
    13e4:	0005c783          	lbu	a5,0(a1)
    13e8:	00170713          	addi	a4,a4,1
    13ec:	00158593          	addi	a1,a1,1
    13f0:	fef70fa3          	sb	a5,-1(a4)
    13f4:	ff1768e3          	bltu	a4,a7,13e4 <memcpy+0xf8>
    13f8:	00008067          	ret
    13fc:	00050713          	mv	a4,a0
    1400:	ff1562e3          	bltu	a0,a7,13e4 <memcpy+0xf8>
    1404:	f55ff06f          	j	1358 <memcpy+0x6c>
    1408:	00008067          	ret

0000140c <memset>:
    140c:	00f00813          	li	a6,15
    1410:	00050713          	mv	a4,a0
    1414:	02c87e63          	bleu	a2,a6,1450 <memset+0x44>
    1418:	00f77793          	andi	a5,a4,15
    141c:	0a079063          	bnez	a5,14bc <memset+0xb0>
    1420:	08059263          	bnez	a1,14a4 <memset+0x98>
    1424:	ff067693          	andi	a3,a2,-16
    1428:	00f67613          	andi	a2,a2,15
    142c:	00e686b3          	add	a3,a3,a4
    1430:	00b72023          	sw	a1,0(a4)
    1434:	00b72223          	sw	a1,4(a4)
    1438:	00b72423          	sw	a1,8(a4)
    143c:	00b72623          	sw	a1,12(a4)
    1440:	01070713          	addi	a4,a4,16
    1444:	fed766e3          	bltu	a4,a3,1430 <memset+0x24>
    1448:	00061463          	bnez	a2,1450 <memset+0x44>
    144c:	00008067          	ret
    1450:	40c806b3          	sub	a3,a6,a2
    1454:	00269693          	slli	a3,a3,0x2
    1458:	00000297          	auipc	t0,0x0
    145c:	005686b3          	add	a3,a3,t0
    1460:	00c68067          	jr	a3,12
    1464:	00b70723          	sb	a1,14(a4)
    1468:	00b706a3          	sb	a1,13(a4)
    146c:	00b70623          	sb	a1,12(a4)
    1470:	00b705a3          	sb	a1,11(a4)
    1474:	00b70523          	sb	a1,10(a4)
    1478:	00b704a3          	sb	a1,9(a4)
    147c:	00b70423          	sb	a1,8(a4)
    1480:	00b703a3          	sb	a1,7(a4)
    1484:	00b70323          	sb	a1,6(a4)
    1488:	00b702a3          	sb	a1,5(a4)
    148c:	00b70223          	sb	a1,4(a4)
    1490:	00b701a3          	sb	a1,3(a4)
    1494:	00b70123          	sb	a1,2(a4)
    1498:	00b700a3          	sb	a1,1(a4)
    149c:	00b70023          	sb	a1,0(a4)
    14a0:	00008067          	ret
    14a4:	0ff5f593          	andi	a1,a1,255
    14a8:	00859693          	slli	a3,a1,0x8
    14ac:	00d5e5b3          	or	a1,a1,a3
    14b0:	01059693          	slli	a3,a1,0x10
    14b4:	00d5e5b3          	or	a1,a1,a3
    14b8:	f6dff06f          	j	1424 <memset+0x18>
    14bc:	00279693          	slli	a3,a5,0x2
    14c0:	00000297          	auipc	t0,0x0
    14c4:	005686b3          	add	a3,a3,t0
    14c8:	00008293          	mv	t0,ra
    14cc:	fa0680e7          	jalr	a3,-96
    14d0:	00028093          	mv	ra,t0
    14d4:	ff078793          	addi	a5,a5,-16
    14d8:	40f70733          	sub	a4,a4,a5
    14dc:	00f60633          	add	a2,a2,a5
    14e0:	f6c878e3          	bleu	a2,a6,1450 <memset+0x44>
    14e4:	f3dff06f          	j	1420 <memset+0x14>

000014e8 <strlen>:
    14e8:	00357793          	andi	a5,a0,3
    14ec:	00050593          	mv	a1,a0
    14f0:	04079a63          	bnez	a5,1544 <strlen+0x5c>
    14f4:	7f7f86b7          	lui	a3,0x7f7f8
    14f8:	f7f68693          	addi	a3,a3,-129 # 7f7f7f7f <_gp+0x7f7f4fff>
    14fc:	fff00613          	li	a2,-1
    1500:	00450513          	addi	a0,a0,4
    1504:	ffc52783          	lw	a5,-4(a0)
    1508:	00d7f733          	and	a4,a5,a3
    150c:	00d70733          	add	a4,a4,a3
    1510:	00d7e7b3          	or	a5,a5,a3
    1514:	00f767b3          	or	a5,a4,a5
    1518:	fec784e3          	beq	a5,a2,1500 <strlen+0x18>
    151c:	ffc54703          	lbu	a4,-4(a0)
    1520:	40b507b3          	sub	a5,a0,a1
    1524:	ffd54683          	lbu	a3,-3(a0)
    1528:	ffe54603          	lbu	a2,-2(a0)
    152c:	02070e63          	beqz	a4,1568 <strlen+0x80>
    1530:	02068863          	beqz	a3,1560 <strlen+0x78>
    1534:	fff78513          	addi	a0,a5,-1
    1538:	02060c63          	beqz	a2,1570 <strlen+0x88>
    153c:	00008067          	ret
    1540:	fa070ae3          	beqz	a4,14f4 <strlen+0xc>
    1544:	00054783          	lbu	a5,0(a0)
    1548:	00150513          	addi	a0,a0,1
    154c:	00357713          	andi	a4,a0,3
    1550:	fe0798e3          	bnez	a5,1540 <strlen+0x58>
    1554:	40b50533          	sub	a0,a0,a1
    1558:	fff50513          	addi	a0,a0,-1
    155c:	00008067          	ret
    1560:	ffd78513          	addi	a0,a5,-3
    1564:	00008067          	ret
    1568:	ffc78513          	addi	a0,a5,-4
    156c:	00008067          	ret
    1570:	ffe78513          	addi	a0,a5,-2
    1574:	00008067          	ret

00001578 <strnlen>:
    1578:	02058e63          	beqz	a1,15b4 <strnlen+0x3c>
    157c:	00054783          	lbu	a5,0(a0)
    1580:	02078a63          	beqz	a5,15b4 <strnlen+0x3c>
    1584:	00150793          	addi	a5,a0,1
    1588:	00b505b3          	add	a1,a0,a1
    158c:	0100006f          	j	159c <strnlen+0x24>
    1590:	fff74683          	lbu	a3,-1(a4)
    1594:	00068c63          	beqz	a3,15ac <strnlen+0x34>
    1598:	00070793          	mv	a5,a4
    159c:	00178713          	addi	a4,a5,1
    15a0:	fef598e3          	bne	a1,a5,1590 <strnlen+0x18>
    15a4:	40a58533          	sub	a0,a1,a0
    15a8:	00008067          	ret
    15ac:	40a78533          	sub	a0,a5,a0
    15b0:	00008067          	ret
    15b4:	00000513          	li	a0,0
    15b8:	00008067          	ret

000015bc <__udivdi3>:
    15bc:	fd010113          	addi	sp,sp,-48
    15c0:	02912223          	sw	s1,36(sp)
    15c4:	01312e23          	sw	s3,28(sp)
    15c8:	01412c23          	sw	s4,24(sp)
    15cc:	02112623          	sw	ra,44(sp)
    15d0:	02812423          	sw	s0,40(sp)
    15d4:	03212023          	sw	s2,32(sp)
    15d8:	01512a23          	sw	s5,20(sp)
    15dc:	01612823          	sw	s6,16(sp)
    15e0:	01712623          	sw	s7,12(sp)
    15e4:	01812423          	sw	s8,8(sp)
    15e8:	01912223          	sw	s9,4(sp)
    15ec:	01a12023          	sw	s10,0(sp)
    15f0:	00050a13          	mv	s4,a0
    15f4:	00058493          	mv	s1,a1
    15f8:	00058993          	mv	s3,a1
    15fc:	12069063          	bnez	a3,171c <__udivdi3+0x160>
    1600:	00060413          	mv	s0,a2
    1604:	00050913          	mv	s2,a0
    1608:	16c5fa63          	bleu	a2,a1,177c <__udivdi3+0x1c0>
    160c:	000107b7          	lui	a5,0x10
    1610:	2ef67463          	bleu	a5,a2,18f8 <__udivdi3+0x33c>
    1614:	0ff00793          	li	a5,255
    1618:	00c7b7b3          	sltu	a5,a5,a2
    161c:	00379793          	slli	a5,a5,0x3
    1620:	00002737          	lui	a4,0x2
    1624:	00f656b3          	srl	a3,a2,a5
    1628:	4fc70713          	addi	a4,a4,1276 # 24fc <__clz_tab>
    162c:	00e68733          	add	a4,a3,a4
    1630:	00074703          	lbu	a4,0(a4)
    1634:	00f707b3          	add	a5,a4,a5
    1638:	02000713          	li	a4,32
    163c:	40f70733          	sub	a4,a4,a5
    1640:	00070c63          	beqz	a4,1658 <__udivdi3+0x9c>
    1644:	00e494b3          	sll	s1,s1,a4
    1648:	00fa57b3          	srl	a5,s4,a5
    164c:	00e61433          	sll	s0,a2,a4
    1650:	0097e9b3          	or	s3,a5,s1
    1654:	00ea1933          	sll	s2,s4,a4
    1658:	01045b13          	srli	s6,s0,0x10
    165c:	000b0593          	mv	a1,s6
    1660:	00098513          	mv	a0,s3
    1664:	3b1000ef          	jal	2214 <__umodsi3>
    1668:	00050a13          	mv	s4,a0
    166c:	000b0593          	mv	a1,s6
    1670:	00098513          	mv	a0,s3
    1674:	01041b93          	slli	s7,s0,0x10
    1678:	355000ef          	jal	21cc <__udivsi3>
    167c:	010bdb93          	srli	s7,s7,0x10
    1680:	00050593          	mv	a1,a0
    1684:	00050a93          	mv	s5,a0
    1688:	000b8513          	mv	a0,s7
    168c:	315000ef          	jal	21a0 <__mulsi3>
    1690:	010a1a13          	slli	s4,s4,0x10
    1694:	01095793          	srli	a5,s2,0x10
    1698:	0147e7b3          	or	a5,a5,s4
    169c:	00a7fc63          	bleu	a0,a5,16b4 <__udivdi3+0xf8>
    16a0:	008787b3          	add	a5,a5,s0
    16a4:	fffa8713          	addi	a4,s5,-1
    16a8:	0087e463          	bltu	a5,s0,16b0 <__udivdi3+0xf4>
    16ac:	52a7e463          	bltu	a5,a0,1bd4 <__udivdi3+0x618>
    16b0:	00070a93          	mv	s5,a4
    16b4:	40a784b3          	sub	s1,a5,a0
    16b8:	000b0593          	mv	a1,s6
    16bc:	00048513          	mv	a0,s1
    16c0:	355000ef          	jal	2214 <__umodsi3>
    16c4:	00050993          	mv	s3,a0
    16c8:	000b0593          	mv	a1,s6
    16cc:	00048513          	mv	a0,s1
    16d0:	2fd000ef          	jal	21cc <__udivsi3>
    16d4:	01091913          	slli	s2,s2,0x10
    16d8:	00050593          	mv	a1,a0
    16dc:	00050493          	mv	s1,a0
    16e0:	01099993          	slli	s3,s3,0x10
    16e4:	000b8513          	mv	a0,s7
    16e8:	01095913          	srli	s2,s2,0x10
    16ec:	2b5000ef          	jal	21a0 <__mulsi3>
    16f0:	01396933          	or	s2,s2,s3
    16f4:	00a97c63          	bleu	a0,s2,170c <__udivdi3+0x150>
    16f8:	01240933          	add	s2,s0,s2
    16fc:	fff48793          	addi	a5,s1,-1
    1700:	46896263          	bltu	s2,s0,1b64 <__udivdi3+0x5a8>
    1704:	ffe48493          	addi	s1,s1,-2
    1708:	44a97e63          	bleu	a0,s2,1b64 <__udivdi3+0x5a8>
    170c:	010a9513          	slli	a0,s5,0x10
    1710:	00956533          	or	a0,a0,s1
    1714:	00000a93          	li	s5,0
    1718:	1840006f          	j	189c <__udivdi3+0x2e0>
    171c:	00068793          	mv	a5,a3
    1720:	16d5ea63          	bltu	a1,a3,1894 <__udivdi3+0x2d8>
    1724:	00010737          	lui	a4,0x10
    1728:	1ae6e863          	bltu	a3,a4,18d8 <__udivdi3+0x31c>
    172c:	01000737          	lui	a4,0x1000
    1730:	00e6b733          	sltu	a4,a3,a4
    1734:	00174713          	xori	a4,a4,1
    1738:	40e00733          	neg	a4,a4
    173c:	00877713          	andi	a4,a4,8
    1740:	01070713          	addi	a4,a4,16 # 1000010 <_gp+0xffd090>
    1744:	000025b7          	lui	a1,0x2
    1748:	00e6d533          	srl	a0,a3,a4
    174c:	4fc58593          	addi	a1,a1,1276 # 24fc <__clz_tab>
    1750:	00b505b3          	add	a1,a0,a1
    1754:	0005c583          	lbu	a1,0(a1)
    1758:	02000a93          	li	s5,32
    175c:	00e58733          	add	a4,a1,a4
    1760:	40ea8ab3          	sub	s5,s5,a4
    1764:	1a0a9863          	bnez	s5,1914 <__udivdi3+0x358>
    1768:	00100513          	li	a0,1
    176c:	1337e863          	bltu	a5,s3,189c <__udivdi3+0x2e0>
    1770:	00ca3533          	sltu	a0,s4,a2
    1774:	00154513          	xori	a0,a0,1
    1778:	1240006f          	j	189c <__udivdi3+0x2e0>
    177c:	00061a63          	bnez	a2,1790 <__udivdi3+0x1d4>
    1780:	00000593          	li	a1,0
    1784:	00100513          	li	a0,1
    1788:	245000ef          	jal	21cc <__udivsi3>
    178c:	00050413          	mv	s0,a0
    1790:	000107b7          	lui	a5,0x10
    1794:	14f46a63          	bltu	s0,a5,18e8 <__udivdi3+0x32c>
    1798:	010007b7          	lui	a5,0x1000
    179c:	00f437b3          	sltu	a5,s0,a5
    17a0:	0017c793          	xori	a5,a5,1
    17a4:	40f007b3          	neg	a5,a5
    17a8:	0087f793          	andi	a5,a5,8
    17ac:	01078793          	addi	a5,a5,16 # 1000010 <_gp+0xffd090>
    17b0:	00002737          	lui	a4,0x2
    17b4:	00f456b3          	srl	a3,s0,a5
    17b8:	4fc70713          	addi	a4,a4,1276 # 24fc <__clz_tab>
    17bc:	00e68733          	add	a4,a3,a4
    17c0:	00074703          	lbu	a4,0(a4)
    17c4:	00f707b3          	add	a5,a4,a5
    17c8:	02000713          	li	a4,32
    17cc:	40f70733          	sub	a4,a4,a5
    17d0:	2a071263          	bnez	a4,1a74 <__udivdi3+0x4b8>
    17d4:	01041b13          	slli	s6,s0,0x10
    17d8:	408484b3          	sub	s1,s1,s0
    17dc:	01045b93          	srli	s7,s0,0x10
    17e0:	010b5b13          	srli	s6,s6,0x10
    17e4:	00100a93          	li	s5,1
    17e8:	000b8593          	mv	a1,s7
    17ec:	00048513          	mv	a0,s1
    17f0:	225000ef          	jal	2214 <__umodsi3>
    17f4:	00050993          	mv	s3,a0
    17f8:	000b8593          	mv	a1,s7
    17fc:	00048513          	mv	a0,s1
    1800:	1cd000ef          	jal	21cc <__udivsi3>
    1804:	000b0593          	mv	a1,s6
    1808:	00050a13          	mv	s4,a0
    180c:	195000ef          	jal	21a0 <__mulsi3>
    1810:	01099993          	slli	s3,s3,0x10
    1814:	01095793          	srli	a5,s2,0x10
    1818:	0137e7b3          	or	a5,a5,s3
    181c:	00a7fc63          	bleu	a0,a5,1834 <__udivdi3+0x278>
    1820:	008787b3          	add	a5,a5,s0
    1824:	fffa0713          	addi	a4,s4,-1
    1828:	0087e463          	bltu	a5,s0,1830 <__udivdi3+0x274>
    182c:	38a7ee63          	bltu	a5,a0,1bc8 <__udivdi3+0x60c>
    1830:	00070a13          	mv	s4,a4
    1834:	40a784b3          	sub	s1,a5,a0
    1838:	000b8593          	mv	a1,s7
    183c:	00048513          	mv	a0,s1
    1840:	1d5000ef          	jal	2214 <__umodsi3>
    1844:	00050993          	mv	s3,a0
    1848:	000b8593          	mv	a1,s7
    184c:	00048513          	mv	a0,s1
    1850:	17d000ef          	jal	21cc <__udivsi3>
    1854:	01091913          	slli	s2,s2,0x10
    1858:	000b0593          	mv	a1,s6
    185c:	01099993          	slli	s3,s3,0x10
    1860:	01095913          	srli	s2,s2,0x10
    1864:	00050493          	mv	s1,a0
    1868:	01396933          	or	s2,s2,s3
    186c:	135000ef          	jal	21a0 <__mulsi3>
    1870:	00a97c63          	bleu	a0,s2,1888 <__udivdi3+0x2cc>
    1874:	01240933          	add	s2,s0,s2
    1878:	fff48793          	addi	a5,s1,-1
    187c:	2e896063          	bltu	s2,s0,1b5c <__udivdi3+0x5a0>
    1880:	ffe48493          	addi	s1,s1,-2
    1884:	2ca97c63          	bleu	a0,s2,1b5c <__udivdi3+0x5a0>
    1888:	010a1513          	slli	a0,s4,0x10
    188c:	00956533          	or	a0,a0,s1
    1890:	00c0006f          	j	189c <__udivdi3+0x2e0>
    1894:	00000a93          	li	s5,0
    1898:	00000513          	li	a0,0
    189c:	000a8593          	mv	a1,s5
    18a0:	02c12083          	lw	ra,44(sp)
    18a4:	02812403          	lw	s0,40(sp)
    18a8:	02412483          	lw	s1,36(sp)
    18ac:	02012903          	lw	s2,32(sp)
    18b0:	01c12983          	lw	s3,28(sp)
    18b4:	01812a03          	lw	s4,24(sp)
    18b8:	01412a83          	lw	s5,20(sp)
    18bc:	01012b03          	lw	s6,16(sp)
    18c0:	00c12b83          	lw	s7,12(sp)
    18c4:	00812c03          	lw	s8,8(sp)
    18c8:	00412c83          	lw	s9,4(sp)
    18cc:	00012d03          	lw	s10,0(sp)
    18d0:	03010113          	addi	sp,sp,48
    18d4:	00008067          	ret
    18d8:	0ff00713          	li	a4,255
    18dc:	00d73733          	sltu	a4,a4,a3
    18e0:	00371713          	slli	a4,a4,0x3
    18e4:	e61ff06f          	j	1744 <__udivdi3+0x188>
    18e8:	0ff00793          	li	a5,255
    18ec:	0087b7b3          	sltu	a5,a5,s0
    18f0:	00379793          	slli	a5,a5,0x3
    18f4:	ebdff06f          	j	17b0 <__udivdi3+0x1f4>
    18f8:	010007b7          	lui	a5,0x1000
    18fc:	00f637b3          	sltu	a5,a2,a5
    1900:	0017c793          	xori	a5,a5,1
    1904:	40f007b3          	neg	a5,a5
    1908:	0087f793          	andi	a5,a5,8
    190c:	01078793          	addi	a5,a5,16 # 1000010 <_gp+0xffd090>
    1910:	d11ff06f          	j	1620 <__udivdi3+0x64>
    1914:	00e65cb3          	srl	s9,a2,a4
    1918:	015696b3          	sll	a3,a3,s5
    191c:	0196ecb3          	or	s9,a3,s9
    1920:	00e4d433          	srl	s0,s1,a4
    1924:	010cd993          	srli	s3,s9,0x10
    1928:	00ea5733          	srl	a4,s4,a4
    192c:	00098593          	mv	a1,s3
    1930:	015494b3          	sll	s1,s1,s5
    1934:	00040513          	mv	a0,s0
    1938:	009764b3          	or	s1,a4,s1
    193c:	01561b33          	sll	s6,a2,s5
    1940:	0d5000ef          	jal	2214 <__umodsi3>
    1944:	00050913          	mv	s2,a0
    1948:	00098593          	mv	a1,s3
    194c:	010c9c13          	slli	s8,s9,0x10
    1950:	00040513          	mv	a0,s0
    1954:	079000ef          	jal	21cc <__udivsi3>
    1958:	010c5c13          	srli	s8,s8,0x10
    195c:	00050593          	mv	a1,a0
    1960:	00050b93          	mv	s7,a0
    1964:	000c0513          	mv	a0,s8
    1968:	039000ef          	jal	21a0 <__mulsi3>
    196c:	01091913          	slli	s2,s2,0x10
    1970:	0104d793          	srli	a5,s1,0x10
    1974:	0127e7b3          	or	a5,a5,s2
    1978:	00a7fa63          	bleu	a0,a5,198c <__udivdi3+0x3d0>
    197c:	019787b3          	add	a5,a5,s9
    1980:	fffb8713          	addi	a4,s7,-1
    1984:	2397f263          	bleu	s9,a5,1ba8 <__udivdi3+0x5ec>
    1988:	00070b93          	mv	s7,a4
    198c:	40a78433          	sub	s0,a5,a0
    1990:	00098593          	mv	a1,s3
    1994:	00040513          	mv	a0,s0
    1998:	07d000ef          	jal	2214 <__umodsi3>
    199c:	00050913          	mv	s2,a0
    19a0:	00098593          	mv	a1,s3
    19a4:	00040513          	mv	a0,s0
    19a8:	025000ef          	jal	21cc <__udivsi3>
    19ac:	01049493          	slli	s1,s1,0x10
    19b0:	00050593          	mv	a1,a0
    19b4:	00050413          	mv	s0,a0
    19b8:	01091913          	slli	s2,s2,0x10
    19bc:	000c0513          	mv	a0,s8
    19c0:	0104d493          	srli	s1,s1,0x10
    19c4:	7dc000ef          	jal	21a0 <__mulsi3>
    19c8:	0124e4b3          	or	s1,s1,s2
    19cc:	00050793          	mv	a5,a0
    19d0:	00a4fa63          	bleu	a0,s1,19e4 <__udivdi3+0x428>
    19d4:	019484b3          	add	s1,s1,s9
    19d8:	fff40713          	addi	a4,s0,-1
    19dc:	1b94fe63          	bleu	s9,s1,1b98 <__udivdi3+0x5dc>
    19e0:	00070413          	mv	s0,a4
    19e4:	010b9b93          	slli	s7,s7,0x10
    19e8:	00010cb7          	lui	s9,0x10
    19ec:	008bebb3          	or	s7,s7,s0
    19f0:	fffc8413          	addi	s0,s9,-1 # ffff <_gp+0xd07f>
    19f4:	008bf9b3          	and	s3,s7,s0
    19f8:	008b7433          	and	s0,s6,s0
    19fc:	00040593          	mv	a1,s0
    1a00:	00098513          	mv	a0,s3
    1a04:	40f484b3          	sub	s1,s1,a5
    1a08:	010bdc13          	srli	s8,s7,0x10
    1a0c:	794000ef          	jal	21a0 <__mulsi3>
    1a10:	00040593          	mv	a1,s0
    1a14:	00050d13          	mv	s10,a0
    1a18:	000c0513          	mv	a0,s8
    1a1c:	784000ef          	jal	21a0 <__mulsi3>
    1a20:	010b5b13          	srli	s6,s6,0x10
    1a24:	00050913          	mv	s2,a0
    1a28:	000b0593          	mv	a1,s6
    1a2c:	000c0513          	mv	a0,s8
    1a30:	770000ef          	jal	21a0 <__mulsi3>
    1a34:	00050413          	mv	s0,a0
    1a38:	000b0593          	mv	a1,s6
    1a3c:	00098513          	mv	a0,s3
    1a40:	760000ef          	jal	21a0 <__mulsi3>
    1a44:	01250533          	add	a0,a0,s2
    1a48:	010d5793          	srli	a5,s10,0x10
    1a4c:	00a787b3          	add	a5,a5,a0
    1a50:	0127f463          	bleu	s2,a5,1a58 <__udivdi3+0x49c>
    1a54:	01940433          	add	s0,s0,s9
    1a58:	0107d513          	srli	a0,a5,0x10
    1a5c:	00850533          	add	a0,a0,s0
    1a60:	12a4e663          	bltu	s1,a0,1b8c <__udivdi3+0x5d0>
    1a64:	10a48463          	beq	s1,a0,1b6c <__udivdi3+0x5b0>
    1a68:	000b8513          	mv	a0,s7
    1a6c:	00000a93          	li	s5,0
    1a70:	e2dff06f          	j	189c <__udivdi3+0x2e0>
    1a74:	00e41433          	sll	s0,s0,a4
    1a78:	00f4dab3          	srl	s5,s1,a5
    1a7c:	01045993          	srli	s3,s0,0x10
    1a80:	00fa57b3          	srl	a5,s4,a5
    1a84:	00e494b3          	sll	s1,s1,a4
    1a88:	00098593          	mv	a1,s3
    1a8c:	000a8513          	mv	a0,s5
    1a90:	0097ebb3          	or	s7,a5,s1
    1a94:	00ea1933          	sll	s2,s4,a4
    1a98:	77c000ef          	jal	2214 <__umodsi3>
    1a9c:	00050a13          	mv	s4,a0
    1aa0:	00098593          	mv	a1,s3
    1aa4:	01041b13          	slli	s6,s0,0x10
    1aa8:	000a8513          	mv	a0,s5
    1aac:	720000ef          	jal	21cc <__udivsi3>
    1ab0:	010b5b13          	srli	s6,s6,0x10
    1ab4:	00050593          	mv	a1,a0
    1ab8:	00050c13          	mv	s8,a0
    1abc:	000b0513          	mv	a0,s6
    1ac0:	6e0000ef          	jal	21a0 <__mulsi3>
    1ac4:	010a1a13          	slli	s4,s4,0x10
    1ac8:	010bd793          	srli	a5,s7,0x10
    1acc:	0147e7b3          	or	a5,a5,s4
    1ad0:	00a7fe63          	bleu	a0,a5,1aec <__udivdi3+0x530>
    1ad4:	008787b3          	add	a5,a5,s0
    1ad8:	fffc0713          	addi	a4,s8,-1
    1adc:	0e87e263          	bltu	a5,s0,1bc0 <__udivdi3+0x604>
    1ae0:	0ea7f063          	bleu	a0,a5,1bc0 <__udivdi3+0x604>
    1ae4:	ffec0c13          	addi	s8,s8,-2
    1ae8:	008787b3          	add	a5,a5,s0
    1aec:	40a78ab3          	sub	s5,a5,a0
    1af0:	00098593          	mv	a1,s3
    1af4:	000a8513          	mv	a0,s5
    1af8:	71c000ef          	jal	2214 <__umodsi3>
    1afc:	00050a13          	mv	s4,a0
    1b00:	00098593          	mv	a1,s3
    1b04:	000a8513          	mv	a0,s5
    1b08:	6c4000ef          	jal	21cc <__udivsi3>
    1b0c:	00050593          	mv	a1,a0
    1b10:	00050a93          	mv	s5,a0
    1b14:	000b0513          	mv	a0,s6
    1b18:	688000ef          	jal	21a0 <__mulsi3>
    1b1c:	010b9793          	slli	a5,s7,0x10
    1b20:	010a1a13          	slli	s4,s4,0x10
    1b24:	0107d793          	srli	a5,a5,0x10
    1b28:	0147e7b3          	or	a5,a5,s4
    1b2c:	00a7fe63          	bleu	a0,a5,1b48 <__udivdi3+0x58c>
    1b30:	008787b3          	add	a5,a5,s0
    1b34:	fffa8713          	addi	a4,s5,-1
    1b38:	0887e063          	bltu	a5,s0,1bb8 <__udivdi3+0x5fc>
    1b3c:	06a7fe63          	bleu	a0,a5,1bb8 <__udivdi3+0x5fc>
    1b40:	ffea8a93          	addi	s5,s5,-2
    1b44:	008787b3          	add	a5,a5,s0
    1b48:	010c1c13          	slli	s8,s8,0x10
    1b4c:	40a784b3          	sub	s1,a5,a0
    1b50:	015c6ab3          	or	s5,s8,s5
    1b54:	00098b93          	mv	s7,s3
    1b58:	c91ff06f          	j	17e8 <__udivdi3+0x22c>
    1b5c:	00078493          	mv	s1,a5
    1b60:	d29ff06f          	j	1888 <__udivdi3+0x2cc>
    1b64:	00078493          	mv	s1,a5
    1b68:	ba5ff06f          	j	170c <__udivdi3+0x150>
    1b6c:	000106b7          	lui	a3,0x10
    1b70:	fff68693          	addi	a3,a3,-1 # ffff <_gp+0xd07f>
    1b74:	00d7f7b3          	and	a5,a5,a3
    1b78:	01079713          	slli	a4,a5,0x10
    1b7c:	00dd77b3          	and	a5,s10,a3
    1b80:	015a1a33          	sll	s4,s4,s5
    1b84:	00f707b3          	add	a5,a4,a5
    1b88:	eefa70e3          	bleu	a5,s4,1a68 <__udivdi3+0x4ac>
    1b8c:	fffb8513          	addi	a0,s7,-1
    1b90:	00000a93          	li	s5,0
    1b94:	d09ff06f          	j	189c <__udivdi3+0x2e0>
    1b98:	e4a4f4e3          	bleu	a0,s1,19e0 <__udivdi3+0x424>
    1b9c:	ffe40413          	addi	s0,s0,-2
    1ba0:	019484b3          	add	s1,s1,s9
    1ba4:	e41ff06f          	j	19e4 <__udivdi3+0x428>
    1ba8:	dea7f0e3          	bleu	a0,a5,1988 <__udivdi3+0x3cc>
    1bac:	ffeb8b93          	addi	s7,s7,-2
    1bb0:	019787b3          	add	a5,a5,s9
    1bb4:	dd9ff06f          	j	198c <__udivdi3+0x3d0>
    1bb8:	00070a93          	mv	s5,a4
    1bbc:	f8dff06f          	j	1b48 <__udivdi3+0x58c>
    1bc0:	00070c13          	mv	s8,a4
    1bc4:	f29ff06f          	j	1aec <__udivdi3+0x530>
    1bc8:	ffea0a13          	addi	s4,s4,-2
    1bcc:	008787b3          	add	a5,a5,s0
    1bd0:	c65ff06f          	j	1834 <__udivdi3+0x278>
    1bd4:	ffea8a93          	addi	s5,s5,-2
    1bd8:	008787b3          	add	a5,a5,s0
    1bdc:	ad9ff06f          	j	16b4 <__udivdi3+0xf8>

00001be0 <__umoddi3>:
    1be0:	fb010113          	addi	sp,sp,-80
    1be4:	04812423          	sw	s0,72(sp)
    1be8:	04912223          	sw	s1,68(sp)
    1bec:	05212023          	sw	s2,64(sp)
    1bf0:	03312e23          	sw	s3,60(sp)
    1bf4:	03512a23          	sw	s5,52(sp)
    1bf8:	04112623          	sw	ra,76(sp)
    1bfc:	03412c23          	sw	s4,56(sp)
    1c00:	03612823          	sw	s6,48(sp)
    1c04:	03712623          	sw	s7,44(sp)
    1c08:	03812423          	sw	s8,40(sp)
    1c0c:	03912223          	sw	s9,36(sp)
    1c10:	03a12023          	sw	s10,32(sp)
    1c14:	01b12e23          	sw	s11,28(sp)
    1c18:	00058493          	mv	s1,a1
    1c1c:	00050413          	mv	s0,a0
    1c20:	00060913          	mv	s2,a2
    1c24:	00050993          	mv	s3,a0
    1c28:	00058a93          	mv	s5,a1
    1c2c:	14069463          	bnez	a3,1d74 <__umoddi3+0x194>
    1c30:	1ac5fa63          	bleu	a2,a1,1de4 <__umoddi3+0x204>
    1c34:	000107b7          	lui	a5,0x10
    1c38:	2af66063          	bltu	a2,a5,1ed8 <__umoddi3+0x2f8>
    1c3c:	010007b7          	lui	a5,0x1000
    1c40:	00f637b3          	sltu	a5,a2,a5
    1c44:	0017c793          	xori	a5,a5,1
    1c48:	40f007b3          	neg	a5,a5
    1c4c:	0087f793          	andi	a5,a5,8
    1c50:	01078793          	addi	a5,a5,16 # 1000010 <_gp+0xffd090>
    1c54:	00002737          	lui	a4,0x2
    1c58:	00f656b3          	srl	a3,a2,a5
    1c5c:	4fc70713          	addi	a4,a4,1276 # 24fc <__clz_tab>
    1c60:	00e68733          	add	a4,a3,a4
    1c64:	00074583          	lbu	a1,0(a4)
    1c68:	02000513          	li	a0,32
    1c6c:	00f587b3          	add	a5,a1,a5
    1c70:	40f50a33          	sub	s4,a0,a5
    1c74:	000a0c63          	beqz	s4,1c8c <__umoddi3+0xac>
    1c78:	014495b3          	sll	a1,s1,s4
    1c7c:	00f457b3          	srl	a5,s0,a5
    1c80:	01461933          	sll	s2,a2,s4
    1c84:	00b7eab3          	or	s5,a5,a1
    1c88:	014419b3          	sll	s3,s0,s4
    1c8c:	01095b13          	srli	s6,s2,0x10
    1c90:	000b0593          	mv	a1,s6
    1c94:	000a8513          	mv	a0,s5
    1c98:	57c000ef          	jal	2214 <__umodsi3>
    1c9c:	00050493          	mv	s1,a0
    1ca0:	000b0593          	mv	a1,s6
    1ca4:	000a8513          	mv	a0,s5
    1ca8:	01091a93          	slli	s5,s2,0x10
    1cac:	520000ef          	jal	21cc <__udivsi3>
    1cb0:	010ada93          	srli	s5,s5,0x10
    1cb4:	00050593          	mv	a1,a0
    1cb8:	000a8513          	mv	a0,s5
    1cbc:	4e4000ef          	jal	21a0 <__mulsi3>
    1cc0:	01049493          	slli	s1,s1,0x10
    1cc4:	0109d793          	srli	a5,s3,0x10
    1cc8:	0097e7b3          	or	a5,a5,s1
    1ccc:	00a7f863          	bleu	a0,a5,1cdc <__umoddi3+0xfc>
    1cd0:	012787b3          	add	a5,a5,s2
    1cd4:	0127e463          	bltu	a5,s2,1cdc <__umoddi3+0xfc>
    1cd8:	4aa7e863          	bltu	a5,a0,2188 <__umoddi3+0x5a8>
    1cdc:	40a78433          	sub	s0,a5,a0
    1ce0:	000b0593          	mv	a1,s6
    1ce4:	00040513          	mv	a0,s0
    1ce8:	52c000ef          	jal	2214 <__umodsi3>
    1cec:	000b0593          	mv	a1,s6
    1cf0:	00050493          	mv	s1,a0
    1cf4:	00040513          	mv	a0,s0
    1cf8:	4d4000ef          	jal	21cc <__udivsi3>
    1cfc:	00050593          	mv	a1,a0
    1d00:	000a8513          	mv	a0,s5
    1d04:	49c000ef          	jal	21a0 <__mulsi3>
    1d08:	01099793          	slli	a5,s3,0x10
    1d0c:	01049493          	slli	s1,s1,0x10
    1d10:	0107d793          	srli	a5,a5,0x10
    1d14:	0097e7b3          	or	a5,a5,s1
    1d18:	00a7fa63          	bleu	a0,a5,1d2c <__umoddi3+0x14c>
    1d1c:	012787b3          	add	a5,a5,s2
    1d20:	0127e663          	bltu	a5,s2,1d2c <__umoddi3+0x14c>
    1d24:	00a7f463          	bleu	a0,a5,1d2c <__umoddi3+0x14c>
    1d28:	012787b3          	add	a5,a5,s2
    1d2c:	40a78533          	sub	a0,a5,a0
    1d30:	01455533          	srl	a0,a0,s4
    1d34:	00000593          	li	a1,0
    1d38:	04c12083          	lw	ra,76(sp)
    1d3c:	04812403          	lw	s0,72(sp)
    1d40:	04412483          	lw	s1,68(sp)
    1d44:	04012903          	lw	s2,64(sp)
    1d48:	03c12983          	lw	s3,60(sp)
    1d4c:	03812a03          	lw	s4,56(sp)
    1d50:	03412a83          	lw	s5,52(sp)
    1d54:	03012b03          	lw	s6,48(sp)
    1d58:	02c12b83          	lw	s7,44(sp)
    1d5c:	02812c03          	lw	s8,40(sp)
    1d60:	02412c83          	lw	s9,36(sp)
    1d64:	02012d03          	lw	s10,32(sp)
    1d68:	01c12d83          	lw	s11,28(sp)
    1d6c:	05010113          	addi	sp,sp,80
    1d70:	00008067          	ret
    1d74:	fcd5e2e3          	bltu	a1,a3,1d38 <__umoddi3+0x158>
    1d78:	000107b7          	lui	a5,0x10
    1d7c:	00068813          	mv	a6,a3
    1d80:	12f6ec63          	bltu	a3,a5,1eb8 <__umoddi3+0x2d8>
    1d84:	01000737          	lui	a4,0x1000
    1d88:	00e6b733          	sltu	a4,a3,a4
    1d8c:	00174713          	xori	a4,a4,1
    1d90:	40e00733          	neg	a4,a4
    1d94:	00877713          	andi	a4,a4,8
    1d98:	01070713          	addi	a4,a4,16 # 1000010 <_gp+0xffd090>
    1d9c:	000027b7          	lui	a5,0x2
    1da0:	00e6d5b3          	srl	a1,a3,a4
    1da4:	4fc78793          	addi	a5,a5,1276 # 24fc <__clz_tab>
    1da8:	00f587b3          	add	a5,a1,a5
    1dac:	0007cb03          	lbu	s6,0(a5)
    1db0:	02000593          	li	a1,32
    1db4:	00eb0b33          	add	s6,s6,a4
    1db8:	41658a33          	sub	s4,a1,s6
    1dbc:	120a1663          	bnez	s4,1ee8 <__umoddi3+0x308>
    1dc0:	01586663          	bltu	a6,s5,1dcc <__umoddi3+0x1ec>
    1dc4:	00040513          	mv	a0,s0
    1dc8:	0129ea63          	bltu	s3,s2,1ddc <__umoddi3+0x1fc>
    1dcc:	40c40533          	sub	a0,s0,a2
    1dd0:	40d486b3          	sub	a3,s1,a3
    1dd4:	00a43433          	sltu	s0,s0,a0
    1dd8:	40868ab3          	sub	s5,a3,s0
    1ddc:	000a8593          	mv	a1,s5
    1de0:	f59ff06f          	j	1d38 <__umoddi3+0x158>
    1de4:	00061a63          	bnez	a2,1df8 <__umoddi3+0x218>
    1de8:	00000593          	li	a1,0
    1dec:	00100513          	li	a0,1
    1df0:	3dc000ef          	jal	21cc <__udivsi3>
    1df4:	00050913          	mv	s2,a0
    1df8:	000107b7          	lui	a5,0x10
    1dfc:	0cf96663          	bltu	s2,a5,1ec8 <__umoddi3+0x2e8>
    1e00:	010007b7          	lui	a5,0x1000
    1e04:	00f937b3          	sltu	a5,s2,a5
    1e08:	0017c793          	xori	a5,a5,1
    1e0c:	40f007b3          	neg	a5,a5
    1e10:	0087f793          	andi	a5,a5,8
    1e14:	01078793          	addi	a5,a5,16 # 1000010 <_gp+0xffd090>
    1e18:	00002737          	lui	a4,0x2
    1e1c:	00f956b3          	srl	a3,s2,a5
    1e20:	4fc70713          	addi	a4,a4,1276 # 24fc <__clz_tab>
    1e24:	00e68733          	add	a4,a3,a4
    1e28:	00074703          	lbu	a4,0(a4)
    1e2c:	02000513          	li	a0,32
    1e30:	00f707b3          	add	a5,a4,a5
    1e34:	40f50a33          	sub	s4,a0,a5
    1e38:	240a1863          	bnez	s4,2088 <__umoddi3+0x4a8>
    1e3c:	01091b93          	slli	s7,s2,0x10
    1e40:	412484b3          	sub	s1,s1,s2
    1e44:	01095b13          	srli	s6,s2,0x10
    1e48:	010bdb93          	srli	s7,s7,0x10
    1e4c:	000b0593          	mv	a1,s6
    1e50:	00048513          	mv	a0,s1
    1e54:	3c0000ef          	jal	2214 <__umodsi3>
    1e58:	00050a93          	mv	s5,a0
    1e5c:	000b0593          	mv	a1,s6
    1e60:	00048513          	mv	a0,s1
    1e64:	368000ef          	jal	21cc <__udivsi3>
    1e68:	000b8593          	mv	a1,s7
    1e6c:	334000ef          	jal	21a0 <__mulsi3>
    1e70:	010a9a93          	slli	s5,s5,0x10
    1e74:	0109d793          	srli	a5,s3,0x10
    1e78:	0157e7b3          	or	a5,a5,s5
    1e7c:	00a7fa63          	bleu	a0,a5,1e90 <__umoddi3+0x2b0>
    1e80:	012787b3          	add	a5,a5,s2
    1e84:	0127e663          	bltu	a5,s2,1e90 <__umoddi3+0x2b0>
    1e88:	00a7f463          	bleu	a0,a5,1e90 <__umoddi3+0x2b0>
    1e8c:	012787b3          	add	a5,a5,s2
    1e90:	40a78433          	sub	s0,a5,a0
    1e94:	000b0593          	mv	a1,s6
    1e98:	00040513          	mv	a0,s0
    1e9c:	378000ef          	jal	2214 <__umodsi3>
    1ea0:	000b0593          	mv	a1,s6
    1ea4:	00050493          	mv	s1,a0
    1ea8:	00040513          	mv	a0,s0
    1eac:	320000ef          	jal	21cc <__udivsi3>
    1eb0:	000b8593          	mv	a1,s7
    1eb4:	e51ff06f          	j	1d04 <__umoddi3+0x124>
    1eb8:	0ff00713          	li	a4,255
    1ebc:	00d73733          	sltu	a4,a4,a3
    1ec0:	00371713          	slli	a4,a4,0x3
    1ec4:	ed9ff06f          	j	1d9c <__umoddi3+0x1bc>
    1ec8:	0ff00793          	li	a5,255
    1ecc:	0127b7b3          	sltu	a5,a5,s2
    1ed0:	00379793          	slli	a5,a5,0x3
    1ed4:	f45ff06f          	j	1e18 <__umoddi3+0x238>
    1ed8:	0ff00793          	li	a5,255
    1edc:	00c7b7b3          	sltu	a5,a5,a2
    1ee0:	00379793          	slli	a5,a5,0x3
    1ee4:	d71ff06f          	j	1c54 <__umoddi3+0x74>
    1ee8:	016659b3          	srl	s3,a2,s6
    1eec:	014696b3          	sll	a3,a3,s4
    1ef0:	0136e9b3          	or	s3,a3,s3
    1ef4:	0164dab3          	srl	s5,s1,s6
    1ef8:	0109db93          	srli	s7,s3,0x10
    1efc:	014496b3          	sll	a3,s1,s4
    1f00:	000b8593          	mv	a1,s7
    1f04:	016454b3          	srl	s1,s0,s6
    1f08:	000a8513          	mv	a0,s5
    1f0c:	00d4e4b3          	or	s1,s1,a3
    1f10:	01461933          	sll	s2,a2,s4
    1f14:	300000ef          	jal	2214 <__umodsi3>
    1f18:	00050c13          	mv	s8,a0
    1f1c:	000b8593          	mv	a1,s7
    1f20:	01099c93          	slli	s9,s3,0x10
    1f24:	000a8513          	mv	a0,s5
    1f28:	2a4000ef          	jal	21cc <__udivsi3>
    1f2c:	010cdc93          	srli	s9,s9,0x10
    1f30:	00050593          	mv	a1,a0
    1f34:	00050d13          	mv	s10,a0
    1f38:	000c8513          	mv	a0,s9
    1f3c:	264000ef          	jal	21a0 <__mulsi3>
    1f40:	010c1c13          	slli	s8,s8,0x10
    1f44:	0104d793          	srli	a5,s1,0x10
    1f48:	0187e7b3          	or	a5,a5,s8
    1f4c:	01441433          	sll	s0,s0,s4
    1f50:	00a7fa63          	bleu	a0,a5,1f64 <__umoddi3+0x384>
    1f54:	013787b3          	add	a5,a5,s3
    1f58:	fffd0713          	addi	a4,s10,-1
    1f5c:	2137fe63          	bleu	s3,a5,2178 <__umoddi3+0x598>
    1f60:	00070d13          	mv	s10,a4
    1f64:	40a78ab3          	sub	s5,a5,a0
    1f68:	000b8593          	mv	a1,s7
    1f6c:	000a8513          	mv	a0,s5
    1f70:	2a4000ef          	jal	2214 <__umodsi3>
    1f74:	00050c13          	mv	s8,a0
    1f78:	000b8593          	mv	a1,s7
    1f7c:	000a8513          	mv	a0,s5
    1f80:	24c000ef          	jal	21cc <__udivsi3>
    1f84:	00050593          	mv	a1,a0
    1f88:	00050a93          	mv	s5,a0
    1f8c:	000c8513          	mv	a0,s9
    1f90:	210000ef          	jal	21a0 <__mulsi3>
    1f94:	01049693          	slli	a3,s1,0x10
    1f98:	010c1c13          	slli	s8,s8,0x10
    1f9c:	0106d693          	srli	a3,a3,0x10
    1fa0:	0186e6b3          	or	a3,a3,s8
    1fa4:	00050713          	mv	a4,a0
    1fa8:	00a6fa63          	bleu	a0,a3,1fbc <__umoddi3+0x3dc>
    1fac:	013686b3          	add	a3,a3,s3
    1fb0:	fffa8793          	addi	a5,s5,-1
    1fb4:	1b36fa63          	bleu	s3,a3,2168 <__umoddi3+0x588>
    1fb8:	00078a93          	mv	s5,a5
    1fbc:	00010637          	lui	a2,0x10
    1fc0:	010d1d13          	slli	s10,s10,0x10
    1fc4:	fff60b93          	addi	s7,a2,-1 # ffff <_gp+0xd07f>
    1fc8:	015d6ab3          	or	s5,s10,s5
    1fcc:	017afdb3          	and	s11,s5,s7
    1fd0:	01797bb3          	and	s7,s2,s7
    1fd4:	000b8593          	mv	a1,s7
    1fd8:	000d8513          	mv	a0,s11
    1fdc:	00c12623          	sw	a2,12(sp)
    1fe0:	40e684b3          	sub	s1,a3,a4
    1fe4:	010ada93          	srli	s5,s5,0x10
    1fe8:	1b8000ef          	jal	21a0 <__mulsi3>
    1fec:	00050c93          	mv	s9,a0
    1ff0:	000b8593          	mv	a1,s7
    1ff4:	000a8513          	mv	a0,s5
    1ff8:	1a8000ef          	jal	21a0 <__mulsi3>
    1ffc:	01095c13          	srli	s8,s2,0x10
    2000:	00050d13          	mv	s10,a0
    2004:	000c0593          	mv	a1,s8
    2008:	000a8513          	mv	a0,s5
    200c:	194000ef          	jal	21a0 <__mulsi3>
    2010:	00050a93          	mv	s5,a0
    2014:	000c0593          	mv	a1,s8
    2018:	000d8513          	mv	a0,s11
    201c:	184000ef          	jal	21a0 <__mulsi3>
    2020:	01a50533          	add	a0,a0,s10
    2024:	010cd793          	srli	a5,s9,0x10
    2028:	00a78533          	add	a0,a5,a0
    202c:	01a57663          	bleu	s10,a0,2038 <__umoddi3+0x458>
    2030:	00c12603          	lw	a2,12(sp)
    2034:	00ca8ab3          	add	s5,s5,a2
    2038:	000107b7          	lui	a5,0x10
    203c:	fff78813          	addi	a6,a5,-1 # ffff <_gp+0xd07f>
    2040:	01055593          	srli	a1,a0,0x10
    2044:	01057533          	and	a0,a0,a6
    2048:	01051793          	slli	a5,a0,0x10
    204c:	010cf633          	and	a2,s9,a6
    2050:	015585b3          	add	a1,a1,s5
    2054:	00c78633          	add	a2,a5,a2
    2058:	0eb4ec63          	bltu	s1,a1,2150 <__umoddi3+0x570>
    205c:	12b48a63          	beq	s1,a1,2190 <__umoddi3+0x5b0>
    2060:	40b48733          	sub	a4,s1,a1
    2064:	00060793          	mv	a5,a2
    2068:	40f407b3          	sub	a5,s0,a5
    206c:	00f435b3          	sltu	a1,s0,a5
    2070:	40b705b3          	sub	a1,a4,a1
    2074:	01659533          	sll	a0,a1,s6
    2078:	0147d7b3          	srl	a5,a5,s4
    207c:	00f56533          	or	a0,a0,a5
    2080:	0145d5b3          	srl	a1,a1,s4
    2084:	cb5ff06f          	j	1d38 <__umoddi3+0x158>
    2088:	01491933          	sll	s2,s2,s4
    208c:	00f4db33          	srl	s6,s1,a5
    2090:	01095a93          	srli	s5,s2,0x10
    2094:	00f457b3          	srl	a5,s0,a5
    2098:	000a8593          	mv	a1,s5
    209c:	014494b3          	sll	s1,s1,s4
    20a0:	000b0513          	mv	a0,s6
    20a4:	0097ec33          	or	s8,a5,s1
    20a8:	16c000ef          	jal	2214 <__umodsi3>
    20ac:	00050993          	mv	s3,a0
    20b0:	000a8593          	mv	a1,s5
    20b4:	01091b93          	slli	s7,s2,0x10
    20b8:	000b0513          	mv	a0,s6
    20bc:	110000ef          	jal	21cc <__udivsi3>
    20c0:	010bdb93          	srli	s7,s7,0x10
    20c4:	00050593          	mv	a1,a0
    20c8:	000b8513          	mv	a0,s7
    20cc:	0d4000ef          	jal	21a0 <__mulsi3>
    20d0:	01099993          	slli	s3,s3,0x10
    20d4:	010c5793          	srli	a5,s8,0x10
    20d8:	0137e7b3          	or	a5,a5,s3
    20dc:	014419b3          	sll	s3,s0,s4
    20e0:	00a7fa63          	bleu	a0,a5,20f4 <__umoddi3+0x514>
    20e4:	012787b3          	add	a5,a5,s2
    20e8:	0127e663          	bltu	a5,s2,20f4 <__umoddi3+0x514>
    20ec:	00a7f463          	bleu	a0,a5,20f4 <__umoddi3+0x514>
    20f0:	012787b3          	add	a5,a5,s2
    20f4:	40a78b33          	sub	s6,a5,a0
    20f8:	000a8593          	mv	a1,s5
    20fc:	000b0513          	mv	a0,s6
    2100:	114000ef          	jal	2214 <__umodsi3>
    2104:	00050413          	mv	s0,a0
    2108:	000a8593          	mv	a1,s5
    210c:	000b0513          	mv	a0,s6
    2110:	0bc000ef          	jal	21cc <__udivsi3>
    2114:	00050593          	mv	a1,a0
    2118:	000b8513          	mv	a0,s7
    211c:	084000ef          	jal	21a0 <__mulsi3>
    2120:	010c1793          	slli	a5,s8,0x10
    2124:	01041413          	slli	s0,s0,0x10
    2128:	0107d793          	srli	a5,a5,0x10
    212c:	0087e7b3          	or	a5,a5,s0
    2130:	00a7fa63          	bleu	a0,a5,2144 <__umoddi3+0x564>
    2134:	012787b3          	add	a5,a5,s2
    2138:	0127e663          	bltu	a5,s2,2144 <__umoddi3+0x564>
    213c:	00a7f463          	bleu	a0,a5,2144 <__umoddi3+0x564>
    2140:	012787b3          	add	a5,a5,s2
    2144:	40a784b3          	sub	s1,a5,a0
    2148:	000a8b13          	mv	s6,s5
    214c:	d01ff06f          	j	1e4c <__umoddi3+0x26c>
    2150:	412607b3          	sub	a5,a2,s2
    2154:	41358733          	sub	a4,a1,s3
    2158:	00f63633          	sltu	a2,a2,a5
    215c:	40c70633          	sub	a2,a4,a2
    2160:	40c48733          	sub	a4,s1,a2
    2164:	f05ff06f          	j	2068 <__umoddi3+0x488>
    2168:	e4a6f8e3          	bleu	a0,a3,1fb8 <__umoddi3+0x3d8>
    216c:	ffea8a93          	addi	s5,s5,-2
    2170:	013686b3          	add	a3,a3,s3
    2174:	e49ff06f          	j	1fbc <__umoddi3+0x3dc>
    2178:	dea7f4e3          	bleu	a0,a5,1f60 <__umoddi3+0x380>
    217c:	ffed0d13          	addi	s10,s10,-2
    2180:	013787b3          	add	a5,a5,s3
    2184:	de1ff06f          	j	1f64 <__umoddi3+0x384>
    2188:	012787b3          	add	a5,a5,s2
    218c:	b51ff06f          	j	1cdc <__umoddi3+0xfc>
    2190:	fcc460e3          	bltu	s0,a2,2150 <__umoddi3+0x570>
    2194:	00060793          	mv	a5,a2
    2198:	00000713          	li	a4,0
    219c:	ecdff06f          	j	2068 <__umoddi3+0x488>

000021a0 <__mulsi3>:
    21a0:	00050613          	mv	a2,a0
    21a4:	00000513          	li	a0,0
    21a8:	0015f693          	andi	a3,a1,1
    21ac:	00068463          	beqz	a3,21b4 <__mulsi3+0x14>
    21b0:	00c50533          	add	a0,a0,a2
    21b4:	0015d593          	srli	a1,a1,0x1
    21b8:	00161613          	slli	a2,a2,0x1
    21bc:	fe0596e3          	bnez	a1,21a8 <__mulsi3+0x8>
    21c0:	00008067          	ret

000021c4 <__divsi3>:
    21c4:	06054063          	bltz	a0,2224 <__umodsi3+0x10>
    21c8:	0605c663          	bltz	a1,2234 <__umodsi3+0x20>

000021cc <__udivsi3>:
    21cc:	00058613          	mv	a2,a1
    21d0:	00050593          	mv	a1,a0
    21d4:	fff00513          	li	a0,-1
    21d8:	02060c63          	beqz	a2,2210 <__udivsi3+0x44>
    21dc:	00100693          	li	a3,1
    21e0:	00b67a63          	bleu	a1,a2,21f4 <__udivsi3+0x28>
    21e4:	00c05863          	blez	a2,21f4 <__udivsi3+0x28>
    21e8:	00161613          	slli	a2,a2,0x1
    21ec:	00169693          	slli	a3,a3,0x1
    21f0:	feb66ae3          	bltu	a2,a1,21e4 <__udivsi3+0x18>
    21f4:	00000513          	li	a0,0
    21f8:	00c5e663          	bltu	a1,a2,2204 <__udivsi3+0x38>
    21fc:	40c585b3          	sub	a1,a1,a2
    2200:	00d56533          	or	a0,a0,a3
    2204:	0016d693          	srli	a3,a3,0x1
    2208:	00165613          	srli	a2,a2,0x1
    220c:	fe0696e3          	bnez	a3,21f8 <__udivsi3+0x2c>
    2210:	00008067          	ret

00002214 <__umodsi3>:
    2214:	00008293          	mv	t0,ra
    2218:	fb5ff0ef          	jal	21cc <__udivsi3>
    221c:	00058513          	mv	a0,a1
    2220:	00028067          	jr	t0
    2224:	40a00533          	neg	a0,a0
    2228:	0005d863          	bgez	a1,2238 <__umodsi3+0x24>
    222c:	40b005b3          	neg	a1,a1
    2230:	f95ff06f          	j	21c4 <__divsi3>
    2234:	40b005b3          	neg	a1,a1
    2238:	00008293          	mv	t0,ra
    223c:	f89ff0ef          	jal	21c4 <__divsi3>
    2240:	40a00533          	neg	a0,a0
    2244:	00028067          	jr	t0

00002248 <__modsi3>:
    2248:	00008293          	mv	t0,ra
    224c:	0005ca63          	bltz	a1,2260 <__modsi3+0x18>
    2250:	00054c63          	bltz	a0,2268 <__modsi3+0x20>
    2254:	f79ff0ef          	jal	21cc <__udivsi3>
    2258:	00058513          	mv	a0,a1
    225c:	00028067          	jr	t0
    2260:	40b005b3          	neg	a1,a1
    2264:	fe0558e3          	bgez	a0,2254 <__modsi3+0xc>
    2268:	40a00533          	neg	a0,a0
    226c:	f61ff0ef          	jal	21cc <__udivsi3>
    2270:	40b00533          	neg	a0,a1
    2274:	00028067          	jr	t0

Disassembly of section .text.startup:

00002278 <main>:
    2278:	00700713          	li	a4,7
    227c:	80c18793          	addi	a5,gp,-2036 # 278c <g_nodePool>
    2280:	80e1a023          	sw	a4,-2048(gp) # 2780 <g_nodeFreeList>
    2284:	06300713          	li	a4,99
    2288:	02e7a823          	sw	a4,48(a5)
    228c:	0207aa23          	sw	zero,52(a5)
    2290:	00878713          	addi	a4,a5,8
    2294:	00000693          	li	a3,0
    2298:	00600613          	li	a2,6
    229c:	fed72c23          	sw	a3,-8(a4)
    22a0:	fee72e23          	sw	a4,-4(a4)
    22a4:	00168693          	addi	a3,a3,1
    22a8:	00870713          	addi	a4,a4,8
    22ac:	fec698e3          	bne	a3,a2,229c <main+0x24>
    22b0:	fd010113          	addi	sp,sp,-48
    22b4:	00700713          	li	a4,7
    22b8:	02112623          	sw	ra,44(sp)
    22bc:	00e12023          	sw	a4,0(sp)
    22c0:	00012223          	sw	zero,4(sp)
    22c4:	00012823          	sw	zero,16(sp)
    22c8:	00012a23          	sw	zero,20(sp)
    22cc:	00012c23          	sw	zero,24(sp)
    22d0:	00012e23          	sw	zero,28(sp)
    22d4:	00000693          	li	a3,0
    22d8:	0080006f          	j	22e0 <main+0x68>
    22dc:	00080793          	mv	a5,a6
    22e0:	0047a803          	lw	a6,4(a5)
    22e4:	00e7a023          	sw	a4,0(a5)
    22e8:	00d7a223          	sw	a3,4(a5)
    22ec:	fff70713          	addi	a4,a4,-1
    22f0:	00078693          	mv	a3,a5
    22f4:	fe0714e3          	bnez	a4,22dc <main+0x64>
    22f8:	00700313          	li	t1,7
    22fc:	80018893          	addi	a7,gp,-2048 # 2780 <g_nodeFreeList>
    2300:	00030593          	mv	a1,t1
    2304:	01810713          	addi	a4,sp,24
    2308:	01010693          	addi	a3,sp,16
    230c:	00810613          	addi	a2,sp,8
    2310:	00010513          	mv	a0,sp
    2314:	00f12623          	sw	a5,12(sp)
    2318:	0108a223          	sw	a6,4(a7)
    231c:	00612423          	sw	t1,8(sp)
    2320:	b90fe0ef          	jal	6b0 <towers_solve_h>
    2324:	00010513          	mv	a0,sp
    2328:	a74fe0ef          	jal	59c <towers_clear>
    232c:	00100513          	li	a0,1
    2330:	d31fe0ef          	jal	1060 <setStats>
    2334:	00012583          	lw	a1,0(sp)
    2338:	01810713          	addi	a4,sp,24
    233c:	01010693          	addi	a3,sp,16
    2340:	00810613          	addi	a2,sp,8
    2344:	00010513          	mv	a0,sp
    2348:	b68fe0ef          	jal	6b0 <towers_solve_h>
    234c:	00000513          	li	a0,0
    2350:	d11fe0ef          	jal	1060 <setStats>
    2354:	00812783          	lw	a5,8(sp)
    2358:	00200513          	li	a0,2
    235c:	00078863          	beqz	a5,236c <main+0xf4>
    2360:	02c12083          	lw	ra,44(sp)
    2364:	03010113          	addi	sp,sp,48
    2368:	00008067          	ret
    236c:	01012783          	lw	a5,16(sp)
    2370:	00300513          	li	a0,3
    2374:	fe0796e3          	bnez	a5,2360 <main+0xe8>
    2378:	00010513          	mv	a0,sp
    237c:	89cfe0ef          	jal	418 <towers_verify.part.0>
    2380:	fe1ff06f          	j	2360 <main+0xe8>
    2384:	000025b7          	lui	a1,0x2
    2388:	04000893          	li	a7,64
    238c:	00100513          	li	a0,1
    2390:	69458593          	addi	a1,a1,1684 # 2694 <__clz_tab+0x198>
    2394:	01700613          	li	a2,23
    2398:	00000073          	ecall
    239c:	fff00513          	li	a0,-1
    23a0:	00008067          	ret
