
smultiply.riscv:     file format elf32-littleriscv


Disassembly of section .text:

00000100 <user_trap_entry>:
     100:	2000006f          	j	300 <trap_entry>
     104:	00000013          	nop
     108:	00000013          	nop
     10c:	00000013          	nop
     110:	00000013          	nop
     114:	00000013          	nop
     118:	00000013          	nop
     11c:	00000013          	nop
     120:	00000013          	nop
     124:	00000013          	nop
     128:	00000013          	nop
     12c:	00000013          	nop
     130:	00000013          	nop
     134:	00000013          	nop
     138:	00000013          	nop
     13c:	00000013          	nop

00000140 <supervisor_trap_entry>:
     140:	0000006f          	j	140 <supervisor_trap_entry>
     144:	00000013          	nop
     148:	00000013          	nop
     14c:	00000013          	nop
     150:	00000013          	nop
     154:	00000013          	nop
     158:	00000013          	nop
     15c:	00000013          	nop
     160:	00000013          	nop
     164:	00000013          	nop
     168:	00000013          	nop
     16c:	00000013          	nop
     170:	00000013          	nop
     174:	00000013          	nop
     178:	00000013          	nop
     17c:	00000013          	nop

00000180 <hypervisor_trap_entry>:
     180:	0000006f          	j	180 <hypervisor_trap_entry>
     184:	00000013          	nop
     188:	00000013          	nop
     18c:	00000013          	nop
     190:	00000013          	nop
     194:	00000013          	nop
     198:	00000013          	nop
     19c:	00000013          	nop
     1a0:	00000013          	nop
     1a4:	00000013          	nop
     1a8:	00000013          	nop
     1ac:	00000013          	nop
     1b0:	00000013          	nop
     1b4:	00000013          	nop
     1b8:	00000013          	nop
     1bc:	00000013          	nop

000001c0 <machine_trap_entry>:
     1c0:	1400006f          	j	300 <trap_entry>
     1c4:	00000013          	nop
     1c8:	00000013          	nop
     1cc:	00000013          	nop
     1d0:	00000013          	nop
     1d4:	00000013          	nop
     1d8:	00000013          	nop
     1dc:	00000013          	nop
     1e0:	00000013          	nop
     1e4:	00000013          	nop
     1e8:	00000013          	nop
     1ec:	00000013          	nop
     1f0:	00000013          	nop
     1f4:	00000013          	nop
     1f8:	00000013          	nop
     1fc:	00000013          	nop

00000200 <_start>:
     200:	00000093          	li	ra,0
     204:	00000113          	li	sp,0
     208:	00000193          	li	gp,0
     20c:	00000213          	li	tp,0
     210:	00000293          	li	t0,0
     214:	00000313          	li	t1,0
     218:	00000393          	li	t2,0
     21c:	00000413          	li	s0,0
     220:	00000493          	li	s1,0
     224:	00000513          	li	a0,0
     228:	00000593          	li	a1,0
     22c:	00000613          	li	a2,0
     230:	00000693          	li	a3,0
     234:	00000713          	li	a4,0
     238:	00000793          	li	a5,0
     23c:	00000813          	li	a6,0
     240:	00000893          	li	a7,0
     244:	00000913          	li	s2,0
     248:	00000993          	li	s3,0
     24c:	00000a13          	li	s4,0
     250:	00000a93          	li	s5,0
     254:	00000b13          	li	s6,0
     258:	00000b93          	li	s7,0
     25c:	00000c13          	li	s8,0
     260:	00000c93          	li	s9,0
     264:	00000d13          	li	s10,0
     268:	00000d93          	li	s11,0
     26c:	00000e13          	li	t3,0
     270:	00000e93          	li	t4,0
     274:	00000f13          	li	t5,0
     278:	00000f93          	li	t6,0
     27c:	03000293          	li	t0,48
     280:	3002b073          	csrc	mstatus,t0
     284:	00800293          	li	t0,8
     288:	3002a073          	csrs	mstatus,t0
     28c:	000032b7          	lui	t0,0x3
     290:	3002a073          	csrs	mstatus,t0
     294:	0000c2b7          	lui	t0,0xc
     298:	3002a073          	csrs	mstatus,t0
     29c:	300022f3          	csrr	t0,mstatus
     2a0:	0000c337          	lui	t1,0xc
     2a4:	0062f333          	and	t1,t0,t1
     2a8:	00002397          	auipc	t2,0x2
     2ac:	5c63aa23          	sw	t1,1492(t2) # 287c <have_vec>
     2b0:	00003337          	lui	t1,0x3
     2b4:	0062f333          	and	t1,t0,t1
     2b8:	00030263          	beqz	t1,2bc <_start+0xbc>
     2bc:	00003197          	auipc	gp,0x3
     2c0:	dc018193          	addi	gp,gp,-576 # 307c <_gp>
     2c4:	00002217          	auipc	tp,0x2
     2c8:	6bb20213          	addi	tp,tp,1723 # 297f <_end+0x3f>
     2cc:	fc027213          	andi	tp,tp,-64
     2d0:	f1002573          	csrr	a0,mhartid
     2d4:	00100593          	li	a1,1
     2d8:	00b57063          	bleu	a1,a0,2d8 <_start+0xd8>
     2dc:	01151613          	slli	a2,a0,0x11
     2e0:	00c20233          	add	tp,tp,a2
     2e4:	00150113          	addi	sp,a0,1
     2e8:	01111113          	slli	sp,sp,0x11
     2ec:	00410133          	add	sp,sp,tp
     2f0:	00001297          	auipc	t0,0x1
     2f4:	b4428293          	addi	t0,t0,-1212 # e34 <_init>
     2f8:	34129073          	csrw	mepc,t0
     2fc:	10000073          	eret

00000300 <trap_entry>:
     300:	ef010113          	addi	sp,sp,-272
     304:	00112223          	sw	ra,4(sp)
     308:	00212423          	sw	sp,8(sp)
     30c:	00312623          	sw	gp,12(sp)
     310:	00412823          	sw	tp,16(sp)
     314:	00512a23          	sw	t0,20(sp)
     318:	00612c23          	sw	t1,24(sp)
     31c:	00712e23          	sw	t2,28(sp)
     320:	02812023          	sw	s0,32(sp)
     324:	02912223          	sw	s1,36(sp)
     328:	02a12423          	sw	a0,40(sp)
     32c:	02b12623          	sw	a1,44(sp)
     330:	02c12823          	sw	a2,48(sp)
     334:	02d12a23          	sw	a3,52(sp)
     338:	02e12c23          	sw	a4,56(sp)
     33c:	02f12e23          	sw	a5,60(sp)
     340:	05012023          	sw	a6,64(sp)
     344:	05112223          	sw	a7,68(sp)
     348:	05212423          	sw	s2,72(sp)
     34c:	05312623          	sw	s3,76(sp)
     350:	05412823          	sw	s4,80(sp)
     354:	05512a23          	sw	s5,84(sp)
     358:	05612c23          	sw	s6,88(sp)
     35c:	05712e23          	sw	s7,92(sp)
     360:	07812023          	sw	s8,96(sp)
     364:	07912223          	sw	s9,100(sp)
     368:	07a12423          	sw	s10,104(sp)
     36c:	07b12623          	sw	s11,108(sp)
     370:	07c12823          	sw	t3,112(sp)
     374:	07d12a23          	sw	t4,116(sp)
     378:	07e12c23          	sw	t5,120(sp)
     37c:	07f12e23          	sw	t6,124(sp)
     380:	34202573          	csrr	a0,mcause
     384:	341025f3          	csrr	a1,mepc
     388:	00010613          	mv	a2,sp
     38c:	5bc000ef          	jal	948 <handle_trap>
     390:	34151073          	csrw	mepc,a0
     394:	00412083          	lw	ra,4(sp)
     398:	00812103          	lw	sp,8(sp)
     39c:	00c12183          	lw	gp,12(sp)
     3a0:	01012203          	lw	tp,16(sp)
     3a4:	01412283          	lw	t0,20(sp)
     3a8:	01812303          	lw	t1,24(sp)
     3ac:	01c12383          	lw	t2,28(sp)
     3b0:	02012403          	lw	s0,32(sp)
     3b4:	02412483          	lw	s1,36(sp)
     3b8:	02812503          	lw	a0,40(sp)
     3bc:	02c12583          	lw	a1,44(sp)
     3c0:	03012603          	lw	a2,48(sp)
     3c4:	03412683          	lw	a3,52(sp)
     3c8:	03812703          	lw	a4,56(sp)
     3cc:	03c12783          	lw	a5,60(sp)
     3d0:	04012803          	lw	a6,64(sp)
     3d4:	04412883          	lw	a7,68(sp)
     3d8:	04812903          	lw	s2,72(sp)
     3dc:	04c12983          	lw	s3,76(sp)
     3e0:	05012a03          	lw	s4,80(sp)
     3e4:	05412a83          	lw	s5,84(sp)
     3e8:	05812b03          	lw	s6,88(sp)
     3ec:	05c12b83          	lw	s7,92(sp)
     3f0:	06012c03          	lw	s8,96(sp)
     3f4:	06412c83          	lw	s9,100(sp)
     3f8:	06812d03          	lw	s10,104(sp)
     3fc:	06c12d83          	lw	s11,108(sp)
     400:	07012e03          	lw	t3,112(sp)
     404:	07412e83          	lw	t4,116(sp)
     408:	07812f03          	lw	t5,120(sp)
     40c:	07c12f83          	lw	t6,124(sp)
     410:	11010113          	addi	sp,sp,272
     414:	10000073          	eret

00000418 <multiply>:
     418:	02b50533          	mul	a0,a0,a1
     41c:	00008067          	ret

00000420 <putchar>:
     420:	04022803          	lw	a6,64(tp) # 40 <buflen.2846>
     424:	00020793          	mv	a5,tp
     428:	010787b3          	add	a5,a5,a6
     42c:	00180613          	addi	a2,a6,1
     430:	00a78023          	sb	a0,0(a5)
     434:	04c22023          	sw	a2,64(tp) # 40 <buflen.2846>
     438:	00a00793          	li	a5,10
     43c:	00f50a63          	beq	a0,a5,450 <putchar+0x30>
     440:	04000793          	li	a5,64
     444:	00f60663          	beq	a2,a5,450 <putchar+0x30>
     448:	00000513          	li	a0,0
     44c:	00008067          	ret
     450:	04000893          	li	a7,64
     454:	00100513          	li	a0,1
     458:	00020593          	mv	a1,tp
     45c:	00000073          	ecall
     460:	04022023          	sw	zero,64(tp) # 40 <buflen.2846>
     464:	00000513          	li	a0,0
     468:	00008067          	ret

0000046c <sprintf_putch.2960>:
     46c:	0005a783          	lw	a5,0(a1)
     470:	00a78023          	sb	a0,0(a5)
     474:	0005a783          	lw	a5,0(a1)
     478:	00178793          	addi	a5,a5,1
     47c:	00f5a023          	sw	a5,0(a1)
     480:	00008067          	ret

00000484 <vprintfmt>:
     484:	eb010113          	addi	sp,sp,-336
     488:	13812423          	sw	s8,296(sp)
     48c:	00002c37          	lui	s8,0x2
     490:	ff0c0793          	addi	a5,s8,-16 # 1ff0 <main+0x12c>
     494:	13a12023          	sw	s10,288(sp)
     498:	40000d37          	lui	s10,0x40000
     49c:	00f12423          	sw	a5,8(sp)
     4a0:	fffd0793          	addi	a5,s10,-1 # 3fffffff <_gp+0x3fffcf83>
     4a4:	14912223          	sw	s1,324(sp)
     4a8:	15212023          	sw	s2,320(sp)
     4ac:	13312e23          	sw	s3,316(sp)
     4b0:	13512a23          	sw	s5,308(sp)
     4b4:	14112623          	sw	ra,332(sp)
     4b8:	14812423          	sw	s0,328(sp)
     4bc:	13412c23          	sw	s4,312(sp)
     4c0:	13612823          	sw	s6,304(sp)
     4c4:	13712623          	sw	s7,300(sp)
     4c8:	13912223          	sw	s9,292(sp)
     4cc:	11b12e23          	sw	s11,284(sp)
     4d0:	00050993          	mv	s3,a0
     4d4:	00058913          	mv	s2,a1
     4d8:	00060493          	mv	s1,a2
     4dc:	00d12223          	sw	a3,4(sp)
     4e0:	02500a93          	li	s5,37
     4e4:	00f12623          	sw	a5,12(sp)
     4e8:	0140006f          	j	4fc <vprintfmt+0x78>
     4ec:	06050263          	beqz	a0,550 <vprintfmt+0xcc>
     4f0:	00148493          	addi	s1,s1,1
     4f4:	00090593          	mv	a1,s2
     4f8:	000980e7          	jalr	s3
     4fc:	0004c503          	lbu	a0,0(s1)
     500:	ff5516e3          	bne	a0,s5,4ec <vprintfmt+0x68>
     504:	0014c503          	lbu	a0,1(s1)
     508:	00148a13          	addi	s4,s1,1
     50c:	fff00413          	li	s0,-1
     510:	02000793          	li	a5,32
     514:	000a0713          	mv	a4,s4
     518:	00f12023          	sw	a5,0(sp)
     51c:	00040b13          	mv	s6,s0
     520:	00000613          	li	a2,0
     524:	00900593          	li	a1,9
     528:	fdd50793          	addi	a5,a0,-35
     52c:	0ff7f793          	andi	a5,a5,255
     530:	05500693          	li	a3,85
     534:	00170493          	addi	s1,a4,1
     538:	38f6e263          	bltu	a3,a5,8bc <vprintfmt+0x438>
     53c:	00812683          	lw	a3,8(sp)
     540:	00279793          	slli	a5,a5,0x2
     544:	00d787b3          	add	a5,a5,a3
     548:	0007a783          	lw	a5,0(a5)
     54c:	00078067          	jr	a5
     550:	14c12083          	lw	ra,332(sp)
     554:	14812403          	lw	s0,328(sp)
     558:	14412483          	lw	s1,324(sp)
     55c:	14012903          	lw	s2,320(sp)
     560:	13c12983          	lw	s3,316(sp)
     564:	13812a03          	lw	s4,312(sp)
     568:	13412a83          	lw	s5,308(sp)
     56c:	13012b03          	lw	s6,304(sp)
     570:	12c12b83          	lw	s7,300(sp)
     574:	12812c03          	lw	s8,296(sp)
     578:	12412c83          	lw	s9,292(sp)
     57c:	12012d03          	lw	s10,288(sp)
     580:	11c12d83          	lw	s11,284(sp)
     584:	15010113          	addi	sp,sp,336
     588:	00008067          	ret
     58c:	000b5463          	bgez	s6,594 <vprintfmt+0x110>
     590:	00000b13          	li	s6,0
     594:	00174503          	lbu	a0,1(a4)
     598:	00048713          	mv	a4,s1
     59c:	f8dff06f          	j	528 <vprintfmt+0xa4>
     5a0:	00800413          	li	s0,8
     5a4:	00000a13          	li	s4,0
     5a8:	00100793          	li	a5,1
     5ac:	28c7d663          	ble	a2,a5,838 <vprintfmt+0x3b4>
     5b0:	00412783          	lw	a5,4(sp)
     5b4:	00778793          	addi	a5,a5,7
     5b8:	ff87f793          	andi	a5,a5,-8
     5bc:	0007ac83          	lw	s9,0(a5)
     5c0:	0047ab83          	lw	s7,4(a5)
     5c4:	00878713          	addi	a4,a5,8
     5c8:	00e12223          	sw	a4,4(sp)
     5cc:	00040613          	mv	a2,s0
     5d0:	00000693          	li	a3,0
     5d4:	000c8513          	mv	a0,s9
     5d8:	000b8593          	mv	a1,s7
     5dc:	250010ef          	jal	182c <__umoddi3>
     5e0:	00a12823          	sw	a0,16(sp)
     5e4:	337a0c63          	beq	s4,s7,91c <vprintfmt+0x498>
     5e8:	01410d93          	addi	s11,sp,20
     5ec:	00100d13          	li	s10,1
     5f0:	00040613          	mv	a2,s0
     5f4:	00000693          	li	a3,0
     5f8:	000c8513          	mv	a0,s9
     5fc:	000b8593          	mv	a1,s7
     600:	409000ef          	jal	1208 <__udivdi3>
     604:	00040613          	mv	a2,s0
     608:	00000693          	li	a3,0
     60c:	00050c93          	mv	s9,a0
     610:	00058b93          	mv	s7,a1
     614:	218010ef          	jal	182c <__umoddi3>
     618:	00ada023          	sw	a0,0(s11)
     61c:	001d0c13          	addi	s8,s10,1
     620:	004d8d93          	addi	s11,s11,4
     624:	017a0663          	beq	s4,s7,630 <vprintfmt+0x1ac>
     628:	000c0d13          	mv	s10,s8
     62c:	fc5ff06f          	j	5f0 <vprintfmt+0x16c>
     630:	fe8cfce3          	bleu	s0,s9,628 <vprintfmt+0x1a4>
     634:	fffb0413          	addi	s0,s6,-1
     638:	000d0a13          	mv	s4,s10
     63c:	036c5263          	ble	s6,s8,660 <vprintfmt+0x1dc>
     640:	00012503          	lw	a0,0(sp)
     644:	00090593          	mv	a1,s2
     648:	fff40413          	addi	s0,s0,-1
     64c:	000980e7          	jalr	s3
     650:	00140793          	addi	a5,s0,1
     654:	fefc46e3          	blt	s8,a5,640 <vprintfmt+0x1bc>
     658:	000a0d13          	mv	s10,s4
     65c:	eb8050e3          	blez	s8,4fc <vprintfmt+0x78>
     660:	002d1793          	slli	a5,s10,0x2
     664:	11010713          	addi	a4,sp,272
     668:	00f707b3          	add	a5,a4,a5
     66c:	f007a503          	lw	a0,-256(a5)
     670:	00c12783          	lw	a5,12(sp)
     674:	000d0413          	mv	s0,s10
     678:	00fd0a33          	add	s4,s10,a5
     67c:	002a1a13          	slli	s4,s4,0x2
     680:	01010793          	addi	a5,sp,16
     684:	01478a33          	add	s4,a5,s4
     688:	0100006f          	j	698 <vprintfmt+0x214>
     68c:	000a2503          	lw	a0,0(s4)
     690:	fff40413          	addi	s0,s0,-1
     694:	ffca0a13          	addi	s4,s4,-4
     698:	00a53793          	sltiu	a5,a0,10
     69c:	40f007b3          	neg	a5,a5
     6a0:	fd97f793          	andi	a5,a5,-39
     6a4:	05778793          	addi	a5,a5,87
     6a8:	00090593          	mv	a1,s2
     6ac:	00a78533          	add	a0,a5,a0
     6b0:	000980e7          	jalr	s3
     6b4:	fc804ce3          	bgtz	s0,68c <vprintfmt+0x208>
     6b8:	e45ff06f          	j	4fc <vprintfmt+0x78>
     6bc:	00412783          	lw	a5,4(sp)
     6c0:	00174503          	lbu	a0,1(a4)
     6c4:	00048713          	mv	a4,s1
     6c8:	0007a403          	lw	s0,0(a5)
     6cc:	00478793          	addi	a5,a5,4
     6d0:	00f12223          	sw	a5,4(sp)
     6d4:	e40b5ae3          	bgez	s6,528 <vprintfmt+0xa4>
     6d8:	00040b13          	mv	s6,s0
     6dc:	fff00413          	li	s0,-1
     6e0:	e49ff06f          	j	528 <vprintfmt+0xa4>
     6e4:	03000793          	li	a5,48
     6e8:	00174503          	lbu	a0,1(a4)
     6ec:	00f12023          	sw	a5,0(sp)
     6f0:	00048713          	mv	a4,s1
     6f4:	e35ff06f          	j	528 <vprintfmt+0xa4>
     6f8:	02d00793          	li	a5,45
     6fc:	00174503          	lbu	a0,1(a4)
     700:	00f12023          	sw	a5,0(sp)
     704:	00048713          	mv	a4,s1
     708:	e21ff06f          	j	528 <vprintfmt+0xa4>
     70c:	00174683          	lbu	a3,1(a4)
     710:	fd050413          	addi	s0,a0,-48
     714:	00048713          	mv	a4,s1
     718:	fd068793          	addi	a5,a3,-48
     71c:	1ef5ea63          	bltu	a1,a5,910 <vprintfmt+0x48c>
     720:	00141793          	slli	a5,s0,0x1
     724:	00341413          	slli	s0,s0,0x3
     728:	00878433          	add	s0,a5,s0
     72c:	00170713          	addi	a4,a4,1
     730:	00d40433          	add	s0,s0,a3
     734:	00074683          	lbu	a3,0(a4)
     738:	fd040413          	addi	s0,s0,-48
     73c:	fd068793          	addi	a5,a3,-48
     740:	fef5f0e3          	bleu	a5,a1,720 <vprintfmt+0x29c>
     744:	00068513          	mv	a0,a3
     748:	f8dff06f          	j	6d4 <vprintfmt+0x250>
     74c:	00412783          	lw	a5,4(sp)
     750:	00090593          	mv	a1,s2
     754:	0007a503          	lw	a0,0(a5)
     758:	00478c93          	addi	s9,a5,4
     75c:	000980e7          	jalr	s3
     760:	01912223          	sw	s9,4(sp)
     764:	d99ff06f          	j	4fc <vprintfmt+0x78>
     768:	00412783          	lw	a5,4(sp)
     76c:	0007ac03          	lw	s8,0(a5)
     770:	00478c93          	addi	s9,a5,4
     774:	160c0c63          	beqz	s8,8ec <vprintfmt+0x468>
     778:	03605c63          	blez	s6,7b0 <vprintfmt+0x32c>
     77c:	00012783          	lw	a5,0(sp)
     780:	02d00713          	li	a4,45
     784:	14e78c63          	beq	a5,a4,8dc <vprintfmt+0x458>
     788:	00040593          	mv	a1,s0
     78c:	000c0513          	mv	a0,s8
     790:	235000ef          	jal	11c4 <strnlen>
     794:	40ab0b33          	sub	s6,s6,a0
     798:	01605c63          	blez	s6,7b0 <vprintfmt+0x32c>
     79c:	00012503          	lw	a0,0(sp)
     7a0:	fffb0b13          	addi	s6,s6,-1
     7a4:	00090593          	mv	a1,s2
     7a8:	000980e7          	jalr	s3
     7ac:	fe0b18e3          	bnez	s6,79c <vprintfmt+0x318>
     7b0:	000c4503          	lbu	a0,0(s8)
     7b4:	04050263          	beqz	a0,7f8 <vprintfmt+0x374>
     7b8:	fff00a13          	li	s4,-1
     7bc:	00044663          	bltz	s0,7c8 <vprintfmt+0x344>
     7c0:	fff40413          	addi	s0,s0,-1
     7c4:	01440e63          	beq	s0,s4,7e0 <vprintfmt+0x35c>
     7c8:	00090593          	mv	a1,s2
     7cc:	001c0c13          	addi	s8,s8,1
     7d0:	000980e7          	jalr	s3
     7d4:	000c4503          	lbu	a0,0(s8)
     7d8:	fffb0b13          	addi	s6,s6,-1
     7dc:	fe0510e3          	bnez	a0,7bc <vprintfmt+0x338>
     7e0:	01605c63          	blez	s6,7f8 <vprintfmt+0x374>
     7e4:	fffb0b13          	addi	s6,s6,-1
     7e8:	00090593          	mv	a1,s2
     7ec:	02000513          	li	a0,32
     7f0:	000980e7          	jalr	s3
     7f4:	fe0b18e3          	bnez	s6,7e4 <vprintfmt+0x360>
     7f8:	01912223          	sw	s9,4(sp)
     7fc:	d01ff06f          	j	4fc <vprintfmt+0x78>
     800:	00a00413          	li	s0,10
     804:	00000a13          	li	s4,0
     808:	da1ff06f          	j	5a8 <vprintfmt+0x124>
     80c:	01000413          	li	s0,16
     810:	00000a13          	li	s4,0
     814:	d95ff06f          	j	5a8 <vprintfmt+0x124>
     818:	03000513          	li	a0,48
     81c:	00090593          	mv	a1,s2
     820:	000980e7          	jalr	s3
     824:	00090593          	mv	a1,s2
     828:	07800513          	li	a0,120
     82c:	000980e7          	jalr	s3
     830:	01000413          	li	s0,16
     834:	00000a13          	li	s4,0
     838:	00412783          	lw	a5,4(sp)
     83c:	00000b93          	li	s7,0
     840:	0007ac83          	lw	s9,0(a5)
     844:	00478793          	addi	a5,a5,4
     848:	00f12223          	sw	a5,4(sp)
     84c:	d81ff06f          	j	5cc <vprintfmt+0x148>
     850:	00100793          	li	a5,1
     854:	0ac7d263          	ble	a2,a5,8f8 <vprintfmt+0x474>
     858:	00412783          	lw	a5,4(sp)
     85c:	00778793          	addi	a5,a5,7
     860:	ff87f793          	andi	a5,a5,-8
     864:	00878713          	addi	a4,a5,8
     868:	0007a803          	lw	a6,0(a5)
     86c:	0047a783          	lw	a5,4(a5)
     870:	00e12223          	sw	a4,4(sp)
     874:	00078b93          	mv	s7,a5
     878:	00080c93          	mv	s9,a6
     87c:	0407da63          	bgez	a5,8d0 <vprintfmt+0x44c>
     880:	00090593          	mv	a1,s2
     884:	02d00513          	li	a0,45
     888:	000980e7          	jalr	s3
     88c:	41900833          	neg	a6,s9
     890:	01003733          	snez	a4,a6
     894:	417007b3          	neg	a5,s7
     898:	00080c93          	mv	s9,a6
     89c:	40e78bb3          	sub	s7,a5,a4
     8a0:	00a00413          	li	s0,10
     8a4:	00000a13          	li	s4,0
     8a8:	d25ff06f          	j	5cc <vprintfmt+0x148>
     8ac:	00174503          	lbu	a0,1(a4)
     8b0:	00160613          	addi	a2,a2,1
     8b4:	00048713          	mv	a4,s1
     8b8:	c71ff06f          	j	528 <vprintfmt+0xa4>
     8bc:	00090593          	mv	a1,s2
     8c0:	02500513          	li	a0,37
     8c4:	000980e7          	jalr	s3
     8c8:	000a0493          	mv	s1,s4
     8cc:	c31ff06f          	j	4fc <vprintfmt+0x78>
     8d0:	00a00413          	li	s0,10
     8d4:	00000a13          	li	s4,0
     8d8:	cf5ff06f          	j	5cc <vprintfmt+0x148>
     8dc:	000c4503          	lbu	a0,0(s8)
     8e0:	f00502e3          	beqz	a0,7e4 <vprintfmt+0x360>
     8e4:	fff00a13          	li	s4,-1
     8e8:	ed5ff06f          	j	7bc <vprintfmt+0x338>
     8ec:	000027b7          	lui	a5,0x2
     8f0:	24878c13          	addi	s8,a5,584 # 2248 <__clz_tab+0x100>
     8f4:	e85ff06f          	j	778 <vprintfmt+0x2f4>
     8f8:	00412783          	lw	a5,4(sp)
     8fc:	0007a803          	lw	a6,0(a5)
     900:	00478793          	addi	a5,a5,4
     904:	00f12223          	sw	a5,4(sp)
     908:	41f85793          	srai	a5,a6,0x1f
     90c:	f69ff06f          	j	874 <vprintfmt+0x3f0>
     910:	00068513          	mv	a0,a3
     914:	00048713          	mv	a4,s1
     918:	dbdff06f          	j	6d4 <vprintfmt+0x250>
     91c:	cc8cf6e3          	bleu	s0,s9,5e8 <vprintfmt+0x164>
     920:	00100c13          	li	s8,1
     924:	fffb0413          	addi	s0,s6,-1
     928:	00000a13          	li	s4,0
     92c:	00000d13          	li	s10,0
     930:	d16c48e3          	blt	s8,s6,640 <vprintfmt+0x1bc>
     934:	d3dff06f          	j	670 <vprintfmt+0x1ec>

00000938 <tohost_exit>:
     938:	00151513          	slli	a0,a0,0x1
     93c:	00156793          	ori	a5,a0,1
     940:	78079073          	csrw	mtohost,a5
     944:	0000006f          	j	944 <tohost_exit+0xc>

00000948 <handle_trap>:
     948:	ff010113          	addi	sp,sp,-16
     94c:	00812423          	sw	s0,8(sp)
     950:	00112623          	sw	ra,12(sp)
     954:	00200693          	li	a3,2
     958:	01010413          	addi	s0,sp,16
     95c:	0080076f          	jal	a4,964 <handle_trap+0x1c>
     960:	0c002573          	csrr	a0,stats
     964:	f8010113          	addi	sp,sp,-128
     968:	0ad50863          	beq	a0,a3,a18 <handle_trap+0xd0>
     96c:	00800713          	li	a4,8
     970:	00e50a63          	beq	a0,a4,984 <handle_trap+0x3c>
     974:	000017b7          	lui	a5,0x1
     978:	a7378793          	addi	a5,a5,-1421 # a73 <handle_trap+0x12b>
     97c:	78079073          	csrw	mtohost,a5
     980:	0000006f          	j	980 <handle_trap+0x38>
     984:	04462703          	lw	a4,68(a2)
     988:	05d00693          	li	a3,93
     98c:	30d70063          	beq	a4,a3,c8c <handle_trap+0x344>
     990:	4d200693          	li	a3,1234
     994:	08d70e63          	beq	a4,a3,a30 <handle_trap+0xe8>
     998:	03f10793          	addi	a5,sp,63
     99c:	fc07f793          	andi	a5,a5,-64
     9a0:	02862303          	lw	t1,40(a2)
     9a4:	00e7a023          	sw	a4,0(a5)
     9a8:	41f75893          	srai	a7,a4,0x1f
     9ac:	0117a223          	sw	a7,4(a5)
     9b0:	02c62503          	lw	a0,44(a2)
     9b4:	0067a423          	sw	t1,8(a5)
     9b8:	41f35f93          	srai	t6,t1,0x1f
     9bc:	01f7a623          	sw	t6,12(a5)
     9c0:	03062683          	lw	a3,48(a2)
     9c4:	00a7a823          	sw	a0,16(a5)
     9c8:	41f55e93          	srai	t4,a0,0x1f
     9cc:	01d7aa23          	sw	t4,20(a5)
     9d0:	00d7ac23          	sw	a3,24(a5)
     9d4:	41f6d893          	srai	a7,a3,0x1f
     9d8:	0117ae23          	sw	a7,28(a5)
     9dc:	0330000f          	fence	rw,rw
     9e0:	78079073          	csrw	mtohost,a5
     9e4:	00000713          	li	a4,0
     9e8:	781716f3          	csrrw	a3,mfromhost,a4
     9ec:	fe068ee3          	beqz	a3,9e8 <handle_trap+0xa0>
     9f0:	0007a703          	lw	a4,0(a5)
     9f4:	0047a783          	lw	a5,4(a5)
     9f8:	00070793          	mv	a5,a4
     9fc:	ff040113          	addi	sp,s0,-16
     a00:	00c12083          	lw	ra,12(sp)
     a04:	00458513          	addi	a0,a1,4
     a08:	00812403          	lw	s0,8(sp)
     a0c:	02f62423          	sw	a5,40(a2)
     a10:	01010113          	addi	sp,sp,16
     a14:	00008067          	ret
     a18:	00072703          	lw	a4,0(a4)
     a1c:	0005a783          	lw	a5,0(a1)
     a20:	00f777b3          	and	a5,a4,a5
     a24:	f4f718e3          	bne	a4,a5,974 <handle_trap+0x2c>
     a28:	00000793          	li	a5,0
     a2c:	fd1ff06f          	j	9fc <handle_trap+0xb4>
     a30:	02862703          	lw	a4,40(a2)
     a34:	00070463          	beqz	a4,a3c <handle_trap+0xf4>
     a38:	0c00e573          	csrrs	a0,stats,1
     a3c:	c0002573          	rdcycle	a0
     a40:	80418793          	addi	a5,gp,-2044 # 2880 <counters>
     a44:	00071c63          	bnez	a4,a5c <handle_trap+0x114>
     a48:	0007a683          	lw	a3,0(a5)
     a4c:	40d50533          	sub	a0,a0,a3
     a50:	000026b7          	lui	a3,0x2
     a54:	25068693          	addi	a3,a3,592 # 2250 <__clz_tab+0x108>
     a58:	04d7a423          	sw	a3,72(a5)
     a5c:	00a7a023          	sw	a0,0(a5)
     a60:	c0202573          	rdinstret	a0
     a64:	00071c63          	bnez	a4,a7c <handle_trap+0x134>
     a68:	0047a683          	lw	a3,4(a5)
     a6c:	40d50533          	sub	a0,a0,a3
     a70:	000026b7          	lui	a3,0x2
     a74:	25868693          	addi	a3,a3,600 # 2258 <__clz_tab+0x110>
     a78:	04d7a623          	sw	a3,76(a5)
     a7c:	00a7a223          	sw	a0,4(a5)
     a80:	cc002573          	csrr	a0,uarch0
     a84:	00071c63          	bnez	a4,a9c <handle_trap+0x154>
     a88:	0087a683          	lw	a3,8(a5)
     a8c:	40d50533          	sub	a0,a0,a3
     a90:	000026b7          	lui	a3,0x2
     a94:	26068693          	addi	a3,a3,608 # 2260 <__clz_tab+0x118>
     a98:	04d7a823          	sw	a3,80(a5)
     a9c:	00a7a423          	sw	a0,8(a5)
     aa0:	cc102573          	csrr	a0,uarch1
     aa4:	00071c63          	bnez	a4,abc <handle_trap+0x174>
     aa8:	00c7a683          	lw	a3,12(a5)
     aac:	40d50533          	sub	a0,a0,a3
     ab0:	000026b7          	lui	a3,0x2
     ab4:	26868693          	addi	a3,a3,616 # 2268 <__clz_tab+0x120>
     ab8:	04d7aa23          	sw	a3,84(a5)
     abc:	00a7a623          	sw	a0,12(a5)
     ac0:	cc202573          	csrr	a0,uarch2
     ac4:	00071c63          	bnez	a4,adc <handle_trap+0x194>
     ac8:	0107a683          	lw	a3,16(a5)
     acc:	40d50533          	sub	a0,a0,a3
     ad0:	000026b7          	lui	a3,0x2
     ad4:	27068693          	addi	a3,a3,624 # 2270 <__clz_tab+0x128>
     ad8:	04d7ac23          	sw	a3,88(a5)
     adc:	00a7a823          	sw	a0,16(a5)
     ae0:	cc302573          	csrr	a0,uarch3
     ae4:	00071c63          	bnez	a4,afc <handle_trap+0x1b4>
     ae8:	0147a683          	lw	a3,20(a5)
     aec:	40d50533          	sub	a0,a0,a3
     af0:	000026b7          	lui	a3,0x2
     af4:	27868693          	addi	a3,a3,632 # 2278 <__clz_tab+0x130>
     af8:	04d7ae23          	sw	a3,92(a5)
     afc:	00a7aa23          	sw	a0,20(a5)
     b00:	cc402573          	csrr	a0,uarch4
     b04:	00071c63          	bnez	a4,b1c <handle_trap+0x1d4>
     b08:	0187a683          	lw	a3,24(a5)
     b0c:	40d50533          	sub	a0,a0,a3
     b10:	000026b7          	lui	a3,0x2
     b14:	28068693          	addi	a3,a3,640 # 2280 <__clz_tab+0x138>
     b18:	06d7a023          	sw	a3,96(a5)
     b1c:	00a7ac23          	sw	a0,24(a5)
     b20:	cc502573          	csrr	a0,uarch5
     b24:	00071c63          	bnez	a4,b3c <handle_trap+0x1f4>
     b28:	01c7a683          	lw	a3,28(a5)
     b2c:	40d50533          	sub	a0,a0,a3
     b30:	000026b7          	lui	a3,0x2
     b34:	28868693          	addi	a3,a3,648 # 2288 <__clz_tab+0x140>
     b38:	06d7a223          	sw	a3,100(a5)
     b3c:	00a7ae23          	sw	a0,28(a5)
     b40:	cc602573          	csrr	a0,uarch6
     b44:	00071c63          	bnez	a4,b5c <handle_trap+0x214>
     b48:	0207a683          	lw	a3,32(a5)
     b4c:	40d50533          	sub	a0,a0,a3
     b50:	000026b7          	lui	a3,0x2
     b54:	29068693          	addi	a3,a3,656 # 2290 <__clz_tab+0x148>
     b58:	06d7a423          	sw	a3,104(a5)
     b5c:	02a7a023          	sw	a0,32(a5)
     b60:	cc702573          	csrr	a0,uarch7
     b64:	00071c63          	bnez	a4,b7c <handle_trap+0x234>
     b68:	0247a683          	lw	a3,36(a5)
     b6c:	40d50533          	sub	a0,a0,a3
     b70:	000026b7          	lui	a3,0x2
     b74:	29868693          	addi	a3,a3,664 # 2298 <__clz_tab+0x150>
     b78:	06d7a623          	sw	a3,108(a5)
     b7c:	02a7a223          	sw	a0,36(a5)
     b80:	cc802573          	csrr	a0,uarch8
     b84:	00071c63          	bnez	a4,b9c <handle_trap+0x254>
     b88:	0287a683          	lw	a3,40(a5)
     b8c:	40d50533          	sub	a0,a0,a3
     b90:	000026b7          	lui	a3,0x2
     b94:	2a068693          	addi	a3,a3,672 # 22a0 <__clz_tab+0x158>
     b98:	06d7a823          	sw	a3,112(a5)
     b9c:	02a7a423          	sw	a0,40(a5)
     ba0:	cc902573          	csrr	a0,uarch9
     ba4:	00071c63          	bnez	a4,bbc <handle_trap+0x274>
     ba8:	02c7a683          	lw	a3,44(a5)
     bac:	40d50533          	sub	a0,a0,a3
     bb0:	000026b7          	lui	a3,0x2
     bb4:	2a868693          	addi	a3,a3,680 # 22a8 <__clz_tab+0x160>
     bb8:	06d7aa23          	sw	a3,116(a5)
     bbc:	02a7a623          	sw	a0,44(a5)
     bc0:	cca02573          	csrr	a0,uarch10
     bc4:	00071c63          	bnez	a4,bdc <handle_trap+0x294>
     bc8:	0307a683          	lw	a3,48(a5)
     bcc:	40d50533          	sub	a0,a0,a3
     bd0:	000026b7          	lui	a3,0x2
     bd4:	2b068693          	addi	a3,a3,688 # 22b0 <__clz_tab+0x168>
     bd8:	06d7ac23          	sw	a3,120(a5)
     bdc:	02a7a823          	sw	a0,48(a5)
     be0:	ccb02573          	csrr	a0,uarch11
     be4:	00071c63          	bnez	a4,bfc <handle_trap+0x2b4>
     be8:	0347a683          	lw	a3,52(a5)
     bec:	40d50533          	sub	a0,a0,a3
     bf0:	000026b7          	lui	a3,0x2
     bf4:	2b868693          	addi	a3,a3,696 # 22b8 <__clz_tab+0x170>
     bf8:	06d7ae23          	sw	a3,124(a5)
     bfc:	02a7aa23          	sw	a0,52(a5)
     c00:	ccc02573          	csrr	a0,uarch12
     c04:	00071c63          	bnez	a4,c1c <handle_trap+0x2d4>
     c08:	0387a683          	lw	a3,56(a5)
     c0c:	40d50533          	sub	a0,a0,a3
     c10:	000026b7          	lui	a3,0x2
     c14:	2c068693          	addi	a3,a3,704 # 22c0 <__clz_tab+0x178>
     c18:	08d7a023          	sw	a3,128(a5)
     c1c:	02a7ac23          	sw	a0,56(a5)
     c20:	ccd02573          	csrr	a0,uarch13
     c24:	00071c63          	bnez	a4,c3c <handle_trap+0x2f4>
     c28:	03c7a683          	lw	a3,60(a5)
     c2c:	40d50533          	sub	a0,a0,a3
     c30:	000026b7          	lui	a3,0x2
     c34:	2c868693          	addi	a3,a3,712 # 22c8 <__clz_tab+0x180>
     c38:	08d7a223          	sw	a3,132(a5)
     c3c:	02a7ae23          	sw	a0,60(a5)
     c40:	cce02573          	csrr	a0,uarch14
     c44:	00071c63          	bnez	a4,c5c <handle_trap+0x314>
     c48:	0407a683          	lw	a3,64(a5)
     c4c:	40d50533          	sub	a0,a0,a3
     c50:	000026b7          	lui	a3,0x2
     c54:	2d068693          	addi	a3,a3,720 # 22d0 <__clz_tab+0x188>
     c58:	08d7a423          	sw	a3,136(a5)
     c5c:	04a7a023          	sw	a0,64(a5)
     c60:	ccf02573          	csrr	a0,uarch15
     c64:	02071863          	bnez	a4,c94 <handle_trap+0x34c>
     c68:	0447a703          	lw	a4,68(a5)
     c6c:	40e50533          	sub	a0,a0,a4
     c70:	00002737          	lui	a4,0x2
     c74:	2d870713          	addi	a4,a4,728 # 22d8 <__clz_tab+0x190>
     c78:	08e7a623          	sw	a4,140(a5)
     c7c:	04a7a223          	sw	a0,68(a5)
     c80:	0c00f573          	csrrc	a0,stats,1
     c84:	00000793          	li	a5,0
     c88:	d75ff06f          	j	9fc <handle_trap+0xb4>
     c8c:	02862503          	lw	a0,40(a2)
     c90:	ca9ff0ef          	jal	938 <tohost_exit>
     c94:	04a7a223          	sw	a0,68(a5)
     c98:	d91ff06f          	j	a28 <handle_trap+0xe0>

00000c9c <exit>:
     c9c:	05d00893          	li	a7,93
     ca0:	00000593          	li	a1,0
     ca4:	00000613          	li	a2,0
     ca8:	00000073          	ecall
     cac:	0000006f          	j	cac <exit+0x10>

00000cb0 <setStats>:
     cb0:	4d200893          	li	a7,1234
     cb4:	00000593          	li	a1,0
     cb8:	00000613          	li	a2,0
     cbc:	00000073          	ecall
     cc0:	00008067          	ret

00000cc4 <printstr>:
     cc4:	ff010113          	addi	sp,sp,-16
     cc8:	00812423          	sw	s0,8(sp)
     ccc:	00112623          	sw	ra,12(sp)
     cd0:	00050413          	mv	s0,a0
     cd4:	460000ef          	jal	1134 <strlen>
     cd8:	00050613          	mv	a2,a0
     cdc:	04000893          	li	a7,64
     ce0:	00100513          	li	a0,1
     ce4:	00040593          	mv	a1,s0
     ce8:	00000073          	ecall
     cec:	00c12083          	lw	ra,12(sp)
     cf0:	00812403          	lw	s0,8(sp)
     cf4:	01010113          	addi	sp,sp,16
     cf8:	00008067          	ret

00000cfc <thread_entry>:
     cfc:	00050463          	beqz	a0,d04 <thread_entry+0x8>
     d00:	0000006f          	j	d00 <thread_entry+0x4>
     d04:	00008067          	ret

00000d08 <printhex>:
     d08:	fd010113          	addi	sp,sp,-48
     d0c:	02112623          	sw	ra,44(sp)
     d10:	01b10693          	addi	a3,sp,27
     d14:	00b10893          	addi	a7,sp,11
     d18:	00900813          	li	a6,9
     d1c:	00f57613          	andi	a2,a0,15
     d20:	00c83733          	sltu	a4,a6,a2
     d24:	40e00733          	neg	a4,a4
     d28:	02777793          	andi	a5,a4,39
     d2c:	03078793          	addi	a5,a5,48
     d30:	00c787b3          	add	a5,a5,a2
     d34:	01c59713          	slli	a4,a1,0x1c
     d38:	00f68023          	sb	a5,0(a3)
     d3c:	00455513          	srli	a0,a0,0x4
     d40:	fff68693          	addi	a3,a3,-1
     d44:	00a76533          	or	a0,a4,a0
     d48:	0045d593          	srli	a1,a1,0x4
     d4c:	fd1698e3          	bne	a3,a7,d1c <printhex+0x14>
     d50:	00c10513          	addi	a0,sp,12
     d54:	00010e23          	sb	zero,28(sp)
     d58:	3dc000ef          	jal	1134 <strlen>
     d5c:	00050613          	mv	a2,a0
     d60:	04000893          	li	a7,64
     d64:	00100513          	li	a0,1
     d68:	00c10593          	addi	a1,sp,12
     d6c:	00000073          	ecall
     d70:	02c12083          	lw	ra,44(sp)
     d74:	03010113          	addi	sp,sp,48
     d78:	00008067          	ret

00000d7c <printf>:
     d7c:	fc010113          	addi	sp,sp,-64
     d80:	02410313          	addi	t1,sp,36
     d84:	02c12423          	sw	a2,40(sp)
     d88:	00050613          	mv	a2,a0
     d8c:	02b12223          	sw	a1,36(sp)
     d90:	02d12623          	sw	a3,44(sp)
     d94:	42000513          	li	a0,1056
     d98:	00030693          	mv	a3,t1
     d9c:	00000593          	li	a1,0
     da0:	00112e23          	sw	ra,28(sp)
     da4:	02e12823          	sw	a4,48(sp)
     da8:	02f12a23          	sw	a5,52(sp)
     dac:	03012c23          	sw	a6,56(sp)
     db0:	03112e23          	sw	a7,60(sp)
     db4:	00612623          	sw	t1,12(sp)
     db8:	eccff0ef          	jal	484 <vprintfmt>
     dbc:	01c12083          	lw	ra,28(sp)
     dc0:	00000513          	li	a0,0
     dc4:	04010113          	addi	sp,sp,64
     dc8:	00008067          	ret

00000dcc <sprintf>:
     dcc:	fb010113          	addi	sp,sp,-80
     dd0:	03810313          	addi	t1,sp,56
     dd4:	02812423          	sw	s0,40(sp)
     dd8:	00a12623          	sw	a0,12(sp)
     ddc:	00050413          	mv	s0,a0
     de0:	02c12c23          	sw	a2,56(sp)
     de4:	02d12e23          	sw	a3,60(sp)
     de8:	00058613          	mv	a2,a1
     dec:	46c00513          	li	a0,1132
     df0:	00c10593          	addi	a1,sp,12
     df4:	00030693          	mv	a3,t1
     df8:	02112623          	sw	ra,44(sp)
     dfc:	04f12223          	sw	a5,68(sp)
     e00:	04e12023          	sw	a4,64(sp)
     e04:	05012423          	sw	a6,72(sp)
     e08:	05112623          	sw	a7,76(sp)
     e0c:	00612e23          	sw	t1,28(sp)
     e10:	e74ff0ef          	jal	484 <vprintfmt>
     e14:	00c12783          	lw	a5,12(sp)
     e18:	00078023          	sb	zero,0(a5)
     e1c:	00c12503          	lw	a0,12(sp)
     e20:	02c12083          	lw	ra,44(sp)
     e24:	40850533          	sub	a0,a0,s0
     e28:	02812403          	lw	s0,40(sp)
     e2c:	05010113          	addi	sp,sp,80
     e30:	00008067          	ret

00000e34 <_init>:
     e34:	fd010113          	addi	sp,sp,-48
     e38:	02912223          	sw	s1,36(sp)
     e3c:	03212023          	sw	s2,32(sp)
     e40:	00020913          	mv	s2,tp
     e44:	00020493          	mv	s1,tp
     e48:	409904b3          	sub	s1,s2,s1
     e4c:	01412c23          	sw	s4,24(sp)
     e50:	00058a13          	mv	s4,a1
     e54:	02112623          	sw	ra,44(sp)
     e58:	02812423          	sw	s0,40(sp)
     e5c:	01312e23          	sw	s3,28(sp)
     e60:	03010413          	addi	s0,sp,48
     e64:	01512a23          	sw	s5,20(sp)
     e68:	01612823          	sw	s6,16(sp)
     e6c:	01712623          	sw	s7,12(sp)
     e70:	00050993          	mv	s3,a0
     e74:	d8010113          	addi	sp,sp,-640
     e78:	00020513          	mv	a0,tp
     e7c:	00048613          	mv	a2,s1
     e80:	8c418593          	addi	a1,gp,-1852 # 2940 <_end>
     e84:	00020b13          	mv	s6,tp
     e88:	0b0000ef          	jal	f38 <memcpy>
     e8c:	04420613          	addi	a2,tp,68 # 44 <_tbss_end>
     e90:	41260633          	sub	a2,a2,s2
     e94:	009b0533          	add	a0,s6,s1
     e98:	00000593          	li	a1,0
     e9c:	1bc000ef          	jal	1058 <memset>
     ea0:	000a0593          	mv	a1,s4
     ea4:	00098513          	mv	a0,s3
     ea8:	e55ff0ef          	jal	cfc <thread_entry>
     eac:	03f10a93          	addi	s5,sp,63
     eb0:	00000593          	li	a1,0
     eb4:	00000513          	li	a0,0
     eb8:	80418493          	addi	s1,gp,-2044 # 2880 <counters>
     ebc:	fc0afa93          	andi	s5,s5,-64
     ec0:	004010ef          	jal	1ec4 <main>
     ec4:	04848913          	addi	s2,s1,72
     ec8:	00050b93          	mv	s7,a0
     ecc:	00090993          	mv	s3,s2
     ed0:	000a8a13          	mv	s4,s5
     ed4:	00002b37          	lui	s6,0x2
     ed8:	0100006f          	j	ee8 <_init+0xb4>
     edc:	00448493          	addi	s1,s1,4
     ee0:	00490913          	addi	s2,s2,4
     ee4:	03348663          	beq	s1,s3,f10 <_init+0xdc>
     ee8:	0004a683          	lw	a3,0(s1)
     eec:	fe0688e3          	beqz	a3,edc <_init+0xa8>
     ef0:	00092603          	lw	a2,0(s2)
     ef4:	000a0513          	mv	a0,s4
     ef8:	2f8b0593          	addi	a1,s6,760 # 22f8 <__clz_tab+0x1b0>
     efc:	ed1ff0ef          	jal	dcc <sprintf>
     f00:	00448493          	addi	s1,s1,4
     f04:	00aa0a33          	add	s4,s4,a0
     f08:	00490913          	addi	s2,s2,4
     f0c:	fd349ee3          	bne	s1,s3,ee8 <_init+0xb4>
     f10:	034a8063          	beq	s5,s4,f30 <_init+0xfc>
     f14:	000a8513          	mv	a0,s5
     f18:	21c000ef          	jal	1134 <strlen>
     f1c:	00050613          	mv	a2,a0
     f20:	04000893          	li	a7,64
     f24:	00100513          	li	a0,1
     f28:	000a8593          	mv	a1,s5
     f2c:	00000073          	ecall
     f30:	000b8513          	mv	a0,s7
     f34:	d69ff0ef          	jal	c9c <exit>

00000f38 <memcpy>:
     f38:	00a5c7b3          	xor	a5,a1,a0
     f3c:	0037f793          	andi	a5,a5,3
     f40:	00c508b3          	add	a7,a0,a2
     f44:	0e079263          	bnez	a5,1028 <memcpy+0xf0>
     f48:	00300793          	li	a5,3
     f4c:	0ec7fe63          	bleu	a2,a5,1048 <memcpy+0x110>
     f50:	00357793          	andi	a5,a0,3
     f54:	04079a63          	bnez	a5,fa8 <memcpy+0x70>
     f58:	ffc8f813          	andi	a6,a7,-4
     f5c:	fe080793          	addi	a5,a6,-32
     f60:	00050713          	mv	a4,a0
     f64:	06f56663          	bltu	a0,a5,fd0 <memcpy+0x98>
     f68:	00058693          	mv	a3,a1
     f6c:	00070793          	mv	a5,a4
     f70:	03077863          	bleu	a6,a4,fa0 <memcpy+0x68>
     f74:	0006a603          	lw	a2,0(a3)
     f78:	00478793          	addi	a5,a5,4
     f7c:	00468693          	addi	a3,a3,4
     f80:	fec7ae23          	sw	a2,-4(a5)
     f84:	ff07e8e3          	bltu	a5,a6,f74 <memcpy+0x3c>
     f88:	fff74793          	not	a5,a4
     f8c:	01078833          	add	a6,a5,a6
     f90:	ffc87813          	andi	a6,a6,-4
     f94:	00480813          	addi	a6,a6,4
     f98:	01070733          	add	a4,a4,a6
     f9c:	010585b3          	add	a1,a1,a6
     fa0:	09176863          	bltu	a4,a7,1030 <memcpy+0xf8>
     fa4:	00008067          	ret
     fa8:	00050713          	mv	a4,a0
     fac:	0005c683          	lbu	a3,0(a1)
     fb0:	00170713          	addi	a4,a4,1
     fb4:	00377793          	andi	a5,a4,3
     fb8:	fed70fa3          	sb	a3,-1(a4)
     fbc:	00158593          	addi	a1,a1,1
     fc0:	fe0796e3          	bnez	a5,fac <memcpy+0x74>
     fc4:	ffc8f813          	andi	a6,a7,-4
     fc8:	fe080793          	addi	a5,a6,-32
     fcc:	f8f77ee3          	bleu	a5,a4,f68 <memcpy+0x30>
     fd0:	0005a383          	lw	t2,0(a1)
     fd4:	0045a283          	lw	t0,4(a1)
     fd8:	0085af83          	lw	t6,8(a1)
     fdc:	00c5af03          	lw	t5,12(a1)
     fe0:	0105ae83          	lw	t4,16(a1)
     fe4:	0145ae03          	lw	t3,20(a1)
     fe8:	0185a303          	lw	t1,24(a1)
     fec:	01c5a603          	lw	a2,28(a1)
     ff0:	02458593          	addi	a1,a1,36
     ff4:	02470713          	addi	a4,a4,36
     ff8:	ffc5a683          	lw	a3,-4(a1)
     ffc:	fc772e23          	sw	t2,-36(a4)
    1000:	fe572023          	sw	t0,-32(a4)
    1004:	fff72223          	sw	t6,-28(a4)
    1008:	ffe72423          	sw	t5,-24(a4)
    100c:	ffd72623          	sw	t4,-20(a4)
    1010:	ffc72823          	sw	t3,-16(a4)
    1014:	fe672a23          	sw	t1,-12(a4)
    1018:	fec72c23          	sw	a2,-8(a4)
    101c:	fed72e23          	sw	a3,-4(a4)
    1020:	faf768e3          	bltu	a4,a5,fd0 <memcpy+0x98>
    1024:	f45ff06f          	j	f68 <memcpy+0x30>
    1028:	00050713          	mv	a4,a0
    102c:	03157463          	bleu	a7,a0,1054 <memcpy+0x11c>
    1030:	0005c783          	lbu	a5,0(a1)
    1034:	00170713          	addi	a4,a4,1
    1038:	00158593          	addi	a1,a1,1
    103c:	fef70fa3          	sb	a5,-1(a4)
    1040:	ff1768e3          	bltu	a4,a7,1030 <memcpy+0xf8>
    1044:	00008067          	ret
    1048:	00050713          	mv	a4,a0
    104c:	ff1562e3          	bltu	a0,a7,1030 <memcpy+0xf8>
    1050:	f55ff06f          	j	fa4 <memcpy+0x6c>
    1054:	00008067          	ret

00001058 <memset>:
    1058:	00f00813          	li	a6,15
    105c:	00050713          	mv	a4,a0
    1060:	02c87e63          	bleu	a2,a6,109c <memset+0x44>
    1064:	00f77793          	andi	a5,a4,15
    1068:	0a079063          	bnez	a5,1108 <memset+0xb0>
    106c:	08059263          	bnez	a1,10f0 <memset+0x98>
    1070:	ff067693          	andi	a3,a2,-16
    1074:	00f67613          	andi	a2,a2,15
    1078:	00e686b3          	add	a3,a3,a4
    107c:	00b72023          	sw	a1,0(a4)
    1080:	00b72223          	sw	a1,4(a4)
    1084:	00b72423          	sw	a1,8(a4)
    1088:	00b72623          	sw	a1,12(a4)
    108c:	01070713          	addi	a4,a4,16
    1090:	fed766e3          	bltu	a4,a3,107c <memset+0x24>
    1094:	00061463          	bnez	a2,109c <memset+0x44>
    1098:	00008067          	ret
    109c:	40c806b3          	sub	a3,a6,a2
    10a0:	00269693          	slli	a3,a3,0x2
    10a4:	00000297          	auipc	t0,0x0
    10a8:	005686b3          	add	a3,a3,t0
    10ac:	00c68067          	jr	a3,12
    10b0:	00b70723          	sb	a1,14(a4)
    10b4:	00b706a3          	sb	a1,13(a4)
    10b8:	00b70623          	sb	a1,12(a4)
    10bc:	00b705a3          	sb	a1,11(a4)
    10c0:	00b70523          	sb	a1,10(a4)
    10c4:	00b704a3          	sb	a1,9(a4)
    10c8:	00b70423          	sb	a1,8(a4)
    10cc:	00b703a3          	sb	a1,7(a4)
    10d0:	00b70323          	sb	a1,6(a4)
    10d4:	00b702a3          	sb	a1,5(a4)
    10d8:	00b70223          	sb	a1,4(a4)
    10dc:	00b701a3          	sb	a1,3(a4)
    10e0:	00b70123          	sb	a1,2(a4)
    10e4:	00b700a3          	sb	a1,1(a4)
    10e8:	00b70023          	sb	a1,0(a4)
    10ec:	00008067          	ret
    10f0:	0ff5f593          	andi	a1,a1,255
    10f4:	00859693          	slli	a3,a1,0x8
    10f8:	00d5e5b3          	or	a1,a1,a3
    10fc:	01059693          	slli	a3,a1,0x10
    1100:	00d5e5b3          	or	a1,a1,a3
    1104:	f6dff06f          	j	1070 <memset+0x18>
    1108:	00279693          	slli	a3,a5,0x2
    110c:	00000297          	auipc	t0,0x0
    1110:	005686b3          	add	a3,a3,t0
    1114:	00008293          	mv	t0,ra
    1118:	fa0680e7          	jalr	a3,-96
    111c:	00028093          	mv	ra,t0
    1120:	ff078793          	addi	a5,a5,-16
    1124:	40f70733          	sub	a4,a4,a5
    1128:	00f60633          	add	a2,a2,a5
    112c:	f6c878e3          	bleu	a2,a6,109c <memset+0x44>
    1130:	f3dff06f          	j	106c <memset+0x14>

00001134 <strlen>:
    1134:	00357793          	andi	a5,a0,3
    1138:	00050593          	mv	a1,a0
    113c:	04079a63          	bnez	a5,1190 <strlen+0x5c>
    1140:	7f7f86b7          	lui	a3,0x7f7f8
    1144:	f7f68693          	addi	a3,a3,-129 # 7f7f7f7f <_gp+0x7f7f4f03>
    1148:	fff00613          	li	a2,-1
    114c:	00450513          	addi	a0,a0,4
    1150:	ffc52783          	lw	a5,-4(a0)
    1154:	00d7f733          	and	a4,a5,a3
    1158:	00d70733          	add	a4,a4,a3
    115c:	00d7e7b3          	or	a5,a5,a3
    1160:	00f767b3          	or	a5,a4,a5
    1164:	fec784e3          	beq	a5,a2,114c <strlen+0x18>
    1168:	ffc54703          	lbu	a4,-4(a0)
    116c:	40b507b3          	sub	a5,a0,a1
    1170:	ffd54683          	lbu	a3,-3(a0)
    1174:	ffe54603          	lbu	a2,-2(a0)
    1178:	02070e63          	beqz	a4,11b4 <strlen+0x80>
    117c:	02068863          	beqz	a3,11ac <strlen+0x78>
    1180:	fff78513          	addi	a0,a5,-1
    1184:	02060c63          	beqz	a2,11bc <strlen+0x88>
    1188:	00008067          	ret
    118c:	fa070ae3          	beqz	a4,1140 <strlen+0xc>
    1190:	00054783          	lbu	a5,0(a0)
    1194:	00150513          	addi	a0,a0,1
    1198:	00357713          	andi	a4,a0,3
    119c:	fe0798e3          	bnez	a5,118c <strlen+0x58>
    11a0:	40b50533          	sub	a0,a0,a1
    11a4:	fff50513          	addi	a0,a0,-1
    11a8:	00008067          	ret
    11ac:	ffd78513          	addi	a0,a5,-3
    11b0:	00008067          	ret
    11b4:	ffc78513          	addi	a0,a5,-4
    11b8:	00008067          	ret
    11bc:	ffe78513          	addi	a0,a5,-2
    11c0:	00008067          	ret

000011c4 <strnlen>:
    11c4:	02058e63          	beqz	a1,1200 <strnlen+0x3c>
    11c8:	00054783          	lbu	a5,0(a0)
    11cc:	02078a63          	beqz	a5,1200 <strnlen+0x3c>
    11d0:	00150793          	addi	a5,a0,1
    11d4:	00b505b3          	add	a1,a0,a1
    11d8:	0100006f          	j	11e8 <strnlen+0x24>
    11dc:	fff74683          	lbu	a3,-1(a4)
    11e0:	00068c63          	beqz	a3,11f8 <strnlen+0x34>
    11e4:	00070793          	mv	a5,a4
    11e8:	00178713          	addi	a4,a5,1
    11ec:	fef598e3          	bne	a1,a5,11dc <strnlen+0x18>
    11f0:	40a58533          	sub	a0,a1,a0
    11f4:	00008067          	ret
    11f8:	40a78533          	sub	a0,a5,a0
    11fc:	00008067          	ret
    1200:	00000513          	li	a0,0
    1204:	00008067          	ret

00001208 <__udivdi3>:
    1208:	fd010113          	addi	sp,sp,-48
    120c:	02912223          	sw	s1,36(sp)
    1210:	01312e23          	sw	s3,28(sp)
    1214:	01412c23          	sw	s4,24(sp)
    1218:	02112623          	sw	ra,44(sp)
    121c:	02812423          	sw	s0,40(sp)
    1220:	03212023          	sw	s2,32(sp)
    1224:	01512a23          	sw	s5,20(sp)
    1228:	01612823          	sw	s6,16(sp)
    122c:	01712623          	sw	s7,12(sp)
    1230:	01812423          	sw	s8,8(sp)
    1234:	01912223          	sw	s9,4(sp)
    1238:	01a12023          	sw	s10,0(sp)
    123c:	00050a13          	mv	s4,a0
    1240:	00058493          	mv	s1,a1
    1244:	00058993          	mv	s3,a1
    1248:	12069063          	bnez	a3,1368 <__udivdi3+0x160>
    124c:	00060413          	mv	s0,a2
    1250:	00050913          	mv	s2,a0
    1254:	16c5fa63          	bleu	a2,a1,13c8 <__udivdi3+0x1c0>
    1258:	000107b7          	lui	a5,0x10
    125c:	2ef67463          	bleu	a5,a2,1544 <__udivdi3+0x33c>
    1260:	0ff00793          	li	a5,255
    1264:	00c7b7b3          	sltu	a5,a5,a2
    1268:	00379793          	slli	a5,a5,0x3
    126c:	00002737          	lui	a4,0x2
    1270:	00f656b3          	srl	a3,a2,a5
    1274:	14870713          	addi	a4,a4,328 # 2148 <__clz_tab>
    1278:	00e68733          	add	a4,a3,a4
    127c:	00074703          	lbu	a4,0(a4)
    1280:	00f707b3          	add	a5,a4,a5
    1284:	02000713          	li	a4,32
    1288:	40f70733          	sub	a4,a4,a5
    128c:	00070c63          	beqz	a4,12a4 <__udivdi3+0x9c>
    1290:	00e494b3          	sll	s1,s1,a4
    1294:	00fa57b3          	srl	a5,s4,a5
    1298:	00e61433          	sll	s0,a2,a4
    129c:	0097e9b3          	or	s3,a5,s1
    12a0:	00ea1933          	sll	s2,s4,a4
    12a4:	01045b13          	srli	s6,s0,0x10
    12a8:	000b0593          	mv	a1,s6
    12ac:	00098513          	mv	a0,s3
    12b0:	3b1000ef          	jal	1e60 <__umodsi3>
    12b4:	00050a13          	mv	s4,a0
    12b8:	000b0593          	mv	a1,s6
    12bc:	00098513          	mv	a0,s3
    12c0:	01041b93          	slli	s7,s0,0x10
    12c4:	355000ef          	jal	1e18 <__udivsi3>
    12c8:	010bdb93          	srli	s7,s7,0x10
    12cc:	00050593          	mv	a1,a0
    12d0:	00050a93          	mv	s5,a0
    12d4:	000b8513          	mv	a0,s7
    12d8:	315000ef          	jal	1dec <__mulsi3>
    12dc:	010a1a13          	slli	s4,s4,0x10
    12e0:	01095793          	srli	a5,s2,0x10
    12e4:	0147e7b3          	or	a5,a5,s4
    12e8:	00a7fc63          	bleu	a0,a5,1300 <__udivdi3+0xf8>
    12ec:	008787b3          	add	a5,a5,s0
    12f0:	fffa8713          	addi	a4,s5,-1
    12f4:	0087e463          	bltu	a5,s0,12fc <__udivdi3+0xf4>
    12f8:	52a7e463          	bltu	a5,a0,1820 <__udivdi3+0x618>
    12fc:	00070a93          	mv	s5,a4
    1300:	40a784b3          	sub	s1,a5,a0
    1304:	000b0593          	mv	a1,s6
    1308:	00048513          	mv	a0,s1
    130c:	355000ef          	jal	1e60 <__umodsi3>
    1310:	00050993          	mv	s3,a0
    1314:	000b0593          	mv	a1,s6
    1318:	00048513          	mv	a0,s1
    131c:	2fd000ef          	jal	1e18 <__udivsi3>
    1320:	01091913          	slli	s2,s2,0x10
    1324:	00050593          	mv	a1,a0
    1328:	00050493          	mv	s1,a0
    132c:	01099993          	slli	s3,s3,0x10
    1330:	000b8513          	mv	a0,s7
    1334:	01095913          	srli	s2,s2,0x10
    1338:	2b5000ef          	jal	1dec <__mulsi3>
    133c:	01396933          	or	s2,s2,s3
    1340:	00a97c63          	bleu	a0,s2,1358 <__udivdi3+0x150>
    1344:	01240933          	add	s2,s0,s2
    1348:	fff48793          	addi	a5,s1,-1
    134c:	46896263          	bltu	s2,s0,17b0 <__udivdi3+0x5a8>
    1350:	ffe48493          	addi	s1,s1,-2
    1354:	44a97e63          	bleu	a0,s2,17b0 <__udivdi3+0x5a8>
    1358:	010a9513          	slli	a0,s5,0x10
    135c:	00956533          	or	a0,a0,s1
    1360:	00000a93          	li	s5,0
    1364:	1840006f          	j	14e8 <__udivdi3+0x2e0>
    1368:	00068793          	mv	a5,a3
    136c:	16d5ea63          	bltu	a1,a3,14e0 <__udivdi3+0x2d8>
    1370:	00010737          	lui	a4,0x10
    1374:	1ae6e863          	bltu	a3,a4,1524 <__udivdi3+0x31c>
    1378:	01000737          	lui	a4,0x1000
    137c:	00e6b733          	sltu	a4,a3,a4
    1380:	00174713          	xori	a4,a4,1
    1384:	40e00733          	neg	a4,a4
    1388:	00877713          	andi	a4,a4,8
    138c:	01070713          	addi	a4,a4,16 # 1000010 <_gp+0xffcf94>
    1390:	000025b7          	lui	a1,0x2
    1394:	00e6d533          	srl	a0,a3,a4
    1398:	14858593          	addi	a1,a1,328 # 2148 <__clz_tab>
    139c:	00b505b3          	add	a1,a0,a1
    13a0:	0005c583          	lbu	a1,0(a1)
    13a4:	02000a93          	li	s5,32
    13a8:	00e58733          	add	a4,a1,a4
    13ac:	40ea8ab3          	sub	s5,s5,a4
    13b0:	1a0a9863          	bnez	s5,1560 <__udivdi3+0x358>
    13b4:	00100513          	li	a0,1
    13b8:	1337e863          	bltu	a5,s3,14e8 <__udivdi3+0x2e0>
    13bc:	00ca3533          	sltu	a0,s4,a2
    13c0:	00154513          	xori	a0,a0,1
    13c4:	1240006f          	j	14e8 <__udivdi3+0x2e0>
    13c8:	00061a63          	bnez	a2,13dc <__udivdi3+0x1d4>
    13cc:	00000593          	li	a1,0
    13d0:	00100513          	li	a0,1
    13d4:	245000ef          	jal	1e18 <__udivsi3>
    13d8:	00050413          	mv	s0,a0
    13dc:	000107b7          	lui	a5,0x10
    13e0:	14f46a63          	bltu	s0,a5,1534 <__udivdi3+0x32c>
    13e4:	010007b7          	lui	a5,0x1000
    13e8:	00f437b3          	sltu	a5,s0,a5
    13ec:	0017c793          	xori	a5,a5,1
    13f0:	40f007b3          	neg	a5,a5
    13f4:	0087f793          	andi	a5,a5,8
    13f8:	01078793          	addi	a5,a5,16 # 1000010 <_gp+0xffcf94>
    13fc:	00002737          	lui	a4,0x2
    1400:	00f456b3          	srl	a3,s0,a5
    1404:	14870713          	addi	a4,a4,328 # 2148 <__clz_tab>
    1408:	00e68733          	add	a4,a3,a4
    140c:	00074703          	lbu	a4,0(a4)
    1410:	00f707b3          	add	a5,a4,a5
    1414:	02000713          	li	a4,32
    1418:	40f70733          	sub	a4,a4,a5
    141c:	2a071263          	bnez	a4,16c0 <__udivdi3+0x4b8>
    1420:	01041b13          	slli	s6,s0,0x10
    1424:	408484b3          	sub	s1,s1,s0
    1428:	01045b93          	srli	s7,s0,0x10
    142c:	010b5b13          	srli	s6,s6,0x10
    1430:	00100a93          	li	s5,1
    1434:	000b8593          	mv	a1,s7
    1438:	00048513          	mv	a0,s1
    143c:	225000ef          	jal	1e60 <__umodsi3>
    1440:	00050993          	mv	s3,a0
    1444:	000b8593          	mv	a1,s7
    1448:	00048513          	mv	a0,s1
    144c:	1cd000ef          	jal	1e18 <__udivsi3>
    1450:	000b0593          	mv	a1,s6
    1454:	00050a13          	mv	s4,a0
    1458:	195000ef          	jal	1dec <__mulsi3>
    145c:	01099993          	slli	s3,s3,0x10
    1460:	01095793          	srli	a5,s2,0x10
    1464:	0137e7b3          	or	a5,a5,s3
    1468:	00a7fc63          	bleu	a0,a5,1480 <__udivdi3+0x278>
    146c:	008787b3          	add	a5,a5,s0
    1470:	fffa0713          	addi	a4,s4,-1
    1474:	0087e463          	bltu	a5,s0,147c <__udivdi3+0x274>
    1478:	38a7ee63          	bltu	a5,a0,1814 <__udivdi3+0x60c>
    147c:	00070a13          	mv	s4,a4
    1480:	40a784b3          	sub	s1,a5,a0
    1484:	000b8593          	mv	a1,s7
    1488:	00048513          	mv	a0,s1
    148c:	1d5000ef          	jal	1e60 <__umodsi3>
    1490:	00050993          	mv	s3,a0
    1494:	000b8593          	mv	a1,s7
    1498:	00048513          	mv	a0,s1
    149c:	17d000ef          	jal	1e18 <__udivsi3>
    14a0:	01091913          	slli	s2,s2,0x10
    14a4:	000b0593          	mv	a1,s6
    14a8:	01099993          	slli	s3,s3,0x10
    14ac:	01095913          	srli	s2,s2,0x10
    14b0:	00050493          	mv	s1,a0
    14b4:	01396933          	or	s2,s2,s3
    14b8:	135000ef          	jal	1dec <__mulsi3>
    14bc:	00a97c63          	bleu	a0,s2,14d4 <__udivdi3+0x2cc>
    14c0:	01240933          	add	s2,s0,s2
    14c4:	fff48793          	addi	a5,s1,-1
    14c8:	2e896063          	bltu	s2,s0,17a8 <__udivdi3+0x5a0>
    14cc:	ffe48493          	addi	s1,s1,-2
    14d0:	2ca97c63          	bleu	a0,s2,17a8 <__udivdi3+0x5a0>
    14d4:	010a1513          	slli	a0,s4,0x10
    14d8:	00956533          	or	a0,a0,s1
    14dc:	00c0006f          	j	14e8 <__udivdi3+0x2e0>
    14e0:	00000a93          	li	s5,0
    14e4:	00000513          	li	a0,0
    14e8:	000a8593          	mv	a1,s5
    14ec:	02c12083          	lw	ra,44(sp)
    14f0:	02812403          	lw	s0,40(sp)
    14f4:	02412483          	lw	s1,36(sp)
    14f8:	02012903          	lw	s2,32(sp)
    14fc:	01c12983          	lw	s3,28(sp)
    1500:	01812a03          	lw	s4,24(sp)
    1504:	01412a83          	lw	s5,20(sp)
    1508:	01012b03          	lw	s6,16(sp)
    150c:	00c12b83          	lw	s7,12(sp)
    1510:	00812c03          	lw	s8,8(sp)
    1514:	00412c83          	lw	s9,4(sp)
    1518:	00012d03          	lw	s10,0(sp)
    151c:	03010113          	addi	sp,sp,48
    1520:	00008067          	ret
    1524:	0ff00713          	li	a4,255
    1528:	00d73733          	sltu	a4,a4,a3
    152c:	00371713          	slli	a4,a4,0x3
    1530:	e61ff06f          	j	1390 <__udivdi3+0x188>
    1534:	0ff00793          	li	a5,255
    1538:	0087b7b3          	sltu	a5,a5,s0
    153c:	00379793          	slli	a5,a5,0x3
    1540:	ebdff06f          	j	13fc <__udivdi3+0x1f4>
    1544:	010007b7          	lui	a5,0x1000
    1548:	00f637b3          	sltu	a5,a2,a5
    154c:	0017c793          	xori	a5,a5,1
    1550:	40f007b3          	neg	a5,a5
    1554:	0087f793          	andi	a5,a5,8
    1558:	01078793          	addi	a5,a5,16 # 1000010 <_gp+0xffcf94>
    155c:	d11ff06f          	j	126c <__udivdi3+0x64>
    1560:	00e65cb3          	srl	s9,a2,a4
    1564:	015696b3          	sll	a3,a3,s5
    1568:	0196ecb3          	or	s9,a3,s9
    156c:	00e4d433          	srl	s0,s1,a4
    1570:	010cd993          	srli	s3,s9,0x10
    1574:	00ea5733          	srl	a4,s4,a4
    1578:	00098593          	mv	a1,s3
    157c:	015494b3          	sll	s1,s1,s5
    1580:	00040513          	mv	a0,s0
    1584:	009764b3          	or	s1,a4,s1
    1588:	01561b33          	sll	s6,a2,s5
    158c:	0d5000ef          	jal	1e60 <__umodsi3>
    1590:	00050913          	mv	s2,a0
    1594:	00098593          	mv	a1,s3
    1598:	010c9c13          	slli	s8,s9,0x10
    159c:	00040513          	mv	a0,s0
    15a0:	079000ef          	jal	1e18 <__udivsi3>
    15a4:	010c5c13          	srli	s8,s8,0x10
    15a8:	00050593          	mv	a1,a0
    15ac:	00050b93          	mv	s7,a0
    15b0:	000c0513          	mv	a0,s8
    15b4:	039000ef          	jal	1dec <__mulsi3>
    15b8:	01091913          	slli	s2,s2,0x10
    15bc:	0104d793          	srli	a5,s1,0x10
    15c0:	0127e7b3          	or	a5,a5,s2
    15c4:	00a7fa63          	bleu	a0,a5,15d8 <__udivdi3+0x3d0>
    15c8:	019787b3          	add	a5,a5,s9
    15cc:	fffb8713          	addi	a4,s7,-1
    15d0:	2397f263          	bleu	s9,a5,17f4 <__udivdi3+0x5ec>
    15d4:	00070b93          	mv	s7,a4
    15d8:	40a78433          	sub	s0,a5,a0
    15dc:	00098593          	mv	a1,s3
    15e0:	00040513          	mv	a0,s0
    15e4:	07d000ef          	jal	1e60 <__umodsi3>
    15e8:	00050913          	mv	s2,a0
    15ec:	00098593          	mv	a1,s3
    15f0:	00040513          	mv	a0,s0
    15f4:	025000ef          	jal	1e18 <__udivsi3>
    15f8:	01049493          	slli	s1,s1,0x10
    15fc:	00050593          	mv	a1,a0
    1600:	00050413          	mv	s0,a0
    1604:	01091913          	slli	s2,s2,0x10
    1608:	000c0513          	mv	a0,s8
    160c:	0104d493          	srli	s1,s1,0x10
    1610:	7dc000ef          	jal	1dec <__mulsi3>
    1614:	0124e4b3          	or	s1,s1,s2
    1618:	00050793          	mv	a5,a0
    161c:	00a4fa63          	bleu	a0,s1,1630 <__udivdi3+0x428>
    1620:	019484b3          	add	s1,s1,s9
    1624:	fff40713          	addi	a4,s0,-1
    1628:	1b94fe63          	bleu	s9,s1,17e4 <__udivdi3+0x5dc>
    162c:	00070413          	mv	s0,a4
    1630:	010b9b93          	slli	s7,s7,0x10
    1634:	00010cb7          	lui	s9,0x10
    1638:	008bebb3          	or	s7,s7,s0
    163c:	fffc8413          	addi	s0,s9,-1 # ffff <_gp+0xcf83>
    1640:	008bf9b3          	and	s3,s7,s0
    1644:	008b7433          	and	s0,s6,s0
    1648:	00040593          	mv	a1,s0
    164c:	00098513          	mv	a0,s3
    1650:	40f484b3          	sub	s1,s1,a5
    1654:	010bdc13          	srli	s8,s7,0x10
    1658:	794000ef          	jal	1dec <__mulsi3>
    165c:	00040593          	mv	a1,s0
    1660:	00050d13          	mv	s10,a0
    1664:	000c0513          	mv	a0,s8
    1668:	784000ef          	jal	1dec <__mulsi3>
    166c:	010b5b13          	srli	s6,s6,0x10
    1670:	00050913          	mv	s2,a0
    1674:	000b0593          	mv	a1,s6
    1678:	000c0513          	mv	a0,s8
    167c:	770000ef          	jal	1dec <__mulsi3>
    1680:	00050413          	mv	s0,a0
    1684:	000b0593          	mv	a1,s6
    1688:	00098513          	mv	a0,s3
    168c:	760000ef          	jal	1dec <__mulsi3>
    1690:	01250533          	add	a0,a0,s2
    1694:	010d5793          	srli	a5,s10,0x10
    1698:	00a787b3          	add	a5,a5,a0
    169c:	0127f463          	bleu	s2,a5,16a4 <__udivdi3+0x49c>
    16a0:	01940433          	add	s0,s0,s9
    16a4:	0107d513          	srli	a0,a5,0x10
    16a8:	00850533          	add	a0,a0,s0
    16ac:	12a4e663          	bltu	s1,a0,17d8 <__udivdi3+0x5d0>
    16b0:	10a48463          	beq	s1,a0,17b8 <__udivdi3+0x5b0>
    16b4:	000b8513          	mv	a0,s7
    16b8:	00000a93          	li	s5,0
    16bc:	e2dff06f          	j	14e8 <__udivdi3+0x2e0>
    16c0:	00e41433          	sll	s0,s0,a4
    16c4:	00f4dab3          	srl	s5,s1,a5
    16c8:	01045993          	srli	s3,s0,0x10
    16cc:	00fa57b3          	srl	a5,s4,a5
    16d0:	00e494b3          	sll	s1,s1,a4
    16d4:	00098593          	mv	a1,s3
    16d8:	000a8513          	mv	a0,s5
    16dc:	0097ebb3          	or	s7,a5,s1
    16e0:	00ea1933          	sll	s2,s4,a4
    16e4:	77c000ef          	jal	1e60 <__umodsi3>
    16e8:	00050a13          	mv	s4,a0
    16ec:	00098593          	mv	a1,s3
    16f0:	01041b13          	slli	s6,s0,0x10
    16f4:	000a8513          	mv	a0,s5
    16f8:	720000ef          	jal	1e18 <__udivsi3>
    16fc:	010b5b13          	srli	s6,s6,0x10
    1700:	00050593          	mv	a1,a0
    1704:	00050c13          	mv	s8,a0
    1708:	000b0513          	mv	a0,s6
    170c:	6e0000ef          	jal	1dec <__mulsi3>
    1710:	010a1a13          	slli	s4,s4,0x10
    1714:	010bd793          	srli	a5,s7,0x10
    1718:	0147e7b3          	or	a5,a5,s4
    171c:	00a7fe63          	bleu	a0,a5,1738 <__udivdi3+0x530>
    1720:	008787b3          	add	a5,a5,s0
    1724:	fffc0713          	addi	a4,s8,-1
    1728:	0e87e263          	bltu	a5,s0,180c <__udivdi3+0x604>
    172c:	0ea7f063          	bleu	a0,a5,180c <__udivdi3+0x604>
    1730:	ffec0c13          	addi	s8,s8,-2
    1734:	008787b3          	add	a5,a5,s0
    1738:	40a78ab3          	sub	s5,a5,a0
    173c:	00098593          	mv	a1,s3
    1740:	000a8513          	mv	a0,s5
    1744:	71c000ef          	jal	1e60 <__umodsi3>
    1748:	00050a13          	mv	s4,a0
    174c:	00098593          	mv	a1,s3
    1750:	000a8513          	mv	a0,s5
    1754:	6c4000ef          	jal	1e18 <__udivsi3>
    1758:	00050593          	mv	a1,a0
    175c:	00050a93          	mv	s5,a0
    1760:	000b0513          	mv	a0,s6
    1764:	688000ef          	jal	1dec <__mulsi3>
    1768:	010b9793          	slli	a5,s7,0x10
    176c:	010a1a13          	slli	s4,s4,0x10
    1770:	0107d793          	srli	a5,a5,0x10
    1774:	0147e7b3          	or	a5,a5,s4
    1778:	00a7fe63          	bleu	a0,a5,1794 <__udivdi3+0x58c>
    177c:	008787b3          	add	a5,a5,s0
    1780:	fffa8713          	addi	a4,s5,-1
    1784:	0887e063          	bltu	a5,s0,1804 <__udivdi3+0x5fc>
    1788:	06a7fe63          	bleu	a0,a5,1804 <__udivdi3+0x5fc>
    178c:	ffea8a93          	addi	s5,s5,-2
    1790:	008787b3          	add	a5,a5,s0
    1794:	010c1c13          	slli	s8,s8,0x10
    1798:	40a784b3          	sub	s1,a5,a0
    179c:	015c6ab3          	or	s5,s8,s5
    17a0:	00098b93          	mv	s7,s3
    17a4:	c91ff06f          	j	1434 <__udivdi3+0x22c>
    17a8:	00078493          	mv	s1,a5
    17ac:	d29ff06f          	j	14d4 <__udivdi3+0x2cc>
    17b0:	00078493          	mv	s1,a5
    17b4:	ba5ff06f          	j	1358 <__udivdi3+0x150>
    17b8:	000106b7          	lui	a3,0x10
    17bc:	fff68693          	addi	a3,a3,-1 # ffff <_gp+0xcf83>
    17c0:	00d7f7b3          	and	a5,a5,a3
    17c4:	01079713          	slli	a4,a5,0x10
    17c8:	00dd77b3          	and	a5,s10,a3
    17cc:	015a1a33          	sll	s4,s4,s5
    17d0:	00f707b3          	add	a5,a4,a5
    17d4:	eefa70e3          	bleu	a5,s4,16b4 <__udivdi3+0x4ac>
    17d8:	fffb8513          	addi	a0,s7,-1
    17dc:	00000a93          	li	s5,0
    17e0:	d09ff06f          	j	14e8 <__udivdi3+0x2e0>
    17e4:	e4a4f4e3          	bleu	a0,s1,162c <__udivdi3+0x424>
    17e8:	ffe40413          	addi	s0,s0,-2
    17ec:	019484b3          	add	s1,s1,s9
    17f0:	e41ff06f          	j	1630 <__udivdi3+0x428>
    17f4:	dea7f0e3          	bleu	a0,a5,15d4 <__udivdi3+0x3cc>
    17f8:	ffeb8b93          	addi	s7,s7,-2
    17fc:	019787b3          	add	a5,a5,s9
    1800:	dd9ff06f          	j	15d8 <__udivdi3+0x3d0>
    1804:	00070a93          	mv	s5,a4
    1808:	f8dff06f          	j	1794 <__udivdi3+0x58c>
    180c:	00070c13          	mv	s8,a4
    1810:	f29ff06f          	j	1738 <__udivdi3+0x530>
    1814:	ffea0a13          	addi	s4,s4,-2
    1818:	008787b3          	add	a5,a5,s0
    181c:	c65ff06f          	j	1480 <__udivdi3+0x278>
    1820:	ffea8a93          	addi	s5,s5,-2
    1824:	008787b3          	add	a5,a5,s0
    1828:	ad9ff06f          	j	1300 <__udivdi3+0xf8>

0000182c <__umoddi3>:
    182c:	fb010113          	addi	sp,sp,-80
    1830:	04812423          	sw	s0,72(sp)
    1834:	04912223          	sw	s1,68(sp)
    1838:	05212023          	sw	s2,64(sp)
    183c:	03312e23          	sw	s3,60(sp)
    1840:	03512a23          	sw	s5,52(sp)
    1844:	04112623          	sw	ra,76(sp)
    1848:	03412c23          	sw	s4,56(sp)
    184c:	03612823          	sw	s6,48(sp)
    1850:	03712623          	sw	s7,44(sp)
    1854:	03812423          	sw	s8,40(sp)
    1858:	03912223          	sw	s9,36(sp)
    185c:	03a12023          	sw	s10,32(sp)
    1860:	01b12e23          	sw	s11,28(sp)
    1864:	00058493          	mv	s1,a1
    1868:	00050413          	mv	s0,a0
    186c:	00060913          	mv	s2,a2
    1870:	00050993          	mv	s3,a0
    1874:	00058a93          	mv	s5,a1
    1878:	14069463          	bnez	a3,19c0 <__umoddi3+0x194>
    187c:	1ac5fa63          	bleu	a2,a1,1a30 <__umoddi3+0x204>
    1880:	000107b7          	lui	a5,0x10
    1884:	2af66063          	bltu	a2,a5,1b24 <__umoddi3+0x2f8>
    1888:	010007b7          	lui	a5,0x1000
    188c:	00f637b3          	sltu	a5,a2,a5
    1890:	0017c793          	xori	a5,a5,1
    1894:	40f007b3          	neg	a5,a5
    1898:	0087f793          	andi	a5,a5,8
    189c:	01078793          	addi	a5,a5,16 # 1000010 <_gp+0xffcf94>
    18a0:	00002737          	lui	a4,0x2
    18a4:	00f656b3          	srl	a3,a2,a5
    18a8:	14870713          	addi	a4,a4,328 # 2148 <__clz_tab>
    18ac:	00e68733          	add	a4,a3,a4
    18b0:	00074583          	lbu	a1,0(a4)
    18b4:	02000513          	li	a0,32
    18b8:	00f587b3          	add	a5,a1,a5
    18bc:	40f50a33          	sub	s4,a0,a5
    18c0:	000a0c63          	beqz	s4,18d8 <__umoddi3+0xac>
    18c4:	014495b3          	sll	a1,s1,s4
    18c8:	00f457b3          	srl	a5,s0,a5
    18cc:	01461933          	sll	s2,a2,s4
    18d0:	00b7eab3          	or	s5,a5,a1
    18d4:	014419b3          	sll	s3,s0,s4
    18d8:	01095b13          	srli	s6,s2,0x10
    18dc:	000b0593          	mv	a1,s6
    18e0:	000a8513          	mv	a0,s5
    18e4:	57c000ef          	jal	1e60 <__umodsi3>
    18e8:	00050493          	mv	s1,a0
    18ec:	000b0593          	mv	a1,s6
    18f0:	000a8513          	mv	a0,s5
    18f4:	01091a93          	slli	s5,s2,0x10
    18f8:	520000ef          	jal	1e18 <__udivsi3>
    18fc:	010ada93          	srli	s5,s5,0x10
    1900:	00050593          	mv	a1,a0
    1904:	000a8513          	mv	a0,s5
    1908:	4e4000ef          	jal	1dec <__mulsi3>
    190c:	01049493          	slli	s1,s1,0x10
    1910:	0109d793          	srli	a5,s3,0x10
    1914:	0097e7b3          	or	a5,a5,s1
    1918:	00a7f863          	bleu	a0,a5,1928 <__umoddi3+0xfc>
    191c:	012787b3          	add	a5,a5,s2
    1920:	0127e463          	bltu	a5,s2,1928 <__umoddi3+0xfc>
    1924:	4aa7e863          	bltu	a5,a0,1dd4 <__umoddi3+0x5a8>
    1928:	40a78433          	sub	s0,a5,a0
    192c:	000b0593          	mv	a1,s6
    1930:	00040513          	mv	a0,s0
    1934:	52c000ef          	jal	1e60 <__umodsi3>
    1938:	000b0593          	mv	a1,s6
    193c:	00050493          	mv	s1,a0
    1940:	00040513          	mv	a0,s0
    1944:	4d4000ef          	jal	1e18 <__udivsi3>
    1948:	00050593          	mv	a1,a0
    194c:	000a8513          	mv	a0,s5
    1950:	49c000ef          	jal	1dec <__mulsi3>
    1954:	01099793          	slli	a5,s3,0x10
    1958:	01049493          	slli	s1,s1,0x10
    195c:	0107d793          	srli	a5,a5,0x10
    1960:	0097e7b3          	or	a5,a5,s1
    1964:	00a7fa63          	bleu	a0,a5,1978 <__umoddi3+0x14c>
    1968:	012787b3          	add	a5,a5,s2
    196c:	0127e663          	bltu	a5,s2,1978 <__umoddi3+0x14c>
    1970:	00a7f463          	bleu	a0,a5,1978 <__umoddi3+0x14c>
    1974:	012787b3          	add	a5,a5,s2
    1978:	40a78533          	sub	a0,a5,a0
    197c:	01455533          	srl	a0,a0,s4
    1980:	00000593          	li	a1,0
    1984:	04c12083          	lw	ra,76(sp)
    1988:	04812403          	lw	s0,72(sp)
    198c:	04412483          	lw	s1,68(sp)
    1990:	04012903          	lw	s2,64(sp)
    1994:	03c12983          	lw	s3,60(sp)
    1998:	03812a03          	lw	s4,56(sp)
    199c:	03412a83          	lw	s5,52(sp)
    19a0:	03012b03          	lw	s6,48(sp)
    19a4:	02c12b83          	lw	s7,44(sp)
    19a8:	02812c03          	lw	s8,40(sp)
    19ac:	02412c83          	lw	s9,36(sp)
    19b0:	02012d03          	lw	s10,32(sp)
    19b4:	01c12d83          	lw	s11,28(sp)
    19b8:	05010113          	addi	sp,sp,80
    19bc:	00008067          	ret
    19c0:	fcd5e2e3          	bltu	a1,a3,1984 <__umoddi3+0x158>
    19c4:	000107b7          	lui	a5,0x10
    19c8:	00068813          	mv	a6,a3
    19cc:	12f6ec63          	bltu	a3,a5,1b04 <__umoddi3+0x2d8>
    19d0:	01000737          	lui	a4,0x1000
    19d4:	00e6b733          	sltu	a4,a3,a4
    19d8:	00174713          	xori	a4,a4,1
    19dc:	40e00733          	neg	a4,a4
    19e0:	00877713          	andi	a4,a4,8
    19e4:	01070713          	addi	a4,a4,16 # 1000010 <_gp+0xffcf94>
    19e8:	000027b7          	lui	a5,0x2
    19ec:	00e6d5b3          	srl	a1,a3,a4
    19f0:	14878793          	addi	a5,a5,328 # 2148 <__clz_tab>
    19f4:	00f587b3          	add	a5,a1,a5
    19f8:	0007cb03          	lbu	s6,0(a5)
    19fc:	02000593          	li	a1,32
    1a00:	00eb0b33          	add	s6,s6,a4
    1a04:	41658a33          	sub	s4,a1,s6
    1a08:	120a1663          	bnez	s4,1b34 <__umoddi3+0x308>
    1a0c:	01586663          	bltu	a6,s5,1a18 <__umoddi3+0x1ec>
    1a10:	00040513          	mv	a0,s0
    1a14:	0129ea63          	bltu	s3,s2,1a28 <__umoddi3+0x1fc>
    1a18:	40c40533          	sub	a0,s0,a2
    1a1c:	40d486b3          	sub	a3,s1,a3
    1a20:	00a43433          	sltu	s0,s0,a0
    1a24:	40868ab3          	sub	s5,a3,s0
    1a28:	000a8593          	mv	a1,s5
    1a2c:	f59ff06f          	j	1984 <__umoddi3+0x158>
    1a30:	00061a63          	bnez	a2,1a44 <__umoddi3+0x218>
    1a34:	00000593          	li	a1,0
    1a38:	00100513          	li	a0,1
    1a3c:	3dc000ef          	jal	1e18 <__udivsi3>
    1a40:	00050913          	mv	s2,a0
    1a44:	000107b7          	lui	a5,0x10
    1a48:	0cf96663          	bltu	s2,a5,1b14 <__umoddi3+0x2e8>
    1a4c:	010007b7          	lui	a5,0x1000
    1a50:	00f937b3          	sltu	a5,s2,a5
    1a54:	0017c793          	xori	a5,a5,1
    1a58:	40f007b3          	neg	a5,a5
    1a5c:	0087f793          	andi	a5,a5,8
    1a60:	01078793          	addi	a5,a5,16 # 1000010 <_gp+0xffcf94>
    1a64:	00002737          	lui	a4,0x2
    1a68:	00f956b3          	srl	a3,s2,a5
    1a6c:	14870713          	addi	a4,a4,328 # 2148 <__clz_tab>
    1a70:	00e68733          	add	a4,a3,a4
    1a74:	00074703          	lbu	a4,0(a4)
    1a78:	02000513          	li	a0,32
    1a7c:	00f707b3          	add	a5,a4,a5
    1a80:	40f50a33          	sub	s4,a0,a5
    1a84:	240a1863          	bnez	s4,1cd4 <__umoddi3+0x4a8>
    1a88:	01091b93          	slli	s7,s2,0x10
    1a8c:	412484b3          	sub	s1,s1,s2
    1a90:	01095b13          	srli	s6,s2,0x10
    1a94:	010bdb93          	srli	s7,s7,0x10
    1a98:	000b0593          	mv	a1,s6
    1a9c:	00048513          	mv	a0,s1
    1aa0:	3c0000ef          	jal	1e60 <__umodsi3>
    1aa4:	00050a93          	mv	s5,a0
    1aa8:	000b0593          	mv	a1,s6
    1aac:	00048513          	mv	a0,s1
    1ab0:	368000ef          	jal	1e18 <__udivsi3>
    1ab4:	000b8593          	mv	a1,s7
    1ab8:	334000ef          	jal	1dec <__mulsi3>
    1abc:	010a9a93          	slli	s5,s5,0x10
    1ac0:	0109d793          	srli	a5,s3,0x10
    1ac4:	0157e7b3          	or	a5,a5,s5
    1ac8:	00a7fa63          	bleu	a0,a5,1adc <__umoddi3+0x2b0>
    1acc:	012787b3          	add	a5,a5,s2
    1ad0:	0127e663          	bltu	a5,s2,1adc <__umoddi3+0x2b0>
    1ad4:	00a7f463          	bleu	a0,a5,1adc <__umoddi3+0x2b0>
    1ad8:	012787b3          	add	a5,a5,s2
    1adc:	40a78433          	sub	s0,a5,a0
    1ae0:	000b0593          	mv	a1,s6
    1ae4:	00040513          	mv	a0,s0
    1ae8:	378000ef          	jal	1e60 <__umodsi3>
    1aec:	000b0593          	mv	a1,s6
    1af0:	00050493          	mv	s1,a0
    1af4:	00040513          	mv	a0,s0
    1af8:	320000ef          	jal	1e18 <__udivsi3>
    1afc:	000b8593          	mv	a1,s7
    1b00:	e51ff06f          	j	1950 <__umoddi3+0x124>
    1b04:	0ff00713          	li	a4,255
    1b08:	00d73733          	sltu	a4,a4,a3
    1b0c:	00371713          	slli	a4,a4,0x3
    1b10:	ed9ff06f          	j	19e8 <__umoddi3+0x1bc>
    1b14:	0ff00793          	li	a5,255
    1b18:	0127b7b3          	sltu	a5,a5,s2
    1b1c:	00379793          	slli	a5,a5,0x3
    1b20:	f45ff06f          	j	1a64 <__umoddi3+0x238>
    1b24:	0ff00793          	li	a5,255
    1b28:	00c7b7b3          	sltu	a5,a5,a2
    1b2c:	00379793          	slli	a5,a5,0x3
    1b30:	d71ff06f          	j	18a0 <__umoddi3+0x74>
    1b34:	016659b3          	srl	s3,a2,s6
    1b38:	014696b3          	sll	a3,a3,s4
    1b3c:	0136e9b3          	or	s3,a3,s3
    1b40:	0164dab3          	srl	s5,s1,s6
    1b44:	0109db93          	srli	s7,s3,0x10
    1b48:	014496b3          	sll	a3,s1,s4
    1b4c:	000b8593          	mv	a1,s7
    1b50:	016454b3          	srl	s1,s0,s6
    1b54:	000a8513          	mv	a0,s5
    1b58:	00d4e4b3          	or	s1,s1,a3
    1b5c:	01461933          	sll	s2,a2,s4
    1b60:	300000ef          	jal	1e60 <__umodsi3>
    1b64:	00050c13          	mv	s8,a0
    1b68:	000b8593          	mv	a1,s7
    1b6c:	01099c93          	slli	s9,s3,0x10
    1b70:	000a8513          	mv	a0,s5
    1b74:	2a4000ef          	jal	1e18 <__udivsi3>
    1b78:	010cdc93          	srli	s9,s9,0x10
    1b7c:	00050593          	mv	a1,a0
    1b80:	00050d13          	mv	s10,a0
    1b84:	000c8513          	mv	a0,s9
    1b88:	264000ef          	jal	1dec <__mulsi3>
    1b8c:	010c1c13          	slli	s8,s8,0x10
    1b90:	0104d793          	srli	a5,s1,0x10
    1b94:	0187e7b3          	or	a5,a5,s8
    1b98:	01441433          	sll	s0,s0,s4
    1b9c:	00a7fa63          	bleu	a0,a5,1bb0 <__umoddi3+0x384>
    1ba0:	013787b3          	add	a5,a5,s3
    1ba4:	fffd0713          	addi	a4,s10,-1
    1ba8:	2137fe63          	bleu	s3,a5,1dc4 <__umoddi3+0x598>
    1bac:	00070d13          	mv	s10,a4
    1bb0:	40a78ab3          	sub	s5,a5,a0
    1bb4:	000b8593          	mv	a1,s7
    1bb8:	000a8513          	mv	a0,s5
    1bbc:	2a4000ef          	jal	1e60 <__umodsi3>
    1bc0:	00050c13          	mv	s8,a0
    1bc4:	000b8593          	mv	a1,s7
    1bc8:	000a8513          	mv	a0,s5
    1bcc:	24c000ef          	jal	1e18 <__udivsi3>
    1bd0:	00050593          	mv	a1,a0
    1bd4:	00050a93          	mv	s5,a0
    1bd8:	000c8513          	mv	a0,s9
    1bdc:	210000ef          	jal	1dec <__mulsi3>
    1be0:	01049693          	slli	a3,s1,0x10
    1be4:	010c1c13          	slli	s8,s8,0x10
    1be8:	0106d693          	srli	a3,a3,0x10
    1bec:	0186e6b3          	or	a3,a3,s8
    1bf0:	00050713          	mv	a4,a0
    1bf4:	00a6fa63          	bleu	a0,a3,1c08 <__umoddi3+0x3dc>
    1bf8:	013686b3          	add	a3,a3,s3
    1bfc:	fffa8793          	addi	a5,s5,-1
    1c00:	1b36fa63          	bleu	s3,a3,1db4 <__umoddi3+0x588>
    1c04:	00078a93          	mv	s5,a5
    1c08:	00010637          	lui	a2,0x10
    1c0c:	010d1d13          	slli	s10,s10,0x10
    1c10:	fff60b93          	addi	s7,a2,-1 # ffff <_gp+0xcf83>
    1c14:	015d6ab3          	or	s5,s10,s5
    1c18:	017afdb3          	and	s11,s5,s7
    1c1c:	01797bb3          	and	s7,s2,s7
    1c20:	000b8593          	mv	a1,s7
    1c24:	000d8513          	mv	a0,s11
    1c28:	00c12623          	sw	a2,12(sp)
    1c2c:	40e684b3          	sub	s1,a3,a4
    1c30:	010ada93          	srli	s5,s5,0x10
    1c34:	1b8000ef          	jal	1dec <__mulsi3>
    1c38:	00050c93          	mv	s9,a0
    1c3c:	000b8593          	mv	a1,s7
    1c40:	000a8513          	mv	a0,s5
    1c44:	1a8000ef          	jal	1dec <__mulsi3>
    1c48:	01095c13          	srli	s8,s2,0x10
    1c4c:	00050d13          	mv	s10,a0
    1c50:	000c0593          	mv	a1,s8
    1c54:	000a8513          	mv	a0,s5
    1c58:	194000ef          	jal	1dec <__mulsi3>
    1c5c:	00050a93          	mv	s5,a0
    1c60:	000c0593          	mv	a1,s8
    1c64:	000d8513          	mv	a0,s11
    1c68:	184000ef          	jal	1dec <__mulsi3>
    1c6c:	01a50533          	add	a0,a0,s10
    1c70:	010cd793          	srli	a5,s9,0x10
    1c74:	00a78533          	add	a0,a5,a0
    1c78:	01a57663          	bleu	s10,a0,1c84 <__umoddi3+0x458>
    1c7c:	00c12603          	lw	a2,12(sp)
    1c80:	00ca8ab3          	add	s5,s5,a2
    1c84:	000107b7          	lui	a5,0x10
    1c88:	fff78813          	addi	a6,a5,-1 # ffff <_gp+0xcf83>
    1c8c:	01055593          	srli	a1,a0,0x10
    1c90:	01057533          	and	a0,a0,a6
    1c94:	01051793          	slli	a5,a0,0x10
    1c98:	010cf633          	and	a2,s9,a6
    1c9c:	015585b3          	add	a1,a1,s5
    1ca0:	00c78633          	add	a2,a5,a2
    1ca4:	0eb4ec63          	bltu	s1,a1,1d9c <__umoddi3+0x570>
    1ca8:	12b48a63          	beq	s1,a1,1ddc <__umoddi3+0x5b0>
    1cac:	40b48733          	sub	a4,s1,a1
    1cb0:	00060793          	mv	a5,a2
    1cb4:	40f407b3          	sub	a5,s0,a5
    1cb8:	00f435b3          	sltu	a1,s0,a5
    1cbc:	40b705b3          	sub	a1,a4,a1
    1cc0:	01659533          	sll	a0,a1,s6
    1cc4:	0147d7b3          	srl	a5,a5,s4
    1cc8:	00f56533          	or	a0,a0,a5
    1ccc:	0145d5b3          	srl	a1,a1,s4
    1cd0:	cb5ff06f          	j	1984 <__umoddi3+0x158>
    1cd4:	01491933          	sll	s2,s2,s4
    1cd8:	00f4db33          	srl	s6,s1,a5
    1cdc:	01095a93          	srli	s5,s2,0x10
    1ce0:	00f457b3          	srl	a5,s0,a5
    1ce4:	000a8593          	mv	a1,s5
    1ce8:	014494b3          	sll	s1,s1,s4
    1cec:	000b0513          	mv	a0,s6
    1cf0:	0097ec33          	or	s8,a5,s1
    1cf4:	16c000ef          	jal	1e60 <__umodsi3>
    1cf8:	00050993          	mv	s3,a0
    1cfc:	000a8593          	mv	a1,s5
    1d00:	01091b93          	slli	s7,s2,0x10
    1d04:	000b0513          	mv	a0,s6
    1d08:	110000ef          	jal	1e18 <__udivsi3>
    1d0c:	010bdb93          	srli	s7,s7,0x10
    1d10:	00050593          	mv	a1,a0
    1d14:	000b8513          	mv	a0,s7
    1d18:	0d4000ef          	jal	1dec <__mulsi3>
    1d1c:	01099993          	slli	s3,s3,0x10
    1d20:	010c5793          	srli	a5,s8,0x10
    1d24:	0137e7b3          	or	a5,a5,s3
    1d28:	014419b3          	sll	s3,s0,s4
    1d2c:	00a7fa63          	bleu	a0,a5,1d40 <__umoddi3+0x514>
    1d30:	012787b3          	add	a5,a5,s2
    1d34:	0127e663          	bltu	a5,s2,1d40 <__umoddi3+0x514>
    1d38:	00a7f463          	bleu	a0,a5,1d40 <__umoddi3+0x514>
    1d3c:	012787b3          	add	a5,a5,s2
    1d40:	40a78b33          	sub	s6,a5,a0
    1d44:	000a8593          	mv	a1,s5
    1d48:	000b0513          	mv	a0,s6
    1d4c:	114000ef          	jal	1e60 <__umodsi3>
    1d50:	00050413          	mv	s0,a0
    1d54:	000a8593          	mv	a1,s5
    1d58:	000b0513          	mv	a0,s6
    1d5c:	0bc000ef          	jal	1e18 <__udivsi3>
    1d60:	00050593          	mv	a1,a0
    1d64:	000b8513          	mv	a0,s7
    1d68:	084000ef          	jal	1dec <__mulsi3>
    1d6c:	010c1793          	slli	a5,s8,0x10
    1d70:	01041413          	slli	s0,s0,0x10
    1d74:	0107d793          	srli	a5,a5,0x10
    1d78:	0087e7b3          	or	a5,a5,s0
    1d7c:	00a7fa63          	bleu	a0,a5,1d90 <__umoddi3+0x564>
    1d80:	012787b3          	add	a5,a5,s2
    1d84:	0127e663          	bltu	a5,s2,1d90 <__umoddi3+0x564>
    1d88:	00a7f463          	bleu	a0,a5,1d90 <__umoddi3+0x564>
    1d8c:	012787b3          	add	a5,a5,s2
    1d90:	40a784b3          	sub	s1,a5,a0
    1d94:	000a8b13          	mv	s6,s5
    1d98:	d01ff06f          	j	1a98 <__umoddi3+0x26c>
    1d9c:	412607b3          	sub	a5,a2,s2
    1da0:	41358733          	sub	a4,a1,s3
    1da4:	00f63633          	sltu	a2,a2,a5
    1da8:	40c70633          	sub	a2,a4,a2
    1dac:	40c48733          	sub	a4,s1,a2
    1db0:	f05ff06f          	j	1cb4 <__umoddi3+0x488>
    1db4:	e4a6f8e3          	bleu	a0,a3,1c04 <__umoddi3+0x3d8>
    1db8:	ffea8a93          	addi	s5,s5,-2
    1dbc:	013686b3          	add	a3,a3,s3
    1dc0:	e49ff06f          	j	1c08 <__umoddi3+0x3dc>
    1dc4:	dea7f4e3          	bleu	a0,a5,1bac <__umoddi3+0x380>
    1dc8:	ffed0d13          	addi	s10,s10,-2
    1dcc:	013787b3          	add	a5,a5,s3
    1dd0:	de1ff06f          	j	1bb0 <__umoddi3+0x384>
    1dd4:	012787b3          	add	a5,a5,s2
    1dd8:	b51ff06f          	j	1928 <__umoddi3+0xfc>
    1ddc:	fcc460e3          	bltu	s0,a2,1d9c <__umoddi3+0x570>
    1de0:	00060793          	mv	a5,a2
    1de4:	00000713          	li	a4,0
    1de8:	ecdff06f          	j	1cb4 <__umoddi3+0x488>

00001dec <__mulsi3>:
    1dec:	00050613          	mv	a2,a0
    1df0:	00000513          	li	a0,0
    1df4:	0015f693          	andi	a3,a1,1
    1df8:	00068463          	beqz	a3,1e00 <__mulsi3+0x14>
    1dfc:	00c50533          	add	a0,a0,a2
    1e00:	0015d593          	srli	a1,a1,0x1
    1e04:	00161613          	slli	a2,a2,0x1
    1e08:	fe0596e3          	bnez	a1,1df4 <__mulsi3+0x8>
    1e0c:	00008067          	ret

00001e10 <__divsi3>:
    1e10:	06054063          	bltz	a0,1e70 <__umodsi3+0x10>
    1e14:	0605c663          	bltz	a1,1e80 <__umodsi3+0x20>

00001e18 <__udivsi3>:
    1e18:	00058613          	mv	a2,a1
    1e1c:	00050593          	mv	a1,a0
    1e20:	fff00513          	li	a0,-1
    1e24:	02060c63          	beqz	a2,1e5c <__udivsi3+0x44>
    1e28:	00100693          	li	a3,1
    1e2c:	00b67a63          	bleu	a1,a2,1e40 <__udivsi3+0x28>
    1e30:	00c05863          	blez	a2,1e40 <__udivsi3+0x28>
    1e34:	00161613          	slli	a2,a2,0x1
    1e38:	00169693          	slli	a3,a3,0x1
    1e3c:	feb66ae3          	bltu	a2,a1,1e30 <__udivsi3+0x18>
    1e40:	00000513          	li	a0,0
    1e44:	00c5e663          	bltu	a1,a2,1e50 <__udivsi3+0x38>
    1e48:	40c585b3          	sub	a1,a1,a2
    1e4c:	00d56533          	or	a0,a0,a3
    1e50:	0016d693          	srli	a3,a3,0x1
    1e54:	00165613          	srli	a2,a2,0x1
    1e58:	fe0696e3          	bnez	a3,1e44 <__udivsi3+0x2c>
    1e5c:	00008067          	ret

00001e60 <__umodsi3>:
    1e60:	00008293          	mv	t0,ra
    1e64:	fb5ff0ef          	jal	1e18 <__udivsi3>
    1e68:	00058513          	mv	a0,a1
    1e6c:	00028067          	jr	t0
    1e70:	40a00533          	neg	a0,a0
    1e74:	0005d863          	bgez	a1,1e84 <__umodsi3+0x24>
    1e78:	40b005b3          	neg	a1,a1
    1e7c:	f95ff06f          	j	1e10 <__divsi3>
    1e80:	40b005b3          	neg	a1,a1
    1e84:	00008293          	mv	t0,ra
    1e88:	f89ff0ef          	jal	1e10 <__divsi3>
    1e8c:	40a00533          	neg	a0,a0
    1e90:	00028067          	jr	t0

00001e94 <__modsi3>:
    1e94:	00008293          	mv	t0,ra
    1e98:	0005ca63          	bltz	a1,1eac <__modsi3+0x18>
    1e9c:	00054c63          	bltz	a0,1eb4 <__modsi3+0x20>
    1ea0:	f79ff0ef          	jal	1e18 <__udivsi3>
    1ea4:	00058513          	mv	a0,a1
    1ea8:	00028067          	jr	t0
    1eac:	40b005b3          	neg	a1,a1
    1eb0:	fe0558e3          	bgez	a0,1ea0 <__modsi3+0xc>
    1eb4:	40a00533          	neg	a0,a0
    1eb8:	f61ff0ef          	jal	1e18 <__udivsi3>
    1ebc:	40b00533          	neg	a0,a1
    1ec0:	00028067          	jr	t0

Disassembly of section .text.startup:

00001ec4 <main>:
    1ec4:	e4010113          	addi	sp,sp,-448
    1ec8:	1a812c23          	sw	s0,440(sp)
    1ecc:	00002437          	lui	s0,0x2
    1ed0:	1a912a23          	sw	s1,436(sp)
    1ed4:	3cc40493          	addi	s1,s0,972 # 23cc <input_data1>
    1ed8:	1b212823          	sw	s2,432(sp)
    1edc:	19048913          	addi	s2,s1,400
    1ee0:	1b312623          	sw	s3,428(sp)
    1ee4:	1b412423          	sw	s4,424(sp)
    1ee8:	1b512223          	sw	s5,420(sp)
    1eec:	1b612023          	sw	s6,416(sp)
    1ef0:	19712e23          	sw	s7,412(sp)
    1ef4:	1a112e23          	sw	ra,444(sp)
    1ef8:	3cc40b93          	addi	s7,s0,972
    1efc:	00010b13          	mv	s6,sp
    1f00:	00090a93          	mv	s5,s2
    1f04:	00010a13          	mv	s4,sp
    1f08:	00090993          	mv	s3,s2
    1f0c:	3cc40413          	addi	s0,s0,972
    1f10:	0009a583          	lw	a1,0(s3)
    1f14:	00042503          	lw	a0,0(s0)
    1f18:	00440413          	addi	s0,s0,4
    1f1c:	00498993          	addi	s3,s3,4
    1f20:	cf8fe0ef          	jal	418 <multiply>
    1f24:	00aa2023          	sw	a0,0(s4)
    1f28:	004a0a13          	addi	s4,s4,4
    1f2c:	ff5412e3          	bne	s0,s5,1f10 <main+0x4c>
    1f30:	00100513          	li	a0,1
    1f34:	d7dfe0ef          	jal	cb0 <setStats>
    1f38:	000b0413          	mv	s0,s6
    1f3c:	00092583          	lw	a1,0(s2)
    1f40:	0004a503          	lw	a0,0(s1)
    1f44:	00448493          	addi	s1,s1,4
    1f48:	00490913          	addi	s2,s2,4
    1f4c:	cccfe0ef          	jal	418 <multiply>
    1f50:	00a42023          	sw	a0,0(s0)
    1f54:	00440413          	addi	s0,s0,4
    1f58:	ff5492e3          	bne	s1,s5,1f3c <main+0x78>
    1f5c:	00000513          	li	a0,0
    1f60:	d51fe0ef          	jal	cb0 <setStats>
    1f64:	320b8793          	addi	a5,s7,800
    1f68:	00000513          	li	a0,0
    1f6c:	06400813          	li	a6,100
    1f70:	000b2683          	lw	a3,0(s6)
    1f74:	0007a703          	lw	a4,0(a5)
    1f78:	004b2583          	lw	a1,4(s6)
    1f7c:	0047a603          	lw	a2,4(a5)
    1f80:	04e69463          	bne	a3,a4,1fc8 <main+0x104>
    1f84:	008b0b13          	addi	s6,s6,8
    1f88:	00250513          	addi	a0,a0,2
    1f8c:	00c59863          	bne	a1,a2,1f9c <main+0xd8>
    1f90:	00878793          	addi	a5,a5,8
    1f94:	fd051ee3          	bne	a0,a6,1f70 <main+0xac>
    1f98:	00000513          	li	a0,0
    1f9c:	1bc12083          	lw	ra,444(sp)
    1fa0:	1b812403          	lw	s0,440(sp)
    1fa4:	1b412483          	lw	s1,436(sp)
    1fa8:	1b012903          	lw	s2,432(sp)
    1fac:	1ac12983          	lw	s3,428(sp)
    1fb0:	1a812a03          	lw	s4,424(sp)
    1fb4:	1a412a83          	lw	s5,420(sp)
    1fb8:	1a012b03          	lw	s6,416(sp)
    1fbc:	19c12b83          	lw	s7,412(sp)
    1fc0:	1c010113          	addi	sp,sp,448
    1fc4:	00008067          	ret
    1fc8:	00150513          	addi	a0,a0,1
    1fcc:	fd1ff06f          	j	1f9c <main+0xd8>
    1fd0:	000025b7          	lui	a1,0x2
    1fd4:	04000893          	li	a7,64
    1fd8:	00100513          	li	a0,1
    1fdc:	2e058593          	addi	a1,a1,736 # 22e0 <__clz_tab+0x198>
    1fe0:	01700613          	li	a2,23
    1fe4:	00000073          	ecall
    1fe8:	fff00513          	li	a0,-1
    1fec:	00008067          	ret

Disassembly of section .data:

000023cc <input_data1>:
    23cc:	0029                	0x29
    23ce:	0000                	unimp
    23d0:	01c6                	slli	gp,gp,0x11
    23d2:	0000                	unimp
    23d4:	0341                	addi	t1,t1,16
    23d6:	0000                	unimp
    23d8:	0000014f          	fnmadd.s	ft2,ft0,ft0,ft0,rne
    23dc:	0234                	addi	a3,sp,264
    23de:	0000                	unimp
    23e0:	0001                	nop
    23e2:	0000                	unimp
    23e4:	000000bb          	0xbb
    23e8:	03dd                	addi	t2,t2,23
    23ea:	0000                	unimp
    23ec:	02ed                	addi	t0,t0,27
    23ee:	0000                	unimp
    23f0:	016d                	addi	sp,sp,27
    23f2:	0000                	unimp
    23f4:	015e                	slli	sp,sp,0x17
    23f6:	0000                	unimp
    23f8:	023c                	addi	a5,sp,264
    23fa:	0000                	unimp
    23fc:	0084                	addi	s1,sp,64
    23fe:	0000                	unimp
    2400:	0040                	addi	s0,sp,4
    2402:	0000                	unimp
    2404:	03b5                	addi	t2,t2,13
    2406:	0000                	unimp
    2408:	0099                	addi	ra,ra,6
    240a:	0000                	unimp
    240c:	0248                	addi	a0,sp,260
    240e:	0000                	unimp
    2410:	00d8                	addi	a4,sp,68
    2412:	0000                	unimp
    2414:	0325                	addi	t1,t1,9
    2416:	0000                	unimp
    2418:	008c                	addi	a1,sp,64
    241a:	0000                	unimp
    241c:	026d                	addi	tp,tp,27
    241e:	0000                	unimp
    2420:	00d2                	slli	ra,ra,0x14
    2422:	0000                	unimp
    2424:	0006                	0x6
    2426:	0000                	unimp
    2428:	023c                	addi	a5,sp,264
    242a:	0000                	unimp
    242c:	000003a3          	sb	zero,7(zero)
    2430:	00000153          	fadd.s	ft2,ft0,ft0,rne
    2434:	037a                	slli	t1,t1,0x1e
    2436:	0000                	unimp
    2438:	0251                	addi	tp,tp,20
    243a:	0000                	unimp
    243c:	0188                	addi	a0,sp,192
    243e:	0000                	unimp
    2440:	0382                	slli	t2,t2,0x0
    2442:	0000                	unimp
    2444:	02b6                	slli	t0,t0,0xd
    2446:	0000                	unimp
    2448:	00e4                	addi	s1,sp,76
    244a:	0000                	unimp
    244c:	03c1                	addi	t2,t2,16
    244e:	0000                	unimp
    2450:	000c                	addi	a1,sp,0
    2452:	0000                	unimp
    2454:	006e                	0x6e
    2456:	0000                	unimp
    2458:	00000373          	0x373
    245c:	0074                	addi	a3,sp,12
    245e:	0000                	unimp
    2460:	02ee                	slli	t0,t0,0x1b
    2462:	0000                	unimp
    2464:	0128                	addi	a0,sp,136
    2466:	0000                	unimp
    2468:	0286                	slli	t0,t0,0x1
    246a:	0000                	unimp
    246c:	01aa                	slli	gp,gp,0xa
    246e:	0000                	unimp
    2470:	01f4                	addi	a3,sp,204
    2472:	0000                	unimp
    2474:	013a                	slli	sp,sp,0xe
    2476:	0000                	unimp
    2478:	01b4                	addi	a3,sp,200
    247a:	0000                	unimp
    247c:	00000293          	li	t0,0
    2480:	02bd                	addi	t0,t0,15
    2482:	0000                	unimp
    2484:	0306                	slli	t1,t1,0x1
    2486:	0000                	unimp
    2488:	032c                	addi	a1,sp,392
    248a:	0000                	unimp
    248c:	0000013f 000003d5 	0x3d50000013f
    2494:	02a6                	slli	t0,t0,0x9
    2496:	0000                	unimp
    2498:	0096                	slli	ra,ra,0x5
    249a:	0000                	unimp
    249c:	0000036b          	0x36b
    24a0:	02b8                	addi	a4,sp,328
    24a2:	0000                	unimp
    24a4:	0178                	addi	a4,sp,140
    24a6:	0000                	unimp
    24a8:	0234                	addi	a3,sp,264
    24aa:	0000                	unimp
    24ac:	01da                	slli	gp,gp,0x16
    24ae:	0000                	unimp
    24b0:	0110                	addi	a2,sp,128
    24b2:	0000                	unimp
    24b4:	03aa                	slli	t2,t2,0xa
    24b6:	0000                	unimp
    24b8:	0102                	slli	sp,sp,0x0
    24ba:	0000                	unimp
    24bc:	0000021b          	0x21b
    24c0:	00000287          	0x287
    24c4:	0239                	addi	tp,tp,14
    24c6:	0000                	unimp
    24c8:	01fd                	addi	gp,gp,31
    24ca:	0000                	unimp
    24cc:	000000cb          	fnmsub.s	ft1,ft0,ft0,ft0,rne
    24d0:	0058                	addi	a4,sp,4
    24d2:	0000                	unimp
    24d4:	0118                	addi	a4,sp,128
    24d6:	0000                	unimp
    24d8:	000002bf 000002f7 	0x2f7000002bf
    24e0:	029d                	addi	t0,t0,7
    24e2:	0000                	unimp
    24e4:	025e                	slli	tp,tp,0x17
    24e6:	0000                	unimp
    24e8:	00000177          	0x177
    24ec:	01ff                	0x1ff
    24ee:	0000                	unimp
    24f0:	00000227          	0x227
    24f4:	0291                	addi	t0,t0,4
    24f6:	0000                	unimp
    24f8:	03a8                	addi	a0,sp,456
    24fa:	0000                	unimp
    24fc:	000000c3          	fmadd.s	ft1,ft0,ft0,ft0,rne
    2500:	0250                	addi	a2,sp,260
    2502:	0000                	unimp
    2504:	0051                	0x51
    2506:	0000                	unimp
    2508:	0239                	addi	tp,tp,14
    250a:	0000                	unimp
    250c:	0000010b          	custom0	2,0,0,0
    2510:	03b8                	addi	a4,sp,456
    2512:	0000                	unimp
    2514:	00e5                	addi	ra,ra,25
    2516:	0000                	unimp
    2518:	0320                	addi	s0,sp,392
    251a:	0000                	unimp
    251c:	0151                	addi	sp,sp,20
    251e:	0000                	unimp
    2520:	0248                	addi	a0,sp,260
    2522:	0000                	unimp
    2524:	03b0                	addi	a2,sp,456
    2526:	0000                	unimp
    2528:	00000283          	lb	t0,0(zero)
    252c:	0386                	slli	t2,t2,0x1
    252e:	0000                	unimp
    2530:	0170                	addi	a2,sp,140
    2532:	0000                	unimp
    2534:	00f1                	addi	ra,ra,28
    2536:	0000                	unimp
    2538:	01e9                	addi	gp,gp,26
    253a:	0000                	unimp
    253c:	0391                	addi	t2,t2,4
    253e:	0000                	unimp
    2540:	0148                	addi	a0,sp,132
    2542:	0000                	unimp
    2544:	033a                	slli	t1,t1,0xe
    2546:	0000                	unimp
    2548:	0139                	addi	sp,sp,14
    254a:	0000                	unimp
    254c:	03a5                	addi	t2,t2,9
    254e:	0000                	unimp
    2550:	0250                	addi	a2,sp,260
    2552:	0000                	unimp
    2554:	03d9                	addi	t2,t2,22
    2556:	0000                	unimp
    2558:	0184                	addi	s1,sp,192
    255a:	0000                	unimp

0000255c <input_data2>:
    255c:	000000c3          	fmadd.s	ft1,ft0,ft0,ft0,rne
    2560:	021f 0000 03c0      	0x3c00000021f
    2566:	0000                	unimp
    2568:	0289                	addi	t0,t0,2
    256a:	0000                	unimp
    256c:	0236                	slli	tp,tp,0xd
    256e:	0000                	unimp
    2570:	000003d3          	fadd.s	ft7,ft0,ft0,rne
    2574:	015e                	slli	sp,sp,0x17
    2576:	0000                	unimp
    2578:	03e5                	addi	t2,t2,25
    257a:	0000                	unimp
    257c:	0289                	addi	t0,t0,2
    257e:	0000                	unimp
    2580:	032e                	slli	t1,t1,0xb
    2582:	0000                	unimp
    2584:	0291                	addi	t0,t0,4
    2586:	0000                	unimp
    2588:	0000004f          	fnmadd.s	ft0,ft0,ft0,ft0,rne
    258c:	00b5                	addi	ra,ra,13
    258e:	0000                	unimp
    2590:	00d0                	addi	a2,sp,68
    2592:	0000                	unimp
    2594:	0000006f          	j	2594 <input_data2+0x38>
    2598:	03e6                	slli	t2,t2,0x19
    259a:	0000                	unimp
    259c:	0000035b          	custom2	6,0,0,0
    25a0:	0275                	addi	tp,tp,29
    25a2:	0000                	unimp
    25a4:	0041                	0x41
    25a6:	0000                	unimp
    25a8:	0000034f          	fnmadd.s	ft6,ft0,ft0,ft0,rne
    25ac:	0120                	addi	s0,sp,136
    25ae:	0000                	unimp
    25b0:	02c0                	addi	s0,sp,324
    25b2:	0000                	unimp
    25b4:	015d                	addi	sp,sp,23
    25b6:	0000                	unimp
    25b8:	03e5                	addi	t2,t2,25
    25ba:	0000                	unimp
    25bc:	008d                	addi	ra,ra,3
    25be:	0000                	unimp
    25c0:	00fd                	addi	ra,ra,31
    25c2:	0000                	unimp
    25c4:	0389                	addi	t2,t2,2
    25c6:	0000                	unimp
    25c8:	000002cb          	fnmsub.s	ft5,ft0,ft0,ft0,rne
    25cc:	0376                	slli	t1,t1,0x1d
    25ce:	0000                	unimp
    25d0:	01ae                	slli	gp,gp,0xb
    25d2:	0000                	unimp
    25d4:	0108                	addi	a0,sp,128
    25d6:	0000                	unimp
    25d8:	019f 0000 0240      	0x2400000019f
    25de:	0000                	unimp
    25e0:	021a                	slli	tp,tp,0x6
    25e2:	0000                	unimp
    25e4:	000003d3          	fadd.s	ft7,ft0,ft0,rne
    25e8:	02bc                	addi	a5,sp,328
    25ea:	0000                	unimp
    25ec:	02f9                	addi	t0,t0,30
    25ee:	0000                	unimp
    25f0:	0004                	addi	s1,sp,0
    25f2:	0000                	unimp
    25f4:	00f1                	addi	ra,ra,28
    25f6:	0000                	unimp
    25f8:	01ee                	slli	gp,gp,0x1b
    25fa:	0000                	unimp
    25fc:	01de                	slli	gp,gp,0x17
    25fe:	0000                	unimp
    2600:	0064                	addi	s1,sp,12
    2602:	0000                	unimp
    2604:	000001f3          	0x1f3
    2608:	0360                	addi	s0,sp,396
    260a:	0000                	unimp
    260c:	00000193          	li	gp,0
    2610:	02b5                	addi	t0,t0,13
    2612:	0000                	unimp
    2614:	00de                	slli	ra,ra,0x17
    2616:	0000                	unimp
    2618:	01a0                	addi	s0,sp,200
    261a:	0000                	unimp
    261c:	01bc                	addi	a5,sp,200
    261e:	0000                	unimp
    2620:	0128                	addi	a0,sp,136
    2622:	0000                	unimp
    2624:	02d1                	addi	t0,t0,20
    2626:	0000                	unimp
    2628:	011d                	addi	sp,sp,7
    262a:	0000                	unimp
    262c:	02a4                	addi	s1,sp,328
    262e:	0000                	unimp
    2630:	026c                	addi	a1,sp,268
    2632:	0000                	unimp
    2634:	013d                	addi	sp,sp,15
    2636:	0000                	unimp
    2638:	004e                	0x4e
    263a:	0000                	unimp
    263c:	00e0                	addi	s0,sp,76
    263e:	0000                	unimp
    2640:	015f 0000 03a9      	0x3a90000015f
    2646:	0000                	unimp
    2648:	021c                	addi	a5,sp,256
    264a:	0000                	unimp
    264c:	0120                	addi	s0,sp,136
    264e:	0000                	unimp
    2650:	0286                	slli	t0,t0,0x1
    2652:	0000                	unimp
    2654:	00000077          	0x77
    2658:	00a9                	addi	ra,ra,10
    265a:	0000                	unimp
    265c:	00000267          	jalr	tp,zero
    2660:	0000020f          	0x20f
    2664:	025e                	slli	tp,tp,0x17
    2666:	0000                	unimp
    2668:	0121                	addi	sp,sp,8
    266a:	0000                	unimp
    266c:	0185                	addi	gp,gp,1
    266e:	0000                	unimp
    2670:	031c                	addi	a5,sp,384
    2672:	0000                	unimp
    2674:	015f 0000 0321      	0x3210000015f
    267a:	0000                	unimp
    267c:	000001c7          	fmsub.s	ft3,ft0,ft0,ft0,rne
    2680:	02d0                	addi	a2,sp,324
    2682:	0000                	unimp
    2684:	0116                	slli	sp,sp,0x5
    2686:	0000                	unimp
    2688:	02f6                	slli	t0,t0,0x1d
    268a:	0000                	unimp
    268c:	0000016f          	jal	sp,268c <input_data2+0x130>
    2690:	02e9                	addi	t0,t0,26
    2692:	0000                	unimp
    2694:	0166                	slli	sp,sp,0x19
    2696:	0000                	unimp
    2698:	005c                	addi	a5,sp,4
    269a:	0000                	unimp
    269c:	0248                	addi	a0,sp,260
    269e:	0000                	unimp
    26a0:	03dd                	addi	t2,t2,23
    26a2:	0000                	unimp
    26a4:	003e                	0x3e
    26a6:	0000                	unimp
    26a8:	0000010f          	0x10f
    26ac:	03d9                	addi	t2,t2,22
    26ae:	0000                	unimp
    26b0:	0355                	addi	t1,t1,21
    26b2:	0000                	unimp
    26b4:	00000193          	li	gp,0
    26b8:	0314                	addi	a3,sp,384
    26ba:	0000                	unimp
    26bc:	015a                	slli	sp,sp,0x16
    26be:	0000                	unimp
    26c0:	00000213          	li	tp,0
    26c4:	0205                	addi	tp,tp,1
    26c6:	0000                	unimp
    26c8:	00de                	slli	ra,ra,0x17
    26ca:	0000                	unimp
    26cc:	0000022f          	0x22f
    26d0:	01cd                	addi	gp,gp,19
    26d2:	0000                	unimp
    26d4:	038c                	addi	a1,sp,448
    26d6:	0000                	unimp
    26d8:	00f1                	addi	ra,ra,28
    26da:	0000                	unimp
    26dc:	00000307          	0x307
    26e0:	0166                	slli	sp,sp,0x19
    26e2:	0000                	unimp
    26e4:	00ff                	0xff
    26e6:	0000                	unimp
    26e8:	014c                	addi	a1,sp,132
    26ea:	0000                	unimp

000026ec <verify_data>:
    26ec:	00001f3b          	0x1f3b
    26f0:	c2fa                	sw	t5,68(sp)
    26f2:	33c00003          	lb	zero,828(zero)
    26f6:	000c                	addi	a1,sp,0
    26f8:	00035147          	fmsub.s	ft2,ft6,ft0,ft0,unknown
    26fc:	def8                	sw	a4,124(a3)
    26fe:	0004                	addi	s1,sp,0
    2700:	000003d3          	fadd.s	ft7,ft0,ft0,rne
    2704:	ffaa                	fsw	fa0,252(sp)
    2706:	0000                	unimp
    2708:	0bb1                	addi	s7,s7,12
    270a:	6ad5000f          	0x6ad5000f
    270e:	88960007          	0x88960007
    2712:	0004                	addi	s1,sp,0
    2714:	823e                	mv	tp,a5
    2716:	b0840003          	lb	zero,-1272(s0)
    271a:	0000                	unimp
    271c:	5d54                	lw	a3,60(a0)
    271e:	0000                	unimp
    2720:	3400                	fld	fs0,40(s0)
    2722:	0000                	unimp
    2724:	00019b7b          	0x19b7b
    2728:	5476                	lw	s0,124(sp)
    272a:	0002                	0x2
    272c:	a798                	fsd	fa4,8(a5)
    272e:	12b80007          	0x12b80007
    2732:	0002                	0x2
    2734:	cc65                	beqz	s0,282c <verify_data+0x140>
    2736:	0000                	unimp
    2738:	cf34                	sw	a3,88(a4)
    273a:	0001                	nop
    273c:	baa0                	fsd	fs0,112(a3)
    273e:	0002                	0x2
    2740:	4180                	lw	s0,0(a1)
    2742:	0002                	0x2
    2744:	082e                	slli	a6,a6,0xb
    2746:	0000                	unimp
    2748:	b3ac                	fsd	fa1,96(a5)
    274a:	0008                	addi	a0,sp,0
    274c:	000200c7          	fmsub.s	ft1,ft4,ft0,ft0,rne
    2750:	00014f07          	0x14f07
    2754:	4a4a                	lw	s4,144(sp)
    2756:	000c                	addi	a1,sp,0
    2758:	0006783b          	0x6783b
    275c:	4cb0                	lw	a2,88(s1)
    275e:	0005                	0x5
    2760:	e45c                	fsw	fa5,12(s0)
    2762:	0005                	0x5
    2764:	cbb0                	sw	a2,80(a5)
    2766:	0002                	0x2
    2768:	719c                	flw	fa5,32(a1)
    276a:	0001                	nop
    276c:	7240                	flw	fs0,36(a2)
    276e:	0008                	addi	a0,sp,0
    2770:	1938                	addi	a4,sp,184
    2772:	0000                	unimp
    2774:	a4aa                	fsd	fa0,72(sp)
    2776:	0001                	nop
    2778:	6e74                	flw	fa3,92(a2)
    277a:	0009                	0x9
    277c:	58d4                	lw	a3,52(s1)
    277e:	0001                	nop
    2780:	0bb8                	addi	a4,sp,472
    2782:	0000                	unimp
    2784:	16a8                	addi	a0,sp,872
    2786:	0001                	nop
    2788:	de94                	sw	a3,56(a3)
    278a:	0004                	addi	s1,sp,0
    278c:	1b6c                	addi	a1,sp,444
    278e:	c3500003          	lb	zero,-971(zero)
    2792:	0000                	unimp
    2794:	640e                	flw	fs0,192(sp)
    2796:	0002                	0x2
    2798:	bf80                	fsd	fs0,56(a5)
    279a:	0005                	0x5
    279c:	0d69                	addi	s10,s10,26
    279e:	0004                	addi	s1,sp,0
    27a0:	69a1                	lui	s3,0x8
    27a2:	9f340007          	0x9f340007
    27a6:	0002                	0x2
    27a8:	2780                	fld	fs0,8(a5)
    27aa:	0005                	0x5
    27ac:	2944                	fld	fs1,144(a0)
    27ae:	0002                	0x2
    27b0:	6e48                	flw	fa0,28(a2)
    27b2:	0004                	addi	s1,sp,0
    27b4:	7586                	flw	fa1,96(sp)
    27b6:	a6fe0007          	0xa6fe0007
    27ba:	0000                	unimp
    27bc:	068c                	addi	a1,sp,832
    27be:	0009                	0x9
    27c0:	95a0                	0x95a0
    27c2:	0006                	0x6
    27c4:	d198                	sw	a4,32(a1)
    27c6:	0001                	nop
    27c8:	abd8                	fsd	fa4,144(a5)
    27ca:	0000                	unimp
    27cc:	9ec0                	0x9ec0
    27ce:	0001                	nop
    27d0:	74f0                	flw	fa2,108(s1)
    27d2:	0001                	nop
    27d4:	693a                	flw	fs2,140(sp)
    27d6:	000d                	0xd
    27d8:	2038                	fld	fa4,64(s0)
    27da:	0002                	0x2
    27dc:	5e60                	lw	s0,124(a2)
    27de:	0002                	0x2
    27e0:	60aa                	flw	ft1,136(sp)
    27e2:	0006                	0x6
    27e4:	087f                	0x87f
    27e6:	0001                	nop
    27e8:	5005                	0x5005
    27ea:	0001                	nop
    27ec:	e7ad                	bnez	a5,2856 <verify_data+0x16a>
    27ee:	0001                	nop
    27f0:	b528                	fsd	fa0,104(a0)
    27f2:	0000                	unimp
    27f4:	96d0                	0x96d0
    27f6:	0002                	0x2
    27f8:	199f 0003 8153      	0x81530003199f
    27fe:	0004                	addi	s1,sp,0
    2800:	202c                	fld	fa1,64(s0)
    2802:	0008                	addi	a0,sp,0
    2804:	3ee2                	fld	ft9,56(sp)
    2806:	95570003          	lb	zero,-1707(a4)
    280a:	0004                	addi	s1,sp,0
    280c:	8c39                	xor	s0,s0,a4
    280e:	0db00003          	lb	zero,219(zero)
    2812:	0006                	0x6
    2814:	c976                	sw	t4,144(sp)
    2816:	0002                	0x2
    2818:	d370                	sw	a2,100(a4)
    281a:	000a                	0xa
    281c:	178d                	addi	a5,a5,-29
    281e:	0001                	nop
    2820:	bad0                	fsd	fa2,176(a3)
    2822:	0006                	0x6
    2824:	7146                	flw	ft2,112(sp)
    2826:	0000                	unimp
    2828:	cc7c                	sw	a5,92(s0)
    282a:	0000                	unimp
    282c:	6118                	flw	fa4,0(a0)
    282e:	0002                	0x2
    2830:	5dd8                	lw	a4,60(a1)
    2832:	000e                	0xe
    2834:	3776                	fld	fa4,376(sp)
    2836:	0000                	unimp
    2838:	4ee0                	lw	s0,92(a3)
    283a:	10a90003          	lb	zero,266(s2)
    283e:	0005                	0x5
    2840:	99e8                	0x99e8
    2842:	ce100007          	0xce100007
    2846:	0005                	0x5
    2848:	bb3c                	fsd	fa5,112(a4)
    284a:	c31c0007          	0xc31c0007
    284e:	0004                	addi	s1,sp,0
    2850:	fb50                	fsw	fa2,52(a4)
    2852:	0002                	0x2
    2854:	e6b5                	bnez	a3,28c0 <counters+0x40>
    2856:	0001                	nop
    2858:	a80e                	fsd	ft3,16(sp)
    285a:	0001                	nop
    285c:	c99f 0007 4ea8      	0x4ea80007c99f
    2862:	0002                	0x2
    2864:	71b8                	flw	fa4,96(a1)
    2866:	26a9000b          	custom0	0,18,10,19
    286a:	0001                	nop
    286c:	000b0883          	lb	a7,0(s6)
    2870:	3be0                	fld	fs0,240(a5)
    2872:	d5270003          	lb	zero,-686(a4)
    2876:	f7300003          	lb	zero,-141(zero)
    287a:	0001                	nop
